:020000040000fa
:080000000002040000000000f2
:020000040000fa
:10000800b0020000b0020000b0020000b002000020
:10001800b0020000b0020000b0020000b002000010
:10002800b0020000b0020000b0020000a84f0000bb
:10003800b0020000b0020000b0020000b0020000f0
:10004800b0020000b0020000b00200000636000056
:1000580082360000b0020000b0020000b0020000ca
:10006800b0020000b0020000b0020000b0020000c0
:10007800b0020000b0020000b0020000b0020000b0
:10008800b0020000b0020000b0020000b0020000a0
:10009800b0020000b0020000de3600005a3700004f
:1000a800b0020000b0020000b0020000b002000080
:1000b800b0020000b0020000b0020000b002000070
:1000c800b0020000b0020000b0020000b002000060
:1000d800b0020000b0020000b0020000b002000050
:1000e800b0020000b0020000b0020000b002000040
:1000f800b0020000b0020000b0020000b002000030
:10010800b0020000b0020000b0020000b00200001f
:10011800b0020000b0020000b0020000b00200000f
:10012800b0020000b0020000b0020000b0020000ff
:10013800b0020000b0020000b0020000b0020000ef
:10014800b0020000b0020000b0020000b0020000df
:10015800b0020000b0020000b0020000b0020000cf
:10016800b0020000b0020000b0020000b0020000bf
:10017800b0020000b0020000b0020000b0020000af
:10018800b0020000b0020000b0020000b00200009f
:10019800b0020000b0020000b0020000b00200008f
:1001a800b0020000b0020000b0020000b00200007f
:1001b800b0020000b0020000b0020000b00200006f
:1001c800b0020000b0020000b0020000b00200005f
:1001d800b0020000b0020000b0020000b00200004f
:1001e800b0020000b0020000b0020000b00200003f
:0801f800b0020000b00200009b
:020000040000fa
:10020800b0020000b0020000b0020000b00200001e
:10021800b0020000b0020000b0020000b00200000e
:10022800b0020000b0020000b0020000a84f0000b9
:10023800b0020000b0020000b0020000b0020000ee
:10024800b0020000b0020000b00200000636000054
:1002580082360000b0020000b0020000b0020000c8
:10026800b0020000b0020000b0020000b0020000be
:10027800b0020000b0020000b0020000b0020000ae
:10028800b0020000b0020000b0020000b00200009e
:10029800b0020000b0020000de3600005a3700004d
:1002a800b0020000b0020000b0020000b00200007e
:1002b800b0020000b0020000b0020000b00200006e
:1002c800b0020000b0020000b0020000b00200005e
:1002d800b0020000b0020000b0020000b00200004e
:1002e800b0020000b0020000b0020000b00200003e
:1002f800b0020000b0020000b0020000b00200002e
:10030800b0020000b0020000b0020000b00200001d
:10031800b0020000b0020000b0020000b00200000d
:10032800b0020000b0020000b0020000b0020000fd
:10033800b0020000b0020000b0020000b0020000ed
:10034800b0020000b0020000b0020000b0020000dd
:10035800b0020000b0020000b0020000b0020000cd
:10036800b0020000b0020000b0020000b0020000bd
:10037800b0020000b0020000b0020000b0020000ad
:10038800b0020000b0020000b0020000b00200009d
:10039800b0020000b0020000b0020000b00200008d
:1003a800b0020000b0020000b0020000b00200007d
:1003b800b0020000b0020000b0020000b00200006d
:1003c800b0020000b0020000b0020000b00200005d
:1003d800b0020000b0020000b0020000b00200004d
:1003e800b0020000b0020000b0020000b00200003d
:0803f800b0020000b002000099
:020000040000fa
:10040000cf0e22000e7f24000e01880000000000a5
:100410000c00070040fd240001002000110007002f
:10042000000020000000e000020032000000020096
:10043000000000003e540200000000000040da000e
:100440000000fe004440a900006420000000e0001d
:100450000300320000002000a00188004440a800f2
:100460000000060091018800800078000000eb0089
:1004700015003700e280400032a0b4009101ba00bc
:10048000e280400032a0b4009102ba00e280400055
:1004900032a0b4000002eb00472bde00f507b200eb
:1004a000602ce10004003a000059eb008301e900f0
:1004b000fdff3e00040037006128e100010032002a
:1004c0000082eb00040007001101ba000200e00006
:1004d000e8ff3a00000006003159ba008301e90044
:1004e0000c0032002159ba008301e90008003200f3
:1004f0000400e00003003a00e280400032a0b400b3
:10050000f5ff370011d9ba008301e900faff3a007c
:100510008100e800e180400032a0b4000000060045
:100520001a20040000000000d64c04000000000067
:10053000bc4c0400000000004c3d04000000000022
:10054000bc2a0400000000007a4e040000000000f5
:100550009647040000000000dc5204000000000088
:100560000040da000000fe0003f0a200889fbe00f9
:100570008a9fbe008c1f7800050107000c01330024
:100580006450e1004f0032006420e100520032006c
:1005900003826c0007003b000905d0000306d00071
:1005a000820f54000c065d00020039000200320088
:1005b00089017800030678008582550004003d001b
:1005c0000003fd008103fd008502ea008b854200e7
:1005d000840f720002003b0060001000e0801800f1
:1005e0006011b8000005eb007a28e1000a0039002c
:1005f00006007800c75ddd00f707b2008780750050
:100600002d003700828171000a01780061056000c9
:100610008180d1000080d3008502e900f9ff3b0012
:10062000060440008784480002003b006004140078
:10063000e0841c000988a300070032008a81710051
:1006400082817100610164008904d1000884d300b3
:100650008b05e800170037000978a30013003a0063
:100660000b00e000130034008b05e900080444008f
:1006700089844c000a4474000978a3000d003a00f4
:100680000b00e000070034008b05e900080444007b
:1006900089844c0001003a000b0020000978a30077
:1006a000f7ff32000001eb00020037008281710089
:1006b0000a0178007b0007000cf0a70001f0a00001
:1006c000c40037006420e10002003a00838f6c0010
:1006d000c40033000801be000200be00bd003700a8
:1006e000889fbe008a9fbe008c1f7800a80007006c
:1006f000af00330003866c006450e1002e0032002e
:100700006420e100330032006150e1002f0032002c
:100710006120e1003100320085855500eb07b00013
:1007200009002000080420000500370008044400e8
:1007300089844c000a0031000603430087834b0084
:100740000001530081815b00f8ff33000203be000b
:100750000800a0000804440089844c00f6ff39001a
:10076000c639dd0083017300010032001300200050
:100770008904d1000884d3000998a3000500320041
:100780000800a7000300a0008904d1000884d3005a
:100790008b05e8008904d1000884d3000001eb0038
:1007a0000281d2003f00070001f0a1000cf0a70079
:1007b00001f0a000870037006420e10089003200ca
:1007c0000801be000200be00f7ff37006120e10013
:1007d000840032006000b800f3ff37000000200002
:1007e00001f82700f0ff3700839f68000100e00058
:1007f00002003d0060001000e08018000300e000ef
:1008000002003d0060011100e0811900bb000700fb
:100810004f00e00002003b0060001000e080180084
:10082000000006000001be00440007000470a7009d
:1008300003f0a10003f8a30013003a006509b1001a
:1008400010003200090035006928e100020035007f
:1008500001002800000005000000400081804800e1
:100860008502e900fcff3a0000000600f88f420014
:10087000050035008100d1000080d3008502e8002a
:10088000fcff3a00000006008000eb0000000500bd
:100890004f89de0082017800ab0037006011b8009c
:1008a000b900370081002000618055000b003d0039
:1008b0000b00200061fe2f000100e1001d0034004c
:1008c00082817100610164008904d1000884d30031
:1008d0000000e800faff3a007100200061006400a7
:1008e000030070000200600009003200610444004f
:1008f000e0844c000988a500050032008b05e80063
:100900006808e10002003a008904d1000884d3009d
:10091000f20f20000258e10005003d00c75ddd0038
:10092000f907b20089807500080078000000060011
:100930000bf827008b00780000000500c70ade00d6
:10094000f107b200f50fb20008003200e1cf42001b
:10095000020032000170a00024000500810f700029
:10096000010032000408050044000500810f7000fa
:1009700002003a00140005008502e9000000400072
:1009800081c04800fcff3b000170a000240005006e
:100990000004be00e9ff07000003be000405be001e
:1009a0000200be00e5ff0700844f7500000006004e
:1009b0000200be006450e100050036006420e10042
:1009c000020036000968a30001003a000800be00da
:1009d0000160a0004f0678004f05be004f04be0026
:1009e00000000600f0ff2f00f1ff2700f9ff37009d
:1009f000811f78000100e00002003d00600010004f
:100a0000e08018000300e00002003d0060011100da
:100a1000e0811900490007004f00e00002003b00a0
:100a200060001000e080180000000600889fbe00f3
:100a30008a9fbe008c1f7800d5ff0700dcff3300c3
:100a400003866c006450e100240032006420e10061
:100a5000270032006150e100220032006120e100f5
:100a6000210032008b854200eb07b1000134b80051
:100a7000003ab8000804420089844a00013ab800ec
:100a80000030b8008880400009014a0004003300ab
:100a90000000400081804800020149008b05e90008
:100aa000c909dd008301700001003200130020003d
:100ab000c814de004814dd004709de001200b20051
:100ac000c808de000884700076ff070001f0a1006e
:100ad0000cf0a70001f0a000beff37006120e1008c
:100ae000c0ff32000801be000200be00f7ff370061
:100af0006150e100fcff3a00baff37006022b80005
:100b0000060220000000d0008180d2000482d200c2
:100b10008582d2000000a0000202520083825a00a7
:100b2000030031000202420083824a000000a1005b
:100b30000603e900f3ff3a0000000600efff07009c
:100b40000400be0000000600881f7800030478003f
:100b50000300e00007003d0060001000e080180086
:100b600060011900e081190002003b0001f02d0036
:100b7000030037000400070008f0a70001f0a00000
:100b80004f04780000000600889fbe008a9fbe00c8
:100b9000008270000402710004827100260032009d
:100ba0000004be000200be006011b8006b09200006
:100bb000950220000182cf000a0039000541b100f2
:100bc0000082cf00070039000541b1000982cf0043
:100bd000040039000541b1000882cf00010039004e
:100be0000541b10005425200120032000a003b00ec
:100bf00082817100610164008100d1000080d30016
:100c00008984d3000884d3008b05e8000442e800ff
:100c1000f7ff3a00070037000804440089844c00bd
:100c200000004800818048008b05e9000442e9008b
:100c3000f9ff3a001bff07004f05be004f04be003e
:100c4000000006008001780002003700b1597800ea
:100c5000040178000202e900e00f5100fbff3a00b6
:100c600000000600800178000200370081597800fa
:100c7000040178000202e900e00f5100fbff3a0096
:100c8000000006000100200000078900110789000c
:100c900010c0b300e10d220080487800000006007b
:100ca000e00d22008040eb0090cf100002003a00df
:100cb00010002000f3ff0700d2e62400631c24008c
:100cc000000781001107810008010700920323003b
:100cd00003002000000041008180490000078900d6
:100ce000110789000100780000f0a1000000060053
:100cf000800078000041eb00b14f1100fdff3a0089
:100d00000080ea00008040000000060080017800ba
:100d1000060037000201e90011427800845978008a
:100d2000e04f5200060032008100e800e00f510061
:100d3000f8ff3a00020037008059eb00010178000b
:100d40008200e900e00f5100fbff3a0000000600be
:100d50000c00fa00889fbe0000047800f0ff270016
:100d6000d0bf9f008004eb0099bf9f0088bf9f0009
:100d7000a8bf9f00200c2000b0bf9f0078815700c3
:100d8000cfb0970070805700230207000fb897007c
:100d9000094878008fb89700088050004f04be00c3
:100da0000080fa00000006000000fa00e881570009
:100db0004fb99700020007000080fa00000006000b
:100dc0000c00fa0000027800820278000000eb00bc
:100dd000e18f50000d0036008100e900f1bf9f0057
:100de000b0bf9f00a4bf9f00c4bf9f00200c200085
:100df000d0bf9f0003017800850078006c80570009
:100e000005020700afb897008048eb000080fa00a9
:100e100000000600889fbe0001047800b800900022
:100e2000628160008084eb003c0032008101780028
:100e30000320b2001801900002003a00e00f5100b8
:100e400036003a000190a000310498008004780038
:100e5000f90fb200e00f510002003a0028009000a4
:100e6000000c7800ea8f540006003a000100780078
:100e70000008b20003003a0088007800d00020008b
:100e8000e4ff070018009000d8009000810f500088
:100e90000b0032000000e8001004980018007800f1
:100ea00009487800000ce80010c0b300410e220091
:100eb00080487800ea8f540018003a000500370097
:100ec0008800780009407800170007008004780047
:100ed00012003700380090000010b2000f003200fe
:100ee00018019000a80090004800900050000700f2
:100ef00098009000810f50000400320038009000ec
:100f00000003b300300498008084eb000000eb0085
:100f10001004980028009000000c78000900780068
:100f20004f04be00000006000200fa00889fbe00c9
:100f3000a0ff9f0001047800380090008000780036
:100f40000104b20033003a00e200600005003a00fc
:100f50000003b30030049800110498000080eb00f7
:100f60002e003700d8049000e08f540006003a00ad
:100f700012002000e6805700480090002c00070077
:100f80001904980023003700a8009000e08f50005b
:100f900008003a00710e220021049800010c78002c
:100fa0002100200051049800110498000030a00096
:100fb0003004980018019000a800900048009000ac
:100fc0001b000700280090008080eb0011049800af
:100fd000aff8970001487800000ce8002ff8970060
:100fe000ea4f50000b003a00380090000010b200a9
:100ff0000800320018019000a800900048009000fe
:101000000b0007000000eb0010049800a8009000ff
:10101000010c7800aff897000100fb004f04be0000
:101020000080fa000000060000c0da0000000600a0
:101030000a00fa00e20f500021003e005007810034
:10104000e10f5000060032008523200044232000d9
:101050002323200000232000e08f520004003a00e8
:10106000852220004422200023222000002220008c
:10107000060028009003630002003a00870a780007
:1010800010087300004020001300600001003a00c7
:1010900013a0a00002007800060037009302780039
:1010a0000510b200fdff3200b102fb00050a780016
:1010b0000000e900e00f5000f8ff3a000800370098
:1010c00033002000b3bf9f00c0bf9f00d1bf9f006f
:1010d000e2bf9f006a805700d3ff07006fb99700f7
:1010e000020078000080fa0000000600020ab90041
:1010f000001bb9000200b8008100420081004300db
:1011000000000600889fbe008a9fbe003004be001b
:101110002005be000404440085844c0006054d00f3
:1011200087854d000898be000a90be000440e1008b
:1011300005c8e10006d0e10007d8e1000200310057
:10114000680040001008e8004f05be004f04be00d4
:1011500000000600889fbe008a9fbe008c1f78009a
:10116000000678003c04be002c05be0004005400bc
:1011700085805c0006015d0087815d00009ebe00e9
:10118000029ebe00100020000440e10005c8e100fe
:1011900006d0e10007d8e100010039000000eb00b3
:1011a0001c0e10004f0678004f05be004f04be0015
:1011b000000006001200fa00889fbe008a9fbe0051
:1011c0008c9fbe000205be000004be00e4b79f0075
:1011d000f5b79f0086bf9f0097bf9f000000eb0000
:1011e000d0b79f00c0b79f00b0b79f00a0b79f00c7
:1011f00090b79f0000067800fd032000dfb1970044
:101200004fb0970003814100bfb09700e08f5100bd
:1012100004003d00290007007e805700b9ff070049
:1012200003003700250007007e805700c9ff070034
:10123000dfb09700e08f5000070035001400200059
:10124000050020006033b800080472008984720031
:101250000a0573008b8573000c06e8008d0f56009d
:10126000e6ff3400e08f500006003d006fb29700ab
:10127000ffb297000fbb97009fbb97007e8057007f
:10128000a0ff07005fa89700e00f500004003a009d
:101290001fb49700afb497003fb59700cfb5970044
:1012a0000800be000a01be004f06be004f05be008a
:1012b0004f04be000080fa0000000600cf01de00ef
:1012c00002817100b2b79f004f09de0000004000ac
:1012d00000007100a0b79f000fb097004f01de0023
:1012e000818040008100710091b79f007faa970024
:1012f000cf20de00000040000080700080b79f001b
:101300000800be000a01be004f18de0004024200c1
:1013100000027200f4af9f000804440089844c006e
:101320000a054d008b854d004fb29700dfb2970044
:101330006fb39700ffb3970000000600881f780086
:1013400018002000881f78009aff07008f87e900a7
:101350004f04780000000600801feb0095ff070097
:101360008f87e90000000600889fbe008a9fbe00ac
:101370008c1f7800e00f5000e08f5800e00f5900fc
:10138000e08f59000f003d006044b8006055b80080
:101390000000540081805c0002015d0083815d00db
:1013a0001c0020000820e10009a8e1000ab0e100cb
:1013b0000bb8e1000d003d00190007000006eb002e
:1013c0000a0037000006eb00e00f5200e08f5a00e1
:1013d000e00f5b00e08f5b0004003d006044b8005c
:1013e0006055b8000e0007001c002000d3ff070066
:1013f000e00f5600060032006022b8006033b800eb
:101400000000520081805a0002015b0083815b0072
:101410004f0678004f05be004f04be0000000600d6
:101420000402540085825c0006035d0087835d0032
:1014300000000600889fbe008a9fbe008c1f7800b7
:10144000e00f5000e08f5800e00f5900e08f590086
:101450000d003d006044b8006055b8000000540025
:1014600081805c0002015d0083815d001c00200022
:101470000820e10009a8e1000ab0e1000bb8e10092
:101480000d003d00080037000006eb00e00f5200a1
:10149000e08f5a00e00f5b00e08f5b0006003d002c
:1014a0006044b8006055b8000402540085825c00b6
:1014b00006035d0087835d00a7ff0700e00f56006d
:1014c000060032006022b8006033b800000052000d
:1014d00081805a0002015b0083815b004f06780027
:1014e0004f05be004f04be0000000600889fbe00ee
:1014f0008a9fbe008c1f78000006eb00e00f5000b2
:10150000e08f5800e00f5900e08f590007003d00c0
:101510006044b8006055b8000000540081805c0051
:1015200002015d0083815d001c002000e00f52007d
:10153000e08f5a00e00f5b00e08f5b0007003d008a
:101540006044b8006055b8000402540085825c0015
:1015500006035d0087835d000c00a2000c000700fd
:10156000e00f5600060032006022b8006033b80079
:101570000000520081805a0002015b0083815b0001
:101580004f0678004f05be004f04be000000060065
:10159000889fbe008a9fbe008c9fbe000404b800d6
:1015a0000506b8008904460060854e000606b800ae
:1015b0000a054600e0854e000706b8008b05460088
:1015c000040eb800890446000a854e00e0854d00ef
:1015d000050eb8000a0546008b854e00060eb800c1
:1015e0008b0546000416b8000a0546008b854e00a0
:1015f0000516b8008b054600041eb8008b05460092
:101600000800be000a01be004f06be004f05be0026
:101610004f04be00000006000f04b000889fbe000b
:101620008a9fbe008c9fbe008e1f7800c0b79f00af
:10163000d1af9f00a2b79f000000eb00c0033700ae
:10164000dfa897008100e800d1af9f0052c2b3002d
:1016500082cf520006003a000007eb0006c3b30039
:1016600003c2b300b1c2b3005fa8970014003700f3
:10167000cfb19700330190000204b20005003200a0
:10168000030278009401780085497800030ae80095
:10169000070037000501fb00cfb09700020078007b
:1016a000dcfd070000017800e10f4100a5033200d6
:1016b000bfb297008502e800b5b79f00a1033700cd
:1016c00090427800d7c2b30087cf52000b0032009f
:1016d0000001e80087cf520005003c0083cf520094
:1016e0000900320081cf52000e003a000800370096
:1016f00086cf52000b003a00070037000e30a000e2
:101700000000e800eeff37000e00a00003003700e5
:101710000e10a000010037000e20a000020078008b
:10172000e7ff3700d0af9f00e20167000100320001
:101730000e00a100e8016700010032000e20a100a8
:101740008501fb000303b100e98f51000d003e004d
:10175000000020005fa997006a00b9000003b100f3
:101760009200fb0001004000d200fb000103b10029
:10177000e98f5000f8ff3600c0af9f00d2af9f0046
:101780000c0037008004eb00c9af9f00a3c2b30078
:1017900083cf520007003a002fb59700ca057800a2
:1017a000aab79f00cbaf9f005fa897000000e8009a
:1017b000d0af9f008000eb00e1af9f00e3c2b30019
:1017c0005fa9970092cf11001e003a000ee0a00022
:1017d000e4c151000201e800d2af9f00124278003c
:1017e000834f52000d003a00afb2970045037800d6
:1017f000a5b79f00e6af9f00820378008703e8004b
:1018000007017800100037006a00b9000003b1003a
:10181000020040008301e800020037006fa8970033
:10182000dfa997001301fb0001fd2f00828040001b
:10183000e98f5000f4ff3600e0af9f00030178000d
:10184000010037005fa9970032427800c4779f00fb
:10185000c8c6b300884f520023003200d2af9f00a9
:101860000f003c0035c6b300854f5200a700320080
:1018700004003c00e04f52003703320083c5b30040
:101880000f00370043c6b300834f5200c40032003c
:10189000e5c14100834f5200ba003a00c000370052
:1018a00035c7b300854f52001a00320007003c00d4
:1018b000f3c6b300834f5200110032008341e800a9
:1018c000834f5200af003a000f00370053c7b300f8
:1018d000834f5200b1003200e3c14100834f5200f8
:1018e000a8003a00090037007000670001002800d6
:1018f00001003a000101200001077700d2ff370004
:101900000e60a000a60037000e50a0000e70a000d0
:10191000a3003700afb49700c9027800a9b79f00b1
:10192000d5b79f00e08f520002003a000b0b220057
:10193000dbb79f000000eb00e0b79f005fb09700af
:10194000efb097007fb197008fb997000100370083
:101950008500e8008102780061427800e04f520083
:10196000fbff3a00d0b79f00e1b79f00f2b79f009e
:1019700083bf9f00efaa9700e08f5200050032005e
:101980006fb39700868f5200020031008503780004
:10199000e7b79f00efb297000006eb004fac97004f
:1019a000850f5400010036000506540068076700e3
:1019b0002f003a008c01780008c2b300cfb6970020
:1019c000100037003d0090000004b2000400320017
:1019d0001d00780008487800800ee80005003700f8
:1019e0008d007800000220000afd0700e10f400092
:1019f00003003200bfb497008904e800b9b79f0024
:101a00008c0178000c06e900e08f5100edff3a00f0
:101a1000170037003d0090000004b20009003200ba
:101a20009d017800080178003240780080497800f4
:101a3000830ee80002047800e04f500008003a00ee
:101a400010003700080178003200fb000204780023
:101a50008d007800effc0700e10f40000900320024
:101a60003fb097000000e800b0b79f0005003700c6
:101a70005fb49700efb497007fb597008fbd9700d4
:101a8000cfb69700090078008004e900e00f50000d
:101a9000e0ff3a00d8b79f00e9b79f00fab79f0070
:101aa0008bbf9f00e00f5700a602320011003700e5
:101ab000380090000004b2000400320018007800e2
:101ac0000d487800000ce800050037008800780019
:101ad00000022000cffc0700e10f400003003200ad
:101ae000bfb297008502e800b5b79f000e067800e8
:101af000020037000dc2b3004fb497000c07e90095
:101b0000e00f5600eaff3a008e0237002fb397002d
:101b100046047800a6b79f00cfc4de000905780010
:101b20008a0578000802be000a03be004822de00d3
:101b30004828dd0004027000c4779f00700667002b
:101b400009003200e04f520007003200e14f42002e
:101b500005003200d4779f00e8779f002100200025
:101b6000e1b79f0003003700d8779f0012002000e4
:101b7000e2b79f0053fb2f0083814700d3b79f003c
:101b80007cff370044fb2f0004824700d4b79f003e
:101b900015002000e5b79f0076ff37000e0cb3005c
:101ba0000e007800000cb2003b003a00e00f570036
:101bb00005003d002fb097004005be004004be0068
:101bc000a0b79f000f0037007000670012003200be
:101bd0002fb297004401be00a4b79f00e29f9f0070
:101be000f39f9f00140090004f80de0080a79f00ad
:101bf00090a79f006f9c9700ff9c97000fa59700f0
:101c00009fa59700d8b79f00e9b79f00fab79f003c
:101c10008bbf9f000b003700afb4970049027800dc
:101c2000a9b79f0004007800cf80de000101780092
:101c300082017800d0b79f00e1b79f00f2b79f0004
:101c400083bf9f005fb29700efb297007fb397000a
:101c50008fbb9700e00f5200e08f5a00e00f5b004f
:101c6000e08f5b0032003d003e00b3006022b80010
:101c70006033b8005fb49700efb497007fb597006a
:101c80008fbd97000804520089845a000a055b0042
:101c90008b855b0022003700e00f570005003d00f8
:101ca0002fb297004401be004400be00a4b79f00bd
:101cb0000f00370070006700120032002fb4970049
:101cc0004803be00a8b79f00e6a79f00f7a79f00a4
:101cd0008004eb0089af9f000005eb009aaf9f00e6
:101ce0006fa09700ffa097000fa997009fa99700ea
:101cf000d0b79f00e1b79f00f2b79f0083bf9f005e
:101d00000b003700afb0970041027800a1b79f00e9
:101d100004047800090020000a0020000b002000c5
:101d2000d8b79f00e9b79f00fab79f008bbf9f000d
:101d3000efac9700e08f54000d003a001a0020002d
:101d4000eaaf9f005fb09700efb097007fb19700b8
:101d50008fb99700e00f5000e08f5800e00f590056
:101d6000e08f5900020032008000eb00e1af9f00dd
:101d70000e017800020cb200b2af9f0005042000f3
:101d8000850f51003f00320003003c00e00f51007e
:101d9000080032005600370004082000bfa9970051
:101da000848f51001b003200040c2000848f5100ee
:101db0004f003a0013c0b300c3779f00e1fe21003b
:101dc000100037000200fb004300dd0000804000ef
:101dd0003002be002003be005fb49700efb497004e
:101de0007fb597008fbd97000440e10005c8e10072
:101df00006d0e10007d8e1003d0039000241e800cb
:101e0000c2779f004f719700f44f5100edff3a00e9
:101e10003700370013c0b300c3779f0004012000d0
:101e2000050020006033b800120037005fb497004f
:101e3000efb497007fb597008fbd97000440e10095
:101e400005c8e10006d0e10007d8e100280039000c
:101e5000490020000402d0008582d2000683d2000f
:101e60008783d2008904e900faff3a000040e800c5
:101e7000c0779f004f709700f04f5000ebff3a0083
:101e80001b00370013c0b300c3779f0084002000fd
:101e9000050020006033b800120037005fb49700df
:101ea000efb497007fb597008fbd97000440e10025
:101eb00005c8e10006d0e10007d8e1000c003900b8
:101ec000390020000402d0008582d2000683d200af
:101ed0008783d2008904e900faff3a000040e80055
:101ee000c0779f004f709700f54f5000ebff3a000e
:101ef0004f7597008a02fb00efad97008b8f520061
:101f000002003d00cb779f00040037006fa89700c8
:101f1000850f500001003d00e5af9f00cfa897005e
:101f2000e08f5000040032006302670002003200bc
:101f30008100e900c1af9f00040024000402670093
:101f4000090032004fa99700efa99700830f5100b5
:101f50000300340003015100c2af9f0002003700ac
:101f60000002eb00c4af9f004f7397008602fb0096
:101f70008003eb00a7af9f004fac9700850f540084
:101f80000200340085025400a5af9f006402670080
:101f90004c003200e202670061036700e08f5200ec
:101fa0001b003200cfb49700390290000404b20045
:101fb0000900320099037800b5c2b300e00f530066
:101fc0000100320085c2e800854b78004fb59700cc
:101fd000070de8000a003700d5022000e00f53008b
:101fe00001003a008582e900cfb097000500780033
:101ff00088fb070000027800e10f42001800320061
:10200000bfb597008b05e800bbb79f0014003700f1
:10201000e00f5300120032004fb0970030029000e2
:102020000404b200050032009002780003c2b3003d
:10203000834a78000508e80006003700cfb0970013
:102040000002200073fb070000027800e10f42004d
:1020500003003200bfb097008100e800b1b79f00d5
:102060002fa99700e00f51001101320008c3b300ff
:10207000820678004fb697003c0090000004b20042
:10208000040032001c00780008487800000ee800c8
:10209000050037008c007800000320005dfb07007e
:1020a000e10f400003003200bfb197008301e80058
:1020b000b3b79f008d06e900efff3a00adaf9f0078
:1020c000fb0037002faa9700e00f520017003200e4
:1020d0006802670015003a0008c2b300afae97006f
:1020e0004fb697003c0090000004b200040032009c
:1020f0001c00780008487800000ee8000500370052
:102100008c0078000002200042fb0700e10f400035
:1021100003003200bfb297008502e800b5b79f0008
:102120008d06e900efff3a00adaf9f00e2026700c5
:1021300061036700e08f52001c003200cfb39700ac
:10214000370290000404b2000a003200070478004d
:1021500098037800b5c2b300e00f530001003200cd
:1021600085c2e800854b7800cfb49700870ce80063
:102170000a003700d5022000e00f530001003a00aa
:102180008582e900cfb097000500780021fb0700a9
:1021900000027800e10f4200c50032003fb5970011
:1021a0000a05e800bab79f00c1003700e00f5300ee
:1021b000bf003200cfb597003b0290000404b2008c
:1021c000050032009b02780003c2b300834a780006
:1021d000850de80006003700cfb097000002200010
:1021e0000cfb070000027800e10f4200b000320053
:1021f0003fb097000000e800b0b79f00ac00370088
:102200000e07e90000042000bfa89700808f50004f
:102210008200320003003c00e08f500008003200d2
:102220008e003700000820003fa99700800f510062
:1022300065003200000c2000800f510087003a003a
:102240004370dd00cfa99700e08f51002a003d00c8
:10225000e4fe2100000042003004be002005be0064
:10226000e8af9f00f9af9f008ab79f009bb79f0020
:102270000802be000a03be005fb09700efb09700ef
:102280007fb197008fb997002cfc0700c0779f00a3
:102290000004fb00cfc4de00090578008a05780041
:1022a0006faa9700ffaa97000fb397009fb39700fc
:1022b0000800be000a01be008cfc07000203be003d
:1022c0000002be005fb09700efb097007fb19700ab
:1022d0008fb997000400500085805800060159000e
:1022e00087815900d0b79f00e1b79f00f2b79f00e8
:1022f00083bf9f0030003700df989700e08f5000c9
:102300001f0032005fb69700efb69700e2fe210093
:10231000000041003004be002005be000801be00e0
:102320000c00be00f5f90700c0779f000000fb001d
:10233000cf80de000801be006cfb070000025600e3
:1023400081825e00a4a79f00b5a79f008002eb00da
:10235000c5a79f000003eb00d6a79f002fa49700fe
:10236000bfa497004fa59700dfa59700d8b79f009f
:10237000e9b79f00fab79f008bbf9f000e003700a0
:10238000e9fe2100690178005fb59700811f7800a0
:10239000110009000285d800cf007800a2002000bb
:1023a000811f7800110009000280d8000100780028
:1023b000cf007800c0779f00cf7597000b43b00027
:1023c000cb779f0025003700e40822004f98970044
:1023d000e00f500001003a00f40922004270dd00d5
:1023e0005fb49700efb497007fb597008fbd97005b
:1023f000800278008502e900050033008b05d100da
:102400000a85d3008984d3000884d300f9ff3700fc
:102410006f006400644078000f0037006370b900fb
:102420005fb49700efb497007fb597008fbd97001a
:10243000000278000402e900050033008b05d1009a
:102440000a85d3008984d3000884d300f9ff3700bc
:10245000674064000043b000c0779f00cfb2970090
:10246000350090000004b20007003200150178002a
:102470004f70970000497800820ae800e04f500052
:1024800007003a00120037004f7397000600fb0068
:10249000cfb097005ffa0700e10f40000c00320058
:1024a000bfb397008703e800b7b79f000800370065
:1024b00070046700d89f9f008e0478000902b20064
:1024c000c99f9f000e057800caaf9f006faf9700ad
:1024d000e00f57004aff3a004faf970068016700ce
:1024e00018003200afad9700e08f550015003400a2
:1024f00008c2b3008b0678003fb797004fb697002d
:102500003c0090000004b200040032001c0078007f
:1025100008487800000ee800050037008c007800bd
:10252000000220003bfa0700e10f400001003200ea
:102530000e07e8008d06e900f1ff3a000e00780072
:10254000b0b79f00dfa8970091427800c5779f0041
:10255000e0cf52003afc3a003fb097004f077800b6
:102560004f06be004f05be004f04be000f04b10071
:042570000000060061
:020000040000fa
:1025740054650000737400003a20000028730000c2
:10258400697a0000656f000066200000696e000033
:10259400743a000020250000642900000d0a0000a0
:1025a4000054000065730000743a00002025000008
:1025b400203500006420000025300000347800003d
:1025c400202500003034000058200000253600008b
:1025d4006f200000256300000d0a00000041000088
:1025e4007262000069740000726100007279000078
:1025f40020450000727200006f720000204300004a
:102604006f6400006520000025300000347800006d
:102614000d0a000000480000656c00006c6f0000ab
:102624002c200000776f0000726c00006421000011
:102634000a00000049200000616d000020430000f2
:1026440079730000617400002e0a0000004200004b
:10265400756900006c740000206100006e64000065
:1026640020700000726f000067720000616d00004e
:102674006d650000642000006279000020490000bc
:102684006f77000061200000537400006174000043
:1026940065200000556e0000697600006572000038
:1026a40073690000747900000a00000049200000ea
:1026b400636100006e200000736500006520000067
:1026c4006d790000206800006f75000073650000dc
:1026d40020660000726f00006d2000006865000035
:1026e400726500002e0a00000057000068610000b7
:1026f40074200000676f00006573000020750000ff
:10270400702000006d7500007374000020630000e9
:102714006f6d000065200000646f0000776e00009c
:102724002e2e00002e0a0000004900002077000031
:1027340069730000682000004920000068610000ff
:102744006420000061200000636100006d650000ea
:10275400726100002e0a000000490000276d00008d
:10276400206300006f6c0000642e00000a0000006b
:10277400537000006161000061610000616100004c
:1027840063650000210a0000004400006562000047
:1027940061740000696e0000672000006d6f000026
:1027a400726100006c6900007479000020770000f9
:1027b4006974000068200000484100004c2e0000ad
:1027c4002e2e00000a00000044690000736100001e
:1027d400726d0000696e000067200000536b0000fa
:1027e400796e0000657400002e2e00002e0a000091
:1027f400005200006574000069630000756c0000fd
:1028040061740000696e00006720000073700000ae
:102814006c6900006e650000732e00002e2e00000f
:102824000a000000492000006e6500006564000095
:10283400206d00006f7200006520000074680000c5
:10284400696e000067730000207400006f200000b0
:1028540073610000792e00000a0000004469000042
:102864006420000049200000666f000072670000c9
:1028740065740000207400006f2000006272000084
:10288400696e000067200000746800006520000085
:1028940070610000796c00006f610000643f00000b
:1028a4000a000000526500007065000061740000b9
:1028b400206d00006573000073610000676500000f
:1028c400732000006172000065200000627900003e
:1028d4002064000065730000696700006e2c00002e
:1028e400206e00006f740000206200007920000058
:1028f4007365000067660000617500006c74000079
:102904002e0a0000000000000d9300001c9300003c
:1029140029930000589300007793000097930000d8
:10292400af930000ba930000c7930000e693000041
:10293400fb930000149400003094000054940000b1
:1029440048650000100600000022000038740000f2
:10295400000000000101000000000000c0b60000fb
:1029640006000000c0b60000060000004e4f000044
:10297400434100004c4c0000435100002020000063
:1029840020200000000000000000000041000000c2
:1029940001000000ed38000048650000100300004d
:1029a400000e000021570000486500006c6c000018
:1029b4006f2c0000207700006f7200006c64000030
:1029c400210d00002f770000506f00007765000094
:1029d400723a0000204900003243000020570000f2
:1029e40072690000746500002045000072720000e6
:1029f4006f7200000d0a0000005000006f770000a5
:102a0400657200003a2000004932000043200000b3
:102a140052650000616400002045000072720000ed
:102a24006f7200000d0a000000250000733a0000d8
:102a34002025000066200000257300000d0a000018
:102a44000056000000580000205600006f6c000083
:102a54007461000067650000006d00004100000023
:102a64002d580000204300007572000072650000bc
:102a74006e740000002b0000582000004375000015
:102a840072720000656e000074000000592000009e
:102a9400566f00006c740000616700006500000060
:102aa4002d5900002043000075720000726500007b
:102ab4006e740000002b00005920000043750000d4
:102ac40072720000656e0000740000005a2000005d
:102ad400566f00006c740000616700006500000020
:102ae4002d5a00002043000075720000726500003a
:102af4006e740000002b00005a2000004375000093
:102b040072720000656e00007400000042610000f3
:102b1400742000004275000073200000437500001b
:102b240072720000656e00007400000035560000eb
:102b340020420000757300002043000075720000fd
:102b4400726500006e740000003300002e33000034
:102b540056200000427500007320000043750000f9
:102b640072720000656e000074000000646500006d
:102b74006743000000420000617400002030000040
:102b840020540000656d00007000000042610000e8
:102b94007420000030200000566f00006c740000a8
:102ba40061670000650000004261000074200000bd
:102bb40030200000697300002044000049530000e5
:102bc4004348000041520000474900004e470000be
:102bd4000042000061740000203000002069000001
:102be40073200000434800004152000047490000a0
:102bf4004e470000004200006174000020300000d5
:102c04002043000075720000726500006e740000bd
:102c140000420000617400002031000020540000d4
:102c2400656d000070000000426100007420000027
:102c340031200000566f00006c74000061670000d2
:102c44006500000042610000742000003120000093
:102c54006973000020440000495300004348000009
:102c640041520000474900004e4700000042000066
:102c7400617400002031000020690000732000000e
:102c84004348000041520000474900004e470000fd
:102c94000042000061740000203100002043000065
:102ca40075720000726500006e7400000050000030
:102cb4006f770000657200003a200000506f00003a
:102cc4006c6c0000696e0000672000006461000005
:102cd400746100002e0d00000a0000004261000033
:102ce40064200000493200004320000042750000c7
:102cf4007320000065720000726f0000723a0000d9
:102d0400206200007573000020250000642000008c
:102d14006e6f0000742000006465000066690000a6
:102d24006e650000642100000d0a000000480000e8
:102d340069740000206100006464000072200000d7
:102d4400307800002578000020280000307800004a
:102d5400257800002052000065610000642900000d
:102d6400206f00006e2000006275000073200000d8
:102d740028250000642900000d0a0000005300000b
:102d8400636100006e6e0000696e00006720000041
:102d940049320000430d00000a00000042750000a3
:102da400733a000020250000640000002530000074
:102db400327800002048000069740000210d0000f2
:102dc4000a00000049320000432000004572000060
:102dd400726f0000723a0000204400006566000033
:102de400617500006c7400002073000074610000c1
:102df4007475000073200000726500007475000093
:102e0400726e0000656400002028000062750000f6
:102e140067210000290d00000a000000493200006b
:102e24004320000045720000726f0000723a0000f7
:102e340020470000656e000065720000616c0000b0
:102e440020650000727200006f7200000d0a00001d
:102e54000049000032430000204500007272000067
:102e64006f7200003a2000004e410000434b000006
:102e74000d0a000000490000324300002045000014
:102e8400727200006f7200003a2000004275000068
:102e940073200000686500006c640000206c000072
:102ea4006f7700002062000079200000736c00003e
:102eb40061760000650d00000a0000002530000066
:102ec400327500003a25000030320000753a0000e7
:102ed40025300000327500002e250000303200003d
:102ee400750d00000a000000525400004320000049
:102ef4006e6f000074200000666f0000756e0000a5
:102f0400640d00000a00000052540000433a00001f
:102f1400204900003243000020460000616900009f
:102f24006c650000640d00000a00000052540000ab
:102f3400433a0000204f000046200000666c000069
:102f44006167000020730000657400002c200000fd
:102f540072650000737400006172000074690000ff
:102f64006e67000020520000544300002e0d000044
:102f74000a00000052540000433a000020520000ae
:102f84006573000074610000727400002066000024
:102f9400616900006c650000640d00000a00000017
:102fa4005465000073740000696e0000672000001f
:102fb40049320000430d00000a00000025300000e3
:102fc40032780000002d00004d690000736d000090
:102fd4006174000063680000210d00000a00000015
:102fe40001be000073ab000055fb00000f9d000004
:102ff4002a000000526100006469000009430000d7
:10300400686100006e090000566100006c750000e4
:10301400650d00000a000000256400000925000079
:1030240064090000257800000d0a0000005000002b
:103034006f6c00006c6900006e6700002050000097
:10304400726f0000746f00007479000070650000f6
:1030540020500000617900006c6f00006164000082
:103064000d0a000000500000617900006c6f000040
:10307400616400003a20000049320000432000004f
:10308400577200006974000065200000457200005a
:10309400726f0000720d00000a0000005061000011
:1030a400796c00006f610000643a00002049000060
:1030b40032430000205200006561000064200000db
:1030c40045720000726f0000720d00000a000000db
:1030d40043680000616e000009560000616c000046
:1030e400756500000d0a0000002500006409000059
:1030f400257800000d0a0000005000006f6c0000ed
:103104006c6900006e6700002050000061790000c7
:103114006c6f0000616400002e0000001b5b000067
:10312400303b0000333100006d5b0000455200006d
:10313400524f0000525d0000200000001b5b0000a5
:10314400303b0000333700006d00000025730000a1
:10315400002800004f56000045520000464c000075
:103164004f570000212900000a000000111100003f
:10317400222200003333000044440000555500006f
:10318400666600007777000088880000999900003f
:10319400aaaa0000bbbb0000cccc0000dddd00000f
:1031a400eeee0000cecd0000acab00000d0a000036
:1031b40049200000616d00002061000020550000de
:1031c40041520000542100000d0a000000280000b4
:1031d4005561000072740000312900000d0a0000de
:1031e40000000000494400004c45000000000000bd
:020000040000fa
:1031f4001600fa003007980041079800520798001b
:103204006307980074079800050f9800160f98003c
:10321400270f98009e0890005e009000f2030700bc
:10322400100798001e009000e00f50005700320075
:103234001e009000c0089000210798001e00900016
:10324400c00890005e0090000000e900000040000b
:10325400808040001e009000710898005e0290007b
:10326400ae0990007e019000ce0090001e009000f8
:103274007a0307006e019000be0090002e009000bb
:10328400a11a0700800078001e0090000108780051
:103294000e089000e00f5000030032000e0890006a
:1032a4009e00900001087800111b070040fa80007e
:1032b4000000e80040fa880020ff8000e00f500082
:1032c40007003a001e00900020ff880040fa8000aa
:1032d400e10f50000c003a008a0307000a0037008f
:1032e40080fa8000e00f500007003a0020ff8000c1
:1032f400b00890007e009000808f500002003e00d5
:103304009e00900021ff88001e009000b0089000ed
:1033140060fa8000808f5000030036001e00900089
:103324003008900060fa8800d0fa80000000e800bd
:10333400d0fa88001e009000b008900070fa800057
:10334400808f5000030036001e009000300890006b
:1033540070fa88001e0090000081e8001e009000b2
:10336400300890006a00b9008000780040ef210026
:103374000080400082007800c21b0700100020007b
:10338400000f7800e41a0700020037000080eb0009
:10339400000f78001e007800e10f50000b003a0087
:1033a40080fa8000e00f50000800320020ff800007
:1033b400b00890007e009000808f50000300310020
:1033c400ee53020000000000000000001e00780020
:1033d4000080fa00000006000a00fa003007980096
:1033e400410798000000eb00000f780089010700f6
:1033f4003e009000900078004e0090000080400055
:10340400100798003e0090009000780050fa800069
:10341400808f50000c0036003e0090009000780031
:103424001e009000808f50001200360050fa800079
:103434009e009000808f50000e0036001000200087
:10344400000f78000b0037003e00900090007800d9
:103454001e009000808f500004003e0050fa80004f
:103464009e009000808f5000020036001000200063
:10347400000f78003e0090009e0090000108780044
:103484001e007800e00f50000500320020ff80008d
:103494000080e800cf1b07001e00900038030700df
:1034a40062010700200798002e009000e00f5000f2
:1034b40003003a00ee530200000000000000000088
:1034c4000080fa00000006000600fa0020079800b9
:1034d4000000eb00000f78002e009000e00f500079
:1034e4000c0032004b01070051fa80002e009000be
:1034f400008040001007980020ff80000080e80052
:10350400b41b07001e0090001d03070047010700bd
:10351400000f78001e007800e00f500003003a000e
:10352400ee53020000000000000000000080fa00da
:10353400000006000a00fa003007980041079800ce
:103544000000eb00000f78004e009000e30f5000e5
:10355400020036003000200040079800641a07007b
:1035640020ff8000be009000808f500002003a00cf
:103574000000eb00300798003e009000e00f500080
:1035840002003a0020ff8000010037003e00900056
:10359400100798001e0090008010900021079800ea
:1035a400ae0090004e009000808f50004300320027
:1035b400ce0090002e009000808f50000600360050
:1035c4003e009000e00f5000080032001000200080
:1035d400000f7800050037003e009000e00f500017
:1035e40002003a0010002000000f78001e00900036
:1035f400801090001e00900030089000808f5000d2
:1036040003003a001e009000ce009000310898009c
:103614001e009000ce009000011098004e00900013
:10362400e40010001e009000610098001e0090004d
:10363400500190002e0090006a00b90080007800cc
:1036440040ef210000804000800f510015003a0037
:103654001e0090000080e8005e1b07001e00900022
:10366400b008900070fa8000808f5000030036008c
:103674001e0090003008900070fa88001e00900030
:103684000081e8001e009000300890006a00b90034
:103694008000780040ef2100008040008200780024
:1036a400f81a07001e007800e10f500003003a00ea
:1036b400ee5302000000000000000000161a07008c
:1036c4000080fa00000006000400fa0010079800c9
:1036d400071a070020ff80009e009000808f500092
:1036e40002003a000000eb00100798001e00900052
:1036f400e00f500002003a0020ff80000100370074
:103704001e009000000f78001e80e800311b0700a7
:103714001e00780020089000e00f500003003200e3
:103724009e0078006c8040002a1b07001e80e80081
:1037340080007800e0f32100d21a0700f619070090
:103744001e009000e00f50000f003a0080fa800045
:10375400e00f500004003200ee53020000000000ad
:103764000000000008003700f1f9800040fa8000f2
:10377400808f500003003a000000eb0020ff880017
:1037840001003700680107000080fa00000006000d
:103794000600fa00200798000000eb00000f7800f4
:1037a4002e009000100798001e009000d00090009a
:1037b400e0f32100808f50000b003a001e009000bf
:1037c400a008900040f32100808f500006003200d2
:1037d4001e00900020089000e00f500002003a0004
:1037e40010002000000f78001e0078000080fa000e
:1037f400000006000400fa00100798001e00900064
:10380400000f78001e007800e00f50002600320000
:1038140020ff80009e007800808f5000220032003c
:10382400b31907001e007800d9ff0700e10f50000c
:103834001c003a001e80e800e61a07001e0078000b
:10384400b008900070fa8000808f500003003600aa
:103854001e0078003008900070fa88001e81e8008d
:103864001e007800300890006a00b90080007800db
:1038740040ef21000080400082007800811a070098
:103884001e007800b008900020ff800030089000ef
:10389400808f500003003900ee5302000000000046
:1038a400000000009c1907000080fa0000000600d8
:1038b4000800fa00300798000000eb00000f7800c1
:1038c4003e009000100798000000eb0020079800cd
:1038d4001e009000aeff0700e10f500027003a00e1
:1038e40090fa8000e00f50001f003a001e00900084
:1038f4003009900020ff8000b008900010002000e4
:10390400810f5100010031000000eb00000f78002e
:103914001e0090000080e800ae1a07001e00900010
:10392400b008900070fa8000808f500003003600c9
:103934001e0090003008900070fa88001e0090006d
:103944000081e8001e009000300890006a00b90071
:103954008000780040ef2100008040008200780061
:10396400481a0700050037001e0090006c00400054
:103974008000780040f32100421a07001e007800fe
:103984000080fa00000006000200fa008003eb0049
:103994000003eb008002eb000002eb008001eb006f
:1039a40032072000418f2900a001220010fe0700e9
:1039b400000f78001e007800e10f500009003a0063
:1039c40011028000000220000080700010028800b4
:1039d4001000200080fa88000000eb0050fa8800f4
:1039e400121907000080fa00000006000000fa0027
:1039f4001102800000022000008070001002880084
:103a04000000eb0080fa88001f1907000080fa000c
:103a1400000006000000fa0090fa80000000e800b0
:103a240090fa88000080fa00000006000400fa0002
:103a3400881f78000000eb00000f78002c190700a5
:103a440090fa80000000e90090fa880090fa800063
:103a5400e00f50003f003a0040fa8000e00f5000b1
:103a64003c0032000000eb00100798001c003700f7
:103a7400d0f9800030009000000478006c0044000d
:103a8400541a07000880e800521a0700b80890008a
:103a940070fa8000808f50000200360038089000d1
:103aa40070fa88000881e800380890006a00b900bc
:103ab4008000780040ef2100008040008200780000
:103ac400f0190700b808900020ff8000300890002b
:103ad400808f500002003900100020001007980069
:103ae400a0f98000e00f5000e1ff3a00a0fa800046
:103af400e00f50000a003200040037002e000700d7
:103b0400a0fa80000000e900a0fa8800a0fa800072
:103b1400e00f5000f9ff3a00100020001007980051
:103b24001e009000e10f500003003200b0fa800044
:103b3400e10f500007003a0010002000000f780049
:103b44000000eb00b0fa8800ee5302000000000011
:103b540000000000f01807001e0078004f047800f1
:103b64000080fa00000006000200fa00e0180700d6
:103b740050fa8000000f7800e71807001e00780054
:103b84000080fa00000006000400fa000000eb00c8
:103b9400000f780050fa8000100798001e00900073
:103ba4000080fa00000006000000fa0040fa8000dd
:103bb4000080fa00000006000600fa0090fa800077
:103bc400e00f500053003a0050fa80000000e80073
:103bd40050fa880050fa8000e00f500017003a00b5
:103be40080f98000000f780090f9800080f9880047
:103bf4009e00780091f98800c0fa80000000e80077
:103c0400c0fa880080f9800010007800e00f5000ae
:103c140003003a000080eb0030ff88000700370003
:103c240080f9800030009000300090001007980068
:103c34001e0090001000900030ff880051fa8000b0
:103c440030ff8000808f50003500390080f98000fb
:103c540010007800e00f500003003a000080eb00f1
:103c640030ff88002e00370080f98000300090007b
:103c740030009000100798001e0090009000900003
:103c84002107980051fa80002e009000808f500088
:103c9400030031002e00900030ff88002000370020
:103ca4001e0090000080e800ca1907001e00900062
:103cb40020089000e00f5000030032001e00900026
:103cc4006c004000c31907001e009000b00890006b
:103cd40070fa8000808f5000030036001e009000b0
:103ce4003008900070fa88001e0090000081e800ff
:103cf4001e009000300890006a00b900800078002f
:103d040040ef210000804000820078005d19070028
:103d1400ceff3700a0fa80000000e800a0fa880077
:103d24000080fa00000006000200fa0090fa800009
:103d3400e00f50000700320010002000b0fa8800a5
:103d44002600370070fa80000000e90070fa88004d
:103d5400010037000000000070fa80006a00b9001a
:103d64008000780040ef21000080400010007800bf
:103d7400e00f5000f3ff320070fa80006a00b900cf
:103d84008000780040ef2100008f40001e00780082
:103d940010009000900090001e0078001100980020
:103da4001e007800900090001e017800640041001d
:103db400808f500005003a001e007800100090002b
:103dc400900090001e007800110098001e007800fa
:103dd400100090003000900020ff88000080fa005e
:103de400000006000600fa0010079800210798005a
:103df40020ff80006c004000800078001e009000ce
:103e04004219070020ff80000080e80071190700b4
:103e14002e009000e10f400006003a0020ff8000d1
:103e24000080e80080007800e0f321001519070005
:103e34000500370051fa80002e009000008f4000ea
:103e44001e007800ce0007000080fa000000060083
:103e54000600fa00200798002e0090003000900021
:103e640030009000100798001e0090006c00400085
:103e74005819070090fa8000e00f500016003a002d
:103e84001e0090000080e800521907001e009000f8
:103e9400b008900070fa8000808f50000300360054
:103ea4001e0090003008900070fa88001e009000f8
:103eb4000081e8001e009000300890006a00b900fc
:103ec4008000780040ef21000080400082007800ec
:103ed400ec180700050037001e0090006c0040003d
:103ee4008000780040f32100e61807001e009000cf
:103ef400b008900020ff800030089000808f5000b0
:103f04000300390010002000000f78000200370081
:103f14000000eb00000f78001e0078000080fa001b
:103f2400000006000200fa00000f7800c1fa8000c9
:103f34001e0078000108780051fa80001e00780005
:103f4400110098000080fa00000006000600fa0044
:103f54001007980021079800e51707002e0090002d
:103f640010007800e10f400003003a000000eb006d
:103f7400000f7800250037001e00900090007800a4
:103f8400c0fa8000808f5000080032001e009000ac
:103f94009000900050fa8000808f500003003e0093
:103fa40010002000000f78001800370051fa80003c
:103fb4001e00900010009000808050002e009000a1
:103fc40010007800808f50000e0031002e00900009
:103fd400900078001e0090001001900050fa8000bc
:103fe40000005100808040002e00900001087800fd
:103ff4001e009000cbff07000000eb00000f7800cc
:104004000200370010002000000f7800c2170700dc
:104014001e0078000080fa00000006000000fa008c
:1040240010002000b0fa88000080fa0000000600aa
:104034000200fa00000f78004e000700a0f780008d
:10404400e10f500003003600ee53020000000000b0
:1040540000000000131a0700f7ff37000a00fa00f7
:10406400000f780011079800220798003307980082
:10407400440798009e0078007a80400042002000a7
:104084009e00900020f307009e0078000040eb00a3
:10409400d05898002e009000e30f50000200360024
:1040a40030002000200798001e007800ae00900029
:1040b400310898001e007800ae00900001109800ae
:1040c4001e80e800681807009e0078006c8040009d
:1040d400651807001e0078009e00780041009800d3
:1040e4002e009000e40010001e007800610098008b
:1040f4001e0078009e007800110898000080fa00e5
:10410400000006000200fa000000eb00000f780037
:10411400070037001e0078006a00b90080007800ac
:1041240040ef210000804000361807001e0fe80011
:104134001e007800e30f5000f6ff3600c0f12100a6
:104144003018070060f221002e18070040f3210008
:104154002c180700e0f321002a180700c0f1210001
:1041640080f9880060f2210090f988000080fa004c
:10417400000006000000fa000080fa0000000600bb
:104184000200fa00000f780020ff80009e007800f3
:104194001100980050fa80009e007800808f500033
:1041a4000500310020ff80008080e80090f9800045
:1041b400561807000a00370020ff80008080e800be
:1041c40080f980005118070030ff80009e007800bd
:1041d400808f5000020031001e00780030ff8800fc
:1041e4000080fa00000006000600fa00100798009c
:1041f400210798002002200019190700000f7800f9
:104204001e007800e00f50001b0032002e009000ca
:10421400e00f500004003a001e009000000040002f
:104224000f190700010037002e0090009e0078004f
:10423400c00898001e00780040089000e00f50006d
:1042440005003a001e0078002b1907000000eb005f
:10425400000f7800080037001e00900000004000a6
:10426400800078001e00780040089000010178006a
:10427400510a20007af207001e0078000080fa003c
:10428400000006000200fa0020ff8000000f780002
:104294001e0078000080fa00000006000400fa0006
:1042a400100798001e009000000f78001e00780090
:1042b400b008900020ff800030089000808f5000ec
:1042c4002b00310020ff800030089000e400100033
:1042d4001e007800610098001e00780050019000d4
:1042e4001e007800300890006a00b9008000780051
:1042f40040ef210000804000800f510018003a0078
:104304001e80e8003318070020ff8000b0089000ea
:104314001e007800310898001e007800b008900054
:1043240070fa8000808f5000030036001e00780071
:104334003008900070fa88001e81e8001e007800a2
:10434400300890006a00b9008000780040ef210036
:104354000080400082007800ca170700040037007c
:1043640020ff8000b00890001e00780031089800fb
:104374000080fa00000006000400fa00100798000c
:104384001e009000000f78001e009000e00f500007
:10439400220032001e007800b00890001e00780051
:1043a40000109000808f50001c0032001e80e80036
:1043b400081807001e007800801090001e00780086
:1043c400310898001e00780030089000e4001000c6
:1043d4001e007800610098001e007800b00890006c
:1043e40070fa8000808f5000030036001e007800b1
:1043f4003008900070fa88001e81e8001e007800e2
:10440400300890006a00b9008000780040ef210075
:1044140000804000820078009a1707000080fa00ac
:10442400000006000200fa00004f78001e00fb00a6
:104434006101b9000080eb008080eb0002004000c5
:10444400838048003200200003002000820f5000c7
:10445400838f580021003e000060010003003700f4
:10446400090037000f00370015003700a0fe800058
:104474008001eb000081eb008000eb00a705070042
:104484000040780018003700b0fe80008001eb0087
:104494000081eb008000eb00a005070000407800dd
:1044a40011003700c0fe80008001eb000081eb00aa
:1044b4008000eb0099050700004078000a003700ef
:1044c400d0fe80008001eb000081eb008000eb0057
:1044d4009205070000407800030037001e40780072
:1044e400360007000040eb000080fa0000000600e0
:1044f4000200fa00004f78001e00fb006101b900c1
:104504000080eb008080eb000200400083804800c4
:104514003200200003002000820f5000838f5800d7
:1045240021003e000060010003003700090037004d
:104534000f00370015003700a0fe80008001eb005b
:104544000001eb008000eb00e0040700004078006d
:1045540018003700b0fe80008001eb000001eb0082
:104564008000eb00d90407000040780011003700f8
:10457400c0fe80008001eb000001eb008000eb0036
:10458400d2040700004078000a003700d0fe800003
:104594008001eb000001eb008000eb00cb0407007e
:1045a40000407800030037001e4078000300070035
:1045b4000040eb000080fa00000006000200fa0050
:1045c400004f78001e00fb00801f78000067290060
:1045d400801f780072140700e48757000080fa00f7
:1045e400000006000200fa00004f7800114798000e
:1045f4001e00fb006101b9000080eb008080eb002d
:1046040002004000838048003200200003002000a4
:10461400820f5000838f580031003e00006001007b
:10462400030037000d003700170037002100370062
:104634001e409000614060000080fb00610060004b
:104644004200dd0092178000b1ff2f00810061005d
:104654000080700090178800230037001e409000ef
:10466400614060000080fb00610060004200dd00ea
:1046740012168000b1ff2f008100610000807000dd
:1046840010168800180037001e409000614060003a
:104694000080fb00610060004600dd00121780000e
:1046a400f1fb2f008100610000807000101788006a
:1046b4000d0037001e409000614060000080fb0048
:1046c400610060004200dd0052168000b1ff2f003f
:1046d40081006100008070005016880002003700dd
:1046e4001e407800b5ff07000080fa0000000600b5
:1046f4000200fa00004f7800114798001e00fb00ea
:104704006101b9000080eb008080eb0002004000f2
:10471400838048003200200003002000820f5000f4
:10472400838f580031003e00006001000300370011
:104734000d00370017003700210037001e4090009d
:10474400614060000080fb00610060004300dd0008
:104754009217800071ff2f008100610000807000bb
:1047640090178800230037001e40900061406000cd
:104774000080fb00610060004300dd001216800031
:1047840071ff2f0081006100008070001016880006
:10479400180037001e409000614060000080fb005c
:1047a400610060004700dd0012178000f1f72f0060
:1047b4008100610000807000101788000d00370030
:1047c4001e409000614060000080fb0061006000ba
:1047d4004300dd005216800071ff2f00810061004c
:1047e4000080700050168800020037001e407800d8
:1047f40072ff07000080fa00000006000200fa00c1
:10480400004f7800114798001e00fb006101b900b9
:104814000080eb008080eb000200400083804800b1
:104824003200200003002000820f5000838f5800c4
:1048340031003e0000600100030037000d00370026
:1048440017003700210037001e40900061406000cf
:104854000080fb00610060004200dd0082178000e0
:10486400b1ff2f0081006100008070008017880074
:10487400230037001e409000614060000080fb0070
:10488400610060004200dd0002168000b1ff2f00cd
:104894008100610000807000001688001800370055
:1048a4001e409000614060000080fb0061006000d9
:1048b4004600dd0002178000f1fb2f00810061003b
:1048c40000807000001788000d0037001e40900023
:1048d400614060000080fb00610060004200dd0078
:1048e40042168000b1ff2f0081006100008070003b
:1048f40040168800020037001e4078002fff070092
:104904000080fa00000006000200fa00004f780060
:10491400114798001e00fb006101b9000080eb0004
:104924008080eb00020040008380480032002000b9
:1049340003002000820f5000838f580031003e0096
:1049440000600100030037000d0037001700370036
:10495400210037001e409000614060000080fb0091
:10496400610060004300dd008217800071ff2f00aa
:1049740081006100008070008017880023003700e8
:104984001e409000614060000080fb0061006000f8
:104994004300dd000216800071ff2f0081006100da
:1049a4000080700000168800180037001e40900038
:1049b400614060000080fb00610060004700dd0092
:1049c40002178000f1f72f00810061000080700061
:1049d400001788000d0037001e4090006140600001
:1049e4000080fb00610060004300dd00421680008f
:1049f40071ff2f0081006100008070004016880064
:104a0400020037001e407800ecfe07000080fa0028
:104a1400000006000200fa00004f78001e00fb00b0
:104a24006101b9000080eb008080eb0002004000cf
:104a3400838048003200200003002000820f5000d1
:104a4400838f580015003e0000600100030037000a
:104a540006003700090037000c003700901780006b
:104a64004200de00614060000f0037001016800035
:104a74004200de00614060000b0037001017800028
:104a84004600de00614060000700370050168000d9
:104a94004200de0061406000030037001e407800e1
:104aa400c6fe070010c0b3000080fa000000060034
:104ab4000200fa00004f78001e00fb006101b900fb
:104ac4000080eb008080eb000200400083804800ff
:104ad4003200200003002000820f5000838f580012
:104ae40015003e0000600100030037000600370097
:104af400090037000c003700901780004300de00e7
:104b0400614060000f003700101680004300de0093
:104b1400614060000b003700101780004700de0082
:104b24006140600007003700501680004300de003b
:104b340061406000030037001e4078009ffe0700bc
:104b440010c0b3000080fa00000006000600fa005e
:104b5400004f7800114798001207980043479800c7
:104b64001e407800b90007001e407800a9ff070026
:104b7400e04f500002003a0020c0b3002d0037007f
:104b84009e409000e0cfb30000c0600080407800f9
:104b94001e407800600007001e40780004010700f2
:104ba400e04f500015003a001e407800c600070090
:104bb40000c0eb001f0037001e009000104078007a
:104bc400804078001e407800530007001e407800a3
:104bd400f7000700e04f500004003a001e40780040
:104be400b900070010c0b300120037001e00900087
:104bf4000000e800100798000100370000000000e2
:104c04004e4090000080fb000000ea004f00de00f0
:104c140000407800ce4090008140e9004147980070
:104c2400e04f5000e4ff3a001e407800a600070061
:104c34000040eb000080fa00000006000600fa00c5
:104c4400004f7800114798001207980043479800d6
:104c54001e4078007d0007001e4078006dff0700ad
:104c6400e04f500002003a0020c0b3002800370093
:104c74001e4090000004a000804078001e40780090
:104c8400250007001e407800c9000700e04f5000cf
:104c940011003a001e4078008b00070010c0b300da
:104ca4001b0037001e407800460007009e0090005d
:104cb400804878001e0090000000e800100798006b
:104cc4004e409000e04f5000040034001e40780035
:104cd400dc00070001003700000000004e40900097
:104ce4000080fb000000ea004f00de000040780076
:104cf400ce4090008140e90041479800e04f5000c9
:104d0400e8ff3a001e4078006f0007000040eb0007
:104d14000080fa00000006000400fa002047980012
:104d2400314798008040eb002e40900070fe070051
:104d34008040eb002e4090002afe070040c6b300de
:104d4400d300070080c0b300004f78001400370080
:104d54003e409000e04f5000070035008040eb00db
:104d64002e40900062fe07008040eb002e40900031
:104d7400e5fe07000300370011c0b3002e40900089
:104d8400e1fe07003e4090000000fb0000004000f0
:104d9400304798002e4090005a0007001e4fe9004b
:104da4001e407800e04f5000e9ff3a0011c0b30004
:104db4002e409000d4fe07000040eb000080fa0073
:104dc400000006000400fa00204798000040eb00b1
:104dd400104798008040eb002e40900044fe0700ee
:104de4008040eb002e409000fefd070040c6b3005b
:104df400a700070080c0b300004f78000d00370003
:104e04001e4090000000fb00000040001047980086
:104e140011c0b3002e409000bbfe07002e4090004e
:104e2400480007009e40900000c0700010479800a2
:104e34001e4fe9001e407800e04f5000f0ff3a009a
:104e44001e4090000080fa00000006000200fa00f4
:104e5400004f780011c0b3001e407800aafe07007e
:104e640011c0b3001e40780064fe07008040eb00d0
:104e74001e407800dbfd07008040eb001e407800f8
:104e84001bfe070020c3b300810007008040eb0035
:104e94001e4078009cfe07008040eb001e40780016
:104ea40013fe070020c3b300790007008040eb0025
:104eb4001e40780051fe070040c6b300740007008e
:104ec4000080fa00000006000200fa00004f78009b
:104ed4008040eb001e4078008bfe070011c0b30039
:104ee4001e40780045fe070020c3b3006800070099
:104ef40011c0b3001e40780083fe07000080fa0052
:104f0400000006000200fa00004f780040c1b30020
:104f14005f00070011c0b3001e40780037fe070091
:104f240040c6b3005a0007008040eb001e407800e2
:104f340032fe070040c6b300550007000080fa00a7
:104f4400000006000400fa00204798000040eb002f
:104f5400004f780040c1b3004d00070011c0b300fa
:104f64002e40900025fe070020c3b3004800070030
:104f74002e409000cefe0700e04f500002003200a9
:104f840010c0b300004f780020c3b30040000700f6
:104f94008040eb002e40900018fe070040c6b3008e
:104fa4003b0007001e4078000080fa000000060065
:104fb4000200fa00004f78008040eb001e407800a9
:104fc400cbfd07008040eb001e40780085fd070004
:104fd4008040eb001e40780008fe070011c0b300bb
:104fe4001e40780048fe070011c0b3001e40780040
:104ff40002fe070020c3b300250007001e4078000e
:10500400abfe0700e04f5000020032000040eb000e
:105014000a00370020c3b3001d0007008040eb00e6
:105024001e407800f5fd070040c6b30018000700d5
:1050340040c6b3001600070010c0b3000080fa0099
:10504400000006000200fa00004f78008040eb00e8
:105054001e407800a6fd07008040eb001e4078004b
:1050640029fe070040c1b300090007001e40780074
:10507400a4ff070011c0b3001e40780022fe070001
:1050840040c1b300020007000080fa0000000600df
:105094000400fa00204798002e409000004f78004a
:1050a4000a003700a0c0b30010479800030037007f
:1050b4001e4090000040e900104798001e409000f8
:1050c400e04f5000faff3a001e4fe9001e407800fe
:1050d400e04f5000f3ff3a000080fa0000000600a1
:1050e4000000fa000041eb0081002000a000200035
:1050f4009601070090fe88008003eb000003eb009c
:105104008002eb00440020008001eb003207200005
:105114008000eb00c0ab220035f807000200070056
:105124000080fa00000006000000fa0010c0b3007e
:10513400b5010700a0fe880010c0b300b20107004b
:10514400b0fe880010c0b300af010700c0fe8800a5
:1051540010c0b300ac010700d0fe88000080fa0044
:10516400000006000000fa00dcdfbf008040780089
:10517400ecdfbf008041eb000001eb0073fe070091
:10518400e04f500010003200ecdfbf000001fb00d4
:10519400dcdfbf000080fb000000d100004078008d
:1051a4008080fb00dcdfbf000080fb00821f7800f2
:1051b400811f7800801f780090692900801f780083
:1051c4006e110700e8875700dcdfbf0000c0e8006d
:1051d400dcffb7000080fa00000006000400fa00bb
:1051e400204798000040eb00004f7800106c290025
:1051f4005b11070040062000b3f807002e40900022
:105204000000fb00801f7800006d2900801f7800db
:105214005a110700e48757008041eb000001eb00be
:105224009e4078002e40900024000700e04f50007c
:1052340004003a00806d2900801f78004f11070098
:105244008f87e9001e40780000c0e800004f780016
:105254001e407800e04f5000efff3a000080fa0053
:10526400000006000800fa00204798003147980023
:1052740022079800634798000040eb00004f780035
:105284002e40900067fc0700e04f500008003200f9
:10529400ee4190002e019000be4090002e40900000
:1052a4002afe0700004f78002e40900090fc070073
:1052b4001e4078000080fa00000006000800fa0092
:1052c40020479800314798002207980063479800c8
:1052d4000040eb00004f78002e40900051fc070086
:1052e400e04f500008003200ee4190002e01900083
:1052f400be4090002e40900050fe0700004f780002
:105304002e4090007afc07001e4078000080fa00ce
:10531400000006000200fa00004f78001e00fb00a7
:105324006101b900200020000100200002004000bb
:10533400838048004200200003002000820f5000b8
:10534400838f58001b003e000060010004003700fa
:1053540008003700160037000b0037000f00370035
:10536400406e2900801f78000d1107008f87e90027
:105374001000370000712900801f78000811070011
:105384008f87e9000b003700b0722900801f780076
:10539400031107008f87e90006003700d073290046
:1053a400801f7800fe1007008f87e9000100370096
:1053b400000000001e4078000080fa000000060093
:1053c4000800fa0020479800314798002207980007
:1053d40063479800ee4190002e019000be4090007b
:1053e4002e4090009fff0700004f78001e40780079
:1053f400e04f5000020032001e407800c5ff070055
:105404001e4078000080fa00000006000800fa0040
:105414002047980031479800220798006347980076
:10542400ee4190002e019000be4090002e4090006e
:105434008cff0700004f78001e407800e04f5000ba
:10544400020032001e407800b2ff07001e407800c0
:105454000080fa00000006001000fa00204f9800b7
:10546400314f980062079800634f9800e0cfb30073
:10547400004f98002e489000004f78003e4890005e
:10548400104798006e009000100798006e48900036
:1054940040479800680047003007980090fe80005d
:1054a4008001eb000081eb008e007800070107000b
:1054b400e10f50000500320000c0eb000c00370083
:1054c4004006200000f8070001003700000000003b
:1054d4000e489000e24f4000f9ff32000e48900061
:1054e4000080fb000000e9004f00de00004078006f
:1054f4000080fa00000006000600fa00004f780061
:105504001147980012079800434798009e40900066
:10551400e0cfb30000c0600010479800ce41900077
:105524001e0190009e4090001e407800caff0700b4
:105534000080fa00000006000600fa00004f780020
:105544001147980012079800434798001e409000a6
:105554000004a00010479800ce4190001e01900066
:105564009e4090001e407800bbff07000080fa00b8
:10557400000006000a00fa00400798000100370006
:1055840000000000800c2000cff7070090fe800090
:105594008001eb000081eb008e0078005f010700c2
:1055a400e00f5000f6ff32001e4090000000fb00a8
:1055b40061006000e00f500011003a004e4190007d
:1055c4001e0290009e4090001e40780082417800a8
:1055d400040178005dfd0700e04f50000400320034
:1055e400be0090000040eb0080487800e5ff3700e3
:1055f400be00900000c0eb0080487800e1ff370057
:105604004e4190001e0290009e4090001e40780083
:10561400824178000401780088fd0700e04f5000c3
:1056240004003200be0090000040eb008048780087
:10563400d4ff3700be00900000c0eb008048780023
:10564400d0ff37000400fa00000f7800110798001b
:10565400271207001e007800100178001e00780051
:10566400f00890001e007800001090000088b90037
:1056740000007800800041001e00780011009800ae
:105684001e0078008000eb00610898001e0078007e
:10569400900078001e007800210098001e00780019
:1056a400100178001e007800700890008000e90066
:1056b4001e007800001090000088b90000007800f7
:1056c400800041001e007800310098001e00780020
:1056d4008080eb00111098001e0078008080eb00a1
:1056e400211098001e009000e00f50000d003a00b9
:1056f4001e00780040009000e00f50000f003200c0
:105704009e00780068804000d1f90700e10f500046
:105714000a003a00ee5302000000000000000000fe
:10572400060037009e00780068804000b51207002c
:105734009e00780072804000b2120700f611070044
:10574400100020000080fa00000006000c00fa009f
:105754003007980041079800224f98000000eb00a2
:10576400000f78003e009000e00f5000230032004c
:1057740060022000ba130700100798001e00900072
:10578400e00f50001d003200be0090004e0090005b
:105794000088b900000078000000e80020079800a5
:1057a4002e009000ae130700800078001e009000c9
:1057b400010878001e00900010007800e00f5000ef
:1057c4000c0032001e009000be009000710898008a
:1057d4001e009000ce0090000110980011002000df
:1057e4001e00900097ff07001e009000000f780035
:1057f400020037001e009000bf1307001e0078004f
:105804000080fa00000006000400fa002047980017
:105814006002200092130700000f78001e00780039
:10582400e00f5000260032001e0078008000eb00dc
:10583400110098001e0078008000eb000108780039
:105844001e0078008000eb00210098001e00780004
:105854008000eb00310098001e0078008000eb000f
:10586400610898001e00780011002000710898005b
:105874001e0078008000eb00011098001e007800e4
:105884008080eb00111098001e0078008080eb00ef
:10589400211098009e00780068804000591207008b
:1058a4009e00780072804000561207008001eb00d1
:1058b4000001eb008000eb001e00780003000700ed
:1058c4001e0078000080fa00000006000e00fa00b6
:1058d4003007980041079800520798006307980022
:1058e4000000eb00000f780001003700000000000a
:1058f4007f1107003e009000e00890003e009000f9
:1059040070089000808f5000130031006e019000e9
:10591400ce0090003e009000590107003e00900028
:1059240010089000e00f5000080032003e00900084
:105934007200400046f90700e10f500003003a00ee
:10594400ee53020000000000000000007211070086
:10595400100020003d0037005e009000e00f500072
:1059640003003a006c1107000000eb003700370019
:105974001e007800e00f500004003a000e80e8009a
:1059840068f9070010002000000f7800621107007a
:1059940020f80700561107003e00900010109000f8
:1059a400e10f400003003a003e0090008000eb004d
:1059b400111098003e00900020109000e10f40006c
:1059c40003003a003e0090008000eb002110980094
:1059d40051110700ea0047000e80e8005bf9070058
:1059e400e00f500015003a003e009000ed01070062
:1059f400e00f50000d003200de0090003e009000e9
:105a040068004000f7f807003e009000910107008d
:105a140006f80700e00f5000b4ff3a00ee5302000e
:105a24000000000000000000b1ff37003e009000bd
:105a340088010700fdf70700adff37003e00900026
:105a440084010700f9f707000000eb000080fa006a
:105a5400000006000c00fa002007980031079800a7
:105a640042079800530798000000eb0010079800c5
:105a74002e009000e00890002e0090007008900026
:105a8400808f5000200031005e019000be00900025
:105a94002e009000fa0007002e00900020109000c5
:105aa400e10f400010003a002e0090001008900012
:105ab400e00f5000110032002e00900072004000f0
