:020000040000fa
:080000000002040000000000f2
:020000040000fa
:10000800702a0000702a0000702a0000702a000080
:10001800702a0000702a0000702a0000702a000070
:10002800702a0000702a0000702a000030210000a9
:10003800702a0000702a0000702a0000362800008c
:10004800702a0000702a0000702a0000702a000040
:10005800702a0000702a0000702a0000702a000030
:10006800702a0000702a0000702a0000702a000020
:10007800702a0000702a0000702a0000702a000010
:10008800702a0000702a0000702a0000702a000000
:10009800702a0000702a0000621f0000b21f0000d2
:1000a800702a0000702a0000702a0000702a0000e0
:1000b800702a0000702a0000702a0000702a0000d0
:1000c800702a0000702a0000702a0000702a0000c0
:1000d800702a0000702a0000702a0000702a0000b0
:1000e800702a0000702a0000702a0000702a0000a0
:1000f800702a0000702a0000702a0000702a000090
:10010800702a0000702a0000702a0000702a00007f
:10011800702a0000702a0000702a0000702a00006f
:10012800702a0000702a0000702a0000702a00005f
:10013800702a0000702a0000702a0000702a00004f
:10014800702a0000702a0000702a0000702a00003f
:10015800702a0000702a0000702a0000702a00002f
:10016800702a0000702a0000702a0000702a00001f
:10017800702a0000702a0000702a0000702a00000f
:10018800702a0000702a0000702a0000702a0000ff
:10019800702a0000702a0000702a0000702a0000ef
:1001a800702a0000702a0000702a0000702a0000df
:1001b800702a0000702a0000702a0000702a0000cf
:1001c800702a0000702a0000702a0000702a0000bf
:1001d800702a0000702a0000702a0000702a0000af
:1001e800702a0000702a0000702a0000702a00009f
:0801f800702a0000702a0000cb
:020000040000fa
:10020800702a0000702a0000702a0000702a00007e
:10021800702a0000702a0000702a0000702a00006e
:10022800702a0000702a0000702a000030210000a7
:10023800702a0000702a0000702a0000362800008a
:10024800702a0000702a0000702a0000702a00003e
:10025800702a0000702a0000702a0000702a00002e
:10026800702a0000702a0000702a0000702a00001e
:10027800702a0000702a0000702a0000702a00000e
:10028800702a0000702a0000702a0000702a0000fe
:10029800702a0000702a0000621f0000b21f0000d0
:1002a800702a0000702a0000702a0000702a0000de
:1002b800702a0000702a0000702a0000702a0000ce
:1002c800702a0000702a0000702a0000702a0000be
:1002d800702a0000702a0000702a0000702a0000ae
:1002e800702a0000702a0000702a0000702a00009e
:1002f800702a0000702a0000702a0000702a00008e
:10030800702a0000702a0000702a0000702a00007d
:10031800702a0000702a0000702a0000702a00006d
:10032800702a0000702a0000702a0000702a00005d
:10033800702a0000702a0000702a0000702a00004d
:10034800702a0000702a0000702a0000702a00003d
:10035800702a0000702a0000702a0000702a00002d
:10036800702a0000702a0000702a0000702a00001d
:10037800702a0000702a0000702a0000702a00000d
:10038800702a0000702a0000702a0000702a0000fd
:10039800702a0000702a0000702a0000702a0000ed
:1003a800702a0000702a0000702a0000702a0000dd
:1003b800702a0000702a0000702a0000702a0000cd
:1003c800702a0000702a0000702a0000702a0000bd
:1003d800702a0000702a0000702a0000702a0000ad
:1003e800702a0000702a0000702a0000702a00009d
:0803f800702a0000702a0000c9
:020000040000fa
:100400000fd721000e7f22000e018800000000009f
:100410000c000700c0852200010020001100070029
:10042000000020000000e000020032000000020096
:1004300000000000d6280200000000000040da00a2
:100440000000fe004440a900400e20000000e00033
:100450000300320000002000a00188004440a800f2
:100460000000060091018800800078000000eb0089
:1004700015003700e280400032a0b4009101ba00bc
:10048000e280400032a0b4009102ba00e280400055
:1004900032a0b4000002eb00472bde00f507b200eb
:1004a000602ce10004003a000059eb008301e900f0
:1004b000fdff3e00040037006128e100010032002a
:1004c0000082eb00040007001101ba000200e00006
:1004d000e8ff3a00000006003159ba008301e90044
:1004e0000c0032002159ba008301e90008003200f3
:1004f0000400e00003003a00e280400032a0b400b3
:10050000f5ff370011d9ba008301e900faff3a007c
:100510008100e800e180400032a0b4000000060045
:10052000fa0d040000000000ae26040000000000e8
:100530000229040000000000981d040000000000d3
:10054000581d040000000000b61604000000000062
:10055000be18040000000000042404000000000095
:1005600054240400000000009e210400000000004c
:100570002c220400000000001427040000000000ea
:10058000d22504000000000003f0a200889fbe00f6
:100590008a9fbe008c1f78002001070027013300ce
:1005a0006450e1004f0032006420e100520032004c
:1005b00003826c0007003b000905d0000306d00051
:1005c000820f54000c065d00020039000200320068
:1005d00089017800030678008582550004003d00fb
:1005e0000003fd008103fd008502ea008b854200c7
:1005f000840f720002003b0060001000e0801800d1
:100600006011b8000005eb007a28e1000a0039000b
:1006100006007800c75ddd00f707b200878075002f
:100620002d003700828171000a01780061056000a9
:100630008180d1000080d3008502e900f9ff3b00f2
:10064000060440008784480002003b006004140058
:10065000e0841c000988a300070032008a81710031
:1006600082817100610164008904d1000884d30093
:100670008b05e800170037000978a30013003a0043
:100680000b00e000130034008b05e900080444006f
:1006900089844c000a4474000978a3000d003a00d4
:1006a0000b00e000070034008b05e900080444005b
:1006b00089844c0001003a000b0020000978a30057
:1006c000f7ff32000001eb00020037008281710069
:1006d0000a017800960007000cf0a70001f0a000c6
:1006e000df0037006420e10002003a00838f6c00d5
:1006f000df0033000801be000200be00d800370052
:10070000889fbe008a9fbe008c1f7800c300070030
:10071000ca00330003866c006450e1002e003200f2
:100720006420e100330032006150e1002f0032000c
:100730006120e1003100320085855500eb07b000f3
:1007400009002000080420000500370008044400c8
:1007500089844c000a0031000603430087834b0064
:100760000001530081815b00f8ff33000203be00eb
:100770000800a0000804440089844c00f6ff3900fa
:10078000c639dd0083017300010032001300200030
:100790008904d1000884d3000998a3000500320021
:1007a0000800a7000300a0008904d1000884d3003a
:1007b0008b05e8008904d1000884d3000001eb0018
:1007c0000281d2005a00070001f0a1000cf0a7003e
:1007d00001f0a000a20037006420e100a400320074
:1007e0000801be000200be00f7ff37006120e100f3
:1007f0009f0032006000b800f3ff370000002000c7
:1008000001f82700f0ff3700839f68000100e00037
:1008100002003d0060001000e08018000300e000ce
:1008200002003d0060011100e0811900c7000700cf
:100830004f00e00002003b0060001000e080180064
:10084000000006000001be005f0007000470a70062
:1008500003f0a10003f8a30013003a006509b100fa
:1008600010003200090035006928e100020035005f
:1008700001002800000005000000400081804800c1
:100880008502e900fcff3a0000000600f88f4200f4
:10089000050035008100d1000080d3008502e8000a
:1008a000fcff3a00000006008000eb00000005009d
:1008b000889fbe008a9fbe00010578000000e0000e
:1008c000180032000004be006011b8006b0920005f
:1008d0000982cf00020039000882cf000441b00035
:1008e000694252000e00320008003b008281710014
:1008f000610164008904d1000884d3008b05e800fd
:100900000442e800f9ff3a000500370008044400fb
:1009100089844c008b05e9000442e900fbff3a00a2
:10092000030007004f05be004f04be000000060094
:1009300081002000618055000b003d000b0020006d
:1009400061fe2f000100e1001d0034008281710072
:10095000610164008904d1000884d3000000e8002c
:10096000faff3a007100200061006400030070008b
:10097000020060000900320061044400e0844c0081
:100980000988a500050032008b05e8006808e10031
:1009900002003a008904d1000884d300f20f20003d
:1009a0000258e10005003d00c75ddd00f907b20017
:1009b0008980750008007800000006000bf8270009
:1009c0008b00780000000500c70ade00f107b200c6
:1009d000f50fb20008003200e1cf42000200320001
:1009e0000170a00024000500810f7000010032009a
:1009f0000408050044000500810f700002003a0061
:100a0000140005008502e9000000400081c0480094
:100a1000fcff3b000170a000240005000004be00a4
:100a2000e9ff07000003be000405be000200be008f
:100a3000e5ff0700844f7500000006000200be00bd
:100a40006450e100050036006420e1000200360039
:100a50000968a30001003a000800be000160a00080
:100a60004f0678004f05be004f04be000000060090
:100a7000f0ff2f00f1ff2700f9ff3700889fbe002d
:100a80008a9fbe008c1f7800e4ff0700ebff330055
:100a900003866c006450e100240032006420e10011
:100aa000270032006150e100220032006120e100a5
:100ab000210032008b854200eb07b1000134b80001
:100ac000003ab8000804420089844a00013ab8009c
:100ad0000030b8008880400009014a00040033005b
:100ae0000000400081804800020149008b05e900b8
:100af000c909dd00830170000100320013002000ed
:100b0000c814de004814dd004709de001200b20000
:100b1000c808de000884700085ff070001f0a1000e
:100b20000cf0a70001f0a000cdff37006120e1002c
:100b3000cfff32000801be000200be00f7ff370001
:100b40006150e100fcff3a00c9ff37006022b800a5
:100b5000060220000000d0008180d2000482d20072
:100b60008582d2000000a0000202520083825a0057
:100b7000030031000202420083824a000000a1000b
:100b80000603e900f3ff3a00000006008001780048
:100b900002003700b1597800040178000202e90030
:100ba000e00f5100fbff3a000000060080017800d2
:100bb0000200370081597800040178000202e90040
:100bc000e00f5100fbff3a000000060080017800b2
:100bd000060037000201e9001142780084597800cc
:100be000e04f5200060032008100e800e00f5100a3
:100bf000f8ff3a00020037008059eb00010178004d
:100c00008200e900e00f5100fbff3a0000000600ff
:020000040000fa
:100c1000514300006f6e000073420000310000007d
:100c200051500000726f000064420000320000006a
:100c3000514300006f6e000073420000330000005b
:100c400051500000726f0000644200003400000048
:100c500051500000726f0000644200003500000037
:100c6000514300006f6e0000734200003600000028
:100c700043680000656300006b0000004927000026
:100c80006d200000616e0000204c00004344000015
:100c90000041000072650000207700006520000020
:100ca0005541000052540000207400006f6700009e
:100cb0006574000068650000723f00000d0a0000c6
:100cc0000000000011110000222200003333000058
:100cd0004444000055550000666600007777000028
:100ce0008888000099990000aaaa0000bbbb0000f8
:100cf000cccc0000dddd0000eeee0000cecd00002b
:100d0000acab0000492700006d200000612000000e
:100d100055610000727400003b200000486500002f
:100d20006c6c00006f200000576f0000726c0000b8
:100d3000642100000d0a0000000000004c43000088
:100d40004400000077770000772e00004672000014
:100d500065650000525400004f5300002e6f0000e4
:100d6000726700000000000096000000c80000004c
:100d7000fa0000002c0100005e010000900100005c
:100d8000c2010000f401000042540000657300003d
:100d900074310000004200005465000073740000cc
:100da00032000000434f00004d5400007800000066
:100db000434f00004d52000078000000496e0000d3
:100dc000744d000061740000680000004944000098
:080dd0004c450000000000008a
:020000040000fa
:100dd8001600fa003007980041079800520798005b
:100de8006307980074079800050f9800160f98007d
:100df800270f98009e0890005e009000e603070009
:100e0800100798001e009000e00f500057003200b5
:100e18001e009000c0089000210798001e00900056
:100e2800c00890005e0090000000e900000040004b
:100e3800808040001e009000710898005e029000bb
:100e4800ae0990007e019000ce0090001e00900038
:100e5800710307006e019000be0090002e00900004
:100e68006c0c0700800078001e00900001087800d4
:100e78000e089000e00f5000030032000e089000aa
:100e88009e00900001087800dc0c070030e5800027
:100e98000000e80030e58800c0ea8000e00f50005c
:100ea80007003a001e009000c0ea880030e5800084
:100eb800e10f50000c003a007e0307000a003700db
:100ec80070e58000e00f500007003a00c0ea80009b
:100ed800b00890007e009000808f500002003e0015
:100ee8009e009000c1ea88001e009000b0089000a3
:100ef80050e58000808f5000030036001e009000ef
:100f08003008900050e58800c0e580000000e80047
:100f1800c0e588001e009000b008900060e58000e1
:100f2800808f5000030036001e00900030089000ab
:100f380060e588001e0090000081e8001e00900017
:100f4800300890006a00b9008000780020c52100b0
:100f58000080400082007800930d070010002000f8
:100f6800000f7800af0c0700020037000080eb008c
:100f7800000f78001e007800e10f50000b003a00c7
:100f880070e58000e00f500008003200c0ea8000e1
:100f9800b00890007e009000808f50000300310060
:100fa800202a020000000000000000001e00780057
:100fb8000080fa00000006000a00fa0030079800d6
:100fc800410798000000eb00000f7800800107003f
:100fd8003e009000900078004e0090000080400095
:100fe800100798003e0090009000780040e58000cf
:100ff800808f50000c0036003e0090009000780072
:101008001e009000808f50001200360040e58000de
:101018009e009000808f50000e00360010002000c7
:10102800000f78000b0037003e0090009000780019
:101038001e009000808f500004003e0040e58000b4
:101048009e009000808f50000200360010002000a3
:10105800000f78003e0090009e0090000108780084
:101068001e007800e00f500005003200c0ea800042
:101078000080e800a00d07001e0090002c03070068
:1010880059010700200798002e009000e00f50003b
:1010980003003a00202a02000000000000000000bf
:1010a8000080fa00000006000600fa0020079800f9
:1010b8000000eb00000f78002e009000e00f5000b9
:1010c8000c0032004201070041e580002e0090002c
:1010d8000080400010079800c0ea80000080e80007
:1010e800850d07001e009000110307003e01070050
:1010f800000f78001e007800e00f500003003a004f
:10110800202a020000000000000000000080fa0011
:10111800000006000a00fa0030079800410798000e
:101128000000eb00000f78004e009000e30f500025
:101138000200360030002000400798002f0c0700fe
:10114800c0ea8000be009000808f500002003a0084
:101158000000eb00300798003e009000e00f5000c0
:1011680002003a00c0ea8000010037003e0090000b
:10117800100798001e009000b00890002107980002
:10118800ae0090004e009000808f50003a00320070
:10119800ce0090002e009000808f50000600360090
:1011a8003e009000e00f50000800320010002000c0
:1011b800000f7800050037003e009000e00f500057
:1011c80002003a0010002000000f78001e00900076
:1011d800ce009000310898004e009000e400100006
:1011e8001e009000610098001e00900050019000c1
:1011f8002e0090006a00b9008000780020c5210008
:1012080000804000800f510015003a001e00900039
:101218000080e800380d07001e009000b00890001c
:1012280060e58000808f5000030036001e009000ab
:101238003008900060e588001e0090000081e800fa
:101248001e009000300890006a00b9008000780005
:1012580020c521000080400082007800d20c0700e1
:101268001e007800e10f500003003a00202a020017
:101278000000000000000000ea0b07000080fa00f0
:10128800000006000400fa0010079800db0b0700b6
:10129800c0ea80009e009000808f500002003a0053
:1012a8000000eb00100798001e009000e00f5000af
:1012b80002003a00c0ea8000010037001e009000da
:1012c800000f78001e80e8000b0d07001e00780054
:1012d80020089000e00f5000030032009e007800c4
:1012e8006c804000040d07001e80e8008000780034
:1012f800c0c92100ac0c0700ca0b07001e009000f3
:10130800e00f50000f003a0070e58000e00f500039
:1013180004003200202a0200000000000000000043
:1013280008003700e1e4800030e58000808f50003d
:1013380003003a000000eb00c0ea88000100370013
:10134800680107000080fa00000006000600fa00a5
:10135800200798000000eb00000f78002e00900096
:10136800100798001e009000d0009000c0c921000e
:10137800808f50000b003a001e009000a0089000db
:1013880020c92100808f5000060032001e00900006
:1013980020089000e00f500002003a0010002000e2
:1013a800000f78001e0078000080fa000000060098
:1013b8000400fa00100798001e009000000f780043
:1013c8001e007800e00f500026003200c0ea8000be
:1013d8009e007800808f500022003200870b0700a3
:1013e8001e007800d9ff0700e10f50001c003a00ea
:1013f8001e80e800c00c07001e007800b0089000ae
:1014080060e58000808f5000030036001e007800e1
:101418003008900060e588001e81e8001e00780012
:10142800300890006a00b9008000780020c52100cb
:1014380000804000820078005b0c07001e007800e6
:10144800b0089000c0ea800030089000808f5000fb
:1014580003003900202a02000000000000000000fc
:10146800700b07000080fa00000006000800fa0070
:10147800300798000000eb00000f78003e00900055
:10148800100798000000eb00200798001e0090004d
:10149800aeff0700e10f500027003a0080e580000a
:1014a800e00f50001f003a001e0090003009900025
:1014b800c0ea8000b008900010002000810f5100a1
:1014c800010031000000eb00000f78001e009000c2
:1014d8000080e800880c07001e009000b00890000b
:1014e80060e58000808f5000030036001e009000e9
:1014f8003008900060e588001e0090000081e80038
:101508001e009000300890006a00b9008000780042
:1015180020c521000080400082007800220c0700ce
:10152800050037001e0090006c0040008000780025
:1015380020c921001c0c07001e0078000080fa005a
:10154800000006000200fa008003eb000003eb0035
:101558008002eb000002eb008001eb003207200064
:10156800616e2800a0df200019fe0700000f780038
:101578001e007800e10f500009003a0011028000b7
:101588000002200000807000100288001000200077
:1015980070e588000000eb0040e58800e60a0700d7
:1015a8000080fa00000006000000fa001102800026
:1015b8000002200000807000100288000000eb008c
:1015c80070e58800f30a07000080fa0000000600b2
:1015d8000000fa0080e580000000e80080e588004f
:1015e8000080fa00000006000400fa00881f780056
:1015f8000000eb00000f7800000b070080e580007a
:101608000000e90080e5880080e58000e00f5000d8
:101618003f003a0030e58000e00f50003c00320007
:101628000000eb00100798001c003700c0e48000a1
:1016380030009000000478006c0044002e0c070075
:101648000880e8002c0c0700b808900060e58000ce
:10165800808f5000020036003808900060e588004e
:101668000881e800380890006a00b9008000780016
:1016780020c521000080400082007800ca0b0700c6
:10168800b8089000c0ea800030089000808f5000b1
:1016980002003900100020001007980090e4800034
:1016a800e00f5000e1ff3a0090e58000e00f5000a5
:1016b8000a003200040037002e00070090e5800081
:1016c8000000e90090e5880090e58000e00f5000f8
:1016d800f9ff3a0010002000100798001e00900043
:1016e800e10f500003003200a0e58000e10f500038
:1016f80007003a0010002000000f78000000eb00ff
:10170800a0e58800202a0200000000000000000078
:10171800c40a07001e0078004f0478000080fa0011
:10172800000006000200fa00b40a070040e5800045
:10173800000f7800bb0a07001e0078000080fa003e
:10174800000006000400fa000000eb00000f78001b
:1017580040e58000100798001e0090000080fa0005
:10176800000006000000fa0030e580000080fa0062
:10177800000006000600fa0080e58000e00f500037
:1017880053003a0040e580000000e80040e588008a
:1017980040e58000e00f500017003a0070e4800038
:1017a800000f780080e4800070e488009e007800d4
:1017b80081e48800b0e580000000e800b0e588001a
:1017c80070e4800010007800e00f500003003a0039
:1017d8000080eb00d0ea88000700370070e4800042
:1017e8003000900030009000100798001e00900014
:1017f80010009000d0ea880041e58000d0ea80001f
:10180800808f50003500390070e4800010007800a7
:10181800e00f500003003a000080eb00d0ea880097
:101828002e00370070e480003000900030009000f7
:10183800100798001e009000900090002107980063
:1018480041e580002e009000808f50000300310099
:101858002e009000d0ea8800200037001e0090007b
:101868000080e800a40b07001e00900020089000ec
:10187800e00f5000030032001e0090006c00400092
:101888009d0b07001e009000b008900060e58000e6
:10189800808f5000030036001e0090003008900032
:1018a80060e588001e0090000081e8001e0090009e
:1018b800300890006a00b9008000780020c5210037
:1018c8000080400082007800370b0700ceff370009
:1018d80090e580000000e80090e588000080fa00ac
:1018e800000006000200fa0080e58000e00f5000ca
:1018f8000700320010002000a0e58800260037000d
:1019080060e580000000e90060e58800010037001c
:101918000000000060e580006a00b90080007800df
:1019280020c521000080400010007800e00f500022
:10193800f3ff320060e580006a00b900800078009b
:1019480020c52100008f40001e0078001000900084
:10195800900090001e007800110098001e0078008a
:10196800900090001e01780064004100808f5000b4
:1019780005003a001e0078001000900090009000ca
:101988001e007800110098001e00780010009000da
:1019980030009000c0ea88000080fa0000000600cd
:1019a8000600fa001007980021079800c0ea800096
:1019b8006c004000800078001e0090001c0b07009f
:1019c800c0ea80000080e8004b0b07002e00900062
:1019d800e10f400006003a00c0ea80000080e800fd
:1019e80080007800c0c92100ef0a07000500370011
:1019f80041e580002e009000008f40001e00780016
:101a0800cb0007000080fa00000006000600fa007c
:101a1800200798002e0090003000900030009000c1
:101a2800100798001e0090006c004000320b070061
:101a380080e58000e00f500016003a001e0090007c
:101a48000080e8002c0b07001e009000b0089000f2
:101a580060e58000808f5000030036001e00900073
:101a68003008900060e588001e0090000081e800c2
:101a78001e009000300890006a00b90080007800cd
:101a880020c521000080400082007800c60a0700b7
:101a9800050037001e0090006c00400080007800b0
:101aa80020c92100c00a07001e009000b00890005d
:101ab800c0ea800030089000808f50000300390091
:101ac80010002000000f7800020037000000eb0033
:101ad800000f78001e0078000080fa000000060061
:101ae8000200fa00000f7800b1e580001e007800bf
:101af8000108780041e580001e0078001100980078
:101b08000080fa00000006000600fa00100798009e
:101b180021079800b90907002e00900010007800ee
:101b2800e10f400003003a000000eb00000f7800ce
:101b3800250037001e00900090007800b0e5800076
:101b4800808f5000080032001e0090009000900026
:101b580040e58000808f500003003e001000200008
:101b6800000f78001800370041e580001e00900043
:101b780010009000808050002e0090001000780027
:101b8800808f50000e0031002e00900090007800e9
:101b98001e0090001001900040e5800000005100f8
:101ba800808040002e009000010878001e00900000
:101bb800cbff07000000eb00000f780002003700a1
:101bc80010002000000f7800960907001e0078001a
:101bd8000080fa00000006000000fa001000200053
:101be800a0e588000080fa00000006000200fa0064
:101bf800000f78004b00070090e28000e10f5000d2
:101c080003003600202a0200000000000000000047
:101c18009c0d0700f7ff37000a00fa00000f780054
:101c28001107980022079800330798004407980086
:101c38009e0078007a804000420020009e009000bc
:101c4800e0fb07009e0078000040eb00d0589800a9
:101c58002e009000e30f50000200360030002000f4
:101c6800200798001e007800ae0090003108980008
:101c78001e80e800450a07009e0078006c8040003e
:101c8800420a07001e0078009e0078004100980074
:101c98002e009000e40010001e00780061009800fb
:101ca8001e0078009e007800110898000080fa0055
:101cb800000006000200fa000000eb00000f7800a8
:101cc800070037001e0078006a00b900800078001d
:101cd80020c5210000804000130a07001e0fe800fd
:101ce8001e007800e30f5000f6ff3600a0c7210061
:101cf8000d0a070040c821000b0a070020c921006f
:101d0800090a0700c0c92100070a0700a0c7210067
:101d180070e4880040c8210080e488000080fa0050
:101d2800000006000000fa000080fa00000006002b
:101d38000200fa00000f7800c0ea80009e007800d8
:101d48001100980040e580009e007800808f5000c8
:101d580005003100c0ea80008080e80080e480004f
:101d6800330a07000a003700c0ea80008080e800d4
:101d780070e480002e0a0700d0ea80009e007800f8
:101d8800808f5000020031001e007800d0ea8800e1
:101d98000080fa00000006000600fa00100798000c
:101da8002107980000022000390d0700000f780075
:101db8001e007800e00f50001b0032002e0090003b
:101dc800e00f500004003a001e00900000004000a0
:101dd8002f0d0700010037002e0090009e007800ac
:101de800c00898001e00780040089000e00f5000de
:101df80005003a001e0078004b0d07000000eb00bc
:101e0800000f7800080037001e0090000000400016
:101e1800800078001e0078004008900001017800da
:101e2800510a20005ffb07001e0078000080fa00be
:101e3800000006000400fa00000f7800110798005f
:101e4800ee0807001e007800100178001e007800d8
:101e5800f00890001e007800001090000088b9007b
:101e680000007800800041001e00780011009800f2
:101e78001e0078008000eb00610898001e007800c2
:101e8800900078001e007800210098001e0078005d
:101e9800100178001e007800700890008000e900aa
:101ea8001e007800001090000088b900000078003b
:101eb800800041001e007800310098001e00780064
:101ec8008080eb00111098001e0078008080eb00e5
:101ed800211098001e009000e00f50000d003a00fd
:101ee8001e00780040009000e00f50000f00320004
:101ef8009e00780068804000c4fe0700e10f500093
:101f08000a003a00202a0200000000000000000039
:101f1800060037009e0078006880400082090700ac
:101f28009e007800728040007f090700bd08070006
:101f3800100020000080fa00000006000c00fa00e3
:101f48003007980041079800224f98000000eb00e6
:101f5800000f78003e009000e00f50002300320090
:101f680060022000ca0c0700100798001e009000ad
:101f7800e00f50001d003200be0090004e0090009f
:101f88000088b900000078000000e80020079800e9
:101f98002e009000be0c0700800078001e00900004
:101fa800010878001e00900010007800e00f500033
:101fb8000c0032001e009000be00900071089800ce
:101fc8001e009000ce009000011098001100200023
:101fd8001e00900097ff07001e009000000f780079
:101fe800020037001e009000cf0c07001e0078008a
:101ff8000080fa00000006000e00fa003007980082
:102008004107980052079800630798000000eb000a
:10201800000f780001003700000000007708070073
:102028003e009000e00890003e009000700890008c
:10203800808f5000130031006e019000ce00900098
:102048003e009000480107003e00900010089000f4
:10205800e00f5000080032003e009000720040007f
:102068006afe0700e10f500003003a00202a020030
:1020780000000000000000006a08070010002000af
:102088003d0037005e009000e00f500003003a006a
:10209800640807000000eb00370037001e007800d6
:1020a800e00f500004003a000e80e8008cfe0700a4
:1020b80010002000000f78005a08070044fd0700b0
:1020c8004e0807003e00900010109000e10f4000fd
:1020d80003003a003e0090008000eb0011109800c9
:1020e8003e00900020109000e10f400003003a00ed
:1020f8003e0090008000eb0021109800490807007e
:10210800ea0047000e80e8007ffe0700e00f50005d
:1021180015003a003e009000d1010700e00f500082
:102128000d003200de0090003e0090006800400084
:102138001bfe07003e009000750107002afd0700fe
:10214800e00f5000b4ff3a00202a0200000000000f
:1021580000000000b1ff37003e0090006c0107004e
:1021680021fd0700adff37003e0090006801070021
:102178001dfd07000000eb000080fa0000000600cb
:102188000c00fa00200798003107980042079800d1
:10219800530798000000eb00100798002e009000ed
:1021a800e00890002e00900070089000808f50008a
:1021b800200031005e019000be0090002e009000cb
:1021c800e90007002e00900020109000e10f400069
:1021d80010003a002e00900010089000e00f500008
:1021e800110032002e0090007200400007fe070028
:1021f800e00f50000c0032004e009000e00f50003d
:10220800090032004e0090001100200001087800fb
:10221800050037002e009000201090008000e80094
:102228002e0090002110980010002000000f780068
:10223800020037000000eb00000f78001e00780055
:102248000080fa00000006001000fa00400798001d
:102258005107980062079800730798000000eb0088
:10226800000f78000100370000000000e3070700b6
:102278004e00900060089000e00f50002d003200e2
:102288004e009000b000900011079800de0090000a
:102298004e009000fc0007007e009000e00f500008
:1022a80012003a004e009000600890008000e9009b
:1022b8004e009000610898004e0090004000900089
:1022c800e00f5000180032004e00900068004000f7
:1022d800cefd0700e10f500013003a00202a02004b
:1022e80000000000000000000f0037004e009000c2
:1022f8009e009000310098004e0090001008900059
:10230800e00f5000080032004e00900072004000bc
:10231800befd0700e00f500003003200202a020033
:102328000000000000000000be07070010002000a9
:102338003d0037006e009000e00f500003003a00a7
:10234800b80707000000eb00370037001e007800d0
:10235800e00f500004003a0064004700e0fd070069
:1023680010002000000f7800ae07070098fc070057
:10237800a20707004e00900010109000e10f4000e7
:1023880003003a004e0090008000eb001110980006
:102398004e00900020109000e10f400003003a002a
:1023a8004e0090008000eb00211098009d07070068
:1023b800ec00470064004700d3fd0700e00f500021
:1023c80015003a004e0090000b010700e00f500086
:1023d8000d003200ee0090004e00900072004000a8
:1023e8006ffd07004e009000c90007007efc070043
:1023f800e00f50009cff3a00202a02000000000075
:102408000000000099ff37004e009000c000070050
:1024180075fc070095ff37004e009000bc000700d0
:1024280071fc07000000eb000080fa0000000600c5
:102438000a00fa0020079800310798004207980020
:102448000000eb00100798002e0090006008900034
:10245800e00f500024003200be0090002e009000d3
:10246800890007002e009000600890008000e900b5
:102478002e009000610898002e0090001010900027
:10248800e10f400010003a002e009000400090003c
:10249800e00f5000110032002e009000680040004c
:1024a8005afd0700e00f50000c0032004e0090006b
:1024b800e00f5000090032004e009000110020008b
:1024c80001087800050037002e00900010109000d9
:1024d8008000e8002e0090001110980010002000e5
:1024e800000f7800020037000000eb00000f7800b2
:1024f8001e0078000080fa00000006000400fa00c0
:10250800100798003d0707001e009000e0089000a3
:10251800010f7800430707001e0078000080fa00ca
:10252800000006000400fa00100798001e00900042
:10253800e0089000010f78001e0078000080fa0083
:10254800000006000200fa00000f78001e00780064
:1025580010007800740b07001e007800720b07004b
:102568000080fa00000006000600fa00000f78005c
:1025780011079800220798001e00780000109000ac
:10258800e00f5000390032002e009000e00f50009c
:1025980019003a001e007800801090001e00780094
:1025a80020009000010178009e00900075f9070056
:1025b8001e007800a00090001e0078000010900017
:1025c800808040001e007800210098001e007800de
:1025d800a00090001e00780010009000808f50002e
:1025e800220039001e007800900078001e00780054
:1025f800210098001d0037001e0078008010900010
:102608001e00780030009000010178009e009000c4
:102618005cf907001e007800b00090001e007800ea
:10262800001090000000ea00808040001e00780042
:10263800310098001e007800b00090001e0078005d
:1026480010007800808f5000080031001e007800cc
:10265800900090001e007800001090000000ea0032
:10266800808040001e007800310098001e0078002d
:10267800600890008000e8001e007800610898005b
:102688000080fa00000006000400fa00000f78003d
:10269800110798001e00780010007800e00f500025
:1026a800190032001e007800b00090001e0078006b
:1026b80000109000808040001e00780031009800d3
:1026c8001e007800b00090001e00780010009000f6
:1026d800808f5000040039001e00780090007800b8
:1026e8001e007800310098001e00780080109000cd
:1026f8001e0078003000900001017800800078000a
:102708001e0090001ff907000080fa000000060074
:102718000200fa00000f7800b80607000f00370023
:102728001e00780010089000e00f500010003200e2
:102738009e00780072804000b4fc0700e00f500053
:102748000100320024fd07001e00780020109000d0
:102758008000e9001e007800211098001e00780013
:1027680020109000e00f5000edff3c000100370002
:10277800000000001e0078008080eb002110980007
:10278800a80607009d0607000f0037001e00780006
:1027980040009000e00f5000100032009e007800ca
:1027a8006880400099fc0700e00f500001003200eb
:1027b80009fd07001e007800101090008000e90055
:1027c8001e007800111098001e007800101090006c
:1027d800e00f5000edff3c00010037000000000052
:1027e8001e0078008080eb00111098008d0607000d
:1027f8000080fa00000006000400fa0010079800a4
:102808007e0607001e009000e008900010002000df
:10281800e08f5000010032000000eb00000f78004c
:10282800800607001e0078000080fa0000000600fd
:102838000400fa00100798001e009000e0089000bd
:1028480010002000e08f5000010032000000eb0073
:10285800000f78001e0078000080fa0000000600d3
:102868000400fa0010079800640607001e00900094
:10287800600990001e009000f008900010002000f1
:10288800810f5100010032000000eb00000f7800ba
:10289800640607001e0078000080fa0000000600a9
:1028a8000400fa00100798001e00900060099000cc
:1028b8001e009000f008900010002000810f5100c9
:1028c800010032000000eb00000f78001e007800c5
:1028d8000080fa00000006000800fa0010079800bf
:1028e800210798003207980011028000000220009a
:1028f80000807000100288001e009000d8ff0700ba
:10290800e00f5000140032003e009000e00f50002d
:102918000b0032001e009000680040008000780024
:102928003e009000c102070011028000f0fd2f0058
:102938000080600010028800c0ff2f002e003700c2
:1029480011028000f0fd2f00008060001002880056
:102958000000eb002800370011028000f0fd2f0076
:102968000080600010028800000000001102800052
:102978000002200000807000100288001e009000f5
:10298800e00890001e00900070089000808f5000b2
:10299800120031000001eb00ae0090001e00900014
:1029a800f1fe070010002000000f78001e009000c4
:1029b80010089000e00f50000a0032001e0090003e
:1029c8007200400086030700e00f50000500320047
:1029d800b0ff2f00000f7800020037000000eb0066
:1029e800000f780011028000f0fd2f0000806000c9
:1029f800100288001e0078000080fa00000006001f
:102a08000800fa001007980021079800320798007c
:102a1800110280000002200000807000100288006f
:102a28001e00900060089000e00f500014003a006b
:102a38003e009000e00f50000b0032001e00900096
:102a480072004000800078003e0090007702070086
:102a580011028000f0fd2f00008060001002880045
:102a6800c0ff2f004600370011028000f0fd2f0044
:102a780000806000100288000000eb004000370072
:102a880011028000f0fd2f00008060001002880015
:102a98000000000011028000000220000080700089
:102aa800100288001e00900060089000e00f50009f
:102ab8002c0032001e009000b00090001e00900014
:102ac80000109000808040001e00900031009800a7
:102ad8001e009000b00090001e00900010009000b2
:102ae800808f5000040039001e009000900078008c
:102af8001e009000310098001e00900060089000b1
:102b08008000e9001e009000610898001e009000f7
:102b1800801090001e0090003000900001017800a5
:102b2800800078002e00900016f8070010002000a2
:102b3800000f78001e00900040009000e00f500049
:102b48000a0032001e0090006800400024030700bd
:102b5800e00f500005003200b0ff2f00000f780092
:102b6800020037000000eb00000f7800110280001f
:102b7800f0fd2f0000806000100288001e00780021
:102b88000080fa00000006000600fa00000f780036
:102b980011079800220798001e007800e0089000ae
:102ba8001e00780070089000808f500012003100dd
:102bb8000001eb009e0090001e0078006afe0700ee
:102bc8002e009000e00f50000b003a001e00780025
:102bd80010089000e00f5000070032009e007800b7
:102be80072804000fe020700e00f50000200320031
:102bf80010002000010037002e0090000080fa002d
:102c0800000006000800fa00100798002107980045
:102c1800320798001e00900060089000e00f5000f6
:102c2800310032001e009000b00090001e0090009d
:102c380000109000808040001e0090003100980035
:102c48001e009000b00090001e0090001000900040
:102c5800808f5000040039001e009000900078001a
:102c68001e009000310098001e009000600890003f
:102c78008000e9001e009000610898001e00900086
:102c8800801090001e009000300090000101780034
:102c9800800078002e009000baf707003e009000f0
:102ca80010007800e00f50000c003a001e00900061
:102cb80040009000e00f5000080032001e00900015
:102cc80068004000c6020700e00f50000300320011
:102cd8003e0090001100200001087800100020003c
:102ce800000f7800020037000000eb00000f7800aa
:102cf8001e0078000080fa00000006000000fa00bc
:102d08000041eb0021002000500020008bfc070050
:102d1800e0e988008003eb000003eb008002eb0091
:102d2800140020008001eb0032072000416c2800cd
:102d3800606b210026f807008003eb000003eb001e
:102d4800e5d321000002eb008001eb0032072000f0
:102d5800b16c2800e08b21001df807000080fa0004
:102d6800000006000c00fa00500798000000eb0075
:102d780030079800220037003e009000a100200094
:102d88000008dd00000f780066fa070010079800b9
:102d9800e0e98000e80047008001eb001e017800b0
:102da80029fd0700e00f500002003200100020004b
:102db80020ea88005bfa07009e009000010050009e
:102dc800200798002e0090009e0f5000020031004e
:102dd8001000200020ea88001e007800ef00400064
:102de8002e009000808f500002003100100020005b
:102df80020ea88003e0090000000e80030079800b4
:102e08003e009000e40f5000dbff34000000eb00b0
:102e1800300798000c003700e0e98000e600470022
:102e28008001eb000001eb0073fc0700e10f50008c
:102e3800020032001000200020ea88003e009000c6
:102e48000000e800300798003e009000e40f5000b2
:102e5800f1ff34000000eb00300798002200370033
:102e68003e009000a10020000008dd00000f78005f
:102e78002cfa070010079800e0e98000e6004700f8
:102e88008001eb001e0178005bfc0700e00f50009a
:102e9800020032001000200020ea880021fa070012
:102ea8009e00900001005000200798002e0090001e
:102eb8009e0f5000020031001000200020ea880018
:102ec8001e007800ef0040002e009000808f500018
:102ed800020031001000200020ea88003e00900027
:102ee8000000e800300798003e009000e40f500012
:102ef800dbff34000000eb0030ea8800f0e98000d6
:102f08002bf90700020037004001200066f807008f
:102f180031ea800050052000808f5000faff3a0007
:102f28004001200060f807000000eb0030ea88004c
:102f38000000eb003007980027003700e0e9800028
:102f4800e80047008001eb000001eb00befc070031
:102f5800e10f5000020032001000200020ea880033
:102f6800e0e98000e60047008001eb000001eb008b
:102f780021fc0700e10f5000020032001000200081
:102f880020ea880031ea800050052000808f500038
:102f980002003a001000200020ea8800f0e98000d2
:102fa800310020005bf8070031ea8000500520005e
:102fb800808f500002003a001000200020ea8800ac
:102fc800f0e980008000eb0052f807003e00900016
:102fd8000000e800300798003e009000e40f500021
:102fe800d6ff340002003700400120002ef8070009
:102ff80031ea800050052000808f5000faff3a0027
:103008004001200028f807000000eb0030ea8800a3
:103018000000eb00300798000c003700e0e9800062
:10302800e80047008001eb000001eb0086fc070088
:10303800e10f5000020032001000200020ea880052
:103048003e0090000000e800300798003e00900025
:10305800e40f5000f1ff3400f0e98000d4f80700d5
:1030680002003700400120000ff8070031ea800015
:1030780050052000808f5000faff3a0040012000e0
:1030880009f807000000eb0030ea88000000eb00b8
:103098003007980027003700e0e98000e600470085
:1030a8008001eb000001eb00d3fb0700e10f5000ab
:1030b800020032001000200020ea8800e0e98000c9
:1030c800e80047008001eb000001eb005efc070010
:1030d800e10f5000020032001000200020ea8800b2
:1030e80031ea800050052000808f500002003a002d
:1030f8001000200020ea8800f0e98000310020005c
:1031080004f8070031ea800050052000808f500045
:1031180002003a001000200020ea8800f0e9800050
:103128008000eb00fbf707003e0090000000e8007d
:10313800300798003e009000e40f5000d6ff34009e
:103148000200370040012000d7f7070031ea80006d
:1031580050052000808f5000faff3a0040012000ff
:10316800d1f7070000ea80000000e80000ea8800c4
:10317800fefe37000800fa00300798000000eb0058
:1031880040f8070067f90700000f78000000eb001f
:10319800200798005005200030ea8800e0e9800008
:1031a800e40047008001eb00f20a200092fb0700d0
:1031b800e00f5000020032001000200020ea8800d2
:1031c80058f907001e005000100798009e00900054
:1031d800e00a2000808f500002003e00100020000e
:1031e80020ea88009e009000e00b2000808f5000ad
:1031f800020036001000200020ea88005005200058
:1032080030ea88000000eb001ef8070045f90700c7
:10321800000f78005005200030ea8800e0e98000bf
:10322800e40047008001eb00f20a200006fc0700da
:10323800e00f5000020032001000200020ea880051
:1032480038f907001e005000100798009e009000f3
:10325800e00a2000808f500002003e00100020008d
:1032680020ea88009e009000e00b2000808f50002c
:10327800020036001000200020ea880050052000d7
:1032880030ea880010ea80000000e80010ea8800b0
:10329800baff37000200fa0010002000000f780083
:1032a80001ea800040ea8000808f500002003a0066
:1032b8000000eb00000f780011ea800050ea80005f
:1032c800808f500002003a000000eb00000f7800e9
:1032d80020ea8000e10f500002003a000000eb00f5
:1032e800000f780010ea800050ea880000ea8000a9
:1032f80040ea88001e0078000080fa0000000600fe
:103308000a00fa0020079800310798004207980041
:10331800c0012000de070700100798001e0090007b
:10332800e00f50003c00320000eb8000e00f50003e
:1033380003003a001e00900000eb88000e01070011
:103348003e009000e10f50000200360010002000ff
:10335800300798001e0090008000eb00510898008c
:103368001e009000be009000310898001e009000da
:10337800ce009000410898001e009000ae0090001a
:10338800010878001e0090000080e8007f04070014
:103398001e0090006c0040007c0407001e00900096
:1033a8009e009000410098001e0090009e00900032
:1033b800110898003e009000e40010001e009000e4
:1033c800610098001e009000b008900080e780001f
:1033d800808f5000030036001e00900030089000d7
:1033e80080e788001e0090000081e8001e00900021
:1033f800300890006a00b90080007800a0cb210056
:103408000080400082007800670407001000200058
:10341800000f7800020037000080eb00000f7800f2
:103428001e0078000080fa00000006000600fa007e
:10343800100798002107980091e780001e0090006f
:10344800008f400000eb80000080e800aa0407001d
:1034580000eb80009e0078001100980090e7800043
:103468009e007800808f50000500310000eb80003e
:103478008080e80020e780006d0407000400370022
:1034880000eb80008080e80010e7800068040700f7
:103498002e009000e00f50000500320000eb800085
:1034a8006c004000800078002e0090006004070047
:1034b8000080fa00000006000200fa002100370030
:1034c80011028000000220000080700010028800b5
:1034d80060e7800030009000000f78009e007800c0
:1034e8006c8040008404070011028000f0fd2f006a
:1034f80000806000100288001e80e8007e0407003b
:103508001e007800b008900080e78000808f50008f
:10351800030036001e0078003008900080e788001d
:103528001e81e8001e007800300890006a00b9008b
:1035380080007800a0cb2100008040008200780045
:103548001904070030e78000e00f5000dcff3a0064
:103558000080fa00000006000400fa0071f8070075
:10356800a1e7800001005000b0e78800450037005f
:1035780090e780000000e80090e78800b0e780004e
:103588000000e900b0e7880090e78000e00f5000f5
:1035980035003a0010e78000000f780020e780002f
:1035a80010e788001e00780020e788002f00370009
:1035b80010e780003000900030009000100798005d
:1035c8001e0090009000900090e78000808f5000cf
:1035d8002b003e00110280000002200000807000d5
:1035e800100288001e0090000080e80042040700d6
:1035f8001e00900020089000e00f500003003200e9
:103608001e0090006c0040003b040700110280007f
:10361800f0fd2f0000806000100288001e0090005e
:10362800b008900080e78000808f500003003600cb
:103638001e0090003008900080e788001e0090006f
:103648000081e8001e009000300890006a00b90070
:1036580080007800a0cb2100008040008200780024
:10366800d1030700010037000000000010e78000c8
:1036780010007800e00f5000cdff3a00010037003d
:1036880000000000b0e78000e00f5000b8ff3a00eb
:1036980090e78000a0e788000080fa00000006009c
:1036a8000200fa0084ff0700abff0700060037009e
:1036b80080e78000e00f50002c00320080e7800097
:1036c8000000e90080e7880080e780006a00b90010
:1036d80080007800a0cb2100008040001000780016
:1036e800e00f5000f2ff320080e780006a00b90066
:1036f80080007800a0cb2100008f40001e007800d9
:1037080010009000900090001e00780011009800b2
:103718001e007800900090001e01780064004100af
:10372800808f500005003a001e00780010009000bd
:10373800900090001e007800110098001e0078008c
:10374800100090003000900000eb880000eb800033
:103758001001780000eb8000c008900000eb8000aa
:103768000200010000000000010037000000000016
:103778000080fa00000006000200fa000000eb00da
:10378800000f7800070037001e0078006a00b900b3
:1037980080007800a0cb2100008040006203070071
:1037a8001e0fe8001e007800e10f5000f6ff3600fb
:1037b800e0cc21005c03070080cd21005a030700fc
:1037c80060ce210058030700e0cc210010e78800f4
:1037d80080cd210020e788000080fa000000060064
:1037e8000600fa00200798002e0090003000900094
:1037f80030009000100798001e0090006c004000f8
:10380800bd0307001e0090006c0040008000780097
:1038180060ce2100640307001e009000b0089000ed
:1038280000eb800030089000808f500003003900c2
:1038380010002000000f7800020037000000eb00a5
:10384800000f78001e0078000080fa0000000600d3
:103858001600fa00200f980010002000000f7800d2
:103868005000200010079800803e20002007980094
:103878000000eb0030079800600020008406070075
:10388800400798000041eb00210020001e0078004e
:10389800aaf90700ce009000800878004e0090003a
:1038a800ae009000110098004e00900041d2210017
:1038b8002100980060002000750607005007980056
:1038c8004e009000900078005e009000010878009b
:1038d8005e009000be009000110098005e0090000d
:1038e800a1d22100210098008003eb000003eb0027
:1038f8008002eb002e0a9000ce01900032072000d3
:103908008160280080d9210031f507008003eb0091
:103918000003eb008002eb000002eb00de019000e8
:10392800320720000161280080d5210028f5070012
:103938006000200056060700600798000041eb0071
:10394800210020001e0078007cf90700ee0090009e
:10395800800878006e009000be009000110098006a
:103968006e009000c1d22100210098006000200064
:1039780047060700700798006e00900090007800d6
:103988007e009000010878007e009000ae00900054
:10399800110098007e00900061d22100210098005b
:1039a8008003eb000003eb008002eb000002eb0059
:1039b800ee019000320720008161280080d92100a3
:1039c80003f507008003eb000003eb008002eb0027
:1039d8002e0a9000fe0190003207200001622800a4
:1039e80080d52100faf407006000200028060700af
:1039f800000f98000041eb00210020001e009000fd
:103a08004ef907008e089000800878000e08900094
:103a1800ae009000110098000e089000e1d221003d
:103a2800210098006000200019060700100f980078
:103a38000e089000900078001e0890000108780099
:103a48001e089000ae009000110098001e0890001b
:103a580081d22100210098008003eb000003eb00d5
:103a68008002eb000002eb008e0990003207200074
:103a78008162280080d52100d5f407008003eb007f
:103a88000003eb008002eb000002eb009e099000af
:103a9800320720000163280080d92100ccf40700f8
:103aa8000080fa00000006000800fa0030079800bd
:103ab8000000eb00200798000000eb00000f7800e2
:103ac8003e009000100798001e0090001001900022
:103ad8001e00900010007800e40047008001eb0011
:103ae80045f90700e10f50000300320010002000e4
:103af800000f7800f4ff37001e007800e00f500038
:103b080005003a001e009000200090009000780008
:103b18008100e800010878002e0090000000e8000d
:103b280020079800e8ff37000a00fa0040079800cd
:103b38000000eb00000f78000000eb001007980071
:103b48004e00900020079800010037000000000098
:103b58002e009000100190002e00900010007800b8
:103b6800e60047008001eb00b7f90700e10f5000bd
:103b7800f6ff3a003e0090009e0f5000050032000c
:103b88003e009000000f78001000200010079800f9
:103b9800efff37001e009000e00f500005003a00cc
:103ba8002e00900020009000900078008100e8002e
:103bb800010878001e0fe800e5ff37000400fa004e
:103bc80010002000000f78000000eb00100798009c
:103bd800330037001e0090008000400040d22100d2
:103be80000804000900078001e0090000001400016
:103bf80000d321000000410010007800808f5000a1
:103c080002003a000000eb00000f78001e00900050
:103c18008000400040d221000080400090007800e1
:103c28001e0090000001400000d321000000410068
:103c3800010878001e00900080004000a0d22100fa
:103c480000804000900078001e00900000014000b5
:103c580060d321000000410010007800808f5000e0
:103c680002003a000000eb00000f78001e009000f0
:103c780080004000a0d22100008040009000780021
:103c88001e0090000001400060d3210000004100a8
:103c9800010878001e0090000000e8001007980056
:103ca8001e009000e20f5000caff34001e0078008a
:103cb8000080fa00000006000800fa0010079800cb
:103cc80021079800320798000041eb0011002000fe
:103cd8003e00900099f8070060ea88000041eb0078
:103ce800110020003e00900094f8070070ea880058
:103cf8003062a9003002a9008111800090ff2f00d6
:103d080000806000801188003082a90030a2a900dc
:103d180030c2a90030e2a90081118000f0cf2f0045
:103d280000806000801188003182a90031a2a900ba
:103d380031e2a8001e009000ae009000daf2070001
:103d480002002000031824004af307000001be0007
:103d58000040220041b7240067f20700020020005b
:103d680003f0230006f20700b4f207000000780011
:103d7800c011880091118000f0f32f0000806000ce
:103d8800901188003342a80033c2a90033a2a900c9
:103d980033e2a900110280000002200000807000b8
:103da8001002880087c0a90087e0a900910580005b
:103db800f08f2f00808060000010200000807000cd
:103dc8009005880091058000f0ff28008080600041
:103dd80000002100008070009005880097e0a8008e
:103de80097c0a80002003700b0118000004f78008b
:103df8009011800061006000e00f5000faff3a0067
:103e08001000200080ea88000000eb000080fa0023
:103e1800000006000600fa00000f7800110798005d
:103e28002207980060ea80008001eb002e019000d4
:103e38009e00900004f90700e00f500002003200d5
:103e480010002000010037000000eb000080fa009d
:103e5800000006000600fa00000f780021479800cd
:103e68002207980070ea80008e80e8008001eb004d
:103e78002e01900060f80700e10f500002003200a8
:103e88000000eb000700370080ea8000e00f5000d8
:103e9800030032000000eb0080ea880087e0a800f9
:103ea800100020000080fa00000006000200fa005e
:103eb800000f78000080fa00000006003600f800c5
:103ec800809fbe00829fbe00849fbe00869fbe006a
:103ed8003400f80000002000a00188000400fa0067
:103ee8000000eb001007980087c0a9000900370000
:103ef800b011800000407800004f780060ea800030
:103f08008e80e8008001eb00010178008e007800c7
:103f18009bf807009011800061006000e00f5000de
:103f2800f3ff3a001e009000e00f5000030032003b
:103f3800202a020000000000000000000080fa00b3
:103f48003400f9004f03be004f02be004f01be000f
:103f58004f00be003600f900004006003600f800a9
:103f6800809fbe00829fbe00849fbe00869fbe00c9
:103f78003400f80000002000a00188000400fa00c6
:103f88000000eb001007980087e0a9000e0037003a
:103f980070ea80008e80e800010178008e007800c9
:103fa80023f90700e10f500004003a001e40780092
:103fb8000000fb00a011880003003700100020005b
:103fc80080ea880005003700911180000020200059
:103fd80000806000e00f5000edff32001e009000ee
:103fe800e00f500003003200202a02000000000009
:103ff800000000000080fa003400f9004f03be0002
:104008004f02be004f01be004f00be003600f9004f
:10401800004006002a00fa0020179800311798007f
:104028004217980064004700216628000f00090025
:10403800311878000002b1003e1090001007980077
:104048002e1090009e009000010878002e1090001d
:104058000080e800201798002e1090008000eb00e8
:10406800010878002e1090000080e80020179800c2
:104078002e1090008000eb00010878002e109000b0
:104088000080e80020179800ce1090002e109000b5
:10409800010878002e1090000080e8002017980092
:1040a8000000eb00000f78000a003700e40047002a
:1040b8001e00780000004000e10078002e109000fb
:1040c800010878002e1090000080e8002017980062
:1040d8001e0fe8001e007800ef0f5000f3ff3600b7
:1040e800210280002e109000010878002e10900008
:1040f8000080e8002017980034c0bf008080fb00d3
:104108002e109000010878002e1090000080e80022
:10411800201798002e1090008000eb00010878000e
:104128002e1090000080e800201798002e109000b4
:104138000080fa00000006000000fa0018000700de
:10414800c0ea8000900778004f00780010eb8800e4
:104158003400f9004400f9003200f9003600f90093
:104168004f0778004f06be004f05be004f04be0043
:104178004f03be004f02be004f01be004f00be00fd
:104188004200f90000000600100020000080fa003c
:10419800000006000000fa000080fa000000060097
:1041a8000400fa00f07c200001002000008fbe000f
:1041b8000000eb00200888000000eb0000088800e1
:1041c8001e0078001008880021058000f0ff2800f4
:1041d80080806000000021000080700020058800b9
:1041e8008460a9009460a8000481a80004a1a90023
:1041f80005e1a8000080fa00000006000000fa00af
:104208001102800000022000008070001002880067
:1042180010eb80000000e80010eb88000080fa0036
:10422800000006000000fa0010eb80000000e90022
:1042380010eb880010eb8000e00f500004003a00fb
:1042480011028000f0fd2f0000806000100288003d
:104258000080fa00000006003600f800809fbe00cb
:10426800829fbe00849fbe00869fbe003400f80077
:1042780000002000a00188000000fa008460a90066
:104288003cf50700202a02000000000000000000a2
:104298000080fa003400f9004f03be004f02be0050
:1042a8004f01be004f00be003600f9000040060076
:1042b8000400fa00100798001e009000e80f500054
:1042c8000200360080002000100798000041eb0033
:1042d800210020001000200018f7070040eb88009c
:1042e80040eb8000e00f5000100032000000eb00af
:1042f800000f7800050037001e0178008000eb00f1
:10430800e0192200fefb07001e0fe8001e009000c7
:104318009e007800808f5000f7ff39000001eb0005
:1043280011002000c0222200f5fb07000080fa00df
:10433800000006000600fa00100798002107980000
:104348001e00900050089000c1172000810f5000f7
:1043580019003200c1172000810f500003003e00f1
:10436800e00f50000800320037003700d117200056
:10437800810f50001c00320001192000810f5000ed
:1043880031003a000000000040eb8000e4004700e4
:104398000001eb0050f90700000f78001e007800bc
:1043a800e40f400009003a001e009000c1172000e9
:1043b800510898002400370040eb8000e4004700d3
:1043c8000001eb0044f90700000f78001e00780098
:1043d800e50f400006003a001e009000d1172000ab
:1043e800510898001800370010002000000f7800ce
:1043f8001e007800e10f5000020032000000eb00c0
:1044080050eb88002e00900080004000406b280090
:104418000080400010007800e00f500007003200d4
:104428002e00900080004000406b28000080400073
:10443800100078008000eb00fcfb07001e009000d5
:1044480001192000510898000080fa0000000600b9
:104458000800fa0020079800310798002e00900005
:1044680050089000c11b2000810f5000110032003d
:10447800d11b2000810f50001a003200e00f5000bd
:1044880023003a0040eb80008e80e8000081eb00ba
:104498005bf90700000f78001e007800e40f400069
:1044a80009003a002e009000c11b20005108980016
:1044b8001700370040eb80008e80e8000001eb0019
:1044c8004ff90700000f78001e007800e50f400044
:1044d80006003a002e009000d11b200051089800d9
:1044e8000b00370010002000000f78001e00780035
:1044f800e10f5000030032000000eb0050eb880091
:10450800e0ff37001e009000b5030700ddff37000d
:104518000080fa00000006000000fa0050eb80005e
:104528000080fa00000006000200fa00000f780080
:104538009e00780064804000800078001e007800ab
:10454800110098001e0078008080eb002100980080
:104558009e00780064804000800078001e0078008b
:10456800310098009e007800648040008000780048
:104578001e007800410098001e0078008000eb00c3
:10458800010878000080fa00000006000200fa0026
:10459800000f78001e0078008000eb0041009800b2
:1045a8000080fa00000006000600fa0010079800d4
:1045b800210798001e00900090009000010f7800dd
:1045c8001e007800900090002e00900011009800c6
:1045d8001e009000900090002e009000210098008e
:1045e8001e00780010009000ae0090002100980096
:1045f800ae0090001e00780011009800ae009000f8
:104608001e009000110098002e0090009e0090005f
:10461800410098001e009000100078008000e8001b
:104628001e009000010878000080fa0000000600d3
:104638000800fa0020079800310798003e00900013
:1046480090007800110798001e009000e10f4000cc
:1046580004003a002e009000c0009000010f78007e
:104668000d0037002e00900064004000000f780015
:10467800030037001e00780090009000010f7800ba
:104688001e00780010009000900078001e00900036
:10469800808f5000f7ff36001e00780090009000d1
:1046a8003e009000110098003e009000100090001d
:1046b800be009000210098003e0090009e00780007
:1046c80021009800be0090001e007800110098009c
:1046d8003e009000ae009000410098002e0090002f
:1046e800100078008000e8002e0090000108780093
:1046f8000080fa00000006000400fa001007980085
:104708001e009000100090009e009000a1009000f4
:10471800210098001e009000200090009e0090004c
:1047280091009000110098001e0090004000900039
:10473800000f78001e007800900090001e00900086
:10474800808f500004003a001e009000a0009000e6
:104758001e007800110098001e0090008000eb00f9
:10476800410098001e007800100078008000e900e1
:104778001e007800010878000080fa00000006009a
:104788000800fa00000f7800120798002307980025
:10479800310798003e009000a0ea880082012000be
:1047a8001e009000ae00900043fd07001e00e900c7
:1047b8008003eb000003eb008002eb0000027800ae
:1047c8008001eb0032072000216d280040402200c4
:1047d8007ff107008003eb000003eb008002eb0091
:1047e8001e0278008001eb0032072000816d28004e
:1047f8004045220076f107000080fa00000006001c
:104808000600fa002007980010c4b300004f780093
:104818000900370090ea80000001eb009e40780014
:104828008cfd0700e10f500002003a00a0ea80006a
:10483800eb0207001e4fe80080c5b3009e407800d9
:1048480080cf5000f3ff3400a0ea80008000eb0026
:10485800cb020700b3f3070063004000100798007d
:104868009e009000600920000001780011000900f6
:104878008280d8008000fd00100798009e009000fc
:1048880010032000808f500002003e00200320000b
:10489800100798001e00900003f20700daff3700a7
:1048a8000a00fa00400798000000eb001007980083
:1048b8000000eb002007980001003700000000000e
:1048c80010c4b300004f78001100370090ea800050
:1048d800e60047000081eb004efd0700e00f5000a6
:1048e8000a0032006e4090009e4f500004003a00cb
:1048f800a0ea80000000e800b902070003003700c2
:104908001000200010079800050037001e4fe8002f
:1049180080c5b3009e40780080cf5000ebff340084
:10492800a0ea80000000e8008000eb009402070085
:104938001e009000e10f50000f003a0004003700fd
:1049480090ea8000e60047000081eb0031fd070097
:10495800ee40900080c5b30080cf5000f8ff3a00c9
:104968002e0090000000e800200798000000eb00ef
:1049780010079800d2ff37002e009000e10f50007a
:10498800ceff3c00b0ea80000000e800b0ea8800f2
:10499800cbff37000200fa00b0ea8000e00f5000b9
:1049a80003003a000000eb00000f78000200370017
:1049b80010002000000f78000000eb00b0ea88002b
:1049c8001e0078000080fa00000006000000fa00cf
:1049d8000041eb00410020003000200057f507009f
:1049e80070eb88008003eb000003eb008002eb0013
:1049f800240020008001eb00320720008000eb003b
:104a0800205d2200f2f0070070eb80000080fa00c1
:104a1800000006000000fa0090012000c011880084
:104a280000002800801188000040200090118800b4
:104a38000080fa00000006000200fa00004f78002b
:104a4800000000009111800000202000008060001c
:104a5800e00f5000fbff3a001e00fb00a011880089
:104a68000080fa00000006000200fa00000f78003b
:104a7800040037001e007800104078001e0fe80080
:104a8800edff07001e00780010407800e04f50004e
:104a9800f8ff3a000080fa00000006000000fa0063
:104aa800000000009011800061006000e00f5000dd
:104ab800fcff3200b0118000004078000080fa004e
:104ac800000006000800fa00200798003107980047
:104ad8002e009000100798000000eb00000f7800ef
:104ae80025003700edff0700ae00900080487800f1
:104af8002e00900010407800cfff07002e00900095
:104b080010407800e84f50000f003a00ae009000c7
:104b18001e009000808f50000b00360000c2b300ca
:104b2800c5ff070080c0b300c3ff07003e00900028
:104b38000000e800300798002e0090000000e9000f
:104b4800200798000b0037002e00900010407800d6
:104b5800ed4f50000c0032002e00900010407800fd
:104b6800ea4f5000080032002e0090000000e800d4
:104b7800200798001e0fe8003e0090000000e900a2
:104b88009e0f5000d7ff3c00ae0090000040eb00a5
:104b9800804878000080fa00000006000600fa004d
:104ba800200798009bff070020682800aeff070039
:104bb8000000000070eb80008001eb000081eb003a
:104bc8008e007800a0f50700e10f5000f9ff3a00c9
:104bd8001e009000a4ff070000000000f5ff37004a
:104be8000000fa000041eb004100200030002000e6
:104bf800d2f4070020eb88008003eb000003eb00f1
:104c08008002eb00140020008001eb003207200036
:104c1800e1692800e06a22006df0070020eb8000bf
:104c28000080fa00000006000200fa00000f780079
:104c38001e007800e00f500005003a000000eb006d
:104c48002030880020002000403088000400370011
:104c58000000eb0020308800000c20004030880065
:104c68003000200010f107000080fa000000060064
:104c78000200fa00000f7800090037001000200039
:104c8800203088001e007800104078000000fb00eb
:104c9800403088001e0fe8003000200002f10700b5
:104ca8001e00780010407800e04f5000f3ff3a00f3
:104cb8000080fa00000006000000fa000000eb0087
:104cc800203088001000200040308800300020008c
:104cd800f5f007000080fa00000006000000fa0066
:104ce800f03b280000308800f03f2000103088009a
:104cf800c060200011002000010878000000eb00cf
:104d08002030880030002000e7f00700c0032000b2
:104d18004030880030002000e3f00700c000200089
:104d28004030880030002000dff00700100020002d
:104d38004030880030002000dbf0070060002000d1
:104d48004030880030002000d7f007000080fa00cb
:104d5800000006000800fa00300798000000eb0089
:104d6800000f7800ddff0700206a2800c0ff070059
:104d78000000000020eb80008e80e8008001eb003e
:104d88000081eb0030f50700e10f5000f9ff3a0011
:104d9800c9ff07009e00780061806000a2ff07003d
:104da8001e0fe8002e009000b1ff07001e009000c3
:104db800bdf0070000000000eeff37000400fa0015
:104dc800100798000000eb00000f78000f00370074
:104dd8001e0078000000400080007800c0d6210046
:104de800008040008003eb000003eb008002eb0032
:104df8001e0290008001780032072000e16d280033
:104e080040712200f2ef07001e0fe8001e00780034
:104e1800e00f5000eeff34000080fa0000000600aa
:104e28000a00fa00400798000000eb00000f780025
:104e38004e009000100798000100370000000000a5
:104e4800b0072000010020002007980031079800d3
:104e58002e019000be01900070442900310020000e
:104e6800020040008380480020079800310798001e
:104e78002e009000be009000d2ff2f000289b900da
:104e8800020178008081eb000382b9008401780078
:104e980003014100d3ff2f000300b80001014100c6
:104ea8008200780020079800310798002e009000b3
:104eb800be009000720020000300200050ee0700a2
:104ec80020079800310798002e019000be0190003d
:104ed800b0712700e1ff2f00800f5100818f59002a
:104ee8000200320010002000000f78001e00780039
:104ef800e00f5000d1ff3a00c0fc07001e009000f0
:104f08001100200001087800c6fc0700ccff37001c
:104f18000400fa0010002000000f78000000eb00e9
:104f280010079800120037001e0090008000400013
:104f3800c0d621000080400010007800e00f50002b
:104f480002003a000000eb00000f78001e009000fd
:104f580080004000c0d62100008040008000eb00a7
:104f6800010878001e0090000000e8001007980073
:104f78001e009000e00f5000ebff34001e00780088
:104f88000080fa00000006000200fa00000f780016
:104f98000000eb00800888000000eb00f0088800a3
:104fa8000000eb00300888000000eb00a008880033
:104fb8001e007800010020000001be000040220011
:104fc800410f2000dfee070000007800600888002d
:104fd8000080eb00d008880031058000f0ff280031
:104fe800808060000000220000807000300588008a
:104ff80084e0a90094e0a80011e1a8001fe1a8003e
:105008000080fa00000006000400fa00a0088000f2
:10501800000f7800e0ea8000e40f50000a00360034
:10502800f0ea80001e0010001007980030eb8000a6
:105038009e009000808f5000060036001e009000f1
:1050480030eb880003003700e0ea80000000e80049
:10505800e0ea88001e007800f0ea88000080fa0084
:10506800000006003600f800809fbe00829fbe0048
:10507800849fbe00869fbe003400f8000000200018
:10508800a00188000000fa00dfff070084e0a90003
:105098000080fa003400f9004f03be004f02be0042
:1050a8004f01be004f00be003600f9000040060068
:020000040000fa
:1050b800ba1c00003e00000000000000601d000057
:1050c800020000000200000000000000500800007c
:1050d8000214000000000000621d00000200000031
:1050e80002000000ef000000581d0000040000004e
:1050f800020000000000ff00ff000000521c00003a
:105108006800000000000000641d000002000000ac
:1051180000000000f81c00002c0000000000000047
:105128004c1d00000600000000000000661d000085
:105138000200000002000000000000005c1d0000ea
:105148000400000000000000241d000018000000fa
:10515800000000003c1d00001000000000000000de
:10516800521d00000600000000000000681d00003d
:1051780002000000000000006a1d0000020000009c
:1051880002000000010000006c1d00000200000089
:10519800000000006e1d000002000000000000007a
:0451a8000000000003
:020000040000fa
:1051ac000000fa00110007008003eb000003eb0085
:1051bc008002eb00340020008001eb00620e200026
:1051cc00816328002090220000ef070083fe070077
:1051dc00c0e78800fcfd0700d0e78800d8f0070086
:1051ec000000eb000080fa00000006000000fa004e
:1051fc000080fa00000006000c00fa00500798002e
:10520c000000eb0010079800c0cf21002007980089
:10521c000000eb003007980000d1210040079800f7
:10522c003ff10700000f7800b2002000e163280076
:10523c00c0cf210052ee07008201200091642800ab
:10524c0000d121004eee070081bb20000e0078003b
:10525c0058ef0700c0e780008e80e8008001eb006b
:10526c000081eb0063f30700d0e78000e600470005
:10527c008001eb000081eb005ef30700f2ff3700ca
:10528c000000fa000080fa00000006000400fa009a
:10529c00100798000000eb00000f78001e00900033
:1052ac006100600000407800e04f500005003200c3
:1052bc009e009000e0ff2f00008060000080e8005e
:1052cc0010079800c1f0070081e280001e009000da
:1052dc0080804000f03f2100808f50000d003e0088
:1052ec0081e280001e0090008080400080e28000ff
:1052fc00808f50000700360081e28000008520007e
:10530c00008f400081e280001e0090000080400071
:10531c0080e28800b3f007001e0078000080fa00dd
:10532c00000006000200fa00000f78000080fa006e
:10533c00000006000000fa000000eb0080e288008c
:10534c000080fa00000006000000fa0080e28000f5
:10535c0001402100008050000080fa00000006008f
:10536c000000fa000000eb00001688000000eb00c3
:10537c00101688000080fa00000006000600fa00f3
:10538c0010079800210798001e00900011002000c3
:10539c000008dd00000f78002e009000e00f500098
:1053ac000600320094fb0700101680001e007000ef
:1053bc00101688009afb0700060037008efb0700ca
:1053cc009e80ea0010168000008060001016880095
:1053dc0093fb07000080fa00000006000400fa00ae
:1053ec00100798001e009000110020000008dd003e
:1053fc00000f780080fb0700101680001e00600074
:10540c00e00f5000050032009e80ea00101680006c
:10541c000080600010168800030037001016800012
:10542c001e007000101688007dfb07000080fa003b
:10543c00000006004200f800801f780000022000e7
:10544c0010028800811f7800829fbe00849fbe00de
:10545c00869fbe00889fbe008a9fbe008c9fbe00a8
:10546c008e1f78003600f8003200f8004400f80077
:10547c003400f80010eb8000801f7800c0ea800038
:10548c000f087800760c020000000000c0ea8000d3
:10549c00900778004f00780010eb88003400f9007a
:1054ac004400f9003200f9003600f9004f0778008b
:1054bc004f06be004f05be004f04be004f03be009a
:1054cc004f02be004f01be004f00be004200f9006b
:0454dc0000000600c6
:020000040000fa
:0854e0000040da000000fe00ac
:020000040000fa
:020000040002f8
:04aff8009efa0000bd
:020000040000fa
:020000040002f8
:04affc007f3f000093
:00000001FF
