:020000040000fa
:080000000002040000000000f2
:020000040000fa
:10000800b0020000b0020000b0020000b002000020
:10001800b0020000b0020000b0020000b002000010
:10002800b0020000b0020000b0020000bc430000b3
:10003800b0020000b0020000b0020000b0020000f0
:10004800b0020000b0020000b0020000002a000068
:100058007c2a0000b0020000b0020000b0020000dc
:10006800b0020000b0020000b0020000b0020000c0
:10007800b0020000b0020000b0020000b0020000b0
:10008800b0020000b0020000b0020000b0020000a0
:10009800b0020000b0020000d82a0000542b000073
:1000a800b0020000b0020000b0020000b002000080
:1000b800b0020000b0020000b0020000b002000070
:1000c800b0020000b0020000b0020000b002000060
:1000d800b0020000b0020000b0020000b002000050
:1000e800b0020000b0020000b0020000b002000040
:1000f800b0020000b0020000b0020000b002000030
:10010800b0020000b0020000b0020000b00200001f
:10011800b0020000b0020000b0020000b00200000f
:10012800b0020000b0020000b0020000b0020000ff
:10013800b0020000b0020000b0020000b0020000ef
:10014800b0020000b0020000b0020000b0020000df
:10015800b0020000b0020000b0020000b0020000cf
:10016800b0020000b0020000b0020000b0020000bf
:10017800b0020000b0020000b0020000b0020000af
:10018800b0020000b0020000b0020000b00200009f
:10019800b0020000b0020000b0020000b00200008f
:1001a800b0020000b0020000b0020000b00200007f
:1001b800b0020000b0020000b0020000b00200006f
:1001c800b0020000b0020000b0020000b00200005f
:1001d800b0020000b0020000b0020000b00200004f
:1001e800b0020000b0020000b0020000b00200003f
:0801f800b0020000b00200009b
:020000040000fa
:10020800b0020000b0020000b0020000b00200001e
:10021800b0020000b0020000b0020000b00200000e
:10022800b0020000b0020000b0020000bc430000b1
:10023800b0020000b0020000b0020000b0020000ee
:10024800b0020000b0020000b0020000002a000066
:100258007c2a0000b0020000b0020000b0020000da
:10026800b0020000b0020000b0020000b0020000be
:10027800b0020000b0020000b0020000b0020000ae
:10028800b0020000b0020000b0020000b00200009e
:10029800b0020000b0020000d82a0000542b000071
:1002a800b0020000b0020000b0020000b00200007e
:1002b800b0020000b0020000b0020000b00200006e
:1002c800b0020000b0020000b0020000b00200005e
:1002d800b0020000b0020000b0020000b00200004e
:1002e800b0020000b0020000b0020000b00200003e
:1002f800b0020000b0020000b0020000b00200002e
:10030800b0020000b0020000b0020000b00200001d
:10031800b0020000b0020000b0020000b00200000d
:10032800b0020000b0020000b0020000b0020000fd
:10033800b0020000b0020000b0020000b0020000ed
:10034800b0020000b0020000b0020000b0020000dd
:10035800b0020000b0020000b0020000b0020000cd
:10036800b0020000b0020000b0020000b0020000bd
:10037800b0020000b0020000b0020000b0020000ad
:10038800b0020000b0020000b0020000b00200009d
:10039800b0020000b0020000b0020000b00200008d
:1003a800b0020000b0020000b0020000b00200007d
:1003b800b0020000b0020000b0020000b00200006d
:1003c800b0020000b0020000b0020000b00200005d
:1003d800b0020000b0020000b0020000b00200004d
:1003e800b0020000b0020000b0020000b00200003d
:0803f800b0020000b002000099
:020000040000fa
:100400004fff21000e7f24000e0188000000000035
:100410000c000700606124000100200011000700ab
:10042000000020000000e000020032000000020096
:100430000000000090470200000000000040da00c9
:100440000000fe004440a900006420000000e0001d
:100450000300320000002000a00188004440a800f2
:100460000000060091018800800078000000eb0089
:1004700015003700e280400032a0b4009101ba00bc
:10048000e280400032a0b4009102ba00e280400055
:1004900032a0b4000002eb00472bde00f507b200eb
:1004a000602ce10004003a000059eb008301e900f0
:1004b000fdff3e00040037006128e100010032002a
:1004c0000082eb00040007001101ba000200e00006
:1004d000e8ff3a00000006003159ba008301e90044
:1004e0000c0032002159ba008301e90008003200f3
:1004f0000400e00003003a00e280400032a0b400b3
:10050000f5ff370011d9ba008301e900faff3a007c
:100510008100e800e180400032a0b4000000060045
:100520001414040000000000e84004000000000073
:10053000ce4004000000000046310400000000002e
:10054000b61e0400000000008e42040000000000ff
:10055000a83b040000000000c045040000000000ab
:100560000040da000000fe0003f0a200889fbe00f9
:100570008a9fbe008c1f7800050107000c01330024
:100580006450e1004f0032006420e100520032006c
:1005900003826c0007003b000905d0000306d00071
:1005a000820f54000c065d00020039000200320088
:1005b00089017800030678008582550004003d001b
:1005c0000003fd008103fd008502ea008b854200e7
:1005d000840f720002003b0060001000e0801800f1
:1005e0006011b8000005eb007a28e1000a0039002c
:1005f00006007800c75ddd00f707b2008780750050
:100600002d003700828171000a01780061056000c9
:100610008180d1000080d3008502e900f9ff3b0012
:10062000060440008784480002003b006004140078
:10063000e0841c000988a300070032008a81710051
:1006400082817100610164008904d1000884d300b3
:100650008b05e800170037000978a30013003a0063
:100660000b00e000130034008b05e900080444008f
:1006700089844c000a4474000978a3000d003a00f4
:100680000b00e000070034008b05e900080444007b
:1006900089844c0001003a000b0020000978a30077
:1006a000f7ff32000001eb00020037008281710089
:1006b0000a0178007b0007000cf0a70001f0a00001
:1006c000c40037006420e10002003a00838f6c0010
:1006d000c40033000801be000200be00bd003700a8
:1006e000889fbe008a9fbe008c1f7800a80007006c
:1006f000af00330003866c006450e1002e0032002e
:100700006420e100330032006150e1002f0032002c
:100710006120e1003100320085855500eb07b00013
:1007200009002000080420000500370008044400e8
:1007300089844c000a0031000603430087834b0084
:100740000001530081815b00f8ff33000203be000b
:100750000800a0000804440089844c00f6ff39001a
:10076000c639dd0083017300010032001300200050
:100770008904d1000884d3000998a3000500320041
:100780000800a7000300a0008904d1000884d3005a
:100790008b05e8008904d1000884d3000001eb0038
:1007a0000281d2003f00070001f0a1000cf0a70079
:1007b00001f0a000870037006420e10089003200ca
:1007c0000801be000200be00f7ff37006120e10013
:1007d000840032006000b800f3ff37000000200002
:1007e00001f82700f0ff3700839f68000100e00058
:1007f00002003d0060001000e08018000300e000ef
:1008000002003d0060011100e0811900bb000700fb
:100810004f00e00002003b0060001000e080180084
:10082000000006000001be00440007000470a7009d
:1008300003f0a10003f8a30013003a006509b1001a
:1008400010003200090035006928e100020035007f
:1008500001002800000005000000400081804800e1
:100860008502e900fcff3a0000000600f88f420014
:10087000050035008100d1000080d3008502e8002a
:10088000fcff3a00000006008000eb0000000500bd
:100890004f89de0082017800ab0037006011b8009c
:1008a000b900370081002000618055000b003d0039
:1008b0000b00200061fe2f000100e1001d0034004c
:1008c00082817100610164008904d1000884d30031
:1008d0000000e800faff3a007100200061006400a7
:1008e000030070000200600009003200610444004f
:1008f000e0844c000988a500050032008b05e80063
:100900006808e10002003a008904d1000884d3009d
:10091000f20f20000258e10005003d00c75ddd0038
:10092000f907b20089807500080078000000060011
:100930000bf827008b00780000000500c70ade00d6
:10094000f107b200f50fb20008003200e1cf42001b
:10095000020032000170a00024000500810f700029
:10096000010032000408050044000500810f7000fa
:1009700002003a00140005008502e9000000400072
:1009800081c04800fcff3b000170a000240005006e
:100990000004be00e9ff07000003be000405be001e
:1009a0000200be00e5ff0700844f7500000006004e
:1009b0000200be006450e100050036006420e10042
:1009c000020036000968a30001003a000800be00da
:1009d0000160a0004f0678004f05be004f04be0026
:1009e00000000600f0ff2f00f1ff2700f9ff37009d
:1009f000811f78000100e00002003d00600010004f
:100a0000e08018000300e00002003d0060011100da
:100a1000e0811900490007004f00e00002003b00a0
:100a200060001000e080180000000600889fbe00f3
:100a30008a9fbe008c1f7800d5ff0700dcff3300c3
:100a400003866c006450e100240032006420e10061
:100a5000270032006150e100220032006120e100f5
:100a6000210032008b854200eb07b1000134b80051
:100a7000003ab8000804420089844a00013ab800ec
:100a80000030b8008880400009014a0004003300ab
:100a90000000400081804800020149008b05e90008
:100aa000c909dd008301700001003200130020003d
:100ab000c814de004814dd004709de001200b20051
:100ac000c808de000884700076ff070001f0a1006e
:100ad0000cf0a70001f0a000beff37006120e1008c
:100ae000c0ff32000801be000200be00f7ff370061
:100af0006150e100fcff3a00baff37006022b80005
:100b0000060220000000d0008180d2000482d200c2
:100b10008582d2000000a0000202520083825a00a7
:100b2000030031000202420083824a000000a1005b
:100b30000603e900f3ff3a0000000600efff07009c
:100b40000400be0000000600881f7800030478003f
:100b50000300e00007003d0060001000e080180086
:100b600060011900e081190002003b0001f02d0036
:100b7000030037000400070008f0a70001f0a00000
:100b80004f04780000000600889fbe008a9fbe00c8
:100b9000008270000402710004827100260032009d
:100ba0000004be000200be006011b8006b09200006
:100bb000950220000182cf000a0039000541b100f2
:100bc0000082cf00070039000541b1000982cf0043
:100bd000040039000541b1000882cf00010039004e
:100be0000541b10005425200120032000a003b00ec
:100bf00082817100610164008100d1000080d30016
:100c00008984d3000884d3008b05e8000442e800ff
:100c1000f7ff3a00070037000804440089844c00bd
:100c200000004800818048008b05e9000442e9008b
:100c3000f9ff3a001bff07004f05be004f04be003e
:100c4000000006008001780002003700b1597800ea
:100c5000040178000202e900e00f5100fbff3a00b6
:100c600000000600800178000200370081597800fa
:100c7000040178000202e900e00f5100fbff3a0096
:100c8000000006000100200080ff880091ff88001e
:100c900010c0b300e1fe210080487800000006008b
:100ca000e0fe21008040eb0090cf100002003a00ef
:100cb00010002000f3ff0700d2e62400631c24008c
:100cc00080ff800091ff8000210007009203230035
:100cd00003002000000041008180490080ff88005f
:100ce00091ff88000100780000f0a10000000600dc
:100cf000800078000041eb00b14f1100fdff3a0089
:100d00000080ea00008040000000060080017800ba
:100d1000060037000201e90011427800845978008a
:100d2000e04f5200060032008100e800e00f510061
:100d3000f8ff3a00020037008059eb00010178000b
:100d40008200e900e00f5100fbff3a0000000600be
:100d5000020ab900001bb9000200b800810042007d
:080d60008100430000000600c1
:020000040000fa
:100d680054650000737400003a20000028730000e6
:100d7800697a0000656f000066200000696e000057
:100d8800743a000020250000642900000d0a0000c4
:100d98000054000065730000743a0000202500002c
:100da8002035000064200000253000003478000061
:100db80020250000303400005820000025360000af
:100dc8006f200000256300000d0a000000410000ac
:100dd800726200006974000072610000727900009c
:100de80020450000727200006f720000204300006e
:100df8006f64000065200000253000003478000092
:100e08000d0a000000480000656c00006c6f0000cf
:100e18002c200000776f0000726c00006421000035
:100e28000a00000049200000616d00002043000016
:100e380079730000617400002e0a0000004200006f
:100e4800756900006c740000206100006e64000089
:100e580020700000726f000067720000616d000072
:100e68006d650000642000006279000020490000e0
:100e78006f77000061200000537400006174000067
:100e880065200000556e000069760000657200005c
:100e980073690000747900000a000000492000000e
:100ea800636100006e20000073650000652000008b
:100eb8006d790000206800006f7500007365000000
:100ec80020660000726f00006d2000006865000059
:100ed800726500002e0a00000057000068610000db
:100ee80074200000676f0000657300002075000023
:100ef800702000006d75000073740000206300000e
:100f08006f6d000065200000646f0000776e0000c0
:100f18002e2e00002e0a0000004900002077000055
:100f28006973000068200000492000006861000023
:100f38006420000061200000636100006d6500000e
:100f4800726100002e0a000000490000276d0000b1
:100f5800206300006f6c0000642e00000a0000008f
:100f68005370000061610000616100006161000070
:100f780063650000210a000000440000656200006b
:100f880061740000696e0000672000006d6f00004a
:100f9800726100006c69000074790000207700001d
:100fa8006974000068200000484100004c2e0000d1
:100fb8002e2e00000a000000446900007361000042
:100fc800726d0000696e000067200000536b00001e
:100fd800796e0000657400002e2e00002e0a0000b5
:100fe800005200006574000069630000756c000021
:100ff80061740000696e00006720000073700000d3
:101008006c6900006e650000732e00002e2e000033
:101018000a000000492000006e65000065640000b9
:10102800206d00006f7200006520000074680000e9
:10103800696e000067730000207400006f200000d4
:1010480073610000792e00000a0000004469000066
:101058006420000049200000666f000072670000ed
:1010680065740000207400006f20000062720000a8
:10107800696e0000672000007468000065200000a9
:1010880070610000796c00006f610000643f00002f
:101098000a000000526500007065000061740000dd
:1010a800206d000065730000736100006765000033
:1010b8007320000061720000652000006279000062
:1010c8002064000065730000696700006e2c000052
:1010d800206e00006f74000020620000792000007c
:1010e8007365000067660000617500006c7400009d
:1010f8002e0a000000000000078700001687000085
:101108002387000052870000718700009187000044
:10111800a9870000b4870000c1870000e0870000ad
:10112800f58700000e8800002a8800004e8800001d
:101138004865000010060000002200003874000016
:10114800000000000101000000000000c0b600001f
:1011580006000000c0b60000060000004e4f000068
:10116800434100004c4c0000435100002020000087
:1011780020200000000000000000000041000000e6
:1011880001000000ed380000486500001003000071
:10119800000e000021570000486500006c6c00003c
:1011a8006f2c0000207700006f7200006c64000054
:1011b800210d00002f770000506f000077650000b8
:1011c800723a000020490000324300002057000016
:1011d800726900007465000020450000727200000a
:1011e8006f7200000d0a0000005000006f770000c9
:1011f800657200003a2000004932000043200000d8
:101208005265000061640000204500007272000011
:101218006f7200000d0a000000250000733a0000fc
:101228002025000066200000257300000d0a00003c
:101238000056000000580000205600006f6c0000a7
:101248007461000067650000006d00004100000047
:101258002d580000204300007572000072650000e0
:101268006e740000002b0000582000004375000039
:1012780072720000656e00007400000059200000c2
:10128800566f00006c740000616700006500000084
:101298002d5900002043000075720000726500009f
:1012a8006e740000002b00005920000043750000f8
:1012b80072720000656e0000740000005a20000081
:1012c800566f00006c740000616700006500000044
:1012d8002d5a00002043000075720000726500005e
:1012e8006e740000002b00005a20000043750000b7
:1012f80072720000656e0000740000004261000018
:10130800742000004275000073200000437500003f
:1013180072720000656e000074000000355600000f
:101328002042000075730000204300007572000021
:10133800726500006e740000003300002e33000058
:10134800562000004275000073200000437500001d
:1013580072720000656e0000740000006465000091
:101368006743000000420000617400002030000064
:1013780020540000656d000070000000426100000c
:101388007420000030200000566f00006c740000cc
:1013980061670000650000004261000074200000e1
:1013a8003020000069730000204400004953000009
:1013b8004348000041520000474900004e470000e2
:1013c8000042000061740000203000002069000025
:1013d80073200000434800004152000047490000c4
:1013e8004e470000004200006174000020300000f9
:1013f8002043000075720000726500006e740000e2
:1014080000420000617400002031000020540000f8
:10141800656d00007000000042610000742000004b
:1014280031200000566f00006c74000061670000f6
:1014380065000000426100007420000031200000b7
:10144800697300002044000049530000434800002d
:1014580041520000474900004e470000004200008a
:101468006174000020310000206900007320000032
:101478004348000041520000474900004e47000021
:101488000042000061740000203100002043000089
:1014980075720000726500006e7400000050000054
:1014a8006f770000657200003a200000506f00005e
:1014b8006c6c0000696e0000672000006461000029
:1014c800746100002e0d00000a0000004261000057
:1014d80064200000493200004320000042750000eb
:1014e8007320000065720000726f0000723a0000fd
:1014f80020620000757300002025000064200000b1
:101508006e6f0000742000006465000066690000ca
:101518006e650000642100000d0a0000004800000c
:1015280069740000206100006464000072200000fb
:10153800307800002578000020280000307800006e
:101548002578000020520000656100006429000031
:10155800206f00006e2000006275000073200000fc
:1015680028250000642900000d0a0000005300002f
:10157800636100006e6e0000696e00006720000065
:1015880049320000430d00000a00000042750000c7
:10159800733a000020250000640000002530000098
:1015a800327800002048000069740000210d000016
:1015b8000a00000049320000432000004572000084
:1015c800726f0000723a0000204400006566000057
:1015d800617500006c7400002073000074610000e5
:1015e80074750000732000007265000074750000b7
:1015f800726e00006564000020280000627500001b
:1016080067210000290d00000a000000493200008f
:101618004320000045720000726f0000723a00001b
:1016280020470000656e000065720000616c0000d4
:1016380020650000727200006f7200000d0a000041
:10164800004900003243000020450000727200008b
:101658006f7200003a2000004e410000434b00002a
:101668000d0a000000490000324300002045000038
:10167800727200006f7200003a200000427500008c
:1016880073200000686500006c640000206c000096
:101698006f7700002062000079200000736c000062
:1016a80061760000650d00000a000000253000008a
:1016b800327500003a25000030320000753a00000b
:1016c80025300000327500002e2500003032000061
:1016d800750d00000a00000052540000432000006d
:1016e8006e6f000074200000666f0000756e0000c9
:1016f800640d00000a00000052540000433a000044
:1017080020490000324300002046000061690000c3
:101718006c650000640d00000a00000052540000cf
:10172800433a0000204f000046200000666c00008d
:101738006167000020730000657400002c20000021
:101748007265000073740000617200007469000023
:101758006e67000020520000544300002e0d000068
:101768000a00000052540000433a000020520000d2
:101778006573000074610000727400002066000048
:10178800616900006c650000640d00000a0000003b
:101798005465000073740000696e00006720000043
:1017a80049320000430d00000a0000002530000007
:1017b80032780000002d00004d690000736d0000b4
:1017c8006174000063680000210d00000a00000039
:1017d80001be000073ab000055fb00000f9d000028
:1017e8002a000000526100006469000009430000fb
:1017f800686100006e090000566100006c75000009
:10180800650d00000a00000025640000092500009d
:1018180064090000257800000d0a0000005000004f
:101828006f6c00006c6900006e67000020500000bb
:10183800726f0000746f000074790000706500001a
:1018480020500000617900006c6f000061640000a6
:101858000d0a000000500000617900006c6f000064
:10186800616400003a200000493200004320000073
:10187800577200006974000065200000457200007e
:10188800726f0000720d00000a0000005061000035
:10189800796c00006f610000643a00002049000084
:1018a80032430000205200006561000064200000ff
:1018b80045720000726f0000720d00000a000000ff
:1018c80043680000616e000009560000616c00006a
:1018d800756500000d0a000000250000640900007d
:1018e800257800000d0a0000005000006f6c000011
:1018f8006c6900006e6700002050000061790000ec
:101908006c6f0000616400002e0000001b5b00008b
:10191800303b0000333100006d5b00004552000091
:10192800524f0000525d0000200000001b5b0000c9
:10193800303b0000333700006d00000025730000c5
:10194800002800004f56000045520000464c000099
:101958004f570000212900000a0000001111000063
:101968002222000033330000444400005555000093
:101978006666000077770000888800009999000063
:10198800aaaa0000bbbb0000cccc0000dddd000033
:10199800eeee0000cecd0000acab00000d0a00005a
:1019a80049200000616d0000206100002055000002
:1019b80041520000542100000d0a000000280000d8
:1019c8005561000072740000312900000d0a000002
:1019d80000000000494400004c45000000000000e1
:020000040000fa
:1019e8001600fa003007980041079800520798003f
:1019f8006307980074079800050f9800160f980061
:101a0800270f98009e0890005e009000f2030700e0
:101a1800100798001e009000e00f50005700320099
:101a28001e009000c0089000210798001e0090003a
:101a3800c00890005e0090000000e900000040002f
:101a4800808040001e009000710898005e0290009f
:101a5800ae0990007e019000ce0090001e0090001c
:101a68007a0307006e019000be0090002e009000df
:101a7800ae1a0700800078001e0090000108780068
:101a88000e089000e00f5000030032000e0890008e
:101a98009e009000010878001e1b070040fa800095
:101aa8000000e80040fa880020ff8000e00f5000a6
:101ab80007003a001e00900020ff880040fa8000ce
:101ac800e10f50000c003a008a0307000a003700b3
:101ad80080fa8000e00f500007003a0020ff8000e5
:101ae800b00890007e009000808f500002003e00f9
:101af8009e00900021ff88001e009000b008900012
:101b080060fa8000808f5000030036001e009000ad
:101b18003008900060fa8800d0fa80000000e800e1
:101b2800d0fa88001e009000b008900070fa80007b
:101b3800808f5000030036001e009000300890008f
:101b480070fa88001e0090000081e8001e009000d6
:101b5800300890006a00b9008000780040ef21004a
:101b68000080400082007800371b0700100020002a
:101b7800000f7800f11a0700020037000080eb0020
:101b8800000f78001e007800e10f50000b003a00ab
:101b980080fa8000e00f50000800320020ff80002b
:101ba800b00890007e009000808f50000300310044
:101bb8004047020000000000000000001e007800fe
:101bc8000080fa00000006000a00fa0030079800ba
:101bd800410798000000eb00000f7800890107001a
:101be8003e009000900078004e0090000080400079
:101bf800100798003e0090009000780050fa80008e
:101c0800808f50000c0036003e0090009000780055
:101c18001e009000808f50001200360050fa80009d
:101c28009e009000808f50000e00360010002000ab
:101c3800000f78000b0037003e00900090007800fd
:101c48001e009000808f500004003e0050fa800073
:101c58009e009000808f5000020036001000200087
:101c6800000f78003e0090009e0090000108780068
:101c78001e007800e00f50000500320020ff8000b1
:101c88000080e800441b07001e009000380307008e
:101c980062010700200798002e009000e00f500016
:101ca80003003a0040470200000000000000000066
:101cb8000080fa00000006000600fa0020079800dd
:101cc8000000eb00000f78002e009000e00f50009d
:101cd8000c0032004b01070051fa80002e009000e2
:101ce800008040001007980020ff80000080e80076
:101cf800291b07001e0090001d030700470107006d
:101d0800000f78001e007800e00f500003003a0032
:101d18004047020000000000000000000080fa00b8
:101d2800000006000a00fa003007980041079800f2
:101d38000000eb00000f78004e009000e30f500009
:101d4800020036003000200040079800711a070092
:101d580020ff8000be009000808f500002003a00f3
:101d68000000eb00300798003e009000e00f5000a4
:101d780002003a0020ff8000010037003e0090007a
:101d8800100798001e00900080109000210798000e
:101d9800ae0090004e009000808f5000430032004b
:101da800ce0090002e009000808f50000600360074
:101db8003e009000e00f50000800320010002000a4
:101dc800000f7800050037003e009000e00f50003b
:101dd80002003a0010002000000f78001e0090005a
:101de800801090001e00900030089000808f5000f6
:101df80003003a001e009000ce00900031089800c1
:101e08001e009000ce009000011098004e00900037
:101e1800e40010001e009000610098001e00900071
:101e2800500190002e0090006a00b90080007800f0
:101e380040ef210000804000800f510015003a005b
:101e48001e0090000080e800d31a07001e009000d2
:101e5800b008900070fa8000808f500003003600b0
:101e68001e0090003008900070fa88001e00900054
:101e78000081e8001e009000300890006a00b90058
:101e88008000780040ef2100008040008200780048
:101e98006d1a07001e007800e10f500003003a0099
:101ea800404702000000000000000000231a07005d
:101eb8000080fa00000006000400fa0010079800ed
:101ec800141a070020ff80009e009000808f5000a9
:101ed80002003a000000eb00100798001e00900076
:101ee800e00f500002003a0020ff80000100370098
:101ef8001e009000000f78001e80e800a61a070058
:101f08001e00780020089000e00f50000300320007
:101f18009e0078006c8040009f1a07001e80e80031
:101f280080007800e0f32100471a0700031a070031
:101f38001e009000e00f50000f003a0080fa800069
:101f4800e00f50000400320040470200000000008b
:101f58000000000008003700f1f9800040fa800016
:101f6800808f500003003a000000eb0020ff88003b
:101f780001003700680107000080fa000000060031
:101f88000600fa00200798000000eb00000f780018
:101f98002e009000100798001e009000d0009000be
:101fa800e0f32100808f50000b003a001e009000e3
:101fb800a008900040f32100808f500006003200f6
:101fc8001e00900020089000e00f500002003a0028
:101fd80010002000000f78001e0078000080fa0032
:101fe800000006000400fa00100798001e00900088
:101ff800000f78001e007800e00f50002600320025
:1020080020ff80009e007800808f50002200320060
:10201800c01907001e007800d9ff0700e10f500023
:102028001c003a001e80e8005b1a07001e007800ba
:10203800b008900070fa8000808f500003003600ce
:102048001e0078003008900070fa88001e81e800b1
:102058001e007800300890006a00b90080007800ff
:1020680040ef21000080400082007800f619070048
:102078001e007800b008900020ff80003008900013
:10208800808f500003003900404702000000000024
:1020980000000000a91907000080fa0000000600ef
:1020a8000800fa00300798000000eb00000f7800e5
:1020b8003e009000100798000000eb0020079800f1
:1020c8001e009000aeff0700e10f500027003a0005
:1020d80090fa8000e00f50001f003a001e009000a8
:1020e8003009900020ff8000b00890001000200008
:1020f800810f5100010031000000eb00000f780053
:102108001e0090000080e800231a07001e009000bf
:10211800b008900070fa8000808f500003003600ed
:102128001e0090003008900070fa88001e00900091
:102138000081e8001e009000300890006a00b90095
:102148008000780040ef2100008040008200780085
:10215800bd190700050037001e0090006c00400004
:102168008000780040f32100b71907001e007800ae
:102178000080fa00000006000200fa008003eb006d
:102188000003eb008002eb000002eb008001eb0093
:1021980032072000e1ce28004041210010fe070050
:1021a800000f78001e007800e10f500009003a0087
:1021b80011028000000220000080700010028800d8
:1021c8001000200080fa88000000eb0050fa880018
:1021d8001f1907000080fa00000006000000fa003e
:1021e80011028000000220000080700010028800a8
:1021f8000000eb0080fa88002c1907000080fa0024
:10220800000006000000fa0090fa80000000e800d4
:1022180090fa88000080fa00000006000400fa0026
:10222800881f78000000eb00000f780039190700bc
:1022380090fa80000000e90090fa880090fa800087
:10224800e00f50003f003a0040fa8000e00f5000d5
:102258003c0032000000eb00100798001c0037001b
:10226800d0f9800030009000000478006c00440031
:10227800c91907000880e800c7190700b8089000c6
:1022880070fa8000808f50000200360038089000f5
:1022980070fa88000881e800380890006a00b900e0
:1022a8008000780040ef2100008040008200780024
:1022b80065190700b808900020ff800030089000da
:1022c800808f50000200390010002000100798008d
:1022d800a0f98000e00f5000e1ff3a00a0fa80006a
:1022e800e00f50000a003200040037002e000700fb
:1022f800a0fa80000000e900a0fa8800a0fa800097
:10230800e00f5000f9ff3a00100020001007980075
:102318001e009000e10f500003003200b0fa800068
:10232800e10f500007003a0010002000000f78006d
:102338000000eb00b0fa88004047020000000000ef
:1023480000000000fd1807001e0078004f04780008
:102358000080fa00000006000200fa00ed180700ed
:1023680050fa8000000f7800f41807001e0078006b
:102378000080fa00000006000400fa000000eb00ec
:10238800000f780050fa8000100798001e00900097
:102398000080fa00000006000000fa0040fa800001
:1023a8000080fa00000006000600fa0090fa80009b
:1023b800e00f500053003a0050fa80000000e80097
:1023c80050fa880050fa8000e00f500017003a00d9
:1023d80080f98000000f780090f9800080f988006b
:1023e8009e00780091f98800c0fa80000000e8009b
:1023f800c0fa880080f9800010007800e00f5000d3
:1024080003003a000080eb0030ff88000700370027
:1024180080f980003000900030009000100798008c
:102428001e0090001000900030ff880051fa8000d4
:1024380030ff8000808f50003500390080f980001f
:1024480010007800e00f500003003a000080eb0015
:1024580030ff88002e00370080f98000300090009f
:1024680030009000100798001e0090009000900027
:102478002107980051fa80002e009000808f5000ac
:10248800030031002e00900030ff88002000370044
:102498001e0090000080e8003f1907001e00900011
:1024a80020089000e00f5000030032001e0090004a
:1024b8006c004000381907001e009000b00890001a
:1024c80070fa8000808f5000030036001e009000d4
:1024d8003008900070fa88001e0090000081e80023
:1024e8001e009000300890006a00b9008000780053
:1024f80040ef21000080400082007800d2180700d9
:10250800ceff3700a0fa80000000e800a0fa88009b
:102518000080fa00000006000200fa0090fa80002d
:10252800e00f50000700320010002000b0fa8800c9
:102538002600370070fa80000000e90070fa880071
:10254800010037000000000070fa80006a00b9003e
:102558008000780040ef21000080400010007800e3
:10256800e00f5000f3ff320070fa80006a00b900f3
:102578008000780040ef2100008f40001e007800a6
:1025880010009000900090001e0078001100980044
:102598001e007800900090001e0178006400410041
:1025a800808f500005003a001e007800100090004f
:1025b800900090001e007800110098001e0078001e
:1025c800100090003000900020ff88000080fa0082
:1025d800000006000600fa0010079800210798007e
:1025e80020ff80006c004000800078001e009000f2
:1025f800b718070020ff80000080e800e6180700f1
:102608002e009000e10f400006003a0020ff8000f5
:102618000080e80080007800e0f321008a180700b5
:102628000500370051fa80002e009000008f40000e
:102638001e007800ce0007000080fa0000000600a7
:102648000600fa00200798002e0090003000900045
:1026580030009000100798001e0090006c004000a9
:10266800cd18070090fa8000e00f500016003a00dd
:102678001e0090000080e800c71807001e009000a8
:10268800b008900070fa8000808f50000300360078
:102698001e0090003008900070fa88001e0090001c
:1026a8000081e8001e009000300890006a00b90020
:1026b8008000780040ef2100008040008200780010
:1026c80061180700050037001e0090006c004000ec
:1026d8008000780040f321005b1807001e0090007e
:1026e800b008900020ff800030089000808f5000d4
:1026f8000300390010002000000f780002003700a6
:102708000000eb00000f78001e0078000080fa003f
:10271800000006000200fa00000f7800c1fa8000ed
:102728001e0078000108780051fa80001e00780029
:10273800110098000080fa00000006000600fa0068
:102748001007980021079800f21707002e00900044
:1027580010007800e10f400003003a000000eb0091
:10276800000f7800250037001e00900090007800c8
:10277800c0fa8000808f5000080032001e009000d0
:102788009000900050fa8000808f500003003e00b7
:1027980010002000000f78001800370051fa800060
:1027a8001e00900010009000808050002e009000c5
:1027b80010007800808f50000e0031002e0090002d
:1027c800900078001e0090001001900050fa8000e0
:1027d80000005100808040002e0090000108780021
:1027e8001e009000cbff07000000eb00000f7800f0
:1027f8000200370010002000000f7800cf170700f4
:102808001e0078000080fa00000006000000fa00b0
:1028180010002000b0fa88000080fa0000000600ce
:102828000200fa00000f78004e000700a0f78000b1
:10283800e10f50000300360040470200000000008e
:1028480000000000bf190700f7ff37000a00fa0070
:10285800000f7800110798002207980033079800a6
:10286800440798009e0078007a80400042002000cb
:102878009e00900023f907009e0078000040eb00be
:10288800d05898002e009000e30f50000200360048
:1028980030002000200798001e007800ae0090004d
:1028a800310898001e007800ae00900001109800d2
:1028b8001e80e800dd1707009e0078006c8040004d
:1028c800da1707001e0078009e0078004100980083
:1028d8002e009000e40010001e00780061009800af
:1028e8001e0078009e007800110898000080fa0009
:1028f800000006000200fa000000eb00000f78005c
:10290800070037001e0078006a00b90080007800d0
:1029180040ef210000804000ab1707001e0fe800c1
:102928001e007800e30f5000f6ff3600c0f12100ca
:10293800a517070060f22100a317070040f3210044
:10294800a1170700e0f321009f170700c0f121003d
:1029580080f9880060f2210090f988000080fa0070
:10296800000006000000fa000080fa0000000600df
:102978000200fa00000f780020ff80009e00780017
:102988001100980050fa80009e007800808f500057
:102998000500310020ff80008080e80090f9800069
:1029a800cb1707000a00370020ff80008080e8006e
:1029b80080f98000c617070030ff80009e0078006d
:1029c800808f5000020031001e00780030ff880020
:1029d8000080fa00000006000600fa0010079800c0
:1029e8002107980020022000c5180700000f780072
:1029f8001e007800e00f50001b0032002e009000ef
:102a0800e00f500004003a001e0090000000400053
:102a1800bb180700010037002e0090009e007800c8
:102a2800c00898001e00780040089000e00f500091
:102a380005003a001e007800d71807000000eb00d8
:102a4800000f7800080037001e00900000004000ca
:102a5800800078001e00780040089000010178008e
:102a6800510a20007df807001e0078000080fa0057
:102a7800000006000200fa0020ff8000000f780026
:102a88001e0078000080fa00000006000400fa002a
:102a9800100798001e009000000f78001e007800b4
:102aa800b008900020ff800030089000808f500010
:102ab8002b00310020ff800030089000e400100057
:102ac8001e007800610098001e00780050019000f8
:102ad8001e007800300890006a00b9008000780075
:102ae80040ef210000804000800f510018003a009c
:102af8001e80e800a817070020ff8000b00890009b
:102b08001e007800310898001e007800b008900078
:102b180070fa8000808f5000030036001e00780095
:102b28003008900070fa88001e81e8001e007800c6
:102b3800300890006a00b9008000780040ef21005a
:102b480000804000820078003f170700040037002b
:102b580020ff8000b00890001e007800310898001f
:102b68000080fa00000006000400fa001007980030
:102b78001e009000000f78001e009000e00f50002b
:102b8800220032001e007800b00890001e00780075
:102b980000109000808f50001c0032001e80e8005a
:102ba8007d1707001e007800801090001e00780036
:102bb800310898001e00780030089000e4001000ea
:102bc8001e007800610098001e007800b008900090
:102bd80070fa8000808f5000030036001e007800d5
:102be8003008900070fa88001e81e8001e00780006
:102bf800300890006a00b9008000780040ef21009a
:102c080000804000820078000f1707000080fa005b
:102c1800000006000200fa00004f78001e00fb00ca
:102c28006101b9000080eb008080eb0002004000e9
:102c3800838048003200200003002000820f5000eb
:102c4800838f580021003e00006001000300370018
:102c5800090037000f00370015003700a0fe80007c
:102c68008001eb000081eb008000eb00a705070066
:102c78000040780018003700b0fe80008001eb00ab
:102c88000081eb008000eb00a00507000040780001
:102c980011003700c0fe80008001eb000081eb00ce
:102ca8008000eb0099050700004078000a00370013
:102cb800d0fe80008001eb000081eb008000eb007b
:102cc8009205070000407800030037001e40780096
:102cd800360007000040eb000080fa000000060004
:102ce8000200fa00004f78001e00fb006101b900e5
:102cf8000080eb008080eb000200400083804800e9
:102d08003200200003002000820f5000838f5800fb
:102d180021003e0000600100030037000900370071
:102d28000f00370015003700a0fe80008001eb007f
:102d38000001eb008000eb00e00407000040780091
:102d480018003700b0fe80008001eb000001eb00a6
:102d58008000eb00d904070000407800110037001c
:102d6800c0fe80008001eb000001eb008000eb005a
:102d7800d2040700004078000a003700d0fe800027
:102d88008001eb000001eb008000eb00cb040700a2
:102d980000407800030037001e4078000300070059
:102da8000040eb000080fa00000006000200fa0074
:102db800004f78001e00fb00801f7800a0a62800a6
:102dc800801f78007e140700e48757000080fa000f
:102dd800000006000200fa00004f78001147980032
:102de8001e00fb006101b9000080eb008080eb0051
:102df80002004000838048003200200003002000c9
:102e0800820f5000838f580031003e00006001009f
:102e1800030037000d003700170037002100370086
:102e28001e409000614060000080fb00610060006f
:102e38004200dd0092178000b1ff2f008100610081
:102e48000080700090178800230037001e40900013
:102e5800614060000080fb00610060004200dd000e
:102e680012168000b1ff2f00810061000080700001
:102e780010168800180037001e409000614060005e
:102e88000080fb00610060004600dd001217800032
:102e9800f1fb2f008100610000807000101788008e
:102ea8000d0037001e409000614060000080fb006c
:102eb800610060004200dd0052168000b1ff2f0063
:102ec8008100610000807000501688000200370001
:102ed8001e407800b5ff07000080fa0000000600d9
:102ee8000200fa00004f7800114798001e00fb000e
:102ef8006101b9000080eb008080eb000200400017
:102f0800838048003200200003002000820f500018
:102f1800838f580031003e00006001000300370035
:102f28000d00370017003700210037001e409000c1
:102f3800614060000080fb00610060004300dd002c
:102f48009217800071ff2f008100610000807000df
:102f580090178800230037001e40900061406000f1
:102f68000080fb00610060004300dd001216800055
:102f780071ff2f008100610000807000101688002a
:102f8800180037001e409000614060000080fb0080
:102f9800610060004700dd0012178000f1f72f0084
:102fa8008100610000807000101788000d00370054
:102fb8001e409000614060000080fb0061006000de
:102fc8004300dd005216800071ff2f008100610070
:102fd8000080700050168800020037001e407800fc
:102fe80072ff07000080fa00000006000200fa00e5
:102ff800004f7800114798001e00fb006101b900de
:103008000080eb008080eb000200400083804800d5
:103018003200200003002000820f5000838f5800e8
:1030280031003e0000600100030037000d0037004a
:1030380017003700210037001e40900061406000f3
:103048000080fb00610060004200dd008217800004
:10305800b1ff2f0081006100008070008017880098
:10306800230037001e409000614060000080fb0094
:10307800610060004200dd0002168000b1ff2f00f1
:103088008100610000807000001688001800370079
:103098001e409000614060000080fb0061006000fd
:1030a8004600dd0002178000f1fb2f00810061005f
:1030b80000807000001788000d0037001e40900047
:1030c800614060000080fb00610060004200dd009c
:1030d80042168000b1ff2f0081006100008070005f
:1030e80040168800020037001e4078002fff0700b6
:1030f8000080fa00000006000200fa00004f780085
:10310800114798001e00fb006101b9000080eb0028
:103118008080eb00020040008380480032002000dd
:1031280003002000820f5000838f580031003e00ba
:1031380000600100030037000d003700170037005a
:10314800210037001e409000614060000080fb00b5
:10315800610060004300dd008217800071ff2f00ce
:10316800810061000080700080178800230037000c
:103178001e409000614060000080fb00610060001c
:103188004300dd000216800071ff2f0081006100fe
:103198000080700000168800180037001e4090005c
:1031a800614060000080fb00610060004700dd00b6
:1031b80002178000f1f72f00810061000080700085
:1031c800001788000d0037001e4090006140600025
:1031d8000080fb00610060004300dd0042168000b3
:1031e80071ff2f0081006100008070004016880088
:1031f800020037001e407800ecfe07000080fa004d
:10320800000006000200fa00004f78001e00fb00d4
:103218006101b9000080eb008080eb0002004000f3
:10322800838048003200200003002000820f5000f5
:10323800838f580015003e0000600100030037002e
:1032480006003700090037000c003700901780008f
:103258004200de00614060000f0037001016800059
:103268004200de00614060000b003700101780004c
:103278004600de00614060000700370050168000fd
:103288004200de0061406000030037001e40780005
:10329800c6fe070010c0b3000080fa000000060058
:1032a8000200fa00004f78001e00fb006101b9001f
:1032b8000080eb008080eb00020040008380480023
:1032c8003200200003002000820f5000838f580036
:1032d80015003e00006001000300370006003700bb
:1032e800090037000c003700901780004300de000b
:1032f800614060000f003700101680004300de00b8
:10330800614060000b003700101780004700de00a6
:103318006140600007003700501680004300de005f
:1033280061406000030037001e4078009ffe0700e0
:1033380010c0b3000080fa00000006000600fa0082
:10334800004f7800114798001207980043479800eb
:103358001e407800b90007001e407800a9ff07004a
:10336800e04f500002003a0020c0b3002d003700a3
:103378009e409000e0cfb30000c06000804078001d
:103388001e407800600007001e4078000401070016
:10339800e04f500015003a001e407800c6000700b4
:1033a80000c0eb001f0037001e009000104078009e
:1033b800804078001e407800530007001e407800c7
:1033c800f7000700e04f500004003a001e40780064
:1033d800b900070010c0b300120037001e009000ab
:1033e8000000e80010079800010037000000000006
:1033f8004e4090000080fb000000ea004f00de0015
:1034080000407800ce4090008140e9004147980094
:10341800e04f5000e4ff3a001e407800a600070085
:103428000040eb000080fa00000006000600fa00e9
:10343800004f7800114798001207980043479800fa
:103448001e4078007d0007001e4078006dff0700d1
:10345800e04f500002003a0020c0b30028003700b7
:103468001e4090000004a000804078001e407800b4
:10347800250007001e407800c9000700e04f5000f3
:1034880011003a001e4078008b00070010c0b300fe
:103498001b0037001e407800460007009e00900081
:1034a800804878001e0090000000e800100798008f
:1034b8004e409000e04f5000040034001e40780059
:1034c800dc00070001003700000000004e409000bb
:1034d8000080fb000000ea004f00de00004078009a
:1034e800ce4090008140e90041479800e04f5000ed
:1034f800e8ff3a001e4078006f0007000040eb002c
:103508000080fa00000006000400fa002047980036
:10351800314798008040eb002e40900070fe070075
:103528008040eb002e4090002afe070040c6b30002
:10353800d300070080c0b300004f780014003700a4
:103548003e409000e04f5000070035008040eb00ff
:103558002e40900062fe07008040eb002e40900055
:10356800e5fe07000300370011c0b3002e409000ad
:10357800e1fe07003e4090000000fb000000400014
:10358800304798002e4090005a0007001e4fe9006f
:103598001e407800e04f5000e9ff3a0011c0b30028
:1035a8002e409000d4fe07000040eb000080fa0097
:1035b800000006000400fa00204798000040eb00d5
:1035c800104798008040eb002e40900044fe070012
:1035d8008040eb002e409000fefd070040c6b3007f
:1035e800a700070080c0b300004f78000d00370027
:1035f8001e4090000000fb000000400010479800ab
:1036080011c0b3002e409000bbfe07002e40900072
:10361800480007009e40900000c0700010479800c6
:103628001e4fe9001e407800e04f5000f0ff3a00be
:103638001e4090000080fa00000006000200fa0018
:10364800004f780011c0b3001e407800aafe0700a2
:1036580011c0b3001e40780064fe07008040eb00f4
:103668001e407800dbfd07008040eb001e4078001c
:103678001bfe070020c3b300810007008040eb0059
:103688001e4078009cfe07008040eb001e4078003a
:1036980013fe070020c3b300790007008040eb0049
:1036a8001e40780051fe070040c6b30074000700b2
:1036b8000080fa00000006000200fa00004f7800bf
:1036c8008040eb001e4078008bfe070011c0b3005d
:1036d8001e40780045fe070020c3b30068000700bd
:1036e80011c0b3001e40780083fe07000080fa0076
:1036f800000006000200fa00004f780040c1b30045
:103708005f00070011c0b3001e40780037fe0700b5
:1037180040c6b3005a0007008040eb001e40780006
:1037280032fe070040c6b300550007000080fa00cb
:10373800000006000400fa00204798000040eb0053
:10374800004f780040c1b3004d00070011c0b3001e
:103758002e40900025fe070020c3b3004800070054
:103768002e409000cefe0700e04f500002003200cd
:1037780010c0b300004f780020c3b300400007001a
:103788008040eb002e40900018fe070040c6b300b2
:103798003b0007001e4078000080fa000000060089
:1037a8000200fa00004f78008040eb001e407800cd
:1037b800cbfd07008040eb001e40780085fd070028
:1037c8008040eb001e40780008fe070011c0b300df
:1037d8001e40780048fe070011c0b3001e40780064
:1037e80002fe070020c3b300250007001e40780032
:1037f800abfe0700e04f5000020032000040eb0033
:103808000a00370020c3b3001d0007008040eb000a
:103818001e407800f5fd070040c6b30018000700f9
:1038280040c6b3001600070010c0b3000080fa00bd
:10383800000006000200fa00004f78008040eb000c
:103848001e407800a6fd07008040eb001e4078006f
:1038580029fe070040c1b300090007001e40780098
:10386800a4ff070011c0b3001e40780022fe070025
:1038780040c1b300020007000080fa000000060003
:103888000400fa00204798002e409000004f78006e
:103898000a003700a0c0b3001047980003003700a3
:1038a8001e4090000040e900104798001e4090001c
:1038b800e04f5000faff3a001e4fe9001e40780022
:1038c800e04f5000f3ff3a000080fa0000000600c5
:1038d8000000fa000041eb0081002000a000200059
:1038e8009601070090fe88008003eb000003eb00c0
:1038f8008002eb00440020008001eb00320720002a
:103908008000eb0060eb210035f80700020007009b
:103918000080fa00000006000000fa0010c0b300a2
:10392800b5010700a0fe880010c0b300b20107006f
:10393800b0fe880010c0b300af010700c0fe8800c9
:1039480010c0b300ac010700d0fe88000080fa0068
:10395800000006000000fa00dcdfbf0080407800ad
:10396800ecdfbf008041eb000001eb0073fe0700b5
:10397800e04f500010003200ecdfbf000001fb00f8
:10398800dcdfbf000080fb000000d10000407800b1
:103998008080fb00dcdfbf000080fb00821f780016
:1039a800811f7800801f780030a92800801f7800c8
:1039b8007a110700e8875700dcdfbf0000c0e80085
:1039c800dcffb7000080fa00000006000400fa00df
:1039d800204798000040eb00004f7800b0ab28006b
:1039e8006711070040062000b3f807002e4090003a
:1039f8000000fb00801f7800a0ac2800801f780022
:103a080066110700e48757008041eb000001eb00d6
:103a18009e4078002e40900024000700e04f5000a0
:103a280004003a0020ad2800801f78005b110700d1
:103a38008f87e9001e40780000c0e800004f78003a
:103a48001e407800e04f5000efff3a000080fa0077
:103a5800000006000800fa00204798003147980047
:103a680022079800634798000040eb00004f780059
:103a78002e40900067fc0700e04f5000080032001d
:103a8800ee4190002e019000be4090002e40900024
:103a98002afe0700004f78002e40900090fc070097
:103aa8001e4078000080fa00000006000800fa00b6
:103ab80020479800314798002207980063479800ec
:103ac8000040eb00004f78002e40900051fc0700aa
:103ad800e04f500008003200ee4190002e019000a7
:103ae800be4090002e40900050fe0700004f780026
:103af8002e4090007afc07001e4078000080fa00f3
:103b0800000006000200fa00004f78001e00fb00cb
:103b18006101b900200020000100200002004000df
:103b2800838048004200200003002000820f5000dc
:103b3800838f58001b003e0000600100040037001e
:103b480008003700160037000b0037000f00370059
:103b5800e0ad2800801f7800191107008f87e90061
:103b680010003700a0b02800801f7800141107004b
:103b78008f87e9000b00370050b22800801f7800bb
:103b88000f1107008f87e9000600370070b328007f
:103b9800801f78000a1107008f87e90001003700ad
:103ba800000000001e4078000080fa0000000600b7
:103bb8000800fa002047980031479800220798002b
:103bc80063479800ee4190002e019000be4090009f
:103bd8002e4090009fff0700004f78001e4078009d
:103be800e04f5000020032001e407800c5ff070079
:103bf8001e4078000080fa00000006000800fa0065
:103c0800204798003147980022079800634798009a
:103c1800ee4190002e019000be4090002e40900092
:103c28008cff0700004f78001e407800e04f5000de
:103c3800020032001e407800b2ff07001e407800e4
:103c48000080fa00000006001000fa00204f9800db
:103c5800314f980062079800634f9800e0cfb30097
:103c6800004f98002e489000004f78003e48900082
:103c7800104798006e009000100798006e4890005a
:103c880040479800680047003007980090fe800081
:103c98008001eb000081eb008e007800070107002f
:103ca800e10f50000500320000c0eb000c003700a7
:103cb8004006200000f8070001003700000000005f
:103cc8000e489000e24f4000f9ff32000e48900085
:103cd8000080fb000000e9004f00de000040780093
:103ce8000080fa00000006000600fa00004f780085
:103cf8001147980012079800434798009e4090008b
:103d0800e0cfb30000c0600010479800ce4190009b
:103d18001e0190009e4090001e407800caff0700d8
:103d28000080fa00000006000600fa00004f780044
:103d38001147980012079800434798001e409000ca
:103d48000004a00010479800ce4190001e0190008a
:103d58009e4090001e407800bbff07000080fa00dc
:103d6800000006000a00fa0040079800010037002a
:103d780000000000800c2000cff7070090fe8000b4
:103d88008001eb000081eb008e0078005f010700e6
:103d9800e00f5000f6ff32001e4090000000fb00cc
:103da80061006000e00f500011003a004e419000a1
:103db8001e0290009e4090001e40780082417800cc
:103dc800040178005dfd0700e04f50000400320058
:103dd800be0090000040eb0080487800e5ff370007
:103de800be00900000c0eb0080487800e1ff37007b
:103df8004e4190001e0290009e4090001e407800a8
:103e0800824178000401780088fd0700e04f5000e7
:103e180004003200be0090000040eb0080487800ab
:103e2800d4ff3700be00900000c0eb008048780047
:103e3800d0ff37000400fa00000f7800110798003f
:103e4800341207001e007800100178001e00780068
:103e5800f00890001e007800001090000088b9005b
:103e680000007800800041001e00780011009800d2
:103e78001e0078008000eb00610898001e007800a2
:103e8800900078001e007800210098001e0078003d
:103e9800100178001e007800700890008000e9008a
:103ea8001e007800001090000088b900000078001b
:103eb800800041001e007800310098001e00780044
:103ec8008080eb00111098001e0078008080eb00c5
:103ed800211098001e009000e00f50000d003a00dd
:103ee8001e00780040009000e00f50000f003200e4
:103ef8009e00780068804000d1f90700e10f50006b
:103f08000a003a00404702000000000000000000dc
:103f1800060037009e007800688040002a120700db
:103f28009e007800728040002712070003120700e5
:103f3800100020000080fa00000006000c00fa00c3
:103f48003007980041079800224f98000000eb00c6
:103f5800000f78003e009000e00f50002300320070
:103f68006002200066130700100798001e009000ea
:103f7800e00f50001d003200be0090004e0090007f
:103f88000088b900000078000000e80020079800c9
:103f98002e0090005a130700800078001e00900041
:103fa800010878001e00900010007800e00f500013
:103fb8000c0032001e009000be00900071089800ae
:103fc8001e009000ce009000011098001100200003
:103fd8001e00900097ff07001e009000000f780059
:103fe800020037001e0090006b1307001e007800c7
:103ff8000080fa00000006000400fa00204798003c
:10400800600220003e130700000f78001e007800b1
:10401800e00f5000260032001e0078008000eb0000
:10402800110098001e0078008000eb00010878005d
:104038001e0078008000eb00210098001e00780028
:104048008000eb00310098001e0078008000eb0033
:10405800610898001e00780011002000710898007f
:104068001e0078008000eb00011098001e00780008
:104078008080eb00111098001e0078008080eb0013
:10408800211098009e00780068804000ce1107003b
:104098009e00780072804000cb1107008001eb0081
:1040a8000001eb008000eb001e0078000300070011
:1040b8001e0078000080fa00000006000e00fa00da
:1040c8003007980041079800520798006307980046
:1040d8000000eb00000f780001003700000000002e
:1040e8008c1107003e009000e00890003e00900010
:1040f80070089000808f5000130031006e0190000e
:10410800ce0090003e009000590107003e0090004c
:1041180010089000e00f5000080032003e009000a8
:104128007200400046f90700e10f500003003a0012
:104138004047020000000000000000007f11070057
:10414800100020003d0037005e009000e00f500096
:1041580003003a00791107000000eb003700370030
:104168001e007800e00f500004003a000e80e800be
:1041780068f9070010002000000f78006f11070091
:1041880020f80700631107003e009000101090000f
:10419800e10f400003003a003e0090008000eb0071
:1041a800111098003e00900020109000e10f400090
:1041b80003003a003e0090008000eb0021109800b8
:1041c8005e110700ea0047000e80e8005bf907006f
:1041d800e00f500015003a003e009000ed01070086
:1041e800e00f50000d003200de0090003e0090000d
:1041f80068004000f7f807003e00900091010700b2
:1042080006f80700e00f5000b4ff3a0040470200ec
:104218000000000000000000b1ff37003e009000e1
:1042280088010700fdf70700adff37003e0090004a
:1042380084010700f9f707000000eb000080fa008e
:10424800000006000c00fa002007980031079800cb
:1042580042079800530798000000eb0010079800e9
:104268002e009000e00890002e009000700890004a
:10427800808f5000200031005e019000be00900049
:104288002e009000fa0007002e00900020109000e9
:10429800e10f400010003a002e0090001008900036
:1042a800e00f5000110032002e0090007200400014
:1042b800e3f80700e00f50000c0032004e009000b9
:1042c800e00f5000090032004e009000110020005d
:1042d80001087800050037002e009000201090009b
:1042e8008000e8002e0090002110980010002000a7
:1042f800000f7800020037000000eb00000f780084
:104308001e0078000080fa00000006001000fa0085
:1043180040079800510798006207980073079800b3
:104328000000eb00000f78000100370000000000db
:10433800f81007004e00900060089000e00f500051
:10434800350032004e009000b00090001107980030
:10435800de0090004e009000180107007e009000db
:10436800e00f50001a003a004e00900060089000dc
:104378008000e9004e009000610898004e0090000f
:1043880010007800e00f500004003a00b9f9070067
:10439800800078004e009000110098004e009000b8
:1043a80040009000e00f5000180032004e009000ce
:1043b80068004000a2f80700e10f500013003a001f
:1043c8004047020000000000000000000f00370016
:1043d8004e0090009e009000310098004e00900022
:1043e80010089000e00f5000080032004e009000c6
:1043f8007200400092f80700e00f500003003200fe
:10440800404702000000000000000000cb10070039
:1044180010002000460037006e009000e00f5000aa
:1044280003003a00c51007000000eb004000370009
:104438001e007800e00f500004003a0064004700b6
:10444800b4f8070010002000000f7800bb10070028
:104458006cf70700af1007004e0090001010900096
:10446800e10f400003003a004e0090008000eb008e
:10447800111098004e00900020109000e10f4000ad
:1044880003003a004e0090008000eb0021109800d5
:10449800aa100700ec00470064004700a7f80700cf
:1044a800e00f50001e003a004e0090001f01070068
:1044b800e00f5000160032004e0090001000780007
:1044c800e00f500005003a00921007004e009000df
:1044d800100090006df9070098100700ee0090009a
:1044e8004e009000720040003af807004e0090001d
:1044f800d400070049f70700e00f50008bff3a008f
:1045080040470200000000000000000088ff37005c
:104518004e009000cb00070040f7070084ff3700eb
:104528004e009000c70007003cf707000000eb00b2
:104538000080fa00000006000a00fa002007980030
:1045480031079800420798000000eb001007980018
:104558002e00900060089000e00f50002400320008
:10456800be0090002e009000940007002e009000de
:10457800600890008000e9002e0090006108980013
:104588002e00900010109000e10f400010003a003b
:104598002e00900040009000e00f50001100320003
:1045a8002e0090006800400025f80700e00f50003a
:1045b8000c0032004e009000e00f5000090032005d
:1045c8004e00900011002000010878000500370017
:1045d8002e009000101090008000e8002e0090003f
:1045e8001110980010002000000f7800020037001a
:1045f8000000eb00000f78001e0078000080fa0031
:10460800000006000400fa00100798004110070097
:104618001e009000e0089000010f78004710070086
:104628001e0078000080fa00000006000400fa006e
:10463800100798001e009000e0089000010f780015
:104648001e0078000080fa00000006000200fa0050
:10465800000f78001e00780010007800ce110700c7
:104668001e007800cc1107000080fa000000060048
:104678000600fa00000f780011079800220798003a
:104688001e00780000109000e00f50000b003a0068
:104698001e00780010007800e00f500040003a003b
:1046a8001e007800100090002ff907001e00780007
:1046b8008000eb0011009800390037002e009000b0
:1046c800e00f500019003a001e007800801090009a
:1046d8001e00780020009000010178009e009000e4
:1046e80056f107001e007800a00090001e00780018
:1046f80000109000808040001e0078002100980083
:104708001e007800a00090001e00780010009000a5
:10471800808f5000220039001e0078009000780039
:104728001e007800210098001d0037001e00780048
:10473800801090001e007800300090000101780081
:104748009e0090003df107001e007800b000900028
:104758001e007800001090000000ea0080804000f1
:104768001e007800310098001e007800b00090000c
:104778001e00780010007800808f5000080031007b
:104788001e007800900090001e0078000010900035
:104798000000ea00808040001e0078003100980088
:1047a8001e007800600890008000e8001e00780075
:1047b800610898000080fa00000006000400fa0072
:1047c800000f7800110798001e007800100078008c
:1047d800e00f5000190032001e007800b000900071
:1047e8001e00780000109000808040001e007800b5
:1047f800310098001e007800b00090001e0078007c
:1048080010009000808f5000040039001e007800ce
:10481800900078001e007800310098001e00780093
:10482800801090001e007800300090000101780090
:10483800800078001e00900000f107000080fa0058
:10484800000006000200fa00000f7800b10f070010
:104858000f0037001e00780010089000e00f50008d
:10486800100032009e0078007280400074f7070044
:10487800e00f500001003200e4f707001e00780046
:10488800201090008000e9001e0078002110980098
:104898001e00780020109000e00f5000edff3c0053
:1048a80001003700000000001e0078008080eb0047
:1048b80021109800a10f0700960f07000f0037007e
:1048c8001e00780040009000e00f500010003200f9
:1048d8009e0078006880400059f70700e00f5000fc
:1048e80001003200c9f707001e0078001010900080
:1048f8008000e9001e007800111098001e00780062
:1049080010109000e00f5000edff3c000100370050
:10491800000000001e0078008080eb001110980055
:10492800860f07000080fa00000006000400fa0065
:1049380010079800770f07001e009000e00890000d
:1049480010002000e08f5000010032000000eb0052
:10495800000f7800790f07001e0078000080fa0029
:10496800000006000400fa00100798001e009000de
:10497800e008900010002000e08f50000100320095
:104988000000eb00000f78001e0078000080fa009d
:10499800000006000400fa00100798005d0f0700e9
:1049a8001e009000600990001e009000f008900022
:1049b80010002000810f5100010032000000eb00c0
:1049c800000f78005d0f07001e0078000080fa00d5
:1049d800000006000400fa00100798001e0090006e
:1049e800600990001e009000f00890001000200060
:1049f800810f5100010032000000eb00000f780029
:104a08001e0078000080fa00000006000800fa0086
:104a180010079800210798003207980011028000bb
:104a28000002200000807000100288001e00900024
:104a3800d8ff0700e00f5000140032003e0090003d
:104a4800e00f50000b0032001e009000680040008c
:104a5800800078003e0090008e0b07001102800055
:104a6800f0fd2f000080600010028800c0ff2f00ba
:104a78002e00370011028000f0fd2f00008060003a
:104a8800100288000000eb002800370011028000a7
:104a9800f0fd2f0000806000100288000000000078
:104aa80011028000000220000080700010028800bf
:104ab8001e009000e00890001e0090007008900012
:104ac800808f5000120031000001eb00ae00900012
:104ad8001e009000e6fe070010002000000f78007e
:104ae8001e00900010089000e00f50000a003200ed
:104af8001e00900072004000530c0700e00f5000a9
:104b080005003200b0ff2f00000f780002003700c8
:104b18000000eb00000f780011028000f0fd2f006c
:104b280000806000100288001e0078000080fa00f3
:104b3800000006000800fa001007980021079800f6
:104b480032079800110280000002200000807000e7
:104b5800100288001e00900060089000e00f5000ce
:104b680014003a003e009000e00f50000b003200a5
:104b78001e00900072004000800078003e00900007
:104b8800440b070011028000f0fd2f000080600038
:104b980010028800c0ff2f00460037001102800075
:104ba800f0fd2f0000806000100288000000eb007c
:104bb8004000370011028000f0fd2f0000806000e7
:104bc800100288000000000011028000000220008e
:104bd80000807000100288001e009000600890009d
:104be800e00f50002c0032001e009000b000900032
:104bf8001e00900000109000808040001e00900071
:104c0800310098001e009000b00090001e00900037
:104c180010009000808f5000040039001e009000a2
:104c2800900078001e009000310098001e0090004f
:104c3800600890008000e9001e009000610898005c
:104c48001e009000801090001e0090003000900020
:104c580001017800800078002e009000f7ef07002f
:104c680010002000000f78001e0090004000900007
:104c7800e00f50000a0032001e009000680040005b
:104c8800f10b0700e00f500005003200b0ff2f00c5
:104c9800000f7800020037000000eb00000f7800da
:104ca80011028000f0fd2f000080600010028800d3
:104cb8001e0078000080fa00000006000600fa00d6
:104cc800000f780011079800220798001e0078004e
:104cd800e00890001e00780070089000808f500057
:104ce800120031000001eb009e0090001e007800c9
:104cf8005ffe07002e009000e00f50000b003a0006
:104d08001e00780010089000e00f500007003200e5
:104d18009e00780072804000cb0b0700e00f500027
:104d28000200320010002000010037002e00900021
:104d38000080fa00000006000800fa00100798003a
:104d480021079800320798001e0090006008900024
:104d5800e00f5000310032001e009000b0009000bb
:104d68001e00900000109000808040001e009000ff
:104d7800310098001e009000b00090001e009000c6
:104d880010009000808f5000040039001e00900031
:104d9800900078001e009000310098001e009000de
:104da800600890008000e9001e00900061089800eb
:104db8001e009000801090001e00900030009000af
:104dc80001017800800078002e0090009bef07001a
:104dd8003e00900010007800e00f50000c003a00f0
:104de8001e00900040009000e00f500008003200c4
:104df8001e00900068004000930b0700e00f500071
:104e0800030032003e0090001100200001087800e5
:104e180010002000000f7800020037000000eb00af
:104e2800000f78001e0078000080fa0000000600dd
:104e38001400fa00881f78002007980032079800ad
:104e48004307980051079800640798007507980071
:104e5800060f9800170f98000000eb00000f78006d
:104e68002c0e07002e009000100798001e009000de
:104e7800e10f500025003e001e009000e00f50009a
:104e880003003200e10f5000080032000e00370026
:104e98007e029000ee0190005e0190003e009000be
:104ea800ce0090001e000700070037007e02900029
:104eb800ee0190005e0190003e009000ce00900050
:104ec8008a000700000000001e0090006a00b90078
:104ed80080007800e0fb2100008f40001e0478006d
:104ee8000041eb00110020001e08900013fc070091
:104ef800100498001e0478000041eb001100200007
:104f08000e0890000dfc0700200498000b0e070007
:104f18001e0078004f0478000080fa0000000600a8
:104f28000c00fa0010079800210798003207980033
:104f380043079800540798004e009000e10f500076
:104f480002003a00300020004007980021e2a90042
:104f580021a2a9002182a9002162a8002122a9007a
:104f68002102a90020e2a90020c2a90020a2a900cc
:104f78002062a9003e009000e00f500003003a00b4
:104f88004e009000e00f5000020032001000200098
:104f9800010037000000eb0000407800634060002b
:104fa80063406000634060000080fb0063006000b5
:104fb800000040000211800091ff2f008100610075
:104fc80000807000001188005e00900000407800aa
:104fd800614060000080fb006100600002118000f9
:104fe800e1ff2f008100610000807000001188003f
:104ff80023e2a80023a2a90023c2a9002362a900d2
:105008002342a900101180001011800022e2a9009b
:1050180022c2a90022a2a90010118000101180004c
:105028001011800010118000101180001e009000e7
:10503800ae00900017ee07000200200003182400bd
:1050480078ee07000001be000040220041a72400be
:10505800a1ed07000200200003f0230040ed070047
:10506800eeed070000007800401188001102800072
:1050780000022000008070001002880021e2a800d1
:105088002342a8008560a9008580a9004105800009
:10509800f0ff280080806000000021000080700080
:1050a800400588005105800080ff2f0000806000c7
:1050b8000000a000500588009580a8009560a80011
:1050c8000200370030118000004f78001011800076
:1050d80061006000e00f5000faff3a001000200065
:1050e80010ff88000080fa00000006000c00fa009b
:1050f8001007980021079800320798004307980086
:10510800540798004e009000e10f500002003a004a
:10511800300020004007980031e2a90031a2a90020
:105128003182a9003162a8003122a9003102a90008
:1051380030e2a90030c2a90030a2a9003062a9005b
:105148003e009000e00f500003003a004e0090002f
:10515800e00f50000200320010002000010037006c
:105168000000eb000040780063406000634060008e
:10517800634060000080fb006300600000004000a6
:105188008211800091ff2f00810061000080700073
:10519800801188005e009000004078006140600047
:1051a8000080fb006100600082118000e1ff2f0099
:1051b80081006100008070008011880033e2a8003f
:1051c80033a2a90033c2a9003362a9003342a9005f
:1051d800901180009011800032e2a90032c2a9002b
:1051e80032a2a900901180009011800090118000d7
:1051f80090118000901180003342a8001e0090009a
:10520800ae009000a3ed0700020020000318240060
:1052180004ee07000001be000040220041a7240060
:105228002ded07000200200003f02300ccec07005e
:105238007aed070000007800c01188001102800094
:1052480000022000008070001002880031e2a800ef
:105258003342a80087c0a90087e0a9009105800013
:10526800f08f2f0080806000001020000080700008
:105278009005880091058000f0ff2800808060007c
:1052880000002100008070009005880097e0a800c9
:1052980097c0a80002003700b0118000004f7800c6
:1052a8009011800061006000e00f5000faff3a00a2
:1052b8001000200010ff88000080fa00000006009f
:1052c8000600fa00000f78001107980022079800de
:1052d8001e007800100090008001eb002e01900065
:1052e8009e00900009fc0700e00f50000200320009
:1052f80010002000010037000000eb000080fa00d9
:10530800000006000600fa00000f78002147980008
:10531800220798001e007800200090008e80e80088
:105328008001eb002e01900064fb0700e10f5000a4
:10533800020032000000eb000700370010ff800079
:10534800e00f5000030032000000eb0010ff88005f
:105358008580a800100020000080fa0000000600e8
:105368000800fa00100798002107980032079800f3
:105378002e009000000f7800070037001e0078000c
:10538800104078000001eb00804078001e0090007b
:10539800dcff07001e0fe8001e00780010407800b0
:1053a800e04f5000f5ff3a000080fa0000000600c8
:1053b8000400fa00100798001e009000100f7800f3
:1053c8001e007800e00f500003003200e10f50008b
:1053d80004003200060037009580a9009560a900f6
:1053e8000300370097e0a90097c0a900000000005b
:1053f8000080fa00000006003600f800809fbe001a
:10540800829fbe00849fbe00869fbe003400f800c5
:1054180000002000a00188000400fa000000eb0052
:10542800100798008560a900090037003011800036
:1054380000407800004f780000fe80008e80e80071
:105448008001eb00010178008e0078007dfb0700e9
:105458001011800061006000e00f5000f3ff3a0077
:105468001011800062006000e00f5000040032005c
:105478002222a900c6dfbf000040e800c6ffb7002f
:105488001011800064006000e00f5000030032003b
:10549800c5dfbf000040e800c5ffb700101180005d
:1054a80068006000e00f500003003200c4dfbf0056
:1054b8000040e800c4ffb7001e009000e00f500055
:1054c8000300320040470200000000000000000016
:1054d8000080fa003400f9004f03be004f02be00fe
:1054e8004f01be004f00be003600f9000040060024
:1054f8003600f800809fbe00829fbe00849fbe00d9
:10550800869fbe003400f80000002000a00188003b
:105518000400fa000000eb00100798008580a9003d
:105528000e00370010fe80008e80e8000101780030
:105538008e00780000fc0700e10f500004003a00dc
:105548001e4078000000fb0020118800030037008f
:105558001000200010ff880005003700111180009e
:105568000020200000806000e00f5000edff3200b6
:105578001e009000e00f5000030032004047020078
:1055880000000000000000000080fa003400f9006c
:105598004f03be004f02be004f01be004f00be00c9
:1055a8003600f900004006003600f800809fbe0073
:1055b800829fbe00849fbe00869fbe003400f80014
:1055c80000002000a00188000400fa000000eb00a1
:1055d8001007980087c0a90009003700b0118000a3
:1055e80000407800004f780050fe80008e80e80070
:1055f8008001eb00010178008e00780011fb0700a4
:105608009011800061006000e00f5000f3ff3a0045
:105618009011800062006000e00f5000040032002a
:105628003222a900d0dfbf000040e800d0ffb70059
:105638009011800064006000e00f50000300320009
:10564800cfdfbf000040e800cfffb7009011800017
:1056580068006000e00f500003003200cedfbf009a
:105668000040e800ceffb7001e009000e00f500099
:105678000300320040470200000000000000000064
:105688000080fa003400f9004f03be004f02be004c
:105698004f01be004f00be003600f9000040060072
:1056a8003600f800809fbe00829fbe00849fbe0027
:1056b800869fbe003400f80000002000a00188008a
:1056c8000400fa000000eb001007980087e0a9002a
:1056d8000e00370060fe80008e80e800010178002f
:1056e8008e00780094fb0700e10f500004003a0098
:1056f8001e4078000000fb00a0118800030037005e
:105708001000200010ff880005003700911180006c
:105718000020200000806000e00f5000edff320004
:105728001e009000e00f50000300320040470200c6
:1057380000000000000000000080fa003400f900ba
:105748004f03be004f02be004f01be004f00be0017
:105758003600f900004006000200fa00000f780049
:105768000b0037000000000011118000002020000d
:1057780000806000e00f5000fbff3a001e00780038
:10578800104078000000fb00201188001e0fe80080
:105798001e00780010407800e04f5000f1ff3a00fa
:1057a8000080fa00000006000400fa00000f7800ec
:1057b800110798000b00370000000000111180004d
:1057c8000020200000806000e00f5000fbff3a003e
:1057d8001e007800104078000000fb0020118800af
:1057e8001e0fe80010c0b3009e009000e08f50002c
:1057f80001003c000040eb009e0090008100e900a1
:1058080011079800e04f5000ebff3a000080fa00c3
:10581800000006000200fa00004f780000000000b7
:10582800111180000020200000806000e00f50006f
:10583800fbff3a001e00fb00201188000080fa00e0
:10584800000006000200fa00000f78000b00370085
:1058580000000000911180000020200000806000fe
:10586800e00f5000fbff3a001e007800104078005f
:105878000000fb00a01188001e0fe8001e00780041
:1058880010407800e04f5000f1ff3a000080fa0025
:10589800000006000400fa00000f780011079800c5
:1058a8000b0037000000000091118000002020004c
:1058b80000806000e00f5000fbff3a001e007800f7
:1058c800104078000000fb00a01188001e0fe800bf
:1058d80010c0b3009e009000e08f500001003c0013
:1058e8000040eb009e0090008100e900110798003d
:1058f800e04f5000ebff3a000080fa00000006007d
:105908000200fa00004f78000000000091118000aa
:105918000020200000806000e00f5000fbff3a00ec
:105928001e00fb00a01188000080fa00000006009d
:105938000000fa008003eb000003eb008002eb009c
:10594800540020008001eb00320720008000eb00ab
:105958006014230022f007000080fa00000006000f
:105968000400fa00204798000e80e80013c0b30036
:1059780000017800a1c5b30010c0b3008cf807007f
:10598800e04f500006003200008e2800801f78008b
:105998008b0907008f87e9000000eb00180037002b
:1059a80023c0b3000e017800a1c5b30010c0b30036
:1059b80092f80700e04f500006003200908f280050
:1059c800801f78007e0907008f87e9000000eb0040
:1059d8000b0037001e4078000000fb00c800dd0007
:1059e8001e4090000001fb00f00f20000000610045
:1059f8000080700080007800f03f20000080600088
:105a08000080fa00000006000000fa0060c0b30041
:105a1800d3ff0700f13f200081006000f03f200025
:105a280000806000d2fc800001c02f00810061006e
:105a380000807000d0fc880040c0b300c8ff070099
:105a4800f13f200081006000f03f200000806000ee
:105a5800e2fc800001c02f0081006100008070001e
:105a6800e0fc880070c0b300bdff0700f13f2000d4
:105a780081006000f03f200000806000f2fc8000a0
:105a880001c02f008100610000807000f0fc8800d8
:105a980030c0b300b2ff0700f13f20008100600072
:105aa800f03f20000080600002fd800001c02f0050
