:020000040000fa
:080000000002040000000000f2
:020000040000fa
:10000800ac020000ac020000ac020000ac02000030
:10001800ac020000ac020000ac020000ac02000020
:10002800ac020000ac020000ac0200007a34000010
:10003800ac020000ac020000ac020000ac02000000
:10004800ac020000ac020000ac0200007e240000fc
:10005800fa240000ac020000ac020000ac02000070
:10006800ac020000ac020000ac020000ac020000d0
:10007800ac020000ac020000ac020000ac020000c0
:10008800ac020000ac020000ac020000ac020000b0
:10009800ac020000ac02000056250000d22500008a
:1000a800ac020000ac020000ac020000ac02000090
:1000b800ac020000ac020000ac020000ac02000080
:1000c800ac020000ac020000ac020000ac02000070
:1000d800ac020000ac020000ac020000ac02000060
:1000e800ac020000ac020000ac020000ac02000050
:1000f800ac020000ac020000ac020000ac02000040
:10010800ac020000ac020000ac020000ac0200002f
:10011800ac020000ac020000ac020000ac0200001f
:10012800ac020000ac020000ac020000ac0200000f
:10013800ac020000ac020000ac020000ac020000ff
:10014800ac020000ac020000ac020000ac020000ef
:10015800ac020000ac020000ac020000ac020000df
:10016800ac020000ac020000ac020000ac020000cf
:10017800ac020000ac020000ac020000ac020000bf
:10018800ac020000ac020000ac020000ac020000af
:10019800ac020000ac020000ac020000ac0200009f
:1001a800ac020000ac020000ac020000ac0200008f
:1001b800ac020000ac020000ac020000ac0200007f
:1001c800ac020000ac020000ac020000ac0200006f
:1001d800ac020000ac020000ac020000ac0200005f
:1001e800ac020000ac020000ac020000ac0200004f
:0801f800ac020000ac020000a3
:020000040000fa
:10020800ac020000ac020000ac020000ac0200002e
:10021800ac020000ac020000ac020000ac0200001e
:10022800ac020000ac020000ac0200007a3400000e
:10023800ac020000ac020000ac020000ac020000fe
:10024800ac020000ac020000ac0200007e240000fa
:10025800fa240000ac020000ac020000ac0200006e
:10026800ac020000ac020000ac020000ac020000ce
:10027800ac020000ac020000ac020000ac020000be
:10028800ac020000ac020000ac020000ac020000ae
:10029800ac020000ac02000056250000d225000088
:1002a800ac020000ac020000ac020000ac0200008e
:1002b800ac020000ac020000ac020000ac0200007e
:1002c800ac020000ac020000ac020000ac0200006e
:1002d800ac020000ac020000ac020000ac0200005e
:1002e800ac020000ac020000ac020000ac0200004e
:1002f800ac020000ac020000ac020000ac0200003e
:10030800ac020000ac020000ac020000ac0200002d
:10031800ac020000ac020000ac020000ac0200001d
:10032800ac020000ac020000ac020000ac0200000d
:10033800ac020000ac020000ac020000ac020000fd
:10034800ac020000ac020000ac020000ac020000ed
:10035800ac020000ac020000ac020000ac020000dd
:10036800ac020000ac020000ac020000ac020000cd
:10037800ac020000ac020000ac020000ac020000bd
:10038800ac020000ac020000ac020000ac020000ad
:10039800ac020000ac020000ac020000ac0200009d
:1003a800ac020000ac020000ac020000ac0200008d
:1003b800ac020000ac020000ac020000ac0200007d
:1003c800ac020000ac020000ac020000ac0200006d
:1003d800ac020000ac020000ac020000ac0200005d
:1003e800ac020000ac020000ac020000ac0200004d
:0803f800ac020000ac020000a1
:020000040000fa
:10040000ef0422000e7f24000e018800000000008f
:100410000c000700207023000100200011000700dd
:10042000000020000000e000020032000000020096
:1004300000000000123a0200000000000040da0054
:100440000000fe004440a900203420000000e0002d
:100450000300320000002000a00188004440a800f2
:100460000000060091018800800078000000eb0089
:1004700015003700e280400032a0b4009101ba00bc
:10048000e280400032a0b4009102ba00e280400055
:1004900032a0b4000002eb00472bde00f507b200eb
:1004a000602ce10004003a000059eb008301e900f0
:1004b000fdff3e00040037006128e100010032002a
:1004c0000082eb00040007001101ba000200e00006
:1004d000e8ff3a00000006003159ba008301e90044
:1004e0000c0032002159ba008301e90008003200f3
:1004f0000400e00003003a00e280400032a0b400b3
:10050000f5ff370011d9ba008301e900faff3a007c
:100510008100e800e180400032a0b4000000060045
:10052000ae18040000000000323304000000000098
:100530000c33040000000000c63904000000000075
:10054000be39040000000000ba35040000000000bd
:10055000063a0400000000000040da000000fe003f
:100560000000fa0016a2a9001682a8000080fa0076
:10057000000006000000fa0017e2a9009a20a90076
:100580009a40a9008a20a9008a40a9000080fa00a8
:10059000000006000000fa0000000000b01080001b
:1005a000e10060000000eb00808f5000fbff3a008c
:1005b000b0108000e20060000000eb00808f50006f
:1005c000f6ff3a00b0108000e40060000000eb008d
:1005d000808f5000f1ff3a00b0108000e80060000a
:1005e0000000eb00808f5000ecff3a00b01080005c
:1005f000f00060000000eb00808f5000e7ff3a0041
:10060000c110800000002400808060000000eb002a
:10061000808f5000e1ff3a000080fa0000000600e1
:100620000000fa001662a80000000000b010800070
:10063000e80060000000eb00808f5000fbff3a00f4
:1006400018c2a90080108000004078000080fa00e5
:10065000000006000200fa00004f78009e4078007b
:100660000180fb0090108800c1108000000820006d
:10067000808060000000eb00808f5000020032009c
:1006800000c0eb00010037000040eb000080fa00e2
:10069000000006000000fa0016a2a8001682a800ba
:1006a0000080fa00000006000400fa00000f780045
:1006b000110798001e009000a01088001e0078000e
:1006c000b01088000080fa00000006000000fa0068
:1006d0001622a8000080fa00000006000000fa00c0
:1006e0001602a8000080fa00000006000000fa00d0
:1006f0001642a8000080fa000000060003f0a200e5
:10070000889fbe008a9fbe008c1f780011010700e1
:10071000180133006450e1004f0032006420e10012
:100720005200320003826c0007003b000905d00034
:100730000306d000820f54000c065d000200390051
:100740000200320089017800030678008582550096
:1007500004003d000003fd008103fd008502ea0066
:100760008b854200840f720002003b006000100085
:10077000e08018006011b8000005eb007a28e10065
:100780000a00390006007800c75ddd00f707b200f7
:10079000878075002d003700828171000a01780082
:1007a000610560008180d1000080d3008502e900ee
:1007b000f9ff3b00060440008784480002003b002c
:1007c00060041400e0841c000988a30007003200c4
:1007d0008a81710082817100610164008904d10005
:1007e0000884d3008b05e800170037000978a300c0
:1007f00013003a000b00e000130034008b05e90001
:100800000804440089844c000a4474000978a30059
:100810000d003a000b00e000070034008b05e900f2
:100820000804440089844c0001003a000b002000b9
:100830000978a300f7ff32000001eb000200370047
:10084000828171000a017800870007000cf0a70080
:1008500001f0a000d00037006420e10002003a005f
:10086000838f6c00d00033000801be000200be0080
:10087000c9003700889fbe008a9fbe008c1f780089
:10088000b4000700bb00330003866c006450e10035
:100890002e0032006420e100330032006150e1009c
:1008a0002f0032006120e1003100320085855500c3
:1008b000eb07b00009002000080420000500370005
:1008c0000804440089844c000a00310006034300f8
:1008d00087834b000001530081815b00f8ff3300e8
:1008e0000203be000800a0000804440089844c00f4
:1008f000f6ff3900c639dd008301730001003200c4
:10090000130020008904d1000884d3000998a300b3
:10091000050032000800a7000300a0008904d100f0
:100920000884d3008b05e8008904d1000884d30033
:100930000001eb000281d2004b00070001f0a10092
:100940000cf0a70001f0a000930037006420e10044
:10095000950032000801be000200be00f7ff37001c
:100960006120e100900032006000b800f3ff370022
:100970000000200001f82700f0ff37000001be0052
:100980005f0007000470a70003f0a10003f8a300b4
:1009900013003a006509b10010003200090035006b
:1009a0006928e10002003500010028000000050070
:1009b00000004000818048008502e900fcff3a0009
:1009c00000000600f88f4200050035008100d100cc
:1009d0000080d3008502e800fcff3a00000006001a
:1009e0008000eb0000000500889fbe008a9fbe00cb
:1009f000010578000000e000180032000004be008d
:100a00006011b8006b0920000982cf000200390094
:100a10000882cf000441b000694252000e0032004b
:100a200008003b0082817100610164008904d100eb
:100a30000884d3008b05e8000442e800f9ff3a007f
:100a4000050037000804440089844c008b05e90048
:100a50000442e900fbff3a00030007004f05be0017
:100a60004f04be0000000600810020006180550098
:100a70000b003d000b00200061fe2f000100e10093
:100a80001d00340082817100610164008904d1007d
:100a90000884d3000000e800faff3a00710020004b
:100aa0006100640003007000020060000900320071
:100ab00061044400e0844c000988a5000500320070
:100ac0008b05e8006808e10002003a008904d100c3
:100ad0000884d300f20f20000258e10005003d0019
:100ae000c75ddd00f907b200898075000800780055
:100af000000006000bf827008b00780000000500be
:100b0000c70ade00f107b200f50fb200080032009c
:100b1000e1cf4200020032000170a0002400050075
:100b2000810f700001003200040805004400050038
:100b3000810f700002003a00140005008502e900f0
:100b40000000400081c04800fcff3b000170a00095
:100b5000240005000004be00e9ff07000003be00fa
:100b60000405be000200be00e5ff0700844f7500cb
:100b7000000006000200be006450e10005003600df
:100b80006420e100020036000968a30001003a0079
:100b90000800be000160a0004f0678004f05be00af
:100ba0004f04be0000000600f0ff2f00f1ff2700f9
:100bb000f9ff3700889fbe008a9fbe008c1f780017
:100bc000e4ff0700ebff330003866c006450e10094
:100bd000240032006420e100270032006150e1006f
:100be000220032006120e100210032008b854200aa
:100bf000eb07b1000134b800003ab8000804420025
:100c000089844a00013ab8000030b800888040006a
:100c100009014a00040033000000400081804800c0
:100c2000020149008b05e900c909dd00830170005c
:100c30000100320013002000c814de004814dd005b
:100c40004709de001200b200c808de000884700008
:100c500085ff070001f0a1000cf0a70001f0a00043
:100c6000cdff37006120e100cfff32000801be0058
:100c70000200be00f7ff37006150e100fcff3a00c0
:100c8000c9ff370002c2b300010037000000e800ce
:100c90009040780082cf5000fcff3200e9cf500036
:100ca000faff3200d2c2b30082cf500003003a00f4
:100cb0000000e80012c0b300050037000041eb005f
:100cc000b3c2b30083cf500001003a000000e80037
:100cd0008000eb00050037006a0ab90001fd2f0013
:100ce00084804000838040000000e8009001fb0009
:100cf00004fd2f0003024200e90f5200f6ff360008
:100d0000e04f5100010032008100ea00010078004c
:100d1000000006008001780002003700b159780019
:100d2000040178000202e900e00f5100fbff3a00e5
:100d30000000060080017800020037008159780029
:100d4000040178000202e900e00f5100fbff3a00c5
:100d5000000006009041780031c1510004003a00c3
:100d6000e0cf5100020032000000e800f9ff370038
:100d70000200fb000000060080017800314178008d
:100d800082597800e04f5100fcff3a000000060055
:100d900080017800060037000201e9001142780066
:100da00084597800e04f5200060032008100e800cc
:100db000e00f5100f8ff3a00020037008059eb00c5
:100dc000010178008200e900e00f5100fbff3a00ca
:100dd000000006000c00fa00889fbe0000047800a6
:100de000f0ff2700d0bf9f008004eb0099bf9f0059
:100df00088bf9f00a8bf9f00200c2000b0bf9f00ad
:100e000078815700cfb09700708057000700070027
:100e10000fb89700094878008fb8970008805000f5
:100e20004f04be000080fa00000006008f03b000ef
:100e3000889fbe008a9fbe008c9fbe008e1f7800d8
:100e4000c0b79f00e1af9f00b2af9f000000eb0072
:100e5000b0b79f00f2023700efa897008100e800ca
:100e6000e1af9f0052c2b300824f500006003a002b
:100e70000047eb0003c3b30065415100b1c2b300aa
:100e80006fa8970011003700cfb197003301900091
:100e90000204b20004003200130178000049780017
:100ea0008209e800050037000000fb00cfb0970082
:100eb000e7020700e10f4000d90232003fb297007d
:100ec0000402e800b4b79f00d50237001042780052
:100ed000d5c2b300854f52000c0032008002e800fa
:100ee000d6c2b300864f520005003c00824f52002c
:100ef00009003200814f52000e003a00080037000e
:100f0000834f52000b003a00070037000e34a00058
:100f10000000e800edff37000e04a00003003700da
:100f20000e14a000010037000e24a0000500780078
:100f3000e6ff3700e0af9f0062006700010032006b
:100f40000e04a10068006700010032000e24a10019
:100f50000400fb000003b100e90f50000d003e004b
:100f6000000020006fa997006a00b9000003b100db
:100f70009200fb0001004000d200fb000103b10021
:100f8000e98f5000f8ff3600c0af9f00e2af9f002e
:100f90000c0037000005eb00caaf9f00a3c2b300ee
:100fa000834f520007003a00bfad97004b06780010
:100fb000bbaf9f00ccaf9f006fa897000000e80078
:100fc000e0af9f008000eb00d1af9f00e3c2b30011
:100fd0006fa9970092cf11001c003a00e4c15100a4
:100fe0000201e800e2af9f0012427800834f5200f6
:100ff0000d003a00bfaa970045037800b5af9f00e7
:10100000d6af9f00820378008703e800e7af9f0018
:101010000e0037006a00b9000003b1000200400072
:101020008301e800020037005fa89700efa997004e
:101030001301fb0001fd2f0082804000e98f50006a
:10104000f4ff3600d0af9f00e3af9f0032c6b3007d
:10105000c1c6b300efaa970035427800c47f9f0055
:1010600038c7b300884f52001a00320008003c0015
:10107000824f520097003200814f52000c00320024
:10108000e5af9f00e04f52006a023200b000370027
:10109000e5af9f0053c7b300834f5200b200320048
:1010a000e3c14100834f5200a9003a000600370017
:1010b000f00167000040eb0001003a0000c1b300fe
:1010c00000477700e4ff37000e4178000274a0006b
:1010d000a7003700e5af9f003fad97004a027800b8
:1010e000baaf9f00f4af9f00e00f520002003a0039
:1010f0000c032200fcaf9f000000eb0080b79f00b4
:101100007fa897008fb097001fb19700afb19700ed
:10111000010037008500e800810278006142780014
:10112000e04f5200fbff3a00f0af9f0081b79f00f5
:1011300092b79f00a3b79f00dfaa9700e08f5200ed
:10114000050032000fb39700868f52000200310075
:101150008503780087b79f000fb297000006eb0069
:101160004fac9700840f5400010036000406540071
:101170008e047800688764002f003a000c00780025
:1011800008c2b300cfb69700100037003d009000b2
:101190000004b200040032001d0078000848780006
:1011a000800ee800050037008d0078000002200066
:1011b00027020700e10f4000030032003fb597000f
:1011c0000a05e800bab79f000c0078000c06e90099
:1011d000e00f5000edff3a00170037003d0090008f
:1011e0000004b200090032009d0178000801780077
:1011f0003240780080497800830ee80002047800cd
:10120000e04f500008003a00100037000801780055
:101210003200fb00020478008d0078000c02070009
:10122000e10f4000090032003fb097000000e800e5
:10123000b0b79f00050037007fac97008fb49700d0
:101240001fb59700afb59700cfb69700090078009b
:101250008004e900e00f5000e0ff3a00f8af9f0083
:1012600089b79f009ab79f00abb79f00e00f570068
:10127000eb01320011003700380090000004b2008a
:1012800004003200180078000d487800000ce800d7
:10129000050037008800780000022000ec010700fc
:1012a000e10f400003003200bfb297008502e80062
:1012b000b5b79f000e067800020037000dc2b300dc
:1012c0004fb497000c07e900e00f5600eaff3a0020
:1012d000d3013700e5af9f003fab9700460478008d
:1012e000b6af9f00cfc4de00090578008a057800fc
:1012f0000802be000a03be004822de00482edd00c0
:1013000004027600c47f9f00700667000900320067
:10131000e04f520007003200e14f4200050032006a
:10132000d47f9f00e87f9f002100200081b79f00ad
:1013300003003700d87f9f001200200082b79f0073
:10134000d3fb2f0083814700f3af9f007aff370064
:10135000c4fb2f0004824700f4af9f00150020005b
:1013600085b79f0074ff370002ccb30002417700bd
:101370000281fb00a2af9f007003610086a79f005f
:10138000120032003fad97004a04be00baaf9f0082
:10139000d8a79f00e9a79f008005eb00fba79f004f
:1013a0000006eb008caf9f005fa09700efa09700b6
:1013b0007fa197008fa99700f0af9f0081b79f0092
:1013c00092b79f00a3b79f000b003700bfa89700fc
:1013d00041027800b1af9f000404780009002000aa
:1013e0000a0020000b002000f8af9f0089b79f0083
:1013f0009ab79f00abb79f00dfac9700e08f540017
:101400000d003a001a002000daaf9f007fa8970075
:101410008fb097001fb19700afb19700e00f500059
:10142000e08f5800e00f5900e08f590002003200b1
:101430008000eb00d1af9f002fa99700020cb200f3
:1014400092af9f0004082000840f51001b0032005f
:10145000040c2000840f510033003a0012c0b30086
:10146000c27f9f00a5f62100100037000400fb009a
:101470004300dd00008042005001be004000be007d
:101480007fac97008fb497001fb59700afb597005a
:101490000040e10001c8e10002d0e10003d8e10012
:1014a000210039000442e800c47f9f004f7a970072
:1014b000f44f5200edff3a001b00370012c0b3009a
:1014c000c27f9f0004012000050020006033b800a7
:1014d000120037007fac97008fb497001fb59700bc
:1014e000afb597000440e10005c8e10006d0e10077
:1014f00007d8e1000c003900490020000402d000a8
:101500008582d2000683d2008783d2008904e90055
:10151000faff3a000040e800c07f9f004f78970034
:10152000f04f5000ebff3a004f7d97000a02fb009e
:10153000dfad97008b0f520002003d00cb7f9f0074
:10154000040037005fae9700840f560001003d0095
:10155000d4af9f004fa89700e00f50000500320065
:10156000afa8970063826000020032000000e9002b
:10157000c0af9f004f7997000202fb000007eb000d
:10158000cfa99700848f51000100340004875100d7
:10159000afaa9700648262004a0032006282620051
:1015a00005037800e1026300e00f52001b003200e7
:1015b000cfb39700370290000404b2000900320054
:1015c00017037800b4c2b300e08f5200010032006c
:1015d00004c2e800044b78004fb49700060ce80002
:1015e0000a003700d4022000e08f520001003a00c8
:1015f0000482e900cfb097000400780014010700ce
:1016000000027800e10f420018003200bfb49700da
:101610008904e800b9b79f0014003700e08f52003a
:10162000120032004fb597003a0290000404b20055
:10163000050032001a02780002c2b300024a7800a4
:10164000040de80006003700cfb09700000220002c
:10165000ff00070000027800e10f420003003200a3
:10166000bfb597008b05e800bbb79f00e00f5700a0
:10167000c500320008c3b300bfb697004fb697004d
:101680003c0090000004b200040032001c0078000e
:1016900008487800000ee800050037008c0078004c
:1016a00000032000ea000700e10f400001003200c3
:1016b0008d06e8000e07e900f1ff3a00bdb79f0074
:1016c000b1003700e00f5700160032002fae970030
:1016d0006802660013003a0008c2b300bfb6970064
:1016e0004fb697003c0090000004b20004003200a6
:1016f0001c00780008487800000ee800050037005c
:101700008c00780000022000d1000700e10f4000ab
:10171000010032008d06e8000e07e900f1ff3a00f3
:10172000bdb79f002fa8970062026000e102600031
:10173000e00f52001b003200cfb097003102900042
:101740000404b2000900320011037800b4c2b300ef
:10175000e08f52000100320004c2e800044b780020
:101760004fb197000609e8000a003700d4022000b4
:10177000e08f520001003a000482e900cfb09700e8
:1017800004007800b200070000027800e10f420078
:101790007d003200bfb197008301e800b3b79f001e
:1017a00079003700e08f520077003200cfb2970007
:1017b000350290000404b2000500320015027800e2
:1017c00002c2b300024a7800840ae800060037002b
:1017d000cfb09700000220009d00070000027800b3
:1017e000e10f4200680032003fb397000603e800b3
:1017f000b6b79f00640037000e07e900000820001c
:101800001fac9700800f540032003200000c200003
:10181000800f54003e003a004370dd008fa4970013
:10182000e08f54001a0032000406be00aaf6210020
:10183000000045003004be002005be000801be00c7
:101840000400be0007010700c07f9f000000fb00ee
:10185000cf80de000801be00120107000001560023
:1018600081815e0092a79f00a3a79f008001eb00eb
:10187000b3a79f000002eb00c4a79f001fa2970020
:10188000afa297003fa39700cfa397000d003700aa
:10189000a8f6210068017800811f78001100090076
:1018a0000282d800cf007800a2002000811f7800bb
:1018b000110009000280d80001007800cf007800f4
:1018c000c07f9f00cf7c97000943b000c97f9f0075
:1018d0000f0037004270dd000605be000404be00a4
:1018e000000678000c06e900050033008b05d100e6
:1018f0000a85d3008984d3000884d300f9ff370018
:101900006f0064007103220061407800c07f9f0077
:101910004fb19700320090000004b200080032007e
:1019200082017800130178004f7897000049780011
:101930008209e800e04f50000f003a00190037001c
:101940004f7c97000800fb00cfb09700d4b79f00f2
:10195000e5b79f00f6b79f0087bf9f003c000700d8
:101960005fb29700efb297007fb397008fbb9700ed
:10197000e10f40000b003200bfb497008904e8007b
:10198000b9b79f00070037000e057800caaf9f0067
:101990005faf97007faa97008fb297001fb39700a1
:1019a000afb39700e00f570093ff3a004faf970097
:1019b000f4af9f0085b79f0096b79f00a7b79f0021
:1019c000afa897006881600015003200e00f570053
:1019d0001300340008c2b300bfb697004fb697009b
:1019e0003c0090000004b200040032001c007800ab
:1019f00008487800000ee800050037008c007800e9
:101a00000002200012000700e10f40000100320038
:101a10008d06e8000e07e900f1ff3a00bdb79f0010
:101a20006fa9970012407800c07f9f00e04f5000e0
:101a300009fd3a003fb097004f0778004f06be00ff
:101a40004f05be004f04be008f03b100000006002a
:101a5000889fbe0001047800b80090006281600099
:101a60008084eb003c003200810178000320b2004a
:101a70001801900002003a00e00f510036003a00d1
:101a80000190a0003104980080047800f90fb200a2
:101a9000e00f510002003a0028009000000c78008e
:101aa000ea8f540006003a00010078000008b200f6
:101ab00003003a0088007800d0002000e4ff07000f
:101ac00018009000d8009000810f50000b003200e9
:101ad0000000e80010049800180078000948780019
:101ae000000ce80010c0b300810422008048780098
:101af000ea8f540018003a0005003700880078008b
:101b000009407800170007008004780012003700b1
:101b1000380090000010b2000f0032001801900051
:101b2000a800900048009000300b0700980090003b
:101b3000810f500004003200380090000003b30011
:101b4000300498008084eb000000eb001004980043
:101b500028009000000c7800090078004f04be00b7
:101b6000000006000200fa00889fbe00a0ff9f0050
:101b70000104780038009000800078000104b20071
:101b800033003a00e200600005003a000003b300b1
:101b900030049800110498000080eb002e003700fc
:101ba000d8049000e08f540006003a001200200094
:101bb000e6805700480090000c0b070019049800bd
:101bc00023003700a8009000e08f500008003a0082
:101bd000b104220021049800010c780021002000ab
:101be00051049800110498000030a00030049800bf
:101bf00018019000a800900048009000fb0a070020
:101c0000280090008080eb0011049800aff8970046
:101c100001487800000ce8002ff89700ea4f5000c8
:101c20000b003a00380090000010b20008003200ab
:101c300018019000a800900048009000eb0a0700ef
:101c40000000eb0010049800a8009000010c780040
:101c5000aff897000100fb004f04be000080fa00bf
:101c6000000006006022b800060220000000d0003c
:101c70008180d2000482d2008582d2000000a000c0
:101c80000202520083825a00030031000202420025
:101c900083824a000000a1000603e900f3ff3a0036
:101ca00000000600020ab900001bb9000200b800db
:0c1cb0008100420081004300000006009b
:020000040000fa
:101cbc0072610000646900006f00000068000000a1
:101ccc002d680000656c000070000000557300006a
:101cdc0061670000653a000020720000616400003a
:101cec00696f0000204300004f4d00004d41000083
:101cfc004e4400000d0a0000536500006e640000a5
:101d0c007320000061200000636f00006d6d000007
:101d1c00616e000064200000746f000020740000ed
:101d2c006865000020480000656c000069750000c3
:101d3c006d20000052610000646900006f200000fb
:101d4c00626f000061720000642e00000d0a00003a
:101d5c00436f00006d6d0000616e00006473000045
:101d6c003a0d00000a200000206f00006e0d0000ec
:101d7c000a200000206f0000666600000d0a0000bb
:101d8c00202000006e6f00006f7000000d0a000034
:101d9c00202000007265000073650000740d0000c7
:101dac000a20000020740000786d000065730000ac
:101dbc0073610000676500000d0a00002020000020
:101dcc0067650000746300006f6e000066690000b8
:101ddc00670d00000a2000002066000061730000ff
:101dec0074700000610d00000a20000020700000db
:101dfc006174000074650000726e00000d0a000032
:101e0c0020200000747800007061000074740000e1
:101e1c00657200006e0d00000a20000020740000a6
:101e2c00656c0000656d00000d0a000020200000ac
:101e3c0062650000616300006f6e00000d0a000017
:101e4c00202000006e6d00006f7300006f6e0000ac
:101e5c000d0a0000202000006e6d00006f73000062
:101e6c006f660000660d00000a0000006e6f000037
:101e7c006f7000000067000065740000636f000065
:101e8c006e6600006967000000740000656c00005d
:101e9c00656d0000004300006f6d00006d61000077
:101eac006e6400002027000000270000206900005d
:101ebc00732000006e6f000074200000696d00003c
:101ecc00706c0000656d0000656e000074650000ac
:101edc00642e000000750000617200007472000036
:101eec00656c00006179000000520000656c000018
:101efc00617900007320000055410000525400002d
:101f0c003120000052780000202d00003e200000ff
:101f1c00554100005254000032200000547800005b
:101f2c00206100006e64000020550000415200004a
:101f3c005432000020520000782000002d3e00009a
:101f4c002055000041520000543100002054000084
:101f5c00782e00000d0a0000426f00006172000034
:101f6c00642000006d750000737400002062000096
:101f7c00652000007265000073650000742000008d
:101f8c00746f0000207500006e6400006f2e00005e
:101f9c000075000031000000753200000073000075
:101fac006c6500006570000000440000656c00006a
:101fbc006179000073200000436f00006e73000015
:101fcc006f6c00006520000074610000736b0000f2
:101fdc0020620000792000006e2000006d69000076
:101fec006c6c000069730000656300006f6e00008c
:101ffc006473000000650000636800006f0000005f
:10200c00776800006f6100006d69000000630000dc
:10201c00797300006174000000680000656c0000ba
:10202c007000000055730000652000002263000062
:10203c006f6d00006d6100006e640000202d0000cb
:10204c0068220000206600006f720000206800000b
:10205c00656c000070200000776900007468000057
:10206c0020610000207300007065000063690000af
:10207c006669000063200000636f00006d6d000056
:10208c00616e00006400000055730000656600007e
:10209c00756c0000206300006f6d00006d61000026
:1020ac006e640000730000005541000052540000a3
:1020bc003a20000075610000727400007265000027
:1020cc006c610000792c000020750000312c0000a0
:1020dc0020750000322c00002065000063680000b1
:1020ec006f00000052610000646900006f3a00004c
:1020fc002072000061640000696f0000006c000039
:10210c0073000000446f000020490000206c0000a8
:10211c006f6f00006b2000006c6900006b650000a5
:10212c0020610000205500004e490000582000009e
:10213c006d61000063680000696e0000653f00007f
:10214c0021000000726d0000004e00006963000069
:10215c006520000074720000792c0000206a0000d9
:10216c00657200006b2e0000004900002064000026
:10217c006f6e000027740000207500006e64000074
:10218c006572000073740000616e00006420000032
:10219c00272500007327000000000000507200008b
:1021ac0065730000732000002773000027200000d7
:1021bc00746f000020730000746f0000702000002a
:1021cc0054720000616e0000736d000069730000b2
:1021dc00696f00006e000000284e00006f74000054
:1021ec00206900006d7000006c6500006d650000da
:1021fc006e74000065640000290000000d0a0000e8
:10220c00001b00005b3000003b330000316d000010
:10221c005b450000525200004f5200005d20000050
:10222c00001b00005b3000003b330000376d0000ea
:10223c00002800004f56000045520000464c00009c
:10224c004f570000212900000000000076500000cc
:10225c006f77000065720000506f00006c6c00001e
:10226c00486f000075730000656b00006565000029
:10227c00706900006e67000044610000746100002a
:10228c0000760000506f000077650000725400006b
:10229c00617300006b00000011110000222200008d
:1022ac0033330000444400005555000066660000be
:1022bc00777700008888000099990000aaaa00008e
:1022cc00bbbb0000cccc0000dddd0000eeee00005e
:1022dc00cecd0000acab000049200000616d0000c9
:1022ec0020610000205500004152000054210000e4
:1022fc000055000061720000743100000d0a0000ee
:10230c000000000076500000617900006c6f000046
:10231c0061640000506f00006c6c000044610000b0
:10232c007461000000000000494400004c450000ae
:04233c00000000009d
:020000040000fa
:102340001600fa00300798004107980052079800dd
:102350006307980074079800050f9800160f9800ff
:10236000270f98009e0890005e009000e60307008b
:10237000100798001e009000e00f50005700320038
:102380001e009000c0089000210798001e009000d9
:10239000c00890005e0090000000e90000004000ce
:1023a000808040001e009000710898005e0290003e
:1023b000ae0990007e019000ce0090001e009000bb
:1023c000710307006e019000be0090002e00900087
:1023d000b7100700800078001e0090000108780008
:1023e0000e089000e00f5000030032000e0890002d
:1023f0009e009000010878002711070070f380000c
:102400000000e80070f3880000fb8000e00f50003f
:1024100007003a001e00900000fb880070f3800067
:10242000e10f50000c003a007e0307000a0037005d
:10243000b0f38000e00f500007003a0000fb80007e
:10244000b00890007e009000808f500002003e0097
:102450009e00900001fb88001e009000b0089000d4
:1024600090f38000808f5000030036001e00900023
:102470003008900090f3880000f480000000e8002d
:1024800000f488001e009000b0089000a0f38000c7
:10249000808f5000030036001e009000300890002e
:1024a000a0f388001e0090000081e8001e0090004c
:1024b000300890006a00b90080007800a0e1210097
:1024c0000080400082007800d81107001000200032
:1024d000000f7800fa100700020037000080eb00c0
:1024e000000f78001e007800e10f50000b003a004a
:1024f000b0f38000e00f50000800320000fb8000c5
:10250000b00890007e009000808f500003003100e2
:102510004c39020000000000000000001e0078009e
:102520000080fa00000006000a00fa003007980058
:10253000410798000000eb00000f780080010700c1
:102540003e009000900078004e0090000080400017
:10255000100798003e0090009000780080f3800003
:10256000808f50000c0036003e00900090007800f4
:102570001e009000808f50001200360080f3800013
:102580009e009000808f50000e003600100020004a
:10259000000f78000b0037003e009000900078009c
:1025a0001e009000808f500004003e0080f38000e9
:1025b0009e009000808f5000020036001000200026
:1025c000000f78003e0090009e0090000108780007
:1025d0001e007800e00f50000500320000fb800074
:1025e0000080e800e51107001e0090002c030700a2
:1025f00059010700200798002e009000e00f5000be
:1026000003003a004c390200000000000000000006
:102610000080fa00000006000600fa00200798007b
:102620000000eb00000f78002e009000e00f50003b
:102630000c0032004201070081f380002e00900060
:10264000008040001007980000fb80000080e80038
:10265000ca1107001e009000110307003e01070089
:10266000000f78001e007800e00f500003003a00d1
:102670004c39020000000000000000000080fa0059
:10268000000006000a00fa00300798004107980091
:102690000000eb00000f78004e009000e30f5000a8
:1026a0000200360030002000400798007a10070032
:1026b00000fb8000be009000808f500002003a00b6
:1026c0000000eb00300798003e009000e00f500043
:1026d00002003a0000fb8000010037003e0090003d
:1026e000100798001e009000b00890002107980085
:1026f000ae0090004e009000808f50003a003200f3
:10270000ce0090002e009000808f50000600360012
:102710003e009000e00f5000080032001000200042
:10272000000f7800050037003e009000e00f5000d9
:1027300002003a0010002000000f78001e009000f8
:10274000ce009000310898004e009000e400100088
:102750001e009000610098001e0090005001900043
:102760002e0090006a00b90080007800a0e12100ee
:1027700000804000800f510015003a001e009000bc
:102780000080e8007d1107001e009000b008900056
:10279000a0f38000808f5000030036001e009000e0
:1027a00030089000a0f388001e0090000081e8002f
:1027b0001e009000300890006a00b9008000780088
:1027c000a0e121000080400082007800171107007e
:1027d0001e007800e10f500003003a004c3902005f
:1027e0000000000000000000351007000080fa0023
:1027f000000006000400fa001007980026100700e9
:1028000000fb80009e009000808f500002003a0084
:102810000000eb00100798001e009000e00f500031
:1028200002003a0000fb8000010037001e0090000b
:10283000000f78001e80e800501107001e0078008d
:1028400020089000e00f5000030032009e00780046
:102850006c804000491107001e80e800800078006d
:1028600040e62100f1100700151007001e0090003f
:10287000e00f50000f003a00b0f38000e00f50006e
:10288000040032004c39020000000000000000008b
:102890000800370021f3800070f38000808f500023
:1028a00003003a000000eb0000fb88000100370045
:1028b000680107000080fa00000006000600fa0028
:1028c000200798000000eb00000f78002e00900019
:1028d000100798001e009000d000900040e62100f4
:1028e000808f50000b003a001e009000a00890005e
:1028f000a0e52100808f5000060032001e009000ed
:1029000020089000e00f500002003a001000200064
:10291000000f78001e0078000080fa00000006001a
:102920000400fa00100798001e009000000f7800c5
:102930001e007800e00f50002600320000fb8000ef
:102940009e007800808f500022003200d20f0700d6
:102950001e007800d9ff0700e10f50001c003a006c
:102960001e80e800051107001e007800b0089000e6
:10297000a0f38000808f5000030036001e00780016
:1029800030089000a0f388001e81e8001e00780047
:10299000300890006a00b90080007800a0e12100b2
:1029a0000080400082007800a01007001e00780020
:1029b000b008900000fb800030089000808f50002d
:1029c000030039004c390200000000000000000044
:1029d000bb0f07000080fa00000006000800fa00a4
:1029e000300798000000eb00000f78003e009000d8
:1029f000100798000000eb00200798001e009000d0
:102a0000aeff0700e10f500027003a00c0f380003e
:102a1000e00f50001f003a001e00900030099000a7
:102a200000fb8000b008900010002000810f5100d2
:102a3000010031000000eb00000f78001e00900044
:102a40000080e800cd1007001e009000b008900044
:102a5000a0f38000808f5000030036001e0090001d
:102a600030089000a0f388001e0090000081e8006c
:102a70001e009000300890006a00b90080007800c5
:102a8000a0e121000080400082007800671007006c
:102a9000050037001e0090006c00400080007800a8
:102aa000a0e52100611007001e0078000080fa00f8
:102ab000000006000200fa008003eb000003eb00b8
:102ac0008002eb000002eb008001eb0032072000e7
:102ad000a1192900e08a210019fe0700000f7800e3
:102ae0001e007800e10f500009003a00110280003a
:102af00000022000008070001002880010002000fa
:102b0000b0f388000000eb0080f38800310f07006d
:102b10000080fa00000006000000fa0011028000a8
:102b20000002200000807000100288000000eb000e
:102b3000b0f388003e0f07000080fa000000060096
:102b40000000fa00c0f380000000e800c0f3880035
:102b50000080fa00000006000400fa00881f7800d8
:102b60000000eb00000f78004b0f0700c0f380005f
:102b70000000e900c0f38800c0f38000e00f5000bf
:102b80003f003a0070f38000e00f50003c0032003c
:102b90000000eb00100798001c00370000f38000d5
:102ba00030009000000478006c00440073100700af
:102bb0000880e80071100700b8089000a0f38000ba
:102bc000808f50000200360038089000a0f3880083
:102bd0000881e800380890006a00b9008000780099
:102be000a0e1210000804000820078000f10070063
:102bf000b808900000fb800030089000808f5000e3
:102c0000020039001000200010079800d0f2800068
:102c1000e00f5000e1ff3a00d0f38000e00f5000d9
:102c20000a003200040037002e000700d0f38000b5
:102c30000000e900d0f38800d0f38000e00f5000de
:102c4000f9ff3a0010002000100798001e009000c5
:102c5000e10f500003003200e0f38000e10f50006c
:102c600007003a0010002000000f78000000eb0081
:102c7000e0f388004c390200000000000000000072
:102c80000f0f07001e0078004f0478000080fa0044
:102c9000000006000200fa00ff0e070080f380002b
:102ca000000f7800060f07001e0078000080fa0071
:102cb000000006000400fa000000eb00000f78009e
:102cc00080f38000100798001e0090000080fa003a
:102cd000000006000000fa0070f380000080fa0097
:102ce000000006000600fa00c0f38000e00f50006c
:102cf00053003a0080f380000000e80080f3880071
:102d000080f38000e00f500017003a00b0f280001e
:102d1000000f7800c0f28000b0f288009e007800ba
:102d2000c1f28800f0f380000000e800f0f38800b2
:102d3000b0f2800010007800e00f500003003a006d
:102d40000080eb0010fb880007003700b0f2800025
:102d50003000900030009000100798001e00900096
:102d60001000900010fb880081f3800010fb8000b1
:102d7000808f500035003900b0f2800010007800dc
:102d8000e00f500003003a000080eb0010fb8800c9
:102d90002e003700b0f2800030009000300090002c
:102da000100798001e0090009000900021079800e6
:102db00081f380002e009000808f500003003100ce
:102dc0002e00900010fb8800200037001e009000ad
:102dd0000080e800e90f07001e0090002008900026
:102de000e00f5000030032001e0090006c00400015
:102df000e20f07001e009000b0089000a0f38000d2
:102e0000808f5000030036001e00900030089000b4
:102e1000a0f388001e0090000081e8001e009000d2
:102e2000300890006a00b90080007800a0e121001d
:102e300000804000820078007c0f0700ceff370042
:102e4000d0f380000000e800d0f388000080fa0092
:102e5000000006000200fa00c0f38000e00f5000fe
:102e60000700320010002000e0f388002600370041
:102e7000a0f380000000e900a0f388000100370003
:102e800000000000a0f380006a00b9008000780014
:102e9000a0e121000080400010007800e00f500009
:102ea000f3ff3200a0f380006a00b90080007800d0
:102eb000a0e12100008f40001e007800100090006b
:102ec000900090001e007800110098001e0078000d
:102ed000900090001e01780064004100808f500037
:102ee00005003a001e00780010009000900090004d
:102ef0001e007800110098001e007800100090005d
:102f00003000900000fb88000080fa0000000600fe
:102f10000600fa00100798002107980000fb8000c7
:102f20006c004000800078001e009000610f0700d8
:102f300000fb80000080e800900f07002e0090004a
:102f4000e10f400006003a0000fb80000080e8002e
:102f50008000780040e62100340f070005003700ac
:102f600081f380002e009000008f40001e0078004a
:102f7000cb0007000080fa00000006000600fa00ff
:102f8000200798002e009000300090003000900044
:102f9000100798001e0090006c004000770f07009b
:102fa000c0f38000e00f500016003a001e009000b1
:102fb0000080e800710f07001e009000b00890002c
:102fc000a0f38000808f5000030036001e009000a8
:102fd00030089000a0f388001e0090000081e800f7
:102fe0001e009000300890006a00b9008000780050
:102ff000a0e1210000804000820078000b0f070054
:10300000050037001e0090006c0040008000780032
:10301000a0e52100050f07001e009000b0089000f9
:1030200000fb800030089000808f500003003900c2
:1030300010002000000f7800020037000000eb00b5
:10304000000f78001e0078000080fa0000000600e3
:103050000200fa00000f7800f1f380001e007800f3
:103060000108780081f380001e00780011009800ac
:103070000080fa00000006000600fa001007980021
:1030800021079800040e07002e0090001000780021
:10309000e10f400003003a000000eb00000f780051
:1030a000250037001e00900090007800f0f38000ab
:1030b000808f5000080032001e00900090009000a9
:1030c00080f38000808f500003003e00100020003d
:1030d000000f78001800370081f380001e00900078
:1030e00010009000808050002e00900010007800aa
:1030f000808f50000e0031002e009000900078006c
:103100001e0090001001900080f38000000051002c
:10311000808040002e009000010878001e00900082
:10312000cbff07000000eb00000f78000200370023
:1031300010002000000f7800e10d07001e0078004d
:103140000080fa00000006000000fa0010002000d5
:10315000e0f388000080fa00000006000200fa0098
:10316000000f78004b000700d0f08000e10f500006
:10317000030036004c39020000000000000000008f
:10318000b8100700f7ff37000a00fa00000f7800b8
:103190001107980022079800330798004407980009
:1031a0009e0078007a804000420020009e0090003f
:1031b000f7f607009e0078000040eb00d05898001a
:1031c0002e009000e30f5000020036003000200077
:1031d000200798001e007800ae009000310898008b
:1031e0001e80e8008a0e07009e0078006c80400078
:1031f000870e07001e0078009e00780041009800ae
:103200002e009000e40010001e007800610098007d
:103210001e0078009e007800110898000080fa00d7
:10322000000006000200fa000000eb00000f78002a
:10323000070037001e0078006a00b900800078009f
:10324000a0e1210000804000580e07001e0fe8009a
:103250001e007800e30f5000f6ff360020e4210046
:10326000520e0700c0e42100500e0700a0e5210027
:103270004e0e070040e621004c0e070020e421001e
:10328000b0f28800c0e42100c0f288000080fa009b
:10329000000006000000fa000080fa0000000600ae
:1032a0000200fa00000f780000fb80009e0078000a
:1032b0001100980080f380009e007800808f5000fd
:1032c0000500310000fb80008080e800c0f2800033
:1032d000780e07000a00370000fb80008080e800bd
:1032e000b0f28000730e070010fb80009e00780093
:1032f000808f5000020031001e00780010fb880013
:103300000080fa00000006000600fa00100798008e
:103310002107980000022000810f0700000f7800ad
:103320001e007800e00f50001b0032002e009000bd
:10333000e00f500004003a001e0090000000400022
:10334000770f0700010037002e0090009e007800e4
:10335000c00898001e00780040089000e00f500060
:1033600005003a001e007800930f07000000eb00f4
:10337000000f7800080037001e0090000000400099
:10338000800078001e00780040089000010178005d
:10339000510a200067f607001e0078000080fa003e
:1033a000000006000400fa00000f780011079800e2
:1033b000390d07001e007800100178001e0078000b
:1033c000f00890001e007800001090000088b900fe
:1033d00000007800800041001e0078001100980075
:1033e0001e0078008000eb00610898001e00780045
:1033f000900078001e007800210098001e007800e0
:10340000100178001e007800700890008000e9002c
:103410001e007800001090000088b90000007800bd
:10342000800041001e007800310098001e007800e6
:103430008080eb00111098001e0078008080eb0067
:10344000211098001e009000e00f50000d003a007f
:103450001e00780040009000e00f50000f00320086
:103460009e00780068804000c4fe0700e10f500015
:103470000a003a004c390200000000000000000081
:10348000060037009e00780068804000c70d0700e6
:103490009e00780072804000c40d0700080d0700f0
:1034a000100020000080fa00000006000c00fa0066
:1034b0003007980041079800224f98000000eb0069
:1034c000000f78003e009000e00f50002300320013
:1034d00060022000120f0700100798001e009000e5
:1034e000e00f50001d003200be0090004e00900022
:1034f0000088b900000078000000e800200798006c
:103500002e009000060f0700800078001e0090003b
:10351000010878001e00900010007800e00f5000b5
:103520000c0032001e009000be0090007108980050
:103530001e009000ce0090000110980011002000a5
:103540001e00900097ff07001e009000000f7800fb
:10355000020037001e009000170f07001e007800c1
:103560000080fa00000006000e00fa003007980004
:103570004107980052079800630798000000eb008d
:10358000000f78000100370000000000c20c0700a7
:103590003e009000e00890003e009000700890000f
:1035a000808f5000130031006e019000ce0090001b
:1035b0003e009000480107003e0090001008900077
:1035c000e00f5000080032003e0090007200400002
:1035d0006afe0700e10f500003003a004c39020078
:1035e0000000000000000000b50c070010002000e3
:1035f0003d0037005e009000e00f500003003a00ed
:10360000af0c07000000eb00370037001e00780009
:10361000e00f500004003a000e80e8008cfe070026
:1036200010002000000f7800a50c070044fd0700e3
:10363000990c07003e00900010109000e10f400030
:1036400003003a003e0090008000eb00111098004b
:103650003e00900020109000e10f400003003a006f
:103660003e0090008000eb0021109800940c0700b1
:10367000ea0047000e80e8007ffe0700e00f5000e0
:1036800015003a003e009000d1010700e00f500005
:103690000d003200de0090003e0090006800400007
:1036a0001bfe07003e009000750107002afd070081
:1036b000e00f5000b4ff3a004c3902000000000057
:1036c00000000000b1ff37003e0090006c010700d1
:1036d00021fd0700adff37003e00900068010700a4
:1036e0001dfd07000000eb000080fa00000006004e
:1036f0000c00fa0020079800310798004207980054
:10370000530798000000eb00100798002e0090006f
:10371000e00890002e00900070089000808f50000c
:10372000200031005e019000be0090002e0090004d
:10373000e90007002e00900020109000e10f4000eb
:1037400010003a002e00900010089000e00f50008a
:10375000110032002e0090007200400007fe0700aa
:10376000e00f50000c0032004e009000e00f5000bf
:10377000090032004e00900011002000010878007e
:10378000050037002e009000201090008000e80017
:103790002e0090002110980010002000000f7800eb
:1037a000020037000000eb00000f78001e007800d8
:1037b0000080fa00000006001000fa0040079800a0
:1037c0005107980062079800730798000000eb000b
:1037d000000f780001003700000000002e0c0700e9
:1037e0004e00900060089000e00f50002d00320065
:1037f0004e009000b000900011079800de0090008d
:103800004e009000fc0007007e009000e00f50008a
:1038100012003a004e009000600890008000e9001d
:103820004e009000610898004e009000400090000b
:10383000e00f5000180032004e0090006800400079
:10384000cefd0700e10f500013003a004c39020092
:1038500000000000000000000f0037004e00900044
:103860009e009000310098004e00900010089000db
:10387000e00f5000080032004e009000720040003f
:10388000befd0700e00f5000030032004c3902007b
:103890000000000000000000090c070010002000dc
:1038a0003d0037006e009000e00f500003003a002a
:1038b000030c07000000eb00370037001e00780003
:1038c000e00f500004003a0064004700e0fd0700ec
:1038d00010002000000f7800f90b070098fc07008b
:1038e000ed0b07004e00900010109000e10f40001b
:1038f00003003a004e0090008000eb001110980089
:103900004e00900020109000e10f400003003a00ac
:103910004e0090008000eb0021109800e80b07009b
:10392000ec00470064004700d3fd0700e00f5000a3
:1039300015003a004e0090000b010700e00f500008
:103940000d003200ee0090004e009000720040002a
:103950006ffd07004e009000c90007007efc0700c5
:10396000e00f50009cff3a004c39020000000000bc
:103970000000000099ff37004e009000c0000700d3
:1039800075fc070095ff37004e009000bc00070053
:1039900071fc07000000eb000080fa000000060048
:1039a0000a00fa00200798003107980042079800a3
:1039b0000000eb00100798002e00900060089000b7
:1039c000e00f500024003200be0090002e00900056
:1039d000890007002e009000600890008000e90038
:1039e0002e009000610898002e00900010109000aa
:1039f000e10f400010003a002e00900040009000bf
:103a0000e00f5000110032002e00900068004000ce
:103a10005afd0700e00f50000c0032004e009000ed
:103a2000e00f5000090032004e009000110020000d
:103a300001087800050037002e009000101090005b
:103a40008000e8002e009000111098001000200067
:103a5000000f7800020037000000eb00000f780034
:103a60001e0078000080fa00000006000400fa0042
:103a700010079800880b07001e009000e0089000d7
:103a8000010f78008e0b07001e0078000080fa00fe
:103a9000000006000400fa00100798001e009000c5
:103aa000e0089000010f78001e0078000080fa0006
:103ab000000006000200fa00000f78001e007800e7
:103ac00010007800bc0d07001e007800ba0d07003a
:103ad0000080fa00000006000600fa00000f7800df
:103ae00011079800220798001e007800001090002f
:103af000e00f5000390032002e009000e00f50001f
:103b000019003a001e007800801090001e00780016
:103b100020009000010178009e0090007df40700d5
:103b20001e007800a00090001e0078000010900099
:103b3000808040001e007800210098001e00780060
:103b4000a00090001e00780010009000808f5000b0
:103b5000220039001e007800900078001e007800d6
:103b6000210098001d0037001e0078008010900092
:103b70001e00780030009000010178009e00900047
:103b800064f407001e007800b00090001e0078006a
:103b9000001090000000ea00808040001e007800c5
:103ba000310098001e007800b00090001e007800e0
:103bb00010007800808f5000080031001e0078004f
:103bc000900090001e007800001090000000ea00b5
:103bd000808040001e007800310098001e007800b0
:103be000600890008000e8001e00780061089800de
:103bf0000080fa00000006000400fa00000f7800c0
:103c0000110798001e00780010007800e00f5000a7
:103c1000190032001e007800b00090001e007800ed
:103c200000109000808040001e0078003100980055
:103c30001e007800b00090001e0078001000900078
:103c4000808f5000040039001e007800900078003a
:103c50001e007800310098001e007800801090004f
:103c60001e0078003000900001017800800078008c
:103c70001e00900027f407000080fa0000000600f4
:103c80000200fa00000f7800030b07000f00370056
:103c90001e00780010089000e00f50001000320065
:103ca0009e00780072804000b4fc0700e00f5000d6
:103cb0000100320024fd07001e0078002010900053
:103cc0008000e9001e007800211098001e00780096
:103cd00020109000e00f5000edff3c000100370085
:103ce000000000001e0078008080eb00211098008a
:103cf000f30a0700e80a07000f0037001e007800eb
:103d000040009000e00f5000100032009e0078004c
:103d10006880400099fc0700e00f5000010032006d
:103d200009fd07001e007800101090008000e900d7
:103d30001e007800111098001e00780010109000ee
:103d4000e00f5000edff3c000100370000000000d4
:103d50001e0078008080eb0011109800d80a070040
:103d60000080fa00000006000400fa001007980026
:103d7000c90a07001e009000e00890001000200013
:103d8000e08f5000010032000000eb00000f7800cf
:103d9000cb0a07001e0078000080fa000000060031
:103da0000400fa00100798001e009000e008900040
:103db00010002000e08f5000010032000000eb00f6
:103dc000000f78001e0078000080fa000000060056
:103dd0000400fa0010079800af0a07001e009000c8
:103de000600990001e009000f00890001000200074
:103df000810f5100010032000000eb00000f78003d
:103e0000af0a07001e0078000080fa0000000600dc
:103e10000400fa00100798001e009000600990004e
:103e20001e009000f008900010002000810f51004b
:103e3000010032000000eb00000f78001e00780047
:103e40000080fa00000006000800fa001007980041
:103e5000210798003207980011028000000220001c
:103e600000807000100288001e009000d8ff07003c
:103e7000e00f5000140032003e009000e00f5000b0
:103e80000b0032001e0090006800400080007800a7
:103e90003e009000e107070011028000f0fd2f00b6
:103ea0000080600010028800c0ff2f002e00370045
:103eb00011028000f0fd2f000080600010028800d9
:103ec0000000eb002800370011028000f0fd2f00f9
:103ed00000806000100288000000000011028000d5
:103ee0000002200000807000100288001e00900078
:103ef000e00890001e00900070089000808f500035
:103f0000120031000001eb00ae0090001e00900096
:103f1000f1fe070010002000000f78001e00900046
:103f200010089000e00f50000a0032001e009000c0
:103f300072004000a6080700e00f500005003200a4
:103f4000b0ff2f00000f7800020037000000eb00e8
:103f5000000f780011028000f0fd2f00008060004b
:103f6000100288001e0078000080fa0000000600a1
:103f70000800fa00100798002107980032079800ff
:103f800011028000000220000080700010028800f2
:103f90001e00900060089000e00f500014003a00ee
:103fa0003e009000e00f50000b0032001e00900019
:103fb00072004000800078003e00900097070700e4
:103fc00011028000f0fd2f000080600010028800c8
:103fd000c0ff2f004600370011028000f0fd2f00c7
:103fe00000806000100288000000eb0040003700f5
:103ff00011028000f0fd2f00008060001002880098
:10400000000000001102800000022000008070000b
:10401000100288001e00900060089000e00f500021
:104020002c0032001e009000b00090001e00900096
:1040300000109000808040001e0090003100980029
:104040001e009000b00090001e0090001000900034
:10405000808f5000040039001e009000900078000e
:104060001e009000310098001e0090006008900033
:104070008000e9001e009000610898001e0090007a
:10408000801090001e009000300090000101780028
:10409000800078002e0090001ef307001000200022
:1040a000000f78001e00900040009000e00f5000cc
:1040b0000a0032001e00900068004000440807001b
:1040c000e00f500005003200b0ff2f00000f780015
:1040d000020037000000eb00000f780011028000a2
:1040e000f0fd2f0000806000100288001e007800a4
:1040f0000080fa00000006000600fa00000f7800b9
:1041000011079800220798001e007800e008900030
:104110001e00780070089000808f5000120031005f
:104120000001eb009e0090001e0078006afe070070
:104130002e009000e00f50000b003a001e007800a7
:1041400010089000e00f5000070032009e00780039
:10415000728040001e080700e00f5000020032008d
:1041600010002000010037002e0090000080fa00af
:10417000000006000800fa001007980021079800c8
:10418000320798001e00900060089000e00f500079
:10419000310032001e009000b00090001e00900020
:1041a00000109000808040001e00900031009800b8
:1041b0001e009000b00090001e00900010009000c3
:1041c000808f5000040039001e009000900078009d
:1041d0001e009000310098001e00900060089000c2
:1041e0008000e9001e009000610898001e00900009
:1041f000801090001e0090003000900001017800b7
:10420000800078002e009000c2f207003e0090006f
:1042100010007800e00f50000c003a001e009000e3
:1042200040009000e00f5000080032001e00900097
:1042300068004000e6070700e00f5000030032006e
:104240003e009000110020000108780010002000be
:10425000000f7800020037000000eb00000f78002c
:104260001e0078000080fa00000006001400fa002a
:10427000881f7800200798003207980043079800ad
:10428000510798006407980075079800060f98007a
:10429000170f98000000eb00000f78007e09070060
:1042a0002e009000100798001e009000e10f5000b3
:1042b00025003e001e009000e00f50000300320079
:1042c000e10f5000080032000e0037007e0290001f
:1042d000ee0190005e0190003e009000ce00900044
:1042e0001e000700070037007e029000ee019000dc
:1042f0005e0190003e009000ce0090008a00070012
:10430000000000001e0090006a00b90080007800e4
:1043100000f42100008f40001e0478000041eb00f3
:10432000110020001e08900060fc07001004980097
:104330001e0478000041eb00110020000e089000e0
:104340005afc0700200498005d0907001e00780051
:104350004f0478000080fa00000006000c00fa000c
:10436000100798002107980032079800430798002b
:10437000540798004e009000e10f500002003a00f0
:10438000300020004007980021e2a90021a2a900e6
:104390002182a9002162a8002122a9002102a900ee
:1043a00020e2a90020c2a90020a2a9002062a90041
:1043b0003e009000e00f500003003a004e009000d5
:1043c000e00f500002003200100020000100370012
:1043d0000000eb0000407800634060006340600034
:1043e000634060000080fb0063006000000040004c
:1043f0000211800091ff2f00810061000080700099
:10440000001188005e00900000407800614060006c
:104410000080fb006100600002118000e1ff2f00be
:1044200081006100008070000011880023e2a80074
:1044300023a2a90023c2a9002362a9002342a90044
:10444000101180001011800022e2a90022c2a900f0
:1044500022a2a9001011800010118000101180000c
:1044600010118000101180001e009000ae0090001e
:104470005df107000200200003182400cdf10700c1
:104480000001be000040220041a72400f9f007000f
:104490000200200003f0230098f0070037f1070026
:1044a0000000780040118800110280000002200006
:1044b000008070001002880021e2a8002342a800ba
:1044c0008560a9008580a90041058000f0ff2800d3
:1044d000808060000000210000807000400588009e
:1044e0005105800080ff2f00008060000000a000c8
:1044f000500588009580a8009560a800020037004c
:1045000030118000004f78001011800061006000c1
:10451000e00f5000faff3a0010002000c0fa8800b7
:104520000080fa00000006000c00fa001007980056
:104530002107980032079800430798005407980015
:104540004e009000e10f500002003a0030002000c1
:104550004007980031e2a90031a2a9003182a900e8
:104560003162a8003122a9003102a90030e2a9007d
:1045700030c2a90030a2a9003062a9003e0090001c
:10458000e00f500003003a004e009000e00f500092
:104590000200320010002000010037000000eb0094
:1045a000004078006340600063406000634060004a
:1045b0000080fb006300600000004000821180006a
:1045c00091ff2f0081006100008070008011880041
:1045d0005e00900000407800614060000080fb00b9
:1045e0006100600082118000e1ff2f008100610006
:1045f000008070008011880033e2a80033a2a90077
:1046000033c2a9003362a9003342a900901180008f
:104610009011800032e2a90032c2a90032a2a900a2
:104620009011800090118000901180009011800006
:10463000901180003342a8001e009000ae00900050
:10464000e9f00700020020000318240059f10700d8
:104650000001be000040220041a7240085f00700b1
:104660000200200003f0230024f00700c3f007003d
:1046700000007800c01188001102800000022000b4
:10468000008070001002880031e2a8003342a800c8
:1046900087c0a90087e0a90091058000f08f2f0056
:1046a000808060000010200000807000900588006d
:1046b00091058000f0ff280080806000000021004c
:1046c000008070009005880097e0a80097c0a800bf
:1046d00002003700b0118000004f78009011800078
:1046e00061006000e00f5000faff3a001000200067
:1046f000c0fa88000080fa00000006000600fa00f8
:10470000000f780011079800220798001e0078001b
:10471000100090008001eb002e0190009e009000a0
:1047200025fc0700e00f50000200320010002000be
:10473000010037000000eb000080fa0000000600d6
:104740000600fa00000f7800214798002207980021
:104750001e007800200090008e80e8008001eb00b1
:104760002e01900080fb0700e10f50000200320094
:104770000000eb0007003700c0fa8000e00f500097
:10478000030032000000eb00c0fa88008580a8001a
:10479000100020000080fa00000006000800fa0067
:1047a0001007980021079800320798002e0090000b
:1047b000000f7800070037001e00780010407800d6
:1047c0000001eb00804078001e009000dcff070035
:1047d0001e0fe8001e00780010407800e04f5000e7
:1047e000f5ff3a000080fa00000006000800fa0019
:1047f0001007980021079800320798001e009000cb
:10480000e30f50001000320020fa8000e00f50004b
:104810001e0032003e009000000f78001e0078005d
:10482000e00f50001b0032002e0090001040780076
:104830000001eb008040780000f42100c0ff070079
:10484000000000001800370070fa8000e00f5000f0
:10485000120032003e009000000f78001e00780029
:10486000e00f50000f0032002e0090001040780042
:10487000a3f421000001eb008040780003007800e1
:10488000afff070000000000070037000000000035
:1048900005003700000000000300370000000000a2
:1048a00001003700000000003e0090000080fa0088
:1048b000000006000400fa00100798001e00900097
:1048c000100f78001e007800e00f50000300320047
:1048d000e10f500004003200060037009580a90067
:1048e0009560a9000300370097e0a90097c0a900d0
:1048f000000000000080fa00000006003600f8000a
:10490000809fbe00829fbe00849fbe00869fbe0027
:104910003400f80000002000a00188000400fa0024
:104920000000eb00100798008560a900090037001f
:104930003011800000407800004f780010fa8000ad
:104940008e80e8008001eb00010178008e00780085
:1049500067fb07001011800061006000e00f50004d
:10496000f3ff3a001011800062006000e00f500079
:10497000040032002222a90048dfbf000040e80006
:1049800048ffb7001011800064006000e00f500085
:104990000300320047dfbf000040e80047ffb700d8
:1049a0001011800068006000e00f5000030032002a
:1049b00046dfbf000040e80046ffb7001e00900041
:1049c000e00f5000030032004c39020000000000ec
:1049d000000000000080fa003400f9004f03be0020
:1049e0004f02be004f01be004f00be003600f9006e
:1049f000004006003600f800809fbe00829fbe0087
:104a0000849fbe00869fbe003400f8000000200096
:104a1000a00188000400fa000000eb0010079800d5
:104a20008580a9000e00370020fa80008e80e80003
:104a3000010178008e007800d9fb0700e10f5000db
:104a400004003a001e4078000000fb00201188009e
:104a50000300370010002000c0fa8800050037006e
:104a6000111180000020200000806000e00f500045
:104a7000edff32001e009000e00f500003003200f6
:104a80004c39020000000000000000000080fa0025
:104a90003400f9004f03be004f02be004f01be00bc
:104aa0004f00be003600f900004006003600f80056
:104ab000809fbe00829fbe00849fbe00869fbe0076
:104ac0003400f80000002000a00188000400fa0073
:104ad0000000eb001007980087c0a900090037000c
:104ae000b011800000407800004f780060fa80002c
:104af0008e80e8008001eb00010178008e007800d4
:104b0000fbfa07009011800061006000e00f500088
:104b1000f3ff3a009011800062006000e00f500047
:104b2000040032003222a90052dfbf000040e8003a
:104b300052ffb7009011800064006000e00f500049
:104b40000300320051dfbf000040e80051ffb70012
:104b50009011800068006000e00f500003003200f8
:104b600050dfbf000040e80050ffb7001e0090007b
:104b7000e00f5000030032004c390200000000003a
:104b8000000000000080fa003400f9004f03be006e
:104b90004f02be004f01be004f00be003600f900bc
:104ba000004006003600f800809fbe00829fbe00d5
:104bb000849fbe00869fbe003400f80000002000e5
:104bc000a00188000400fa000000eb001007980024
:104bd00087e0a9000e00370070fa80008e80e800a0
:104be000010178008e0078006dfb0700e10f500096
:104bf00004003a001e4078000000fb00a01188006d
:104c00000300370010002000c0fa880005003700bc
:104c1000911180000020200000806000e00f500013
:104c2000edff32001e009000e00f50000300320044
:104c30004c39020000000000000000000080fa0073
:104c40003400f9004f03be004f02be004f01be000a
:104c50004f00be003600f900004006000200fa00d6
:104c6000000f78000b0037000000000011118000d9
:104c70000020200000806000e00f5000fbff3a00a1
:104c80001e007800104078000000fb002011880012
:104c90001e0fe8001e00780010407800e04f500022
:104ca000f1ff3a000080fa00000006000400fa005c
:104cb000000f7800110798000b003700000000007b
:104cc000111180000020200000806000e00f5000e3
:104cd000fbff3a001e007800104078000000fb0047
:104ce000201188001e0fe80010c0b3009e00900045
:104cf000e08f500001003c000040eb009e0090005f
:104d00008100e90011079800e04f5000ebff3a00e6
:104d10000080fa00000006000200fa00004f780050
:104d200000000000111180000020200000806000c1
:104d3000e00f5000fbff3a001e00fb00201188002e
:104d40000080fa00000006000200fa00000f780060
:104d50000b003700000000009111800000202000af
:104d600000806000e00f5000fbff3a001e0078005a
:104d7000104078000000fb00a01188001e0fe80022
:104d80001e00780010407800e04f5000f1ff3a001c
:104d90000080fa00000006000400fa00000f78000e
:104da000110798000b0037000000000091118000ef
:104db0000020200000806000e00f5000fbff3a0060
:104dc0001e007800104078000000fb00a011880051
:104dd0001e0fe80010c0b3009e009000e08f50004e
:104de00001003c000040eb009e0090008100e900c3
:104df00011079800e04f5000ebff3a000080fa00e6
:104e0000000006000200fa00004f780000000000d9
:104e1000911180000020200000806000e00f500011
:104e2000fbff3a001e00fb00a01188000080fa0082
:104e3000000006000400fa000000eb00000f7800fc
:104e40000040eb00204798000040eb0030479800fe
:104e5000a0f580004800de000040780086feb70024
:104e6000a0f580000040780087feb70020002000f9
:104e7000000f78000b00370020e821001e004000e2
:104e800010407800ae40900000c0400020479800dd
:104e9000be4090002e40900000c040003047980077
:104ea0001e0fe8001e007800e50f5000f2ff3600ec
:104eb0002e40900088feb700be40900001007800b0
:104ec00089feb7000040eb00204798000040eb004f
:104ed00030479800a0f58000e00f50001e0032001f
:104ee00020002000000f78000b00370020e8210090
:104ef0001e00400010407800ae40900000c040000e
:104f000020479800be4090002e40900000c0400016
:104f1000304798001e0fe800a0f5800068004000b0
:104f20009e0f5000f1ff3e00a0f58000e800400019
:104f300020e8210000804000ae4090000148780049
:104f4000a0f58000e900400020e82100008040003a
:104f5000be409000014878000080fa000000060082
:104f60000400fa00100798000000eb00000f780022
:104f70000000eb00000f78000500370020e821005a
:104f80001e00400010407800fe0407001e0fe800dd
:104f90001e0090009e007800808f5000f7ff3500c3
:104fa0000080fa00000006000000fa0080c4b30090
:104fb00082feb70050c6b30083feb70000c1b30045
:104fc00084feb7000000eb00a0f588000080fa0026
:104fd000000006000000fa000000eb00a0f58800c9
:104fe00010c0b30085feb70092ff070080002000cc
:104ff000dbff07000080fa00000006000000fa0056
:105000000000eb00a0f5880020c0b30085feb700cb
:1050100088ff070080002000d1ff07000080fa0011
:10502000000006000000fa000000eb00a0f5880078
:1050300050c0b30085feb7007eff0700800020004f
:10504000c7ff07000080fa00000006000400fa0015
:105050006000b800008fbe0000022000a0f58800ac
:1050600060c0b30085feb700badebf008afeb7009d
:10507000bfdebf008bfeb700bcdebf008cfeb700fa
:10508000bbdebf008dfeb700dddebf008efeb700c9
:10509000dedebf008ffeb7000040eb0093feb700de
:1050a00010f6800021f68000008fbe000000200076
:1050b000f10f20001e01be000202780003017800fb
:1050c00080017800010078000302620000006100a6
:1050d00001002000c000dd00000020000001be0033
:1050e0006120b8000001710081817100028fbe0053
:1050f0001e00be004008de0001002000008fbe0040
:105100001e0078000040780092feb70010f6800084
:1051100021f68000008fbe0000f02f00010020006b
:105120001e01be00020278000301780080017800b1
:10513000010078000302620000006100010020000d
:10514000c000dd00000020000001be006120b800aa
:105150000001710081817100028fbe001e00be003f
:105160004809dd004800de0000007100c808de00cc
:10517000008fbe001e0078000040780091feb7004e
:1051800010f6800021f68000008fbe00f00f200096
:10519000010020001e01be00020278000301780019
:1051a00080017800010078000302620000006100c5
:1051b00001002000c000dd00000020000001be0052
:1051c0006120b8000001710081817100028fbe0072
:1051d0001e0078000040780090feb7000040eb0011
:1051e00097feb70030f6800041f68000008fbe00c9
:1051f00000002000f10f20001e01be000202780016
:105200000301780080017800010078000302620049
:105210000000610001002000c000dd00000020004f
:105220000001be006120b8000001710081817100a1
:10523000028fbe001e00be004008de0001002000fc
:10524000008fbe001e0078000040780096feb70078
:1052500030f6800041f68000008fbe0000f02f0085
:10526000010020001e01be00020278000301780048
:1052700080017800010078000302620000006100f4
:1052800001002000c000dd00000020000001be0081
:105290006120b8000001710081817100028fbe00a1
:1052a0001e00be004809dd004800de00000071005d
:1052b000c808de00008fbe001e00780000407800a5
:1052c00095feb70030f6800041f68000008fbe00ea
:1052d000f00f2000010020001e01be000202780035
:1052e0000301780080017800010078000302620069
:1052f0000000610001002000c000dd00000020006f
:105300000001be006120b8000001710081817100c0
:10531000028fbe001e0078000040780094feb700a7
:10532000cadebf0098feb700cbdebf0099feb70013
:10533000ccdebf009afeb700cddebf009bfeb700fb
:10534000cedebf009cfeb700cfdebf009dfeb700e3
:10535000d0debf009efeb700d1debf009ffeb700cb
:10536000d2debf00a0feb700d3debf00a1feb700b3
:10537000d4debf00a2feb700d5debf00a3feb7009b
:10538000dfdebf00a4feb7000040eb00a5feb700c3
:10539000e0debf00a6feb7000040eb00a7feb700ae
:1053a00010c4b300a8feb700e1debf00a9feb7003d
:1053b000a0fe0700a0022000e9fe07000080fa001e
:1053c000000006000000fa000000eb00a0f58800d5
:1053d00070c0b30085feb70096fe07008000200075
:1053e000dffe07000080fa00000006000000fa005f
:1053f000a0f58000e00f50000700320030c0b3007d
:1054000085feb7008bfe0700a0f580006a00400013
:10541000d3fe070001003700000000000080fa0002
:10542000000006000200fa00004f78001000200083
:10543000a0f5880010c1b30085feb700801f78007a
:105440001e4078008afeb7004f00780079fe070002
:10545000a0f580006a004000c1fe07000080fa004d
:10546000000006000200fa000000eb00000f7800c8
:1054700000102000a0f5880000c1b30085feb70031
:1054800080002000000f78000500370020e8210090
:105490009e00400010c3b300804878001e0fe80053
:1054a000701020009e007800808f5000f7ff3400bd
:1054b00060fe0700a0f580006a004000a8fe07001b
:1054c0000080fa00000006000200fa000000eb0075
:1054d000000f780000102000a0f5880030c0b30055
:1054e00085feb70080002000000f7800050037001f
:1054f00020e821009e00400000c2b30080487800f0
:105500001e0fe800701020009e007800808f500071
:10551000f7ff340047fe0700400d2900c7030700ce
:10552000200f2900c50307000080fa0000000600d4
:105530000200fa00004f780010002000a0f588005b
:1055400000c2b30085feb700801f78001e407800bf
:105550008afeb7004f00780036fe0700a0f58000f5
:105560006a0040007efe07000080fa00000006008e
:105570000000fa0000012000a0f5880080c0b30000
:1055800085feb70030c1b3008afeb70040c0b3004b
:105590008bfeb700c0ceb3008cfeb70050c2b30084
:1055a0008dfeb70020c5b3008efeb700c0c7b300a4
:1055b0008ffeb70080c0b30090feb70060cbb30091
:1055c00091feb70080c3b30092feb70060c6b3007f
:1055d00093feb70020cab30094feb700b0c1b30079
:1055e00095feb700d0c6b30096feb700e0c1b30089
:1055f00097feb70040c7b30098feb70080c6b3005f
:1056000099feb7000bfe0700a0f580006a0040007d
:1056100053fe07000080fa00000006000c00fa00ac
:105620003007980041079800520798000000eb00ef
:10563000100798000000eb00200798000000eb0026
:10564000000f7800550037002e009000e00f50004a
:105650000f003a003e0090001e004000904078008d
:10566000d0c2b30080cf500009003a001e00e8000d
:10567000be0090000080400010407800e04f5000d5
:10568000030032001000200020079800420037007d
:105690002e009000e00f50003b0032003e009000d2
:1056a0001e004000904078004e0190001e009000c7
:1056b000000041001040780080cf500032003a00d6
:1056c0001e0090000000e80010079800ce00900037
:1056d0001e0090000080400010407800e04f500015
:1056e0002d003a005e009000e00f500024003200d0
:1056f0003e0090001e00400010407800e04f500037
:105700001f0032001e00e800be0090000080400034
:1057100010407800e04f5000190032001e0fe800e2
:10572000090037003e0090001e0040001040780045
:10573000de009000804878005e0090000000e800e5
:10574000500798001e0fe8003e0090001e00400029
:1057500010407800e04f5000060032003e009000fc
:105760001e0040009040780000c2b30080cf50007f
:10577000ecff3a00de0090000040eb00804878002b
:10578000100020000b0037000000eb0020079800fd
:105790000000eb00100798001e0fe8003e0090008c
:1057a0001e00400010407800e04f5000a6ff3a0075
:1057b0000000eb000080fa00000006000600fa007e
:1057c000200798000000eb00000f78002e009000ea
:1057d00010079800210037002e00900090407800bc
:1057e000d0c2b30080cf500003003a001000200068
:1057f000000f7800070037002e00900090407800de
:1058000000c2b30080cf500002003a000000eb005d
:10581000000f78001e007800e00f50000c003a00e6
:105820002e0090009040780000c2b30080cf50005e
:10583000070032002e009000104078009e0090007b
:10584000804878001e0090000000e80010079800d3
:105850002e0090000000e800200798002e00900025
:1058600010407800e04f5000dbff3a009e009000af
:105870000040eb00804878000080fa00000006003d
:105880000600fa00200798000000eb00000f7800e7
:105890000040eb0052fcb7000040eb00a3fcb70057
:1058a0000000eb0010079800250037001e00900054
:1058b000ae00900000804000104078001e01900073
:1058c00021c5210081004100804878001e00900021
:1058d000ae009000008040009040780000c2b3000d
:1058e00080cf50000d003a009e00900020c521009e
:1058f000808040000040eb00804878001e0090004f
:105900000000e800ae0090000080400080007800b9
:1059100030ca210018ed07000f0037001e0090006c
:10592000ae0090000080400010407800e04f500032
:10593000080032001e0090000000e80010079800e8
:105940009e00900000052000808f5000d7ff34009b
:1059500001003700000000001e007800e00f50003a
:1059600007003a0020c5210010407800e04f5000a9
:1059700003003a0010002000000f7800da00370022
:105980001e007800e00f50003a003a00e1e52800e0
:1059900020c52100efec0700e00f500035003a0071
:1059a00010002000000f78000001eb0041e6280005
:1059b00030ca210019ff0700e00f500006003a002e
:1059c0000001eb0061e6280030ca210013ff070048
:1059d000e00f500003003200c0e6280097020700e5
:1059e000c100370030ca210074ff070030ca21000f
:1059f00010407800e04f500003003a00c0e6280055
:105a00008e020700b8003700c1f3280030ca210019
:105a1000d0ec0700e00f500002003a006dfd0700d7
:105a2000b100370011f4280030ca2100c9ec07008a
:105a3000e00f500002003a007afd0700aa0037008c
:105a4000b1f4280030ca2100c2ec0700e00f50007a
:105a500002003a005bfe0700a300370010f52800a3
:105a60007002070030ca21006e020700b0f528005e
:105a7000720207001e007800e00f500018003a0084
:105a800011f7280020c52100b2ec0700e00f5000fc
:105a900013003a0010002000000f78000001eb0016
:105aa00041e6280030ca2100dcfe0700e00f50006c
:105ab00006003a000001eb0061e6280030ca210030
