:020000040000fa
:080000000002040000000000f2
:020000040000fa
:10000800b0020000b0020000b0020000b002000020
:10001800b0020000b0020000b0020000b002000010
:10002800b0020000b0020000b00200006a600000e8
:10003800b0020000b0020000b0020000b0020000f0
:10004800b0020000b0020000b00200003042000020
:10005800b8420000b0020000b0020000b002000088
:10006800b0020000b0020000b0020000b0020000c0
:10007800b0020000b0020000b0020000b0020000b0
:10008800b0020000b0020000b0020000b0020000a0
:10009800b0020000b0020000144300009c430000be
:1000a800b0020000b0020000b0020000b002000080
:1000b800b0020000b0020000b0020000b002000070
:1000c800b0020000b0020000b0020000b002000060
:1000d800b0020000b0020000b0020000b002000050
:1000e800b0020000b0020000b0020000b002000040
:1000f800b0020000b0020000b0020000b002000030
:10010800b0020000b0020000b0020000b00200001f
:10011800b0020000b0020000b0020000b00200000f
:10012800b0020000b0020000b0020000b0020000ff
:10013800b0020000b0020000b0020000b0020000ef
:10014800b0020000b0020000b0020000b0020000df
:10015800b0020000b0020000b0020000b0020000cf
:10016800b0020000b0020000b0020000b0020000bf
:10017800b0020000b0020000b0020000b0020000af
:10018800b0020000b0020000b0020000b00200009f
:10019800b0020000b0020000b0020000b00200008f
:1001a800b0020000b0020000b0020000b00200007f
:1001b800b0020000b0020000b0020000b00200006f
:1001c800b0020000b0020000b0020000b00200005f
:1001d800b0020000b0020000b0020000b00200004f
:1001e800b0020000b0020000b0020000b00200003f
:0801f800b0020000b00200009b
:020000040000fa
:10020800b0020000b0020000b0020000b00200001e
:10021800b0020000b0020000b0020000b00200000e
:10022800b0020000b0020000b00200006a600000e6
:10023800b0020000b0020000b0020000b0020000ee
:10024800b0020000b0020000b0020000304200001e
:10025800b8420000b0020000b0020000b002000086
:10026800b0020000b0020000b0020000b0020000be
:10027800b0020000b0020000b0020000b0020000ae
:10028800b0020000b0020000b0020000b00200009e
:10029800b0020000b0020000144300009c430000bc
:1002a800b0020000b0020000b0020000b00200007e
:1002b800b0020000b0020000b0020000b00200006e
:1002c800b0020000b0020000b0020000b00200005e
:1002d800b0020000b0020000b0020000b00200004e
:1002e800b0020000b0020000b0020000b00200003e
:1002f800b0020000b0020000b0020000b00200002e
:10030800b0020000b0020000b0020000b00200001d
:10031800b0020000b0020000b0020000b00200000d
:10032800b0020000b0020000b0020000b0020000fd
:10033800b0020000b0020000b0020000b0020000ed
:10034800b0020000b0020000b0020000b0020000dd
:10035800b0020000b0020000b0020000b0020000cd
:10036800b0020000b0020000b0020000b0020000bd
:10037800b0020000b0020000b0020000b0020000ad
:10038800b0020000b0020000b0020000b00200009d
:10039800b0020000b0020000b0020000b00200008d
:1003a800b0020000b0020000b0020000b00200007d
:1003b800b0020000b0020000b0020000b00200006d
:1003c800b0020000b0020000b0020000b00200005d
:1003d800b0020000b0020000b0020000b00200004d
:1003e800b0020000b0020000b0020000b00200003d
:0803f800b0020000b002000099
:020000040000fa
:100400004f2c22000e7f24000e0188000000000007
:100410000c00070000b925000100200011000700b2
:10042000000020000000e000020032000000020096
:1004300000000000ce620200000000000040da0070
:100440000000fe004440a900a06720000000e0007a
:100450000300320000002000a00188004440a800f2
:100460000000060091018800800078000000eb0089
:1004700015003700e280400032a0b4009101ba00bc
:10048000e280400032a0b4009102ba00e280400055
:1004900032a0b4000002eb00472bde00f507b200eb
:1004a000602ce10004003a000059eb008301e900f0
:1004b000fdff3e00040037006128e100010032002a
:1004c0000082eb00040007001101ba000200e00006
:1004d000e8ff3a00000006003159ba008301e90044
:1004e0000c0032002159ba008301e90008003200f3
:1004f0000400e00003003a00e280400032a0b400b3
:10050000f5ff370011d9ba008301e900faff3a007c
:100510008100e800e180400032a0b4000000060045
:10052000e42b040000000000285904000000000033
:100530000259040000000000a2490400000000006d
:1005400082360400000000003c5f04000000000050
:10055000ee560400000000000a63040000000000e2
:100560000040da000000fe0003f0a200889fbe00f9
:100570008a9fbe008c1f7800f6000700fd00330044
:100580006450e1004f0032006420e100520032006c
:1005900003826c0007003b000905d0000306d00071
:1005a000820f54000c065d00020039000200320088
:1005b00089017800030678008582550004003d001b
:1005c0000003fd008103fd008502ea008b854200e7
:1005d000840f720002003b0060001000e0801800f1
:1005e0006011b8000005eb007a28e1000a0039002c
:1005f00006007800c75ddd00f707b2008780750050
:100600002d003700828171000a01780061056000c9
:100610008180d1000080d3008502e900f9ff3b0012
:10062000060440008784480002003b006004140078
:10063000e0841c000988a300070032008a81710051
:1006400082817100610164008904d1000884d300b3
:100650008b05e800170037000978a30013003a0063
:100660000b00e000130034008b05e900080444008f
:1006700089844c000a4474000978a3000d003a00f4
:100680000b00e000070034008b05e900080444007b
:1006900089844c0001003a000b0020000978a30077
:1006a000f7ff32000001eb00020037008281710089
:1006b0000a0178006c0007000cf0a70001f0a00010
:1006c000b50037006420e10002003a00838f6c001f
:1006d000b50033000801be000200be00ae003700c6
:1006e000889fbe008a9fbe008c1f7800990007007b
:1006f000a000330003866c006450e1002e0032003d
:100700006420e100330032006150e1002f0032002c
:100710006120e1003100320085855500eb07b00013
:1007200009002000080420000500370008044400e8
:1007300089844c000a0031000603430087834b0084
:100740000001530081815b00f8ff33000203be000b
:100750000800a0000804440089844c00f6ff39001a
:10076000c639dd0083017300010032001300200050
:100770008904d1000884d3000998a3000500320041
:100780000800a7000300a0008904d1000884d3005a
:100790008b05e8008904d1000884d3000001eb0038
:1007a0000281d2003000070001f0a1000cf0a70088
:1007b00001f0a000780037006420e1007a003200e8
:1007c0000801be000200be00f7ff37006120e10013
:1007d000750032006000b800f3ff37000000200011
:1007e00001f82700f0ff37000001be0044000700b9
:1007f0000470a70003f0a10003f8a30013003a005f
:100800006509b10010003200090035006928e100d7
:100810000200350001002800000005000000400033
:10082000818048008502e900fcff3a0000000600d4
:10083000f88f4200050035008100d1000080d30010
:100840008502e800fcff3a00000006008000eb0093
:10085000000005004f89de00820178008900370022
:100860006011b800970037008100200061805500ba
:100870000b003d000b00200061fe2f000100e10095
:100880001d00340082817100610164008904d1007f
:100890000884d3000000e800faff3a00710020004d
:1008a0006100640003007000020060000900320073
:1008b00061044400e0844c000988a5000500320072
:1008c0008b05e8006808e10002003a008904d100c5
:1008d0000884d300f20f20000258e10005003d001b
:1008e000c75ddd00f907b200898075000800780057
:1008f000000006000bf827008b00780000000500c0
:10090000c70ade00f107b200f50fb200080032009e
:10091000e1cf4200020032000170a0002400050077
:10092000810f70000100320004080500440005003a
:10093000810f700002003a00140005008502e900f2
:100940000000400081c04800fcff3b000170a00097
:10095000240005000004be00e9ff07000003be00fc
:100960000405be000200be00e5ff0700844f7500cd
:10097000000006000200be006450e10005003600e1
:100980006420e100020036000968a30001003a007b
:100990000800be000160a0004f0678004f05be00b1
:1009a0004f04be0000000600f0ff2f00f1ff2700fb
:1009b000f9ff3700889fbe008a9fbe008c1f780019
:1009c000e4ff0700ebff330003866c006450e10096
:1009d000240032006420e100270032006150e10071
:1009e000220032006120e100210032008b854200ac
:1009f000eb07b1000134b800003ab8000804420027
:100a000089844a00013ab8000030b800888040006c
:100a100009014a00040033000000400081804800c2
:100a2000020149008b05e900c909dd00830170005e
:100a30000100320013002000c814de004814dd005d
:100a40004709de001200b200c808de00088470000a
:100a500085ff070001f0a1000cf0a70001f0a00045
:100a6000cdff37006120e100cfff32000801be005a
:100a70000200be00f7ff37006150e100fcff3a00c2
:100a8000c9ff3700881f7800030478000300e000e6
:100a900007003d0060001000e080180060011900b0
:100aa000e081190002003b0001f02d000300370037
:100ab0000400070008f0a70001f0a0004f04780030
:100ac00000000600889fbe008a9fbe000082700062
:100ad0000402710004827100260032000004be008e
:100ae0000200be006011b8006b09200095022000d2
:100af0000182cf000a0039000541b1000082cf0019
:100b0000070039000541b1000982cf000400390017
:100b10000541b1000882cf00010039000541b10054
:100b200005425200120032000a003b00828171002f
:100b3000610164008100d1000080d3008984d3006a
:100b40000884d3008b05e8000442e800f7ff3a0070
:100b5000070037000804440089844c000000480066
:100b6000818048008b05e9000442e900f9ff3a0062
:100b70003dff07004f05be004f04be000000060009
:100b800002c2b300010037000000e8009040780086
:100b900082cf5000fcff3200e9cf5000faff320054
:100ba000d2c2b30082cf500003003a000000e80038
:100bb00012c0b300050037000041eb00b3c2b30020
:100bc00083cf500001003a000000e8008000eb00f5
:100bd000050037006a0ab90001fd2f00848040003b
:100be000838040000000e8009001fb0004fd2f001e
:100bf00003024200e90f5200f6ff3600e04f5100b9
:100c0000010032008100ea000100780000000600c7
:100c10008001780002003700b159780004017800a3
:100c20000202e900e00f5100fbff3a00000006005d
:100c300080017800020037008159780004017800b3
:100c40000202e900e00f5100fbff3a00000006003d
:100c50009041780031c1510004003a00e0cf5100ca
:100c6000020032000000e800f9ff37000200fb003c
:100c70000000060080017800314178008259780038
:100c8000e04f5100fcff3a000000060080017800b0
:100c9000060037000201e90011427800845978000b
:100ca000e04f5200060032008100e800e00f5100e2
:100cb000f8ff3a00020037008059eb00010178008c
:100cc0008200e900e00f5100fbff3a00000006003f
:100cd0000c00fa00889fbe0000047800f0ff270097
:100ce000d0bf9f008004eb0099bf9f0088bf9f008a
:100cf000a8bf9f00200c2000b0bf9f007881570044
:100d0000cfb0970070805700ab0007000fb8970076
:100d1000094878008fb89700088050004f04be0043
:100d20000080fa0000000600889fbe008a9fbe0077
:100d30000084fb00d1c6b300814f50002100360073
:100d40004b062000110009000b84d80081057800b3
:100d5000720040004300dd0029d0210000804400e3
:100d60006022b8000600200007fe23005001be00ec
:100d70004000be004d090700aa00200000027800d4
:100d8000811f7800110009008a85d8000002fd004b
:100d9000cf007800690242004322dd000482440053
:100da0005403be004402be0040090700809fbe00fd
:100db000110009000a84d800010478004f00be0029
:100dc00010003700ea4f500013003600a900200041
:100dd000110009000984d80001047800690040006e
:100de0004300dd0029d02100008044006022b800cb
:100df0000600200007fe23005001be004000be0098
:100e00002a0907004344dd00888444003902be00fb
:100e10002903be00080037004344dd0020d0210034
:100e2000080440006022b8000600200007fe2300ee
:100e30003800be002801be001c0907004f05be0097
:100e40004f04be0000000600889fbe008a9fbe00bf
:100e5000d1c6b300e04f500025003d000040ea003d
:100e60000004fb00814f50000b00340042062000bc
:100e7000110009000204d80001007800a900200038
:100e8000110009000900d800690040004300dd009e
:100e90002ad0210023003700ea4f5000110034000f
:100ea000a2002000110009000204d800010478000b
:100eb00080007800e9804000c308dd0020d02100d8
:100ec000810040004344dd00080040003002be00c5
:100ed0002003be005101be004100be00f308070020
:100ee000320037004344dd0020d021002c003700c1
:100ef0000004fb00814f50001c003400420620001b
:100f0000110009000204d80001007800a9002000a7
:100f1000110009000900d800690040004300dd000d
:100f20002ac52100000045003002be002003be009b
:100f30008b0920008a8545003b00be002b01be00c6
:100f4000da080700809fbe00110009000904d800dc
:100f5000010478004f00be004344dd000805450051
:100f60003a02be002a03be00dcff3700ea4f500001
:100f700009003400a2002000110009000204d8007a
:100f80000104780080007800e9804000c308dd009b
:100f900020c52100caff37004344dd0020c52100e1
:100fa000080440003800be002801be004f05be0006
:100fb0004f04be00000006002f05b000889fbe0051
:100fc0008a9fbe008c9fbe008e1f780000037800b1
:100fd000f1a79f0082af9f000000eb00f0b79f00d9
:100fe0000607780077063700ffa097008100e80029
:100ff000f1a79f0052c2b30082cf520006003a0010
:101000000004eb0006c3b30003c2b300b1c2b300d7
:101010007fa09700120037003e0190000204b2004a
:10102000040032009e01780085497800030fe80033
:10103000070037000501fb008e00780002007800f1
:101040006c06070000017800e10f41005d063200e8
:101050007fb197000201e800f2b79f005906370000
:1010600090427800d4c2b30084cf52000b0032000b
:101070000001e80084cf520005003c0083cf5200fd
:101080000900320081cf52000e003a0008003700fc
:1010900086cf52000b003a00070037000830a0004e
:1010a0000000e800eeff37000800a0000300370052
:1010b0000810a000010037000820a00002007800fe
:1010c000e7ff3700f0a79f00e20164000100320053
:1010d0000800a100e8016400010032000820a1001e
:1010e0008501fb000303b100e98f51000d003e00b4
:1010f000000020007fa197006a00b9000003b10042
:101100009200fb0001004000d200fb000103b1008f
:10111000e98f5000f8ff360090b79f00f2a79f00bc
:101120000c0037000003eb0096b79f00a3c2b3008a
:1011300083cf520007003a008fab9700c7047800b6
:1011400087af9f0099b79f007fa597000a05e80029
:10115000faa79f00e3c2b300ffa597009bcf110041
:101160001f003a0008e0a000e8b79f00e4c151006a
:101170008b05e800fba79f001b407800834f5000c1
:1011800003003200000020008b0178000c003700c3
:101190000fa99700c201780082af9f0093af9f0014
:1011a0007fa297000402e800f4a79f001000370018
:1011b0006a00b9000003b100020040008301e800aa
:1011c0001301fb0001fd2f0082804000e98f5000d9
:1011d000f7ff360090af9f00f3a79f000400370091
:1011e00008c0a000e8b79f008002eb0095af9f0009
:1011f000ccc6b3006fb19700ffa1970033447800cd
:10120000a8679f008c4f54002b003200e2b79f006c
:10121000f3a79f00c3c6b300834f540014003c00e3
:101220004cc6b3008c4f5400e600320009003c006d
:10123000f4c15100834f54002d003200ebc1410036
:10124000834f5400b1003200e04f5400e2053200f9
:10125000d300370063c6b300834f54001c00320034
:10126000e3c14100834f5400cd003a00d500370060
:101270003cc7b3008c4f54002400320007003c00f0
:10128000f3c6b300834f5400150032008341e800d9
:10129000834f5400c2003a001500370053c7b30013
:1012a000834f5400c4003200e3c14100834f540017
:1012b000bb003a00110037007000610001002800f7
:1012c00001003a000101200001017100cbff37004d
:1012d0006fb3970006a0a000e6b79f00b9003700e3
:1012e000efb397000760a000e7b79f00b500370095
:1012f0006fb497000850a000e8b79f00efb49700c4
:101300000970a000e9b79f00ae0037000fad97004d
:101310004a0478008aaf9f00a8b79f00e00f5400ee
:1013200002003a00c0232200a0b79f008000eb001b
:10133000b1b79f002fb09700bfb097004fb1970093
:10134000dfb19700010037008500e80081027800d6
:1013500061427800e04f5200fbff3a00a0b79f00c7
:10136000b1b79f00c2b79f00d3b79f009faa970055
:10137000e08f5200050032003fb39700868f520085
:101380000200310085037800b7b79f00bfb2970015
:101390000006eb001fb49700850f540001003600d3
:1013a00005065400efb49700688464002e003a00ec
:1013b0008c0178000dc2b300100037003e00900091
:1013c0000004b200040032001e0078000d487800ce
:1013d000000fe800050037008e00780000022000b2
:1013e00084050700e10f4000030032007fb597003d
:1013f0000a05e800fab79f008c0178000c06e900a6
:10140000e08f5100edff3a00170037003e009000da
:101410000004b200090032009e0178000801780043
:101420003240780080497800030fe8000204780019
:10143000e04f50000a003a00110037000801780020
:101440003200fb00020478008e00780086bf9f0007
:10145000680507000fbb9700e10f4000080032004d
:101460008d06e80006003700ffb6970008037800f5
:101470002fb49700bfb497004fb59700dfb5970022
:10148000090078008004e900e00f5000dfff3a0017
:10149000fdb79f00a8b79f00b9b79f00cab79f00cc
:1014a000dbb79f0006047800e00f540045053200ca
:1014b000110037003e0090000004b200040032002a
:1014c0001e0078000d487800000fe8000500370086
:1014d0008e0078000002200046050700e10f400062
:1014e00003003200ffb097008100e800f1b79f00d1
:1014f00008067800010037000dc2b3000c04e900b3
:10150000e00f5600ebff3a002e0537000fa99700b9
:101510004204780082af9f0008027800cfa2de006c
:101520000503780086037800d4af9f00e5af9f00e5
:10153000f6af9f0087b79f000605be000404be00fb
:101540004844de00c84add0008847200a8679f0096
:101550006fb397007006630009003200e04f54003b
:1015600007003200e14f440005003200b8679f00d9
:10157000c4679f0027002000b7b79f000400370012
:101580002fdc9700b8679f0019002000b9b79f00b3
:101590003afa2f000a854700aab79f0073ff370069
:1015a0002bfa2f008b854700abb79f00100020005f
:1015b000b0b79f006dff3700efb09700010cb3008c
:1015c000e1b79f00087020006fb197000806610026
:1015d0009602320008002100080461000200320077
:1015e0006300200093af9f006fb297007004620009
:1015f000090032000fa897004005be004004be005d
:1016000080af9f00d8af9f00e9af9f00faaf9f0067
:101610008bb79f000a0037000fa997004200be0059
:1016200082af9f00a30607000002be000203be00b7
:10163000d4af9f00e5af9f00f6af9f0087b79f0034
:101640006022b8006033b8005fa89700efa8970049
:101650007fa997008fb19700e80507008002780006
:10166000e08f52000c003d005fac9700efac97009c
:101670007fad97008fb597000bf0a200d8af9f0009
:10168000e9af9f00faaf9f008bb79f00efb49700c0
:101690003900b300e9b79f000004eb00b8979f0042
:1016a0006022b8006033b8005fa89700efa89700e9
:1016b0007fa997008fb19700340607008002780059
:1016c000888f52003b0032005fa89700efa8970078
:1016d0007fa997008fb197006b07070062fa2f0070
:1016e0000f014100ee0607003f9397000603e90053
:1016f0006333b900a8002000809fbe0011000900dc
:101700000803d800000378004f00be00b6979f0082
:10171000e00f530002003d000603e900b6979f006a
:101720003f9697008c41ea0003407800c6fd070011
:101730005faa9700efaa97007fab97008fb397003f
:10174000da0607000002be000203be00a4a79f0045
:10175000b5a79f00c6a79f00d7a79f006022b8002b
:101760000600200007ff2300a40507008002780080
:10177000e08f520002003d000c04e9000c0037002d
:101780006022b80006002000470224002fa0970026
:10179000bfa097004fa19700dfa197009c0507000d
:1017a00080027800e08f5200020035000c04e8004f
:1017b000b8979f009faa9700f88f52000f003c0037
:1017c0000540780058fd07000002be000203be007d
:1017d0005fa89700efa897007fa997008fb19700a7
:1017e000090507000004be000205be00d8af9f0037
:1017f000e9af9f00faaf9f008bb79f003f9697001d
:10180000e90f560016003c006022b8006033b800b3
:101810005fa89700efa897007fa997008fb1970066
:10182000da05070080027800e08f520035003200b0
:101830005fa89700efa897007fa997008fb1970046
:101840003b060700e00f5000e08f5800e00f590002
:10185000e08f59002b003a00e10f560029003400b8
:101860000400200005002e00b6e02200170124002d
:101870002fa09700bfa097004fa19700dfa197006e
:101880005e05070080027800e08f520002003d00f4
:10189000730456000100370072045600b8979f0089
:1018a0006f60970068fd07000002be000203be00e3
:1018b000a4a79f00b5a79f00c6a79f00d7a79f001a
:1018c0005fa89700efa897007fa997008fb19700b6
:1018d0005405070016060700a0b79f00b1b79f0088
:1018e000c2b79f00d3b79f006000b8006011b80076
:1018f000d0af9f00e1af9f00f2af9f0083b79f0082
:10190000190037005fa89700efa897007fa99700fc
:101910008fb1970006060700a0b79f00b1b79f00e0
:10192000c2b79f00d3b79f00320607000002be0077
:101930000203be005fa89700efa897007fa9970059
:101940008fb19700ce0607000004be000205be005e
:10195000d8af9f00e9af9f00faaf9f008bb79f0001
:101960000004eb00b8979f0013c0b300a3679f006b
:1019700021072200100037000200fb004300dd00b9
:10198000008040003002be002003be002fb497004c
:10199000bfb497004fb59700dfb597000440e10052
:1019a00005c8e10006d0e10007d8e10005003900d4
:1019b0000241e800a2679f002f619700f44f510099
:1019c000edff3a0002437800bf9397009fb4970061
:1019d000878354001fad97008a8353000603fb00e2
:1019e0000683530096b79f00e00f550002003200b7
:1019f0000603e90096b79f00efb597006383650083
:101a0000030032001fb097000000e90090b79f006c
:101a1000efb0970064836000480032006284600089
:101a200061866000e00f5400190032003e03900010
:101a30000604b200080032009e067800b8c2b30067
:101a4000e00f56000100320008c4e800884e78001c
:101a50000d0fe8000a003700d8022000e00f560002
:101a600001003a000884e9008e0078000800780040
:101a7000e003070080027800e18f42002700320077
:101a80007fb197000201e800f2b79f002300370002
:101a9000e00f5600210032003e0390000604b20021
:101aa000050032001e04780003c2b300034c780026
:101ab000080fe800060037008e00780000022000c2
:101ac000cc03070080027800e18f4200130032004f
:101ad000ffb197008301e800f3b79f000f003700c4
:101ae0003e0090000004b200040032001e007800a6
:101af0000c487800000fe800050037008e007800e1
:101b000000032000bb030700e10f4000010032008a
:101b10008d06e8000804e900030037000cc3b30099
:101b20001fb49700ffb69700e00f5400ecff3c0095
:101b300098b79f00fdb79f007a0037006fb29700fb
:101b40006803620017003a000f0037003e00900063
:101b50000004b200040032001e0078000c48780037
:101b6000000fe800050037008e007800000220001a
:101b7000a0030700e10f4000010032008d06e800dd
:101b80000804e900030037000cc2b3001fb497003b
:101b9000ffb69700e00f5400ecff3c0098b79f00a1
:101ba000fdb79f00efb29700628462006186620019
:101bb000e00f5400190032003e0390000604b2000a
:101bc000080032009e067800b8c2b300e00f56004d
:101bd0000100320008c4e800884e78000d0fe800cc
:101be0000a003700d8022000e00f560001003a003a
:101bf0000884e9008e007800080078007d03070063
:101c000080027800e18f4200460032007fb39700e7
:101c10000603e800f6b79f0042003700e00f5600c9
:101c2000400032003e0390000604b200050032007e
:101c30001e04780003c2b300034c7800080fe800cc
:101c4000060037008e0078000002200069030700bc
:101c500080027800e18f420032003200ffb397002b
:101c60008703e800f7b79f002e0037003e01900081
:101c70000204b2000300fb00e00f5100120032002a
:101c80001e0678004300dd00008046003002be00e2
:101c90002003be000800be000a01be00c9060700fe
:101ca000a4002000050020006033b800cc06070027
:101cb0000203be000002be0000c3b300004e42009b
:101cc0000c0fe800130037004300dd0000804600e1
:101cd0003002be002003be000800be000a01be00a4
:101ce000b8060700a4002000050020006033b800fb
:101cf000bb0607000203be000002be000403b000e2
:101d00008e007800040078003a030700e10f4000dd
:101d100009003200ffb097008100e800f1b79f0092
:101d2000050037002d0722002fb49700bfb497009d
:101d30004fb59700dfb597002f6097008041e9000d
:101d4000a3679f00e04f5000c8ff3a001100370022
:101d50003e0090000004b200040032001e00780033
:101d60000c487800000fe800050037008e0078006e
:101d7000000320001f030700e10f400001003200b4
:101d80000804e8003f9097000000e900b0979f002a
:101d9000020037000cc3b3007fb497003f90970058
:101da000e00f5000eaff3c00f8b79f001fa9970022
:101db00023c1b300f20f510001003c00afd19700e6
:101dc000a3679f002f6497008802fb001faa97005b
:101dd0008502520095af9f00e04f54001100320081
:101de000be0290000504b200050032001e04780017
:101df000e3c2b300034c7800080fe8000600370088
:101e00008e007800e0022000fa02070080027800cd
:101e1000e18f420003003200ffb297008502e80024
:101e2000f5b79f002f60970007fc07000002be0077
:101e30000203be005fa89700efa897007fa9970054
:101e40008fb1970019050700b9040700a0b79f00dc
:101e5000b1b79f00c2b79f00d3b79f002d072200e4
:101e60003f003700be0190000304b2000401fb00f4
:101e7000e08f5100120032001e0678004311dd0091
:101e8000028146003202be002203be002fb097003e
:101e9000bfb097004fb19700dfb197004906070028
:101ea000a4002000050020006033b8004c060700a5
:101eb00009c3b300094e40000c0fe80016003700bc
:101ec0004311dd00028146003202be002203be0043
:101ed0002fb09700bfb097004fb19700dfb19700c8
:101ee00038060700a4002000050020006033b80079
:101ef0003b0607000203be000002be000403b00060
:101f00008e00780004007800ba0207000001780013
:101f1000e10f4100030032007fb597000a05e80099
:101f2000fab79f00af6597000b01fb004311dd007e
:101f3000028146003202be002203be002fb097008d
:101f4000bfb097004fb19700dfb19700240607009c
:101f5000a0b79f00b1b79f00c2b79f00d3b79f0043
:101f60002f6197000242e900a4679f00e04f5100f3
:101f7000bcff3a000f0037003e0090000004b200a2
:101f8000040032001e0078000c487800000fe800c2
:101f9000050037008e00780000032000950207003e
:101fa000e10f4000010032008d06e8000804e9005e
:101fb000030037000cc3b3001fac9700ffb69700b7
:101fc000e00f5400ecff3a00fdb79f00efb297001e
:101fd000688162007b0232001fb39700e00f53005c
:101fe0007802340008c2b300060678003e00900074
:101ff0000004b200040032001e0078000848780097
:10200000000fe800050037008e0078000002200075
:1020100078020700e10f4000010032008d06e80061
:102020000c06e900f1ff3a0065023700efb29700b5
:10203000050cb20043003a00efb39700e08f530065
:1020400005003d000fa897004005be004004be00fb
:1020500080af9f0010003700efb09700f082600063
:10206000120032000faa97004401be0084af9f0007
:10207000a29f9f00b39f9f00140490004fc4de00f6
:10208000c89f9f00d89f9f002f9c9700bf9c9700e0
:102090004f9d9700df9d9700a8b79f00b9b79f009d
:1020a000cab79f00dbb79f000b0037008fac9700cb
:1020b000c902780089af9f0005007800cf80de005c
:1020c0000101780082017800a0b79f00b1b79f009e
:1020d000c2b79f00d3b79f002fb29700bfb297003f
:1020e0004fb39700dfb39700e00f5200e08f5a0024
:1020f000e00f5b00e08f5b0038003d00efb297001f
:102100003500b300e5b79f006044b8006055b800e3
:102110002fb09700bfb097004fb19700dfb1970085
:102120000000540081805c0002015d0083815d003d
:10213000a0b79f00b1b79f00c2b79f00d3b79f0061
:1021400026003700efb09700e08f500005003d00fb
:102150000fac97004803be004802be0088af9f0046
:102160000e003700efb49700f082640010003200d8
:102170000fa897004005be0080af9f00ea979f0020
:10218000fb979f008c9f9f009c9f9f006f929700e2
:10219000ff9297000f9b97009f9b9700a4b79f000b
:1021a000b5b79f00c6b79f00d7b79f000b00370099
:1021b0000fab9700c602780086af9f000504780039
:1021c000090020000a0020000b002000a8b79f0093
:1021d000b9b79f00cab79f00dbb79f009fac9700bd
:1021e000e08f54000d003a001a0020009aaf9f00c3
:1021f0002fb09700bfb097004fb19700dfb19700a5
:10220000e00f5000e08f5800e00f5900e08f5900b8
:10221000020032008000eb0091af9f006fb1970089
:10222000020cb200d2af9f0008042000880f5100ba
:102230003f00320003003c00e00f51000800320074
:102240005600370005082000dfa99700858f510050
:102250001b003200050c2000858f51004f003a0012
:1022600013c0b300a3679f002107220010003700ae
:102270000200fb004300dd00008040003002be0091
:102280002003be002fb49700bfb497004fb597004e
:10229000dfb597000440e10005c8e10006d0e10089
:1022a00007d8e1003d0039000241e800a2679f0025
:1022b0002f619700f44f5100edff3a0037003700cf
:1022c00013c0b300a3679f0008012000090020008d
:1022d0006055b800120037002fb29700bfb29700c8
:1022e0004fb39700dfb397000820e10009a8e10091
:1022f0000ab0e1000bb8e1002800390045002000d9
:102300000804d0008984d2000a85d2008b85d200cf
:102310008502e900faff3a000040e800a0679f004c
:102320002f609700f04f5000ebff3a001b00370082
:1023300013c0b300a3679f0088002000090020009d
:102340006055b800120037002fb29700bfb2970057
:102350004fb39700dfb397000820e10009a8e10020
:102360000ab0e1000bb8e1000c0039003500200094
:102370000804d0008984d2000a85d2008b85d2005f
:102380008502e900faff3a000040e800a0679f00dc
:102390002f609700f54f5000ebff3a002f63970036
:1023a0000604fb009fab9700870f540002003d001e
:1023b000a7679f00040037009fac9700888f5400e8
:1023c00001003d0098af9f001fb59700e00f55003a
:1023d00005003200efb59700e3826500020032008d
:1023e0000a05e9009ab79f00050024006fb0970026
:1023f00085026000090032009fb097001fa9970076
:10240000828f5000030034008280500091b79f00fb
:10241000020037008001eb0093b79f002f62970006
:102420000404fb008002eb00e5a79f001fb39700a8
:10243000880f53000200340008045300e8a79f00ef
:10244000efb39700e48263004900320062836300c7
:1024500007047800e1036400e00f53001900320024
:10246000be0290000504b200080032001e0678008b
:10247000b6c2b300e08f53000100320006c3e8008b
:10248000064e78000c0fe8000a003700d602200044
:10249000e08f530001003a000683e9008e007800c7
:1024a000060078005301070080027800e18f4200a7
:1024b00017003200ffb497008904e800f9b79f00c5
:1024c00013003700e08f530011003200be0290006d
:1024d0000504b200050032001e03780003c2b300f9
:1024e000034b7800060fe800060037008e007800e6
:1024f000000220003f01070080027800e18f4200c7
:10250000030032007fb597000a05e800fab79f0084
:10251000efa59700e08f5500050132000cc3b30012
:102520000b047800ffb697003e0090000004b20054
:10253000040032001e0078000c487800000fe8000c
:10254000050037008e0078000003200029010700f5
:10255000e10f4000010032008d06e8000804e900a8
:10256000f1ff3a00e8a79f00fdb79f00f000370099
:102570006fa09700e00f500017003200efb09700f7
:10258000e882600014003a000cc2b3000004780036
:10259000ffb697003e0090000004b2000400320035
:1025a0001e0078000c487800000fe8000500370096
:1025b0008e007800000220000e010700e10f4000ad
:1025c000010032008d06e8000804e900f1ff3a003e
:1025d000e8a79f00fdb79f006fb1970062036100fd
:1025e000e1036100e00f530019003200be029000c9
:1025f0000504b200080032001e067800b6c2b3001f
:10260000e08f53000100320006c3e800064e780058
:102610000c0fe8000a003700d6022000e08f5300bc
:1026200001003a000683e9008e0078000600780079
:10263000f000070080027800e18f4200bc00320009
:10264000ffb197008301e800f3b79f00b80037009f
:10265000e08f5300b6003200be0290000504b200c5
:10266000050032001e03780003c2b300034b78005c
:10267000060fe800060037008e00780000022000f8
:10268000dc00070080027800e18f4200a8003200e1
:102690007fb297000402e800f4b79f00a40037005f
:1026a0000e07e90000042000dfaa9700808f520087
:1026b0007a00320003003c00e08f52000800320034
:1026c00086003700000820005fab9700800f5300a2
:1026d0005d003200000c2000800f53007f003a00a4
:1026e0004370dd00efb39700e08f530022003d0000
:1026f00028072200000044003002be002003be0074
:1027000094af9f00a5af9f00b6af9f00c7af9f00db
:102710002fb09700bfb097004fb19700dfb197007f
:1027200028040700a0679f000004fb00cfc4de0060
:10273000090578008a0578001faa9700afaa9700bc
:102740003fab9700cfab97000800be000a01be0068
:10275000880407002fb49700bfb497004fb59700c7
:10276000dfb597000004540081845c0002055d0021
:1027700083855d001d003700df949700e08f5400d3
:102780001f0032002fb69700bfb697002a0722001d
:10279000000045003004be002005be000801be0058
:1027a0000c00be0063030700a0679f000000fb0051
:1027b000cf80de000801be006e0307000001560056
:1027c00081815e00e29f9f00f39f9f008001eb00ec
:1027d00083a79f000002eb0094a79f006f9c9700c7
:1027e000ff9c97000fa597009fa59700a8b79f0093
:1027f000b9b79f00cab79f00dbb79f000e00370034
:1028000029072200690178002fb59700811f780001
:10281000110009000285d800cf007800a200200036
:10282000811f7800110009000280d80001007800a3
:10283000cf007800a0679f00af6597000b43b00002
:10284000ab679f0025003700a42122004f9097001e
:10285000e00f500001003a00b42222004270dd0077
:102860002fb49700bfb497004fb59700dfb597001e
:10287000800278008502e900050033008b05d10055
:102880000a85d3008984d3000884d300f9ff370078
:102890006f006400644078000f0037006370b90077
:1028a0002fb49700bfb497004fb59700dfb59700de
:1028b000000278000402e900050033008b05d10016
:1028c0000a85d3008984d3000884d300f9ff370038
:1028d000674064000043b000a0679f009fb297006c
:1028e000350090000004b2000700320015017800a6
:1028f0002f60970000497800820ae800e04f5000fe
:1029000007003a00130037002f6397000600fb0012
:102910009fb0970037000700e10f40000d00320024
:10292000ffb397008703e800f7b79f00090037005f
:102930006fb4970070046400d8979f00efb49700bd
:102940000902b200c9979f000e0578009ab79f0050
:102950001faf9700e00f570051ff3a001fb79700d5
:10296000efb5970068816500160032006fa09700f0
:10297000e00f50001300340008c2b30000067800d6
:10298000ffb697003e0090000004b2000400320041
:102990001e00780008487800000fe80005003700a6
:1029a0008e0078000002200012000700e10f4000b6
:1029b000010032008d06e8000c06e900f1ff3a0044
:1029c000fdb79f00ffa0970091427800a5679f0088
:1029d000e0cf520084f93a007fb097004f077800ab
:1029e0004f06be004f05be004f04be002f05b100cc
:1029f00000000600889fbe0001047800b800900027
:102a0000628160008084eb003c003200810178002c
:102a10000320b2001801900002003a00e00f5100bc
:102a200036003a000190a00031049800800478003c
:102a3000f90fb200e00f510002003a0028009000a8
:102a4000000c7800ea8f540006003a00010078007c
:102a50000008b20003003a0088007800d00020008f
:102a6000e4ff070018009000d8009000810f50008c
:102a70000b0032000000e8001004980018007800f5
:102a800009487800000ce80010c0b300412b220078
:102a900080487800ea8f540018003a00050037009b
:102aa000880078000940780017000700800478004b
:102ab00012003700380090000010b2000f00320002
:102ac00018019000a8009000480090002016070010
:102ad00098009000810f50000400320038009000f0
:102ae0000003b300300498008084eb000000eb008a
:102af0001004980028009000000c7800090078006d
:102b00004f04be00000006000200fa00889fbe00cd
:102b1000a0ff9f000104780038009000800078003a
:102b20000104b20033003a00e200600005003a0000
:102b30000003b30030049800110498000080eb00fb
:102b40002e003700d8049000e08f540006003a00b1
:102b500012002000e680570048009000fc15070096
:102b60001904980023003700a8009000e08f50005f
:102b700008003a00712b220021049800010c780013
:102b80002100200051049800110498000030a0009a
:102b90003004980018019000a800900048009000b0
:102ba000eb150700280090008080eb0011049800ce
:102bb000aff8970001487800000ce8002ff8970064
:102bc000ea4f50000b003a00380090000010b200ad
:102bd0000800320018019000a80090004800900002
:102be000db1507000000eb0010049800a80090001f
:102bf000010c7800aff897000100fb004f04be0005
:102c00000080fa00000006002800fa00889fbe003d
:102c10008a9fbe008c9fbe000706780087866900e9
:102c20000c003b00030478008704780008f0a10042
:102c300009f0a100840f5000858f5800860f5900bd
:102c4000890f5c00030033000cf0a20001003a0081
:102c50000cf0a100fe0007006400e1005f003200fc
:102c6000780147006408e100610032006c01470010
:102c7000748557003200be001201be003a04be0047
:102c80001a05be001e039000be0a90008503530083
:102c900006003d000004fd008104fd000205fd006a
:102ca0008305fd008703ea00050378000df8a30003
:102cb0000400320060041400e0841c0060051d0064
:102cc000e0851d006022b8007d0320000d38e10082
:102cd0008006eb000b0039004433dd00f300b20046
:102ce0008301730039003700848272000d0278007e
:102cf000e10664008b85d1000a85d3008984d30066
:102d00000884d3008703e900f7ff3b000800400078
:102d1000898048000a0149008b81490004003b007a
:102d200060001000e080180060011900e0811900c7
:102d30000358a300090032008d8272008482720061
:102d4000610260008301d1000281d3008180d30041
:102d50000080d3000603e8001b0037000348a300ef
:102d600017003a000600e000170034000603e900ef
:102d70000d00a300000048008180480002014900c6
:102d8000838149000348a3000f003a000600e000d9
:102d9000090034000603e90000004000818048007b
:102da000020149008381490001003a000003eb0061
:102db0000348a300f5ff32006022b800020037008c
:102dc00084827200618266007500070003f0a10032
:102dd0000cf0a70003f0a000b10037006401470029
:102de0006408e10002003a000df8a300a9003a00cf
:102df0003200be001201be00a90037008f1fd100b3
:102e0000120307008f87e9000000e00000000600c1
:102e1000809feb000d0307008f87e9000000e000b2
:102e2000000006002800fa00889fbe008a9fbe00ae
:102e30008c9fbe0003866b00850007006400e100e4
:102e4000440032006408e1004a0032006100e10001
:102e5000460032006108e10049003200ec064700fc
:102e60006000b8003d02be003d03be00f48657007e
:102e70006011b8003d04be003d05be007d0320008a
:102e80000b0037000000a0008d06e900130032009f
:102e90000402420085824a0006034b0087834b00f0
:102ea0000000400081804800020149008381490000
:102eb0000802520089825a000a035b008b835b0080
:102ec000f0ff3b000802420089824a000a034b00df
:102ed0008b834b008d06e900edff3a00848272007f
:102ee00086827200f707b20087827200010032000a
:102ef000150020001e0490003e0b900006035400b5
:102f0000e63fb0000368a300070032000000a700fe
:102f10000500a0008301d1000281d3008180d3008d
:102f20000080d3000603e8008301d1000281d300b2
:102f30008180d3000080d3000002eb000482d20025
:102f40001700070003f0a1000cf0a70003f0a00099
:102f500053003700640247006408e1004d0032006e
:102f60003400be003401be00f6ff37006108e10006
:102f7000480032006011b8006000b800f1ff37006f
:102f800003ff270002002000fbff3700801feb003b
:102f9000ae0207008f87e9000000e0000000060095
:102fa0001800200057002000080453000d003d00c9
:102fb0000600200097fc2f000740e1001e003400af
:102fc00084827200610260008301d1000281d3001b
:102fd0008180d3000080d3000804e800f8ff3a00a5
:102fe00047002000610460000504740004046400cc
:102ff0000d00320061004000e0804800600149009f
:10300000e081490003b8a500070032000603e8008c
:103010006538e10004003a008301d1000281d30049
:103020008180d3000080d300f87f20000830e100c9
:1030300003003500080378006000b8006011b80094
:103040004433dd00f300b20083017300000006008a
:10305000680447000294be000094be00fc044700d0
:103060008694be008494be0009007800c002070068
:1030700008007800be02070099007800814f7000b8
:103080000b003b000800be00990207004f00b10092
:1030900003003700f3ff2700f2ff2f006110b90093
:1030a0004f06be004f05be004f04be000080fa0070
:1030b000000006008103780011f607000001be0041
:1030c0006000b8000478a30013003a006220e10019
:1030d00015003e000d0039008301d1000281d300ac
:1030e0008180d3008301d1000281d3008180d3008d
:1030f0008301d1000281d3008180d3000538b00064
:10310000c42add00f300b2008381720007f0a7003b
:1031100003f0a00000000600f3ff2700f2ff2f00dd
:103120006110b900fbff370003ff2700f7ff3700ee
:103130001400fa00889fbe008a9fbe008c9fbe00cc
:103140000004be000205be00680047000a90be00f1
:103150000890be00860207000070a7000bf0a100d7
:103160000bf8a30020003a009e0990000e09900081
:10317000fe0090006e0090009e02900034432000fc
:1031800084825200c6ff32000a003c00b4fc2f00cb
:103190000428e100140034008301d1000281d3002f
:1031a0008180d3000080d3008502e800faff3a0056
:1031b000bbff3700b40020000428e10007003c00fa
:1031c00000004000818048000201490083814900dd
:1031d0008502e900faff3a00b1ff3700030028003a
:1031e00002002000010037006011b8006000b80044
:1031f000abff3700889fbe000082700004027100a0
:10320000048271002400320036432000c5002000f3
:103210008383cf000a0039000541b1008283cf00cb
:10322000070039000541b1008183cf000400390057
:103230000541b1008083cf00010039000541b10094
:1032400085c353006022b800120032000a003b0020
:1032500084827200610260008301d1000281d30088
:103260008180d3000080d3000603e8008743e80094
:10327000f7ff3a0007003700000040008180480057
:1032800002014900838149000603e9008743e90000
:10329000f9ff3a0042ff07004f04be00000006009d
:1032a000dd01070005097800000006002800fa008b
:1032b000889fbe008a9fbe008c9fbe0003866b0065
:1032c00063ff07000028a30064003a000128a30060
:1032d00067003a000008a30062003a000108a3005a
:1032e00065003a001e009000be0890008106400074
:1032f000ed3fb100f4805700ee019000111ab800c4
:103300008e099000311bb8009e099000311cb80056
:10331000511db800f485570046000700fe019000db
:103320003a0007008b85e8003e0007008e099000f8
:1033300040000700ee019000340007008b85e80094
:10334000380007008e099000400007009e09900099
:103350001b18b800890440000a854800fe0190004f
:10336000340007008b85e80038000700ee0190006c
:10337000300007008e0990001b18b8008904400037
:103380000a8548000a98a30008003a000402420097
:1033900085824a0006034b0087834b0008044c00db
:1033a00089844c000a054d008d06e9008482720074
:1033b000850273004c3add00850272000100320084
:1033c00015002000443ade001400b2004538de004b
:1033d000cb45dd000b007000c540de00cb4ddd00ad
:1033e0008b8070004549de00cb55dd000b0171007c
:1033f000c551de000d037800e9fe070003f0a100cf
:103400000cf0a70003f0a00025ff37001b18b80040
:103410008502400006834800e0834b0060044c00b6
:10342000070037001b18b8000603400087834800d8
:10343000faff37001b18b8008703400008844800d3
:10344000e0844c0060054d00000006001b18b80029
:103450000804400089844800faff37000108a300ef
:103460000cff3a005800be005801be00e3ff3700d1
:103470000008a30007ff3a0009047800f9ff3700ad
:1034800007f0a200e0fd37001400fa00889fbe009c
:103490008a9fbe008c9fbe000005be000206be00d3
:1034a000680047000c90be000a90be00b001070003
:1034b0006400e1001a00320016003e006100e100e5
:1034c0001a0032006e049000fe0490000e0b900073
:1034d0009e0b90006011b8009e0590000b38b10063
:1034e000d501200082817100610164008703d10051
:1034f0000683d3008984d3000884d3008502e900c1
:10350000f8ff3a00d8f407000df0a70001f0a00082
:10351000e3fe3700f1ff2700f0ff2f00e0fe370049
:1035200001f8270000002000f7ff37006000b80016
:10353000f5ff37006022b800060220000000d0002e
:103540008180d2000482d2008582d2000000a000d7
:103550000202520083825a0003003100020242003c
:1035600083824a000000a1000603e900f3ff3a004d
:1035700000000600020ab900001bb9000200b800f2
:10358000810042008100430000000600889fbe00c9
:103590008a9fbe003004be002005be000404440023
:1035a00085844c0006054d0087854d000898be00b7
:1035b0000a90be000440e10005c8e10006d0e10029
:1035c00007d8e10002003100680040001008e80060
:1035d0004f05be004f04be0000000600889fbe00dd
:1035e0008a9fbe008c1f7800000678003c04be0055
:1035f0002c05be000400540085805c0006015d00bf
:1036000087815d00009ebe00029ebe00100020006b
:103610000440e10005c8e10006d0e10007d8e10060
:10362000010039000000eb001c0e10004f0678006e
:103630004f05be004f04be00000006001200fa0055
:10364000889fbe008a9fbe008c9fbe000205be0000
:103650000004be00e4b79f00f5b79f0086bf9f003f
:1036600097bf9f000000eb00d0b79f00c0b79f003e
:10367000b0b79f00a0b79f0090b79f0000067800ea
:10368000fd032000dfb197004fb097000381410098
:10369000bfb09700e08f510004003d0029000700f3
:1036a0007e805700b9ff07000300370025000700a0
:1036b0007e805700c9ff0700dfb09700e08f500001
:1036c0000700350014002000050020006033b8001a
:1036d00008047200898472000a0573008b857300e8
:1036e0000c06e8008d0f5600e6ff3400e08f500016
:1036f00006003d006fb29700ffb297000fbb970026
:103700009fbb97007e805700a0ff07005fa897002f
:10371000e00f500004003a001fb49700afb49700c8
:103720003fb59700cfb597000800be000a01be0064
:103730004f06be004f05be004f04be000080fa00d9
:1037400000000600cf01de0002817100b2b79f00c9
:103750004f09de000000400000007100a0b79f008c
:103760000fb097004f01de008180400081007100a2
:1037700091b79f007faa9700cf20de000000400095
:103780000080700080b79f000800be000a01be00e4
:103790004f18de000402420000027200f4af9f00e6
:1037a0000804440089844c000a054d008b854d00b7
:1037b0004fb29700dfb297006fb39700ffb3970047
:1037c00000000600881f780018002000881f78007d
:1037d0009aff07008f87e9004f0478000000060079
:1037e000801feb0095ff07008f87e90000000600af
:1037f000889fbe008a9fbe008c1f7800e00f50009b
:10380000e08f5800e00f5900e08f59000f003d0095
:103810006044b8006055b8000000540081805c002e
:1038200002015d0083815d001c0020000820e10092
:1038300009a8e1000ab0e1000bb8e1000d003d006d
:10384000190007000006eb000a0037000006eb0035
:10385000e00f5200e08f5a00e00f5b00e08f5b004a
:1038600004003d006044b8006055b8000e00070039
:103870001c002000d3ff0700e00f560006003200b6
:103880006022b8006033b8000000520081805a0006
:1038900002015b0083815b004f0678004f05be008c
:1038a0004f04be00000006000402540085825c0044
:1038b00006035d0087835d0000000600889fbe0050
:1038c0008a9fbe008c1f7800e00f5000e08f5800e8
:1038d000e00f5900e08f59000d003d006044b80032
:1038e0006055b8000000540081805c0002015d005a
:1038f00083815d001c0020000820e10009a8e10090
:103900000ab0e1000bb8e1000d003d0008003700ef
:103910000006eb00e00f5200e08f5a00e00f5b0062
:10392000e08f5b0006003d006044b8006055b800c1
:103930000402540085825c0006035d0087835d00fd
:10394000a7ff0700e00f5600060032006022b80013
:103950006033b8000000520081805a0002015b0011
:1039600083815b004f0678004f05be004f04be0008
:1039700000000600889fbe008a9fbe008c1f780052
:103980000006eb00e00f5000e08f5800e00f5900f8
:10399000e08f590007003d006044b8006055b80052
:1039a0000000540081805c0002015d0083815d00a5
:1039b0001c002000e00f5200e08f5a00e00f5b0077
:1039c000e08f5b0007003d006044b8006055b80020
:1039d0000402540085825c0006035d0087835d005d
:1039e0000c00a20089000700e00f5600060032001c
:1039f0006022b8006033b8000000520081805a0095
:103a000002015b0083815b004f0678004f05be001a
:103a10004f04be00000006000003be00b8f307001c
:103a20006220e100020032000600be000500050031
:103a3000e507b100f107b20004f0230084807000b4
:103a400007f0a70001f0a00024000500889fbe0039
:103a50008a9fbe008c9fbe000404be000605be0007
:103a6000809fbe00829fbe002f00070004067800e2
:103a70000800be000a01be002b0007008406780083
:103a80004f03be004f02be008d4f76007fb09700ff
:103a900013003300f0ff2f008b8f6b0006003b00fc
:103aa0000d0666000c00a7000a00370007f0a6000c
:103ab000100020000a003700880f5200898f5a003a
:103ac0008a0f5b008b8f5b00030039001000200021
:103ad00001003e000000200007f0a7000000ea00ff
:103ae0004f06be004f05be004f04be00000006009a
:103af000e48240001078a300070032006402400016
:103b00001178a3003400be001401be00040032008e
:103b10000330a700000006003500be001501be00fe
:103b20000330a0000000060005ff270005826100a9
:103b3000070032000428e1000100320024000500e3
:103b40000600070001003a004400050004080500d3
:103b500002000700f9ff3a00140005006f826100bf
:103b6000810270008502710085027200000006006b
:103b7000800078005002be005003be004439de00d1
:103b8000f700b200f37f200003016100090032005a
:103b90000218e10016003a008501720083017300eb
:103ba000838173000008200015003a0040002000c7
:103bb0001300370085017200830173008381730055
:103bc00005003a0004a8be0006a8be0010002000b0
:103bd0000b0037000201e9000402420085824a001e
:103be00006034b0087834b000748a300f9ff320010
:103bf0000740a00004a8be0006a8be0020002000c8
:103c0000800098009200980000000600889fbe0087
:103c10008a9fbe008c9fbe000404b8000506b80051
:103c20008904460060854e000606b8000a05460075
:103c3000e0854e000706b8008b054600040eb8006c
:103c4000890446000a854e00e0854d00050eb80047
:103c50000a0546008b854e00060eb8008b0546000f
:103c60000416b8000a0546008b854e000516b800fc
:103c70008b054600041eb8008b0546000800be00f8
:103c80000a01be004f06be004f05be004f04be0035
:043c9000000006002a
:020000040000fa
:103c940072610000646900006f00000068000000a9
:103ca4002d680000656c0000700000005573000072
:103cb40061670000653a0000207200006164000042
:103cc400696f0000204300004f4d00004d4100008b
:103cd4004e4400000d0a0000536500006e640000ad
:103ce4007320000061200000636f00006d6d000010
:103cf400616e000064200000746f000020740000f6
:103d04006865000020480000656c000069750000cb
:103d14006d20000052610000646900006f20000003
:103d2400626f000061720000642e00000d0a000042
:103d3400436f00006d6d0000616e0000647300004d
:103d44003a0d00000a200000206f00006e0d0000f4
:103d54000a200000206f0000666600000d0a0000c3
:103d6400202000006e6f00006f7000000d0a00003c
:103d7400202000007265000073650000740d0000cf
:103d84000a20000020740000786d000065730000b4
:103d940073610000676500000d0a00002020000028
:103da40067650000746300006f6e000066690000c0
:103db400670d00000a200000206600006173000007
:103dc40074700000610d00000a20000020700000e3
:103dd4006174000074650000726e00000d0a00003a
:103de40020200000747800007061000074740000ea
:103df400657200006e0d00000a20000020740000af
:103e0400656c0000656d00000d0a000020200000b4
:103e140062650000616300006f6e00000d0a00001f
:103e2400202000006e6d00006f7300006f6e0000b4
:103e34000d0a0000202000006e6d00006f7300006a
:103e44006f660000660d00000a0000006e6f00003f
:103e54006f7000000067000065740000636f00006d
:103e64006e6600006967000000740000656c000065
:103e7400656d0000004300006f6d00006d6100007f
:103e84006e64000020270000002700002069000065
:103e9400732000006e6f000074200000696d000044
:103ea400706c0000656d0000656e000074650000b4
:103eb400642e00000075000061720000747200003e
:103ec400656c00006179000000520000656c000020
:103ed4006179000073200000554100005254000035
:103ee4003120000052780000202d00003e20000008
:103ef4005541000052540000322000005478000064
:103f0400206100006e640000205500004152000052
:103f14005432000020520000782000002d3e0000a2
:103f2400205500004152000054310000205400008c
:103f3400782e00000d0a0000426f0000617200003c
:103f4400642000006d75000073740000206200009e
:103f54006520000072650000736500007420000095
:103f6400746f0000207500006e6400006f2e000066
:103f7400007500003100000075320000007300007d
:103f84006c6500006570000000440000656c000072
:103f94006179000073200000436f00006e7300001d
:103fa4006f6c00006520000074610000736b0000fa
:103fb40020620000792000006e2000006d6900007e
:103fc4006c6c000069730000656300006f6e000094
:103fd4006473000000650000636800006f00000067
:103fe400776800006f6100006d69000000630000e5
:103ff400797300006174000000680000656c0000c3
:10400400700000005573000065200000226300006a
:104014006f6d00006d6100006e640000202d0000d3
:1040240068220000206600006f7200002068000013
:10403400656c00007020000077690000746800005f
:1040440020610000207300007065000063690000b7
:104054006669000063200000636f00006d6d00005e
:10406400616e000064000000557300006566000086
:10407400756c0000206300006f6d00006d6100002e
:104084006e640000730000005541000052540000ab
:104094003a2000007561000072740000726500002f
:1040a4006c610000792c000020750000312c0000a8
:1040b40020750000322c00002065000063680000b9
:1040c4006f00000052610000646900006f3a000054
:1040d4002072000061640000696f0000006c000041
:1040e40073000000446f000020490000206c0000b1
:1040f4006f6f00006b2000006c6900006b650000ae
:1041040020610000205500004e49000058200000a6
:104114006d61000063680000696e0000653f000087
:1041240021000000726d0000004e00006963000071
:104134006520000074720000792c0000206a0000e1
:10414400657200006b2e000000490000206400002e
:104154006f6e000027740000207500006e6400007c
:104164006572000073740000616e0000642000003a
:10417400272500007327000000000000506f000096
:1041840077650000723a00002049000032430000c5
:10419400205700007269000074650000204500008b
:1041a400727200006f720000005000006f77000010
:1041b400657200003a2000004932000043200000ec
:1041c4005265000061640000204500007272000026
:1041d4006f720000003a0000200000002566000015
:1041e400200000005600000058200000566f000018
:1041f4006c74000061670000650000006d41000000
:10420400002d000058200000437500007272000069
:10421400656e0000740000002b580000204300006d
:1042240075720000726500006e7400000059000091
:10423400205600006f6c0000746100006765000088
:10424400002d000059200000437500007272000028
:10425400656e0000740000002b590000204300002c
:1042640075720000726500006e740000005a000050
:10427400205600006f6c0000746100006765000048
:10428400002d00005a2000004375000072720000e7
:10429400656e0000740000002b5a000020430000eb
:1042a40075720000726500006e7400000042000028
:1042b4006174000020420000757300002043000078
:1042c40075720000726500006e7400000035000015
:1042d4005620000042750000732000004375000062
:1042e40072720000656e000074000000332e00003e
:1042f4003356000020420000757300002043000084
:1043040075720000726500006e74000000640000a5
:104314006567000043000000426100007420000053
:1043240030200000546500006d7000000042000061
:104334006174000020300000205600006f6c000003
:1043440074610000676500000042000061740000b1
:104354002030000020690000732000004449000060
:10436400534300004841000052470000494e0000fa
:10437400470000004261000074200000302000006b
:1043840069730000204300004841000052470000c8
:10439400494e000047000000426100007420000004
:1043a400302000004375000072720000656e00004a
:1043b40074000000426100007420000031200000fd
:1043c400546500006d70000000420000617400003c
:1043d40020310000205600006f6c00007461000062
:1043e4006765000000420000617400002031000095
:1043f400206900007320000044490000534300007a
:104404004841000052470000494e000047000000a8
:104414004261000074200000312000006973000034
:10442400204300004841000052470000494e00006c
:1044340047000000426100007420000031200000a9
:104444004375000072720000656e00007400000085
:10445400506f000077650000723a000020500000a1
:104464006f6c00006c6900006e670000206400003f
:1044740061740000612e0000000000004261000031
:10448400642000004932000043200000427500000f
:104494007320000065720000726f0000723a000021
:1044a40020620000757300002025000064200000d5
:1044b4006e6f0000742000006465000066690000ef
:1044c4006e6500006421000000480000697400006b
:1044d4002061000064640000722000003078000055
:1044e400257800002028000030780000257800009e
:1044f400205200006561000064290000206f000064
:104504006e20000062750000732000002825000062
:104514006429000000530000636100006e6e000017
:10452400696e00006720000049320000430d00005e
:104534000a000000204800006974000000490000df
:104544003243000020450000727200006f720000c8
:104554003a2000004465000066610000756c0000ac
:10456400742000007374000061740000757300000f
:104574002072000065740000757200006e65000012
:1045840064200000286200007567000021290000f3
:104594000049000032430000204500007272000010
:1045a4006f7200003a200000476500006e6500004d
:1045b400726100006c20000065720000726f0000e0
:1045c40072000000493200004320000045720000e0
:1045d400726f0000723a0000204e00004143000058
:1045e4004b000000493200004320000045720000e7
:1045f400726f0000723a00002042000075730000e0
:1046040020680000656c0000642000006c6f0000ee
:104614007720000062790000207300006c610000c4
:10462400766500000000000052610000646900002b
:1046340009430000686100006e0900005661000033
:104644006c750000650d00000a0000002564000080
:104654000925000064090000257800000d0a000007
:10466400005000006f6c00006c6900006e67000071
:1046740020500000726f0000746f00007479000015
:104684007065000020500000617900006c6f00002c
:104694006164000000500000617900006c6f00004c
:1046a400616400003a200000493200004320000009
:1046b4005772000069740000652000004572000014
:1046c400726f00007200000050610000796c0000fd
:1046d4006f610000643a000020490000324300008a
:1046e4002052000065610000642000004572000053
:1046f400726f00007200000043680000616e0000e9
:1047040009560000616c0000756500000d0a000088
:104714000025000064090000257800000d0a00004f
:10472400005000006f6c00006c6900006e670000b0
:1047340020500000617900006c6f0000616400008b
:104744002e00000025300000327500003a250000dc
:1047540030320000753a0000253000003275000048
:104764002e25000030320000750000005254000075
:10477400432000006e6f000074200000666f00008c
:10478400756e00006400000052540000433a0000bb
:104794002049000032430000204600006169000007
:1047a4006c6500006400000052540000433a0000ad
:1047b400204f000046200000666c00006167000086
:1047c40020730000657400002c2000007265000056
:1047d4007374000061720000746900006e67000069
:1047e40020520000544300002e00000052540000e8
:1047f400433a000020520000657300007461000019
:104804007274000020660000616900006c6500009d
:10481400640000005465000073740000696e0000b9
:104824006720000049320000430000004d69000089
:10483400736d0000617400006368000021000000d3
:1048440001be000073ab000055fb00000f9d00008b
:104854002a000000507200006573000073200000fd
:104864002773000027200000746f000020730000ed
:10487400746f00007020000054720000616e00002c
:10488400736d000069730000696f00006e00000022
:10489400284e00006f740000206900006d70000055
:1048a4006c6500006d6500006e74000065640000b6
:1048b400290000000d0a000000250000303200002d
:1048c400780000001b5b0000303b00003331000027
:1048d4006d5b000045520000524f0000525d000025
:1048e400200000001b5b0000303b00003337000059
:1048f4006d000000284f000056450000524600009d
:104904004c4f000057210000290000001111000045
:1049140022220000333300004444000055550000b7
:104924006666000077770000888800009999000087
:10493400aaaa0000bbbb0000cccc0000dddd000057
:10494400eeee0000cecd0000acab0000492000002c
:10495400616d0000206100002055000041520000fc
:104964005421000000550000617200007431000001
:104974000d0a000000000000494400004c450000fe
:04498400000000002f
:020000040000fa
:104988001600fa003007980041079800520798006f
:104998006307980074079800050f9800160f980091
:1049a800270f98009e0890005e009000f203070011
:1049b800100798001e009000e00f500057003200ca
:1049c8001e009000c0089000210798001e0090006b
:1049d800c00890005e0090000000e9000000400060
:1049e800808040001e009000710898005e029000d0
:1049f800ae0990007e019000ce0090001e0090004d
:104a08007a0307006e019000be0090002e0090000f
:104a18001d1d0700800078001e0090000108780026
:104a28000e089000e00f5000030032000e089000be
:104a38009e009000010878008d1d0700300b810052
:104a48000000e800300b8900d0158100e00f50000d
:104a580007003a001e009000d0158900300b810035
:104a6800e10f50000c003a008a0307000a003700e3
:104a7800700b8100e00f500007003a00d01581004c
:104a8800b00890007e009000808f500002003e0029
:104a98009e009000d11589001e009000b00890007b
:104aa800500b8100808f5000030036001e009000dc
:104ab80030089000500b8900c00b81000000e8000e
:104ac800c00b89001e009000b0089000600b8100a8
:104ad800808f5000030036001e00900030089000c0
:104ae800600b89001e0090000081e8001e00900005
:104af800300890006a00b900800078002011220078
:104b08000080400082007800a61d070010002000e9
:104b1800000f7800601d0700020037000080eb00de
:104b2800000f78001e007800e10f50000b003a00db
:104b3800700b8100e00f500008003200d015810092
:104b4800b00890007e009000808f50000300310074
:104b58007e62020000000000000000001e007800d5
:104b68000080fa00000006000a00fa0030079800ea
:104b7800410798000000eb00000f7800890107004a
:104b88003e009000900078004e00900000804000a9
:104b9800100798003e00900090007800400b8100bc
:104ba800808f50000c0036003e0090009000780086
:104bb8001e009000808f500012003600400b8100cc
:104bc8009e009000808f50000e00360010002000dc
:104bd800000f78000b0037003e009000900078002e
:104be8001e009000808f500004003e00400b8100a2
:104bf8009e009000808f50000200360010002000b8
:104c0800000f78003e0090009e0090000108780098
:104c18001e007800e00f500005003200d01581001a
:104c28000080e800b31d07001e009000380307004d
:104c380062010700200798002e009000e00f500046
:104c480003003a007e62020000000000000000003d
:104c58000080fa00000006000600fa00200798000d
:104c68000000eb00000f78002e009000e00f5000cd
:104c78000c0032004b010700410b81002e00900010
:104c88000080400010079800d01581000080e800df
:104c9800981d07001e0090001d030700470107002c
:104ca800000f78001e007800e00f500003003a0063
:104cb8007e62020000000000000000000080fa0090
:104cc800000006000a00fa00300798004107980023
:104cd8000000eb00000f78004e009000e30f50003a
:104ce800020036003000200040079800e01c070052
:104cf800d0158100be009000808f500002003a005d
:104d08000000eb00300798003e009000e00f5000d4
:104d180002003a00d0158100010037003e009000e3
:104d2800100798001e00900080109000210798003e
:104d3800ae0090004e009000808f5000430032007b
:104d4800ce0090002e009000808f500006003600a4
:104d58003e009000e00f50000800320010002000d4
:104d6800000f7800050037003e009000e00f50006b
:104d780002003a0010002000000f78001e0090008a
:104d8800801090001e00900030089000808f500026
:104d980003003a001e009000ce00900031089800f1
:104da8001e009000ce009000011098004e00900068
:104db800e40010001e009000610098001e009000a2
:104dc800500190002e0090006a00b9008000780021
:104dd8002011220000804000800f510015003a0089
:104de8001e0090000080e800421d07001e00900091
:104df800b0089000600b8100808f500003003600df
:104e08001e00900030089000600b89001e00900082
:104e18000081e8001e009000300890006a00b90088
:104e28008000780020112200008040008200780075
:104e3800dc1c07001e007800e10f500003003a0058
:104e48007e6202000000000000000000921c0700c3
:104e58000080fa00000006000400fa00100798001d
:104e6800831c0700d01581009e009000808f5000a1
:104e780002003a000000eb00100798001e009000a6
:104e8800e00f500002003a00d01581000100370001
:104e98001e009000000f78001e80e800151d070016
:104ea8001e00780020089000e00f50000300320038
:104eb8009e0078006c8040000e1d07001e80e800f0
:104ec80080007800c0152200b61c0700721c07007d
:104ed8001e009000e00f50000f003a00700b810098
:104ee800e00f5000040032007e6202000000000063
:104ef8000000000008003700e10a8100300b810043
:104f0800808f500003003a000000eb00d0158900a4
:104f180001003700680107000080fa000000060061
:104f28000600fa00200798000000eb00000f780048
:104f38002e009000100798001e009000d0009000ee
:104f4800c0152200808f50000b003a001e00900010
:104f5800a008900020152200808f50000600320023
:104f68001e00900020089000e00f500002003a0058
:104f780010002000000f78001e0078000080fa0062
:104f8800000006000400fa00100798001e009000b8
:104f9800000f78001e007800e00f50002600320055
:104fa800d01581009e007800808f500022003200ca
:104fb8002f1c07001e007800d9ff0700e10f5000e2
:104fc8001c003a001e80e800ca1c07001e0078007a
:104fd800b0089000600b8100808f500003003600fd
:104fe8001e00780030089000600b89001e81e800e0
:104ff8001e007800300890006a00b9008000780030
:10500800201122000080400082007800651c070003
:105018001e007800b0089000d0158100300890007c
:10502800808f5000030039007e62020000000000fb
:1050380000000000181c07000080fa0000000600ad
:105048000800fa00300798000000eb00000f780015
:105058003e009000100798000000eb002007980021
:105068001e009000aeff0700e10f500027003a0035
:10507800800b8100e00f50001f003a001e009000d6
:1050880030099000d0158100b00890001000200071
:10509800810f5100010031000000eb00000f780083
:1050a8001e0090000080e800921c07001e0090007f
:1050b800b0089000600b8100808f5000030036001c
:1050c8001e00900030089000600b89001e009000c0
:1050d8000081e8001e009000300890006a00b900c6
:1050e80080007800201122000080400082007800b3
:1050f8002c1c0700050037001e0090006c004000c3
:105108008000780020152200261c07001e00780069
:105118000080fa00000006000200fa008003eb009d
:105128000003eb008002eb000002eb008001eb00c3
:1051380032072000e14b2a0040be220010fe070083
:10514800000f78001e007800e10f500009003a00b7
:105158001102800000022000008070001002880008
:1051680010002000700b89000000eb00400b890044
:105178008e1b07000080fa00000006000000fa00fd
:1051880011028000000220000080700010028800d8
:105198000000eb00700b89009b1b07000080fa00e1
:1051a800000006000000fa00800b81000000e80003
:1051b800800b89000080fa00000006000400fa0055
:1051c800881f78000000eb00000f7800a81b07007c
:1051d800800b81000000e900800b8900800b8100b2
:1051e800e00f50003f003a00300b8100e00f500004
:1051f8003c0032000000eb00100798001c0037004c
:10520800c00a810030009000000478006c0044005f
:10521800381c07000880e800361c0700b808900012
:10522800600b8100808f5000020036003808900023
:10523800600b89000881e800380890006a00b9000e
:105248008000780020112200008040008200780051
:10525800d41b0700b8089000d015810030089000d2
:10526800808f5000020039001000200010079800bd
:10527800900a8100e00f5000e1ff3a00900b810096
:10528800e00f50000a003200040037002e0007002b
:10529800900b81000000e900900b8900900b8100c1
:1052a800e00f5000f9ff3a001000200010079800a6
:1052b8001e009000e10f500003003200a00b810097
:1052c800e10f500007003a0010002000000f78009e
:1052d8000000eb00a00b89007e62020000000000c5
:1052e800000000006c1b07001e0078004f047800c7
:1052f8000080fa00000006000200fa005c1b0700ac
:10530800400b8100000f7800631b07001e00780027
:105318000080fa00000006000400fa000000eb001c
:10532800000f7800400b8100100798001e009000c5
:105338000080fa00000006000000fa00300b81002f
:105348000080fa00000006000600fa00800b8100c9
:10535800e00f500053003a00400b81000000e800c5
:10536800400b8900400b8100e00f500017003a0005
:10537800700a8100000f7800800a8100700a890095
:105388009e007800810a8900b00b81000000e800c7
:10539800b00b8900700a810010007800e00f5000ff
:1053a80003003a000080eb00e01589000700370091
:1053b800700a8100300090003000900010079800bb
:1053c8001e00900010009000e0158900410b81003c
:1053d800e0158100808f500035003900700a810087
:1053e80010007800e00f500003003a000080eb0046
:1053f800e01589002e003700700a81003000900007
:1054080030009000100798001e0090009000900057
:1054180021079800410b81002e009000808f5000da
:10542800030031002e009000e015890020003700ad
:105438001e0090000080e800ae1b07001e009000d0
:1054480020089000e00f5000030032001e0090007a
:105458006c004000a71b07001e009000b0089000d9
:10546800600b8100808f5000030036001e00900002
:1054780030089000600b89001e0090000081e80051
:105488001e009000300890006a00b9008000780083
:10549800201122000080400082007800411b070094
:1054a800ceff3700900b81000000e800900b8900c8
:1054b8000080fa00000006000200fa00800b81005c
:1054c800e00f50000700320010002000a00b8900f8
:1054d80026003700600b81000000e900600b89009e
:1054e8000100370000000000600b81006a00b9006d
:1054f8008000780020112200008040001000780011
:10550800e00f5000f3ff3200600b81006a00b90021
:105518008000780020112200008f40001e007800d3
:1055280010009000900090001e0078001100980074
:105538001e007800900090001e0178006400410071
:10554800808f500005003a001e007800100090007f
:10555800900090001e007800110098001e0078004e
:105568001000900030009000d01589000080fa00eb
:10557800000006000600fa001007980021079800ae
:10558800d01581006c004000800078001e0090005b
:10559800261b0700d01581000080e800551b070076
:1055a8002e009000e10f400006003a00d01581005f
:1055b8000080e80080007800c0152200f91a070072
:1055c80005003700410b81002e009000008f40003d
:1055d8001e007800ce0007000080fa0000000600d8
:1055e8000600fa00200798002e0090003000900076
:1055f80030009000100798001e0090006c004000da
:105608003c1b0700800b8100e00f500016003a0099
:105618001e0090000080e800361b07001e00900066
:10562800b0089000600b8100808f500003003600a6
:105638001e00900030089000600b89001e0090004a
:105648000081e8001e009000300890006a00b90050
:10565800800078002011220000804000820078003d
:10566800d01a0700050037001e0090006c004000ab
:105678008000780020152200ca1a07001e0090003a
:10568800b0089000d015810030089000808f50003d
:105698000300390010002000000f780002003700d6
:1056a8000000eb00000f78001e0078000080fa0070
:1056b800000006000200fa00000f7800b10b81001c
:1056c8001e00780001087800410b81001e00780058
:1056d800110098000080fa00000006000600fa0099
:1056e8001007980021079800611a07002e00900003
:1056f80010007800e10f400003003a000000eb00c2
:10570800000f7800250037001e00900090007800f8
:10571800b00b8100808f5000080032001e009000fe
:1057280090009000400b8100808f500003003e00e5
:1057380010002000000f780018003700410b81008e
:105748001e00900010009000808050002e009000f5
:1057580010007800808f50000e0031002e0090005d
:10576800900078001e00900010019000400b81000e
:1057780000005100808040002e0090000108780051
:105788001e009000cbff07000000eb00000f780020
:105798000200370010002000000f78003e1a0700b2
:1057a8001e0078000080fa00000006000000fa00e1
:1057b80010002000a00b89000080fa0000000600fd
:1057c8000200fa00000f78004e00070090088100e0
:1057d800e10f5000030036007e6202000000000066
:1057e800000000007a1b0700f7ff37000a00fa00e4
:1057f800000f7800110798002207980033079800d7
:10580800440798009e0078007a80400042002000fb
:105818009e0090001bed07009e0078000040eb0002
:10582800d05898002e009000e30f50000200360078
:1058380030002000200798001e007800ae0090007d
:10584800310898001e007800ae0090000110980002
:105858001e80e8004c1a07009e0078006c8040000b
:10586800491a07001e0078009e0078004100980041
:105878002e009000e40010001e00780061009800df
:105888001e0078009e007800110898000080fa0039
:10589800000006000200fa000000eb00000f78008c
:1058a800070037001e0078006a00b9008000780001
:1058b80020112200008040001a1a07001e0fe8007d
:1058c8001e007800e30f5000f6ff3600a0132200f8
:1058d800141a070040142200121a0700201522008b
:1058e800101a0700c01522000e1a0700a013220084
:1058f800700a890040142200800a89000080fa009a
:10590800000006000000fa000080fa00000006000f
:105918000200fa00000f7800d01581009e00780080
:1059280011009800400b81009e007800808f500085
:1059380005003100d01581008080e800800a8100d0
:105948003a1a07000a003700d01581008080e80065
:10595800700a8100351a0700e01581009e00780062
:10596800808f5000020031001e007800e015890089
:105978000080fa00000006000600fa0010079800f0
:1059880021079800200220007c1a0700000f7800e9
:105998001e007800e00f50001b0032002e0090001f
:1059a800e00f500004003a001e0090000000400084
:1059b800721a0700010037002e0090009e00780040
:1059c800c00898001e00780040089000e00f5000c2
:1059d80005003a001e0078008e1a07000000eb0050
:1059e800000f7800080037001e00900000004000fb
:1059f800800078001e0078004008900001017800bf
:105a0800510a200088ec07001e0078000080fa0088
:105a1800000006000200fa00d0158100000f78008f
:105a28001e0078000080fa00000006000400fa005a
:105a3800100798001e009000000f78001e007800e4
:105a4800b0089000d015810030089000808f500079
:105a58002b003100d015810030089000e4001000c0
:105a68001e007800610098001e0078005001900028
:105a78001e007800300890006a00b90080007800a5
:105a88002011220000804000800f510018003a00c9
:105a98001e80e800171a0700d0158100b008900092
:105aa8001e007800310898001e007800b0089000a9
