:020000040000fa
:080000000002040000000000f2
:020000040000fa
:1000080056340000563400005634000056340000c0
:1000180056340000563400005634000056340000b0
:100028005634000056340000563400005c290000a5
:10003800563400005634000056340000e632000002
:100048005634000056340000563400005634000080
:100058005634000056340000563400005634000070
:100068005634000056340000563400005634000060
:100078005634000056340000563400005634000050
:100088005634000056340000563400005634000040
:1000980056340000563400008e270000de2700008a
:1000a8005634000056340000563400005634000020
:1000b8005634000056340000563400005634000010
:1000c8005634000056340000563400005634000000
:1000d80056340000563400005634000056340000f0
:1000e80056340000563400005634000056340000e0
:1000f80056340000563400005634000056340000d0
:1001080056340000563400005634000056340000bf
:1001180056340000563400005634000056340000af
:10012800563400005634000056340000563400009f
:10013800563400005634000056340000563400008f
:10014800563400005634000056340000563400007f
:10015800563400005634000056340000563400006f
:10016800563400005634000056340000563400005f
:10017800563400005634000056340000563400004f
:10018800563400005634000056340000563400003f
:10019800563400005634000056340000563400002f
:1001a800563400005634000056340000563400001f
:1001b800563400005634000056340000563400000f
:1001c80056340000563400005634000056340000ff
:1001d80056340000563400005634000056340000ef
:1001e80056340000563400005634000056340000df
:0801f8005634000056340000eb
:020000040000fa
:1002080056340000563400005634000056340000be
:1002180056340000563400005634000056340000ae
:100228005634000056340000563400005c290000a3
:10023800563400005634000056340000e632000000
:10024800563400005634000056340000563400007e
:10025800563400005634000056340000563400006e
:10026800563400005634000056340000563400005e
:10027800563400005634000056340000563400004e
:10028800563400005634000056340000563400003e
:1002980056340000563400008e270000de27000088
:1002a800563400005634000056340000563400001e
:1002b800563400005634000056340000563400000e
:1002c80056340000563400005634000056340000fe
:1002d80056340000563400005634000056340000ee
:1002e80056340000563400005634000056340000de
:1002f80056340000563400005634000056340000ce
:1003080056340000563400005634000056340000bd
:1003180056340000563400005634000056340000ad
:10032800563400005634000056340000563400009d
:10033800563400005634000056340000563400008d
:10034800563400005634000056340000563400007d
:10035800563400005634000056340000563400006d
:10036800563400005634000056340000563400005d
:10037800563400005634000056340000563400004d
:10038800563400005634000056340000563400003d
:10039800563400005634000056340000563400002d
:1003a800563400005634000056340000563400001d
:1003b800563400005634000056340000563400000d
:1003c80056340000563400005634000056340000fd
:1003d80056340000563400005634000056340000ed
:1003e80056340000563400005634000056340000dd
:0803f8005634000056340000e9
:020000040000fa
:100400000f0122000e7f22000e0188000000000074
:100410000c00070080982200010020001100070056
:10042000000020000000e000020032000000020096
:100430000000000030340200000000000040da003c
:100440000000fe004440a900001420000000e0006d
:100450000300320000002000a00188004440a800f2
:100460000000060091018800800078000000eb0089
:1004700015003700e280400032a0b4009101ba00bc
:10048000e280400032a0b4009102ba00e280400055
:1004900032a0b4000002eb00472bde00f507b200eb
:1004a000602ce10004003a000059eb008301e900f0
:1004b000fdff3e00040037006128e100010032002a
:1004c0000082eb00040007001101ba000200e00006
:1004d000e8ff3a00000006003159ba008301e90044
:1004e0000c0032002159ba008301e90008003200f3
:1004f0000400e00003003a00e280400032a0b400b3
:10050000f5ff370011d9ba008301e900faff3a007c
:100510008100e800e180400032a0b4000000060045
:1005200026160400000000003a2e0400000000001f
:10053000c425040000000000842504000000000021
:10054000e21e040000000000ea2004000000000099
:10055000d82f040000000000283004000000000034
:100560000a2b040000000000982b0400000000008b
:10057000f030040000000000122d04000000000014
:1005800003f0a200889fbe008a9fbe008c1f7800e7
:1005900020010700270133006450e1004f003200c2
:1005a0006420e1005200320003826c0007003b002f
:1005b0000905d0000306d000820f54000c065d0030
:1005c0000200390002003200890178000306780039
:1005d0008582550004003d000003fd008103fd00fd
:1005e0008502ea008b854200840f720002003b0006
:1005f00060001000e08018006011b8000005eb00fa
:100600007a28e1000a00390006007800c75ddd00a5
:10061000f707b200878075002d00370082817100d6
:100620000a017800610560008180d1000080d3005c
:100630008502e900f9ff3b0006044000878448007a
:1006400002003b0060041400e0841c000988a30041
:10065000070032008a8171008281710061016400ab
:100660008904d1000884d3008b05e8001700370007
:100670000978a30013003a000b00e00013003400d7
:100680008b05e9000804440089844c000a44740086
:100690000978a3000d003a000b00e00007003400c9
:1006a0008b05e9000804440089844c0001003a00ed
:1006b0000b0020000978a300f7ff32000001eb00d7
:1006c00002003700828171000a017800960007005d
:1006d0000cf0a70001f0a000df0037006420e1006b
:1006e00002003a00838f6c00df0033000801be0077
:1006f0000200be00d8003700889fbe008a9fbe005f
:100700008c1f7800c3000700ca00330003866c000a
:100710006450e1002e0032006420e100330032001a
:100720006150e1002f0032006120e1003100320011
:1007300085855500eb07b000090020000804200063
:10074000050037000804440089844c000a00310089
:100750000603430087834b000001530081815b0047
:10076000f8ff33000203be000800a00008044400a4
:1007700089844c00f6ff3900c639dd00830173001f
:1007800001003200130020008904d1000884d30046
:100790000998a300050032000800a7000300a0008c
:1007a0008904d1000884d3008b05e8008904d100b6
:1007b0000884d3000001eb000281d2005a00070038
:1007c00001f0a1000cf0a70001f0a000a20037008a
:1007d0006420e100a40032000801be000200be0057
:1007e000f7ff37006120e1009f0032006000b80091
:1007f000f3ff37000000200001f82700f0ff37006a
:10080000839f68000100e00002003d0060001000ce
:10081000e08018000300e00002003d0060011100cc
:10082000e0811900c70007004f00e00002003b0014
:1008300060001000e0801800000006000001be000b
:100840005f0007000470a70003f0a10003f8a300f5
:1008500013003a006509b1001000320009003500ac
:100860006928e100020035000100280000000500b1
:1008700000004000818048008502e900fcff3a004a
:1008800000000600f88f4200050035008100d1000d
:100890000080d3008502e800fcff3a00000006005b
:1008a0008000eb0000000500889fbe008a9fbe000c
:1008b000010578000000e000180032000004be00ce
:1008c0006011b8006b0920000982cf0002003900d6
:1008d0000882cf000441b000694252000e0032008d
:1008e00008003b0082817100610164008904d1002d
:1008f0000884d3008b05e8000442e800f9ff3a00c1
:10090000050037000804440089844c008b05e90089
:100910000442e900fbff3a00030007004f05be0058
:100920004f04be00000006008100200061805500d9
:100930000b003d000b00200061fe2f000100e100d4
:100940001d00340082817100610164008904d100be
:100950000884d3000000e800faff3a00710020008c
:1009600061006400030070000200600009003200b2
:1009700061044400e0844c000988a50005003200b1
:100980008b05e8006808e10002003a008904d10004
:100990000884d300f20f20000258e10005003d005a
:1009a000c75ddd00f907b200898075000800780096
:1009b000000006000bf827008b00780000000500ff
:1009c000c70ade00f107b200f50fb20008003200de
:1009d000e1cf4200020032000170a00024000500b7
:1009e000810f70000100320004080500440005007a
:1009f000810f700002003a00140005008502e90032
:100a00000000400081c04800fcff3b000170a000d6
:100a1000240005000004be00e9ff07000003be003b
:100a20000405be000200be00e5ff0700844f75000c
:100a3000000006000200be006450e1000500360020
:100a40006420e100020036000968a30001003a00ba
:100a50000800be000160a0004f0678004f05be00f0
:100a60004f04be0000000600f0ff2f00f1ff27003a
:100a7000f9ff3700889fbe008a9fbe008c1f780058
:100a8000e4ff0700ebff330003866c006450e100d5
:100a9000240032006420e100270032006150e100b0
:100aa000220032006120e100210032008b854200eb
:100ab000eb07b1000134b800003ab8000804420066
:100ac00089844a00013ab8000030b80088804000ac
:100ad00009014a0004003300000040008180480002
:100ae000020149008b05e900c909dd00830170009e
:100af0000100320013002000c814de004814dd009d
:100b00004709de001200b200c808de000884700049
:100b100085ff070001f0a1000cf0a70001f0a00084
:100b2000cdff37006120e100cfff32000801be0099
:100b30000200be00f7ff37006150e100fcff3a0001
:100b4000c9ff37006022b800060220000000d00074
:100b50008180d2000482d2008582d2000000a000f1
:100b60000202520083825a00030031000202420056
:100b700083824a000000a1000603e900f3ff3a0067
:100b8000000006008001780002003700b1597800ab
:100b9000040178000202e900e00f5100fbff3a0077
:100ba00000000600800178000200370081597800bb
:100bb000040178000202e900e00f5100fbff3a0057
:100bc000000006009041780031c1510004003a0055
:100bd000e0cf5100020032000000e800f9ff3700ca
:100be0000200fb000000060080017800314178001f
:100bf00082597800e04f5100fcff3a0000000600e7
:100c000080017800060037000201e90011427800f7
:100c100084597800e04f5200060032008100e8005d
:100c2000e00f5100f8ff3a00020037008059eb0056
:100c3000010178008200e900e00f5100fbff3a005b
:100c4000000006000c00fa00889fbe000004780037
:100c5000f0ff2700d0bf9f008004eb0099bf9f00ea
:100c600088bf9f00a8bf9f00200c2000b0bf9f003e
:100c700078815700cfb097007080570007000700b9
:100c80000fb89700094878008fb897000880500087
:100c90004f04be000080fa00000006008f03b00081
:100ca000889fbe008a9fbe008c9fbe008e1f78006a
:100cb000c0b79f00e1af9f00b2af9f000000eb0004
:100cc000b0b79f00f2023700efa897008100e8005c
:100cd000e1af9f0052c2b300824f500006003a00bd
:100ce0000047eb0003c3b30065415100b1c2b3003c
:100cf0006fa8970011003700cfb197003301900023
:100d00000204b200040032001301780000497800a8
:100d10008209e800050037000000fb00cfb0970013
:100d2000e7020700e10f4000d90232003fb297000e
:100d30000402e800b4b79f00d502370010427800e3
:100d4000d5c2b300854f52000c0032008002e8008b
:100d5000d6c2b300864f520005003c00824f5200bd
:100d600009003200814f52000e003a00080037009f
:100d7000834f52000b003a00070037000e34a000ea
:100d80000000e800edff37000e04a000030037006c
:100d90000e14a000010037000e24a000050078000a
:100da000e6ff3700e0af9f006200670001003200fd
:100db0000e04a10068006700010032000e24a100ab
:100dc0000400fb000003b100e90f50000d003e00dd
:100dd000000020006fa997006a00b9000003b1006d
:100de0009200fb0001004000d200fb000103b100b3
:100df000e98f5000f8ff3600c0af9f00e2af9f00c0
:100e00000c0037000005eb00caaf9f00a3c2b3007f
:100e1000834f520007003a00bfad97004b067800a1
:100e2000bbaf9f00ccaf9f006fa897000000e80009
:100e3000e0af9f008000eb00d1af9f00e3c2b300a2
:100e40006fa9970092cf11001c003a00e4c1510035
:100e50000201e800e2af9f0012427800834f520087
:100e60000d003a00bfaa970045037800b5af9f0078
:100e7000d6af9f00820378008703e800e7af9f00aa
:100e80000e0037006a00b9000003b1000200400004
:100e90008301e800020037005fa89700efa99700e0
:100ea0001301fb0001fd2f0082804000e98f5000fc
:100eb000f4ff3600d0af9f00e3af9f0032c6b3000f
:100ec000c1c6b300efaa970035427800c47f9f00e7
:100ed00038c7b300884f52001a00320008003c00a7
:100ee000824f520097003200814f52000c003200b6
:100ef000e5af9f00e04f52006a023200b0003700b9
:100f0000e5af9f0053c7b300834f5200b2003200d9
:100f1000e3c14100834f5200a9003a0006003700a8
:100f2000f00167000040eb0001003a0000c1b3008f
:100f300000477700e4ff37000e4178000274a000fc
:100f4000a7003700e5af9f003fad97004a02780049
:100f5000baaf9f00f4af9f00e00f520002003a00ca
:100f60000cff2100fcaf9f000000eb0080b79f004a
:100f70007fa897008fb097001fb19700afb197007f
:100f8000010037008500e8008102780061427800a6
:100f9000e04f5200fbff3a00f0af9f0081b79f0087
:100fa00092b79f00a3b79f00dfaa9700e08f52007f
:100fb000050032000fb39700868f52000200310007
:100fc0008503780087b79f000fb297000006eb00fb
:100fd0004fac9700840f5400010036000406540003
:100fe0008e047800688764002f003a000c007800b7
:100ff00008c2b300cfb69700100037003d00900044
:101000000004b200040032001d0078000848780097
:10101000800ee800050037008d00780000022000f7
:1010200027020700e10f4000030032003fb59700a0
:101030000a05e800bab79f000c0078000c06e9002a
:10104000e00f5000edff3a00170037003d00900020
:101050000004b200090032009d0178000801780008
:101060003240780080497800830ee800020478005e
:10107000e04f500008003a001000370008017800e7
:101080003200fb00020478008d0078000c0207009b
:10109000e10f4000090032003fb097000000e80077
:1010a000b0b79f00050037007fac97008fb4970062
:1010b0001fb59700afb59700cfb69700090078002d
:1010c0008004e900e00f5000e0ff3a00f8af9f0015
:1010d00089b79f009ab79f00abb79f00e00f5700fa
:1010e000eb01320011003700380090000004b2001c
:1010f00004003200180078000d487800000ce80069
:10110000050037008800780000022000ec0107008d
:10111000e10f400003003200bfb297008502e800f3
:10112000b5b79f000e067800020037000dc2b3006d
:101130004fb497000c07e900e00f5600eaff3a00b1
:10114000d3013700e5af9f003fab9700460478001e
:10115000b6af9f00cfc4de00090578008a0578008d
:101160000802be000a03be004822de00482edd0051
:1011700004027600c47f9f007006670009003200f9
:10118000e04f520007003200e14f420005003200fc
:10119000d47f9f00e87f9f002100200081b79f003f
:1011a00003003700d87f9f001200200082b79f0005
:1011b000d3fb2f0083814700f3af9f007aff3700f6
:1011c000c4fb2f0004824700f4af9f0015002000ed
:1011d00085b79f0074ff370002ccb300024177004f
:1011e0000281fb00a2af9f007003610086a79f00f1
:1011f000120032003fad97004a04be00baaf9f0014
:10120000d8a79f00e9a79f008005eb00fba79f00e0
:101210000006eb008caf9f005fa09700efa0970047
:101220007fa197008fa99700f0af9f0081b79f0023
:1012300092b79f00a3b79f000b003700bfa897008d
:1012400041027800b1af9f0004047800090020003b
:101250000a0020000b002000f8af9f0089b79f0014
:101260009ab79f00abb79f00dfac9700e08f5400a8
:101270000d003a001a002000daaf9f007fa8970007
:101280008fb097001fb19700afb19700e00f5000eb
:10129000e08f5800e00f5900e08f59000200320043
:1012a0008000eb00d1af9f002fa99700020cb20085
:1012b00092af9f0004082000840f51001b003200f1
:1012c000040c2000840f510033003a0012c0b30018
:1012d000c27f9f00a5f22100100037000400fb0030
:1012e0004300dd00008042005001be004000be000f
:1012f0007fac97008fb497001fb59700afb59700ec
:101300000040e10001c8e10002d0e10003d8e100a3
:10131000210039000442e800c47f9f004f7a970003
:10132000f44f5200edff3a001b00370012c0b3002b
:10133000c27f9f0004012000050020006033b80038
:10134000120037007fac97008fb497001fb597004d
:10135000afb597000440e10005c8e10006d0e10008
:1013600007d8e1000c003900490020000402d00039
:101370008582d2000683d2008783d2008904e900e7
:10138000faff3a000040e800c07f9f004f789700c6
:10139000f04f5000ebff3a004f7d97000a02fb0030
:1013a000dfad97008b0f520002003d00cb7f9f0006
:1013b000040037005fae9700840f560001003d0027
:1013c000d4af9f004fa89700e00f500005003200f7
:1013d000afa8970063826000020032000000e900bd
:1013e000c0af9f004f7997000202fb000007eb009f
:1013f000cfa99700848f5100010034000487510069
:10140000afaa9700648262004a00320062826200e2
:1014100005037800e1026300e00f52001b00320078
:10142000cfb39700370290000404b20009003200e5
:1014300017037800b4c2b300e08f520001003200fd
:1014400004c2e800044b78004fb49700060ce80093
:101450000a003700d4022000e08f520001003a0059
:101460000482e900cfb0970004007800140107005f
:1014700000027800e10f420018003200bfb497006c
:101480008904e800b9b79f0014003700e08f5200cc
:10149000120032004fb597003a0290000404b200e7
:1014a000050032001a02780002c2b300024a780036
:1014b000040de80006003700cfb0970000022000be
:1014c000ff00070000027800e10f42000300320035
:1014d000bfb597008b05e800bbb79f00e00f570032
:1014e000c500320008c3b300bfb697004fb69700df
:1014f0003c0090000004b200040032001c007800a0
:1015000008487800000ee800050037008c007800dd
:1015100000032000ea000700e10f40000100320054
:101520008d06e8000e07e900f1ff3a00bdb79f0005
:10153000b1003700e00f5700160032002fae9700c1
:101540006802660013003a0008c2b300bfb69700f5
:101550004fb697003c0090000004b2000400320037
:101560001c00780008487800000ee80005003700ed
:101570008c00780000022000d1000700e10f40003d
:10158000010032008d06e8000e07e900f1ff3a0085
:10159000bdb79f002fa8970062026000e1026000c3
:1015a000e00f52001b003200cfb0970031029000d4
:1015b0000404b2000900320011037800b4c2b30081
:1015c000e08f52000100320004c2e800044b7800b2
:1015d0004fb197000609e8000a003700d402200046
:1015e000e08f520001003a000482e900cfb097007a
:1015f00004007800b200070000027800e10f42000a
:101600007d003200bfb197008301e800b3b79f00af
:1016100079003700e08f520077003200cfb2970098
:10162000350290000404b200050032001502780073
:1016300002c2b300024a7800840ae80006003700bc
:10164000cfb09700000220009d0007000002780044
:10165000e10f4200680032003fb397000603e80044
:10166000b6b79f00640037000e07e90000082000ad
:101670001fac9700800f540032003200000c200095
:10168000800f54003e003a004370dd008fa49700a5
:10169000e08f54001a0032000406be00aaf22100b6
:1016a000000045003004be002005be000801be0059
:1016b0000400be0023fd0700c07f9f000000fb0068
:1016c000cf80de000801be00330107000001560094
:1016d00081815e0092a79f00a3a79f008001eb007d
:1016e000b3a79f000002eb00c4a79f001fa29700b2
:1016f000afa297003fa39700cfa397000d0037003c
:10170000a8f2210068017800811f7800110009000b
:101710000282d800cf007800a2002000811f78004c
:10172000110009000280d80001007800cf00780085
:10173000c07f9f00cf7c97000943b000c97f9f0006
:101740000f0037004270dd000605be000404be0035
:10175000000678000c06e900050033008b05d10077
:101760000a85d3008984d3000884d300f9ff3700a9
:101770006f00640071ff210061407800c07f9f000e
:101780004fb19700320090000004b2000800320010
:1017900082017800130178004f78970000497800a3
:1017a0008209e800e04f50000f003a0019003700ae
:1017b0004f7c97000800fb00cfb09700d4b79f0084
:1017c000e5b79f00f6b79f0087bf9f003c0007006a
:1017d0005fb29700efb297007fb397008fbb97007f
:1017e000e10f40000b003200bfb497008904e8000d
:1017f000b9b79f00070037000e057800caaf9f00f9
:101800005faf97007faa97008fb297001fb3970032
:10181000afb39700e00f570093ff3a004faf970028
:10182000f4af9f0085b79f0096b79f00a7b79f00b2
:10183000afa897006881600015003200e00f5700e4
:101840001300340008c2b300bfb697004fb697002c
:101850003c0090000004b200040032001c0078003c
:1018600008487800000ee800050037008c0078007a
:101870000002200012000700e10f400001003200ca
:101880008d06e8000e07e900f1ff3a00bdb79f00a2
:101890006fa9970012407800c07f9f00e04f500072
:1018a00009fd3a003fb097004f0778004f06be0091
:1018b0004f05be004f04be008f03b10000000600bc
:1018c000889fbe0001047800b8009000628160002b
:1018d0008084eb003c003200810178000320b200dc
:1018e0001801900002003a00e00f510036003a0063
:1018f0000190a0003104980080047800f90fb20034
:10190000e00f510002003a0028009000000c78001f
:10191000ea8f540006003a00010078000008b20087
:1019200003003a0088007800d0002000e4ff0700a0
:1019300018009000d8009000810f50000b0032007a
:101940000000e800100498001800780009487800aa
:10195000000ce80010c0b30081002200804878002d
:10196000ea8f540018003a0005003700880078001c
:101970000940780017000700800478001200370043
:10198000380090000010b2000f00320018019000e3
:10199000a8009000480090005000070098009000b8
:1019a000810f500004003200380090000003b300a3
:1019b000300498008084eb000000eb0010049800d5
:1019c00028009000000c7800090078004f04be0049
:1019d000000006000200fa00889fbe00a0ff9f00e2
:1019e0000104780038009000800078000104b20003
:1019f00033003a00e200600005003a000003b30043
:101a000030049800110498000080eb002e0037008d
:101a1000d8049000e08f540006003a001200200025
:101a2000e6805700480090002c0007001904980039
:101a300023003700a8009000e08f500008003a0013
:101a4000b100220021049800010c78002100200040
:101a500051049800110498000030a0003004980050
:101a600018019000a8009000480090001b0007009b
:101a7000280090008080eb0011049800aff89700d8
:101a800001487800000ce8002ff89700ea4f50005a
:101a90000b003a00380090000010b200080032003d
:101aa00018019000a8009000480090000b0007006b
:101ab0000000eb0010049800a8009000010c7800d2
:101ac000aff897000100fb004f04be000080fa0051
:101ad0000000060000c0da00000006000a00fa005c
:101ae000e20f500021003e0070008100e10f500025
:101af00006003200852320004423200023232000f9
:101b000000232000e08f520004003a0085222000cc
:101b1000442220002322200000222000060028006a
:101b20009003630002003a00870a780010087300ef
:101b3000004020001300600001003a0013a0a00044
:101b40000200780006003700930278000510b2000a
:101b5000fdff3200b102fb00050a78000000e90039
:101b6000e00f5000f8ff3a00080037003300200073
:101b7000b3bf9f00c0bf9f00d1bf9f00e2bf9f00c7
:101b80006a805700d3ff07006fb997000200780002
:101b90000080fa0000000600020ab900001bb9002c
:101ba0000200b800810042008100430000000600ee
:020000040000fa
:101bb00065630000686f000000770000686f000038
:101bc000616d00006900000063790000736100002e
:101bd000740000006c730000004400006f200000df
:101be000492000006c6f00006f6b0000206c00004b
:101bf000696b00006520000061200000554e000068
:101c000049580000206d0000616300006869000011
:101c10006e6500003f210000007200006d000000b2
:101c20004e690000636500002074000072790000b6
:101c30002c2000006a650000726b00002e0000007e
:101c400049200000646f00006e270000742000002f
:101c5000756e00006465000072730000746100001e
:101c60006e6400002027000025730000270000009c
:101c70000d0a000000000000514300006f6e0000dc
:101c8000734200003100000051500000726f0000ec
:101c90006442000032000000514300006f6e0000fb
:101ca000734200003300000051500000726f0000ca
:101cb000644200003400000051500000726f0000c8
:101cc0006442000035000000514300006f6e0000c8
:101cd00073420000360000001b5b0000303b000038
:101ce000333100006d5b000045520000524f000090
:101cf000525d0000200000001b5b0000303b000034
:101d0000333700006d000000284f000056450000ea
:101d1000524600004c4f000057210000290d0000e2
:101d20000a000000111100002222000033330000dd
:101d300044440000555500006666000077770000b7
:101d40008888000099990000aaaa0000bbbb000087
:101d5000cccc0000dddd0000eeee0000cecd0000ba
:101d6000acab0000492700006d200000616e000050
:101d7000204c0000434400002100000049200000e6
:101d8000616d0000206100002055000041520000fc
:101d9000542100000d0a0000000000004c43000028
:101da00044000000486500006c6c00006f200000db
:101db000776f0000726c00006421000000000000da
:101dc00096000000c8000000fa0000002c0100008e
:101dd0005e01000090010000c2010000f40100005b
:101de000425400006573000074310000004200009e
:101df000546500007374000032000000434f00007f
:101e00004d54000078000000434f00004d52000088
:101e100078000000496e0000744d000061740000fd
:101e200068000000494400004c450000000000002c
:020000040000fa
:101e30001600fa00300798004107980052079800f2
:101e40006307980074079800050f9800160f980014
:101e5000270f98009e0890005e009000e6030700a0
:101e6000100798001e009000e00f5000570032004d
:101e70001e009000c0089000210798001e009000ee
:101e8000c00890005e0090000000e90000004000e3
:101e9000808040001e009000710898005e02900053
:101ea000ae0990007e019000ce0090001e009000d0
:101eb000710307006e019000be0090002e0090009c
:101ec0006c0c0700800078001e009000010878006c
:101ed0000e089000e00f5000030032000e08900042
:101ee0009e00900001087800dc0c070030f38000b1
:101ef0000000e80030f3880080f88000e00f500018
:101f000007003a001e00900080f8880030f380003f
:101f1000e10f50000c003a007e0307000a00370072
:101f200070f38000e00f500007003a0080f8800056
:101f3000b00890007e009000808f500002003e00ac
:101f40009e00900081f888001e009000b00890006c
:101f500050f38000808f5000030036001e00900078
:101f60003008900050f38800c0f380000000e800c3
:101f7000c0f388001e009000b008900060f380005d
:101f8000808f5000030036001e0090003008900043
:101f900060f388001e0090000081e8001e009000a1
:101fa000300890006a00b9008000780020e121002c
:101fb0000080400082007800670f070010002000ba
:101fc000000f7800af0c0700020037000080eb0024
:101fd000000f78001e007800e10f50000b003a005f
:101fe00070f38000e00f50000800320080f880009d
:101ff000b00890007e009000808f500003003100f8
:10200000e033020000000000000000001e00780025
:102010000080fa00000006000a00fa00300798006d
:10202000410798000000eb00000f780080010700d6
:102030003e009000900078004e009000008040002c
:10204000100798003e0090009000780040f3800058
:10205000808f50000c0036003e0090009000780009
:102060001e009000808f50001200360040f3800068
:102070009e009000808f50000e003600100020005f
:10208000000f78000b0037003e00900090007800b1
:102090001e009000808f500004003e0040f380003e
:1020a0009e009000808f500002003600100020003b
:1020b000000f78003e0090009e009000010878001c
:1020c0001e007800e00f50000500320080f880000c
:1020d0000080e800740f07001e0090002c0307002a
:1020e00059010700200798002e009000e00f5000d3
:1020f00003003a00e033020000000000000000008e
:102100000080fa00000006000600fa002007980090
:102110000000eb00000f78002e009000e00f500050
:102120000c0032004201070041f380002e009000b5
:10213000008040001007980080f880000080e800d0
:10214000590f07001e009000110307003e01070011
:10215000000f78001e007800e00f500003003a00e6
:10216000e033020000000000000000000080fa00e0
:10217000000006000a00fa003007980041079800a6
:102180000000eb00000f78004e009000e30f5000bd
:102190000200360030002000400798002f0c070096
:1021a00080f88000be009000808f500002003a004e
:1021b0000000eb00300798003e009000e00f500058
:1021c00002003a0080f88000010037003e009000d5
:1021d000100798001e009000b0089000210798009a
:1021e000ae0090004e009000808f50003a00320008
:1021f000ce0090002e009000808f50000600360028
:102200003e009000e00f5000080032001000200057
:10221000000f7800050037003e009000e00f5000ee
:1022200002003a0010002000000f78001e0090000d
:10223000ce009000310898004e009000e40010009d
:102240001e009000610098001e0090005001900058
:102250002e0090006a00b9008000780020e1210083
:1022600000804000800f510015003a001e009000d1
:102270000080e8000c0f07001e009000b0089000de
:1022800060f38000808f5000030036001e00900035
:102290003008900060f388001e0090000081e80084
:1022a0001e009000300890006a00b900800078009d
:1022b00020e121000080400082007800a60e070087
:1022c0001e007800e10f500003003a00e0330200e6
:1022d0000000000000000000ea0b07000080fa0088
:1022e000000006000400fa0010079800db0b07004e
:1022f00080f880009e009000808f500002003a001d
:102300000000eb00100798001e009000e00f500046
:1023100002003a0080f88000010037001e009000a3
:10232000000f78001e80e800df0e07001e00780016
:1023300020089000e00f5000030032009e0078005b
:102340006c804000d80e07001e80e80080007800f6
:10235000c0e52100800e0700ca0b07001e00900098
:10236000e00f50000f003a0070f38000e00f5000c3
:1023700004003200e0330200000000000000000012
:1023800008003700e1f2800030f38000808f5000b9
:1023900003003a000000eb0080f8880001003700dd
:1023a000680107000080fa00000006000600fa003d
:1023b000200798000000eb00000f78002e0090002e
:1023c000100798001e009000d0009000c0e521008a
:1023d000808f50000b003a001e009000a008900073
:1023e00020e52100808f5000060032001e00900082
:1023f00020089000e00f500002003a00100020007a
:10240000000f78001e0078000080fa00000006002f
:102410000400fa00100798001e009000000f7800da
:102420001e007800e00f50002600320080f8800087
:102430009e007800808f500022003200870b07003a
:102440001e007800d9ff0700e10f50001c003a0081
:102450001e80e800940e07001e007800b00890006f
:1024600060f38000808f5000030036001e0078006b
:102470003008900060f388001e81e8001e0078009c
:10248000300890006a00b9008000780020e1210047
:1024900000804000820078002f0e07001e007800a8
:1024a000b008900080f8800030089000808f5000c5
:1024b00003003900e03302000000000000000000cb
:1024c000700b07000080fa00000006000800fa0008
:1024d000300798000000eb00000f78003e009000ed
:1024e000100798000000eb00200798001e009000e5
:1024f000aeff0700e10f500027003a0080f3800094
:10250000e00f50001f003a001e00900030099000bc
:1025100080f88000b008900010002000810f51006a
:10252000010031000000eb00000f78001e00900059
:102530000080e8005c0e07001e009000b0089000cc
:1025400060f38000808f5000030036001e00900072
:102550003008900060f388001e0090000081e800c1
:102560001e009000300890006a00b90080007800da
:1025700020e121000080400082007800f60d070075
:10258000050037001e0090006c00400080007800bd
:1025900020e52100f00d07001e0078000080fa0001
:1025a000000006000200fa008003eb000003eb00cd
:1025b0008002eb000002eb008001eb0032072000fc
:1025c00021f128006062210019fe0700000f780049
:1025d0001e007800e10f500009003a00110280004f
:1025e000000220000080700010028800100020000f
:1025f00070f388000000eb0040f38800e60a070053
:102600000080fa00000006000000fa0011028000bd
:102610000002200000807000100288000000eb0023
:1026200070f38800f30a07000080fa00000006003b
:102630000000fa0080f380000000e80080f38800ca
:102640000080fa00000006000400fa00881f7800ed
:102650000000eb00000f7800000b070080f3800003
:102660000000e90080f3880080f38000e00f500054
:102670003f003a0030f38000e00f50003c00320091
:102680000000eb00100798001c003700c0f280002b
:1026900030009000000478006c004400020e070037
:1026a0000880e800000e0700b808900060f3800082
:1026b000808f5000020036003808900060f38800d8
:1026c0000881e800380890006a00b90080007800ae
:1026d00020e1210000804000820078009e0d07006c
:1026e000b808900080f8800030089000808f50007b
:1026f00002003900100020001007980090f28000be
:10270000e00f5000e1ff3a0090f38000e00f50002e
:102710000a003200040037002e00070090f380000a
:102720000000e90090f3880090f38000e00f500073
:10273000f9ff3a0010002000100798001e009000da
:10274000e10f500003003200a0f38000e10f5000c1
:1027500007003a0010002000000f78000000eb0096
:10276000a0f38800e0330200000000000000000039
:10277000c40a07001e0078004f0478000080fa00a9
:10278000000006000200fa00b40a070040f38000cf
:10279000000f7800bb0a07001e0078000080fa00d6
:1027a000000006000400fa000000eb00000f7800b3
:1027b00040f38000100798001e0090000080fa008f
:1027c000000006000000fa0030f380000080fa00ec
:1027d000000006000600fa0080f38000e00f5000c1
:1027e00053003a0040f380000000e80040f3880006
:1027f00040f38000e00f500017003a0070f28000b4
:10280000000f780080f2800070f288009e0078004f
:1028100081f28800b0f380000000e800b0f3880087
:1028200070f2800010007800e00f500003003a00c2
:102830000080eb0090f888000700370070f28000fd
:102840003000900030009000100798001e009000ab
:102850001000900090f8880041f3800090f880000c
:10286000808f50003500390070f280001000780031
:10287000e00f500003003a000080eb0090f8880061
:102880002e00370070f28000300090003000900081
:10289000100798001e0090009000900021079800fb
:1028a00041f380002e009000808f50000300310023
:1028b0002e00900090f88800200037001e00900045
:1028c0000080e800780d07001e00900020089000ae
:1028d000e00f5000030032001e0090006c0040002a
:1028e000710d07001e009000b008900060f380009a
:1028f000808f5000030036001e00900030089000ca
:1029000060f388001e0090000081e8001e00900027
:10291000300890006a00b9008000780020e12100b2
:1029200000804000820078000b0d0700ceff3700ca
:1029300090f380000000e80090f388000080fa0027
:10294000000006000200fa0080f38000e00f500053
:102950000700320010002000a0f388002600370096
:1029600060f380000000e90060f388000100370098
:102970000000000060f380006a00b9008000780069
:1029800020e121000080400010007800e00f50009e
:10299000f3ff320060f380006a00b9008000780025
:1029a00020e12100008f40001e0078001000900000
:1029b000900090001e007800110098001e00780022
:1029c000900090001e01780064004100808f50004c
:1029d00005003a001e007800100090009000900062
:1029e0001e007800110098001e0078001000900072
:1029f0003000900080f888000080fa000000060097
:102a00000600fa00100798002107980080f880005f
:102a10006c004000800078001e009000f00c070061
:102a200080f880000080e8001f0d07002e00900055
:102a3000e10f400006003a0080f880000080e800c6
:102a400080007800c0e52100c30c070005003700b6
:102a500041f380002e009000008f40001e0078009f
:102a6000cb0007000080fa00000006000600fa0014
:102a7000200798002e009000300090003000900059
:102a8000100798001e0090006c004000060d070023
:102a900080f38000e00f500016003a001e00900006
:102aa0000080e800000d07001e009000b0089000b4
:102ab00060f38000808f5000030036001e009000fd
:102ac0003008900060f388001e0090000081e8004c
:102ad0001e009000300890006a00b9008000780065
:102ae00020e1210000804000820078009a0c07005d
:102af000050037001e0090006c0040008000780048
:102b000020e52100940c07001e009000b008900002
:102b100080f8800030089000808f5000030039005a
:102b200010002000000f7800020037000000eb00ca
:102b3000000f78001e0078000080fa0000000600f8
:102b40000200fa00000f7800b1f380001e00780048
:102b50000108780041f380001e0078001100980001
:102b60000080fa00000006000600fa001007980036
:102b700021079800b90907002e0090001000780086
:102b8000e10f400003003a000000eb00000f780066
:102b9000250037001e00900090007800b0f3800000
:102ba000808f5000080032001e00900090009000be
:102bb00040f38000808f500003003e001000200092
:102bc000000f78001800370041f380001e009000cd
:102bd00010009000808050002e00900010007800bf
:102be000808f50000e0031002e0090009000780081
:102bf0001e0090001001900040f380000000510082
:102c0000808040002e009000010878001e00900097
:102c1000cbff07000000eb00000f78000200370038
:102c200010002000000f7800960907001e007800b1
:102c30000080fa00000006000000fa0010002000ea
:102c4000a0f388000080fa00000006000200fa00ed
:102c5000000f78004b00070090f08000e10f50005b
:102c600003003600e0330200000000000000000016
:102c70000b0f0700f7ff37000a00fa00000f78007b
:102c8000110798002207980033079800440798001e
:102c90009e0078007a804000420020009e00900054
:102ca000d7f707009e0078000040eb00d05898004e
:102cb0002e009000e30f500002003600300020008c
:102cc000200798001e007800ae00900031089800a0
:102cd0001e80e800190c07009e0078006c80400000
:102ce000160c07001e0078009e0078004100980036
:102cf0002e009000e40010001e0078006100980093
:102d00001e0078009e007800110898000080fa00ec
:102d1000000006000200fa000000eb00000f78003f
:102d2000070037001e0078006a00b90080007800b4
:102d300020e1210000804000e70b07001e0fe800a3
:102d40001e007800e30f5000f6ff3600a0e32100dc
:102d5000e10b070040e42100df0b070020e5210024
:102d6000dd0b0700c0e52100db0b0700a0e321001d
:102d700070f2880040e4210080f288000080fa00b0
:102d8000000006000000fa000080fa0000000600c3
:102d90000200fa00000f780080f880009e007800a2
:102da0001100980040f380009e007800808f500052
:102db0000500310080f880008080e80080f280000b
:102dc000070c07000a00370080f880008080e800c8
:102dd00070f28000020c070090f880009e007800de
:102de000808f5000020031001e00780090f88800ab
:102df0000080fa00000006000600fa0010079800a4
:102e00002107980000022000030e0700000f780041
:102e10001e007800e00f50001b0032002e009000d2
:102e2000e00f500004003a001e0090000000400037
:102e3000f90d0700010037002e0090009e00780079
:102e4000c00898001e00780040089000e00f500075
:102e500005003a001e007800150e07000000eb0088
:102e6000000f7800080037001e00900000004000ae
:102e7000800078001e007800400890000101780072
:102e8000510a200047f707001e0078000080fa0072
:102e9000000006000400fa00000f780011079800f7
:102ea000ee0807001e007800100178001e00780070
:102eb000f00890001e007800001090000088b90013
:102ec00000007800800041001e007800110098008a
:102ed0001e0078008000eb00610898001e0078005a
:102ee000900078001e007800210098001e007800f5
:102ef000100178001e007800700890008000e90042
:102f00001e007800001090000088b90000007800d2
:102f1000800041001e007800310098001e007800fb
:102f20008080eb00111098001e0078008080eb007c
:102f3000211098001e009000e00f50000d003a0094
:102f40001e00780040009000e00f50000f0032009b
:102f50009e00780068804000c4fe0700e10f50002a
:102f60000a003a00e0330200000000000000000008
:102f7000060037009e00780068804000560b07006e
:102f80009e00780072804000530b0700bd080700c8
:102f9000100020000080fa00000006000c00fa007b
:102fa0003007980041079800224f98000000eb007e
:102fb000000f78003e009000e00f50002300320028
:102fc00060022000940d0700100798001e0090007a
:102fd000e00f50001d003200be0090004e00900037
:102fe0000088b900000078000000e8002007980081
:102ff0002e009000880d0700800078001e009000d1
:10300000010878001e00900010007800e00f5000ca
:103010000c0032001e009000be0090007108980065
:103020001e009000ce0090000110980011002000ba
:103030001e00900097ff07001e009000000f780010
:10304000020037001e009000990d07001e00780056
:103050000080fa00000006000e00fa003007980019
:103060004107980052079800630798000000eb00a2
:10307000000f78000100370000000000770807000b
:103080003e009000e00890003e0090007008900024
:10309000808f5000130031006e019000ce00900030
:1030a0003e009000480107003e009000100890008c
:1030b000e00f5000080032003e0090007200400017
:1030c0006afe0700e10f500003003a00e0330200ff
:1030d00000000000000000006a0807001000200047
:1030e0003d0037005e009000e00f500003003a0002
:1030f000640807000000eb00370037001e0078006e
:10310000e00f500004003a000e80e8008cfe07003b
:1031100010002000000f78005a08070044fd070047
:103120004e0807003e00900010109000e10f400094
:1031300003003a003e0090008000eb001110980060
:103140003e00900020109000e10f400003003a0084
:103150003e0090008000eb00211098004908070015
:10316000ea0047000e80e8007ffe0700e00f5000f5
:1031700015003a003e009000d1010700e00f50001a
:103180000d003200de0090003e009000680040001c
:103190001bfe07003e009000750107002afd070096
:1031a000e00f5000b4ff3a00e033020000000000de
:1031b00000000000b1ff37003e0090006c010700e6
:1031c00021fd0700adff37003e00900068010700b9
:1031d0001dfd07000000eb000080fa000000060063
:1031e0000c00fa0020079800310798004207980069
:1031f000530798000000eb00100798002e00900085
:10320000e00890002e00900070089000808f500021
:10321000200031005e019000be0090002e00900062
:10322000e90007002e00900020109000e10f400000
:1032300010003a002e00900010089000e00f50009f
:10324000110032002e0090007200400007fe0700bf
:10325000e00f50000c0032004e009000e00f5000d4
:10326000090032004e009000110020000108780093
:10327000050037002e009000201090008000e8002c
:103280002e0090002110980010002000000f780000
:10329000020037000000eb00000f78001e007800ed
:1032a0000080fa00000006001000fa0040079800b5
:1032b0005107980062079800730798000000eb0020
:1032c000000f78000100370000000000e30707004e
:1032d0004e00900060089000e00f50002d0032007a
:1032e0004e009000b000900011079800de009000a2
:1032f0004e009000fc0007007e009000e00f5000a0
:1033000012003a004e009000600890008000e90032
:103310004e009000610898004e0090004000900020
:10332000e00f5000180032004e009000680040008e
:10333000cefd0700e10f500013003a00e033020019
:1033400000000000000000000f0037004e00900059
:103350009e009000310098004e00900010089000f0
:10336000e00f5000080032004e0090007200400054
:10337000befd0700e00f500003003200e033020002
:103380000000000000000000be0707001000200041
:103390003d0037006e009000e00f500003003a003f
:1033a000b80707000000eb00370037001e00780068
:1033b000e00f500004003a0064004700e0fd070001
:1033c00010002000000f7800ae07070098fc0700ef
:1033d000a20707004e00900010109000e10f40007f
:1033e00003003a004e0090008000eb00111098009e
:1033f0004e00900020109000e10f400003003a00c2
:103400004e0090008000eb00211098009d070700ff
:10341000ec00470064004700d3fd0700e00f5000b8
:1034200015003a004e0090000b010700e00f50001d
:103430000d003200ee0090004e009000720040003f
:103440006ffd07004e009000c90007007efc0700da
:10345000e00f50009cff3a00e03302000000000043
:103460000000000099ff37004e009000c0000700e8
:1034700075fc070095ff37004e009000bc00070068
:1034800071fc07000000eb000080fa00000006005d
:103490000a00fa00200798003107980042079800b8
:1034a0000000eb00100798002e00900060089000cc
:1034b000e00f500024003200be0090002e0090006b
:1034c000890007002e009000600890008000e9004d
:1034d0002e009000610898002e00900010109000bf
:1034e000e10f400010003a002e00900040009000d4
:1034f000e00f5000110032002e00900068004000e4
:103500005afd0700e00f50000c0032004e00900002
:10351000e00f5000090032004e0090001100200022
:1035200001087800050037002e0090001010900070
:103530008000e8002e00900011109800100020007c
:10354000000f7800020037000000eb00000f780049
:103550001e0078000080fa00000006000400fa0057
:10356000100798003d0707001e009000e00890003b
:10357000010f7800430707001e0078000080fa0062
:10358000000006000400fa00100798001e009000da
:10359000e0089000010f78001e0078000080fa001b
:1035a000000006000200fa00000f78001e007800fc
:1035b000100078003e0c07001e0078003c0c07004d
:1035c0000080fa00000006000600fa00000f7800f4
:1035d00011079800220798001e0078000010900044
:1035e000e00f5000390032002e009000e00f500034
:1035f00019003a001e007800801090001e0078002c
:1036000020009000010178009e0090005df5070009
:103610001e007800a00090001e00780000109000ae
:10362000808040001e007800210098001e00780075
:10363000a00090001e00780010009000808f5000c5
:10364000220039001e007800900078001e007800eb
:10365000210098001d0037001e00780080109000a7
:103660001e00780030009000010178009e0090005c
:1036700044f507001e007800b00090001e0078009e
:10368000001090000000ea00808040001e007800da
:10369000310098001e007800b00090001e007800f5
:1036a00010007800808f5000080031001e00780064
:1036b000900090001e007800001090000000ea00ca
:1036c000808040001e007800310098001e007800c5
:1036d000600890008000e8001e00780061089800f3
:1036e0000080fa00000006000400fa00000f7800d5
:1036f000110798001e00780010007800e00f5000bd
:10370000190032001e007800b00090001e00780002
:1037100000109000808040001e007800310098006a
:103720001e007800b00090001e007800100090008d
:10373000808f5000040039001e007800900078004f
:103740001e007800310098001e0078008010900064
:103750001e007800300090000101780080007800a1
:103760001e00900007f507000080fa000000060028
:103770000200fa00000f7800b80607000f003700bb
:103780001e00780010089000e00f5000100032007a
:103790009e00780072804000b4fc0700e00f5000eb
:1037a0000100320024fd07001e0078002010900068
:1037b0008000e9001e007800211098001e007800ab
:1037c00020109000e00f5000edff3c00010037009a
:1037d000000000001e0078008080eb00211098009f
:1037e000a80607009d0607000f0037001e0078009e
:1037f00040009000e00f5000100032009e00780062
:103800006880400099fc0700e00f50000100320082
:1038100009fd07001e007800101090008000e900ec
:103820001e007800111098001e0078001010900003
:10383000e00f5000edff3c000100370000000000e9
:103840001e0078008080eb00111098008d060700a4
:103850000080fa00000006000400fa00100798003b
:103860007e0607001e009000e00890001000200077
:10387000e08f5000010032000000eb00000f7800e4
:10388000800607001e0078000080fa000000060095
:103890000400fa00100798001e009000e008900055
:1038a00010002000e08f5000010032000000eb000b
:1038b000000f78001e0078000080fa00000006006b
:1038c0000400fa0010079800640607001e0090002c
:1038d000600990001e009000f00890001000200089
:1038e000810f5100010032000000eb00000f780052
:1038f000640607001e0078000080fa000000060041
:103900000400fa00100798001e0090006009900063
:103910001e009000f008900010002000810f510060
:10392000010032000000eb00000f78001e0078005c
:103930000080fa00000006000800fa001007980056
:103940002107980032079800110280000002200031
:1039500000807000100288001e009000d8ff070051
:10396000e00f5000140032003e009000e00f5000c5
:103970000b0032001e0090006800400080007800bc
:103980003e009000c102070011028000f0fd2f00f0
:103990000080600010028800c0ff2f002e0037005a
:1039a00011028000f0fd2f000080600010028800ee
:1039b0000000eb002800370011028000f0fd2f000e
:1039c00000806000100288000000000011028000ea
:1039d0000002200000807000100288001e0090008d
:1039e000e00890001e00900070089000808f50004a
:1039f000120031000001eb00ae0090001e009000ac
:103a0000f1fe070010002000000f78001e0090005b
:103a100010089000e00f50000a0032001e009000d5
:103a20007200400086030700e00f500005003200de
:103a3000b0ff2f00000f7800020037000000eb00fd
:103a4000000f780011028000f0fd2f000080600060
:103a5000100288001e0078000080fa0000000600b6
:103a60000800fa0010079800210798003207980014
:103a70001102800000022000008070001002880007
:103a80001e00900060089000e00f500014003a0003
:103a90003e009000e00f50000b0032001e0090002e
:103aa00072004000800078003e009000770207001e
:103ab00011028000f0fd2f000080600010028800dd
:103ac000c0ff2f004600370011028000f0fd2f00dc
:103ad00000806000100288000000eb00400037000a
:103ae00011028000f0fd2f000080600010028800ad
:103af0000000000011028000000220000080700021
:103b0000100288001e00900060089000e00f500036
:103b10002c0032001e009000b00090001e009000ab
:103b200000109000808040001e009000310098003e
:103b30001e009000b00090001e0090001000900049
:103b4000808f5000040039001e0090009000780023
:103b50001e009000310098001e0090006008900048
:103b60008000e9001e009000610898001e0090008f
:103b7000801090001e00900030009000010178003d
:103b8000800078002e009000fef307001000200057
:103b9000000f78001e00900040009000e00f5000e1
:103ba0000a0032001e009000680040002403070055
:103bb000e00f500005003200b0ff2f00000f78002a
:103bc000020037000000eb00000f780011028000b7
:103bd000f0fd2f0000806000100288001e007800b9
:103be0000080fa00000006000600fa00000f7800ce
:103bf00011079800220798001e007800e008900046
:103c00001e00780070089000808f50001200310074
:103c10000001eb009e0090001e0078006afe070085
:103c20002e009000e00f50000b003a001e007800bc
:103c300010089000e00f5000070032009e0078004e
:103c400072804000fe020700e00f500002003200c8
:103c500010002000010037002e0090000080fa00c4
:103c6000000006000800fa001007980021079800dd
:103c7000320798001e00900060089000e00f50008e
:103c8000310032001e009000b00090001e00900035
:103c900000109000808040001e00900031009800cd
:103ca0001e009000b00090001e00900010009000d8
:103cb000808f5000040039001e00900090007800b2
:103cc0001e009000310098001e00900060089000d7
:103cd0008000e9001e009000610898001e0090001e
:103ce000801090001e0090003000900001017800cc
:103cf000800078002e009000a2f307003e009000a4
:103d000010007800e00f50000c003a001e009000f8
:103d100040009000e00f5000080032001e009000ac
:103d200068004000c6020700e00f500003003200a8
:103d30003e009000110020000108780010002000d3
:103d4000000f7800020037000000eb00000f780041
:103d50001e0078000080fa00000006000000fa0053
:103d60000041eb0021002000500020008bfc0700e8
:103d7000a0f788008003eb000003eb008002eb005b
:103d8000140020008001eb003207200001ef280022
:103d900020ee210026f807008003eb000003eb0073
:103da00065ef21000002eb008001eb0032072000ec
:103db00071ef2800a00e22001df807000080fa0015
:103dc000000006000c00fa00500798000000eb000d
:103dd00030079800220037003e009000a10020002c
:103de0000008dd00000f780066fa07001007980051
:103df000a0f78000e80047008001eb001e0178007a
:103e000029fd0700e00f50000200320010002000e2
:103e1000e0f788005bfa07009e0090000100500068
:103e2000200798002e0090009e0f500002003100e5
:103e300010002000e0f788001e007800ef0040002e
:103e40002e009000808f50000200310010002000f2
:103e5000e0f788003e0090000000e800300798007e
:103e60003e009000e40f5000dbff34000000eb0048
:103e7000300798000c003700a0f78000e6004700ec
:103e80008001eb000001eb0073fc0700e10f500024
:103e90000200320010002000e0f788003e00900091
:103ea0000000e800300798003e009000e40f50004a
:103eb000f1ff34000000eb003007980022003700cb
:103ec0003e009000a10020000008dd00000f7800f7
:103ed0002cfa070010079800a0f78000e6004700c2
:103ee0008001eb001e0178005bfc0700e00f500032
:103ef0000200320010002000e0f7880021fa0700dd
:103f00009e00900001005000200798002e009000b5
:103f10009e0f50000200310010002000e0f78800e2
:103f20001e007800ef0040002e009000808f5000af
:103f30000200310010002000e0f788003e009000f1
:103f40000000e800300798003e009000e40f5000a9
:103f5000dbff34000000eb00f0f78800b0f78000d2
:103f60002bf90700020037004001200066f8070027
:103f7000f1f7800050052000808f5000faff3a00d2
:103f80004001200060f807000000eb00f0f7880017
:103f90000000eb003007980027003700a0f78000f2
:103fa000e80047008001eb000001eb00befc0700c9
:103fb000e10f50000200320010002000e0f78800fe
:103fc000a0f78000e60047008001eb000001eb0055
:103fd00021fc0700e10f5000020032001000200019
:103fe000e0f78800f1f7800050052000808f500036
:103ff00002003a0010002000e0f78800b0f78000cf
:10400000310020005bf80700f1f780005005200028
:10401000808f500002003a0010002000e0f7880076
:10402000b0f780008000eb0052f807003e009000df
:104030000000e800300798003e009000e40f5000b8
:10404000d6ff340002003700400120002ef80700a0
:10405000f1f7800050052000808f5000faff3a00f1
:104060004001200028f807000000eb00f0f788006e
:104070000000eb00300798000c003700a0f780002c
:10408000e80047008001eb000001eb0086fc070020
:10409000e10f50000200320010002000e0f788001d
:1040a0003e0090000000e800300798003e009000bd
:1040b000e40f5000f1ff3400b0f78000d4f807009f
:1040c00002003700400120000ff80700f1f78000e0
:1040d00050052000808f5000faff3a004001200078
:1040e00009f807000000eb00f0f788000000eb0083
:1040f0003007980027003700a0f78000e60047004f
:104100008001eb000001eb00d3fb0700e10f500042
:104110000200320010002000e0f78800a0f78000c5
:10412000e80047008001eb000001eb005efc0700a7
:10413000e10f50000200320010002000e0f788007c
:10414000f1f7800050052000808f500002003a00f7
:1041500010002000e0f78800b0f780003100200058
:1041600004f80700f1f7800050052000808f500010
:1041700002003a0010002000e0f78800b0f780004d
:104180008000eb00fbf707003e0090000000e80015
:10419000300798003e009000e40f5000d6ff340036
:1041a0000200370040012000d7f70700f1f7800038
:1041b00050052000808f5000faff3a004001200097
:1041c000d1f70700c0f780000000e800c0f78800c2
:1041d000fefe37000800fa00300798000000eb00f0
:1041e00040f8070067f90700000f78000000eb00b7
:1041f0002007980050052000f0f78800a0f7800005
:10420000e40047008001eb00f20a200092fb070067
:10421000e00f50000200320010002000e0f788009c
:1042200058f907001e005000100798009e009000eb
:10423000e00a2000808f500002003e0010002000a5
:10424000e0f788009e009000e00b2000808f500077
:104250000200360010002000e0f788005005200022
:10426000f0f788000000eb001ef8070045f9070092
:10427000000f780050052000f0f78800a0f78000bc
:10428000e40047008001eb00f20a200006fc070072
:10429000e00f50000200320010002000e0f788001c
:1042a00038f907001e005000100798009e0090008b
:1042b000e00a2000808f500002003e001000200025
:1042c000e0f788009e009000e00b2000808f5000f7
:1042d0000200360010002000e0f7880050052000a2
:1042e000f0f78800d0f780000000e800d0f78800e1
:1042f000baff37000200fa0010002000000f78001b
:10430000c1f7800000f88000808f500002003a0062
:104310000000eb00000f7800d1f7800010f880005b
:10432000808f500002003a000000eb00000f780080
:10433000e0f78000e10f500002003a000000eb00bf
:10434000000f7800d0f7800010f88800c0f78000d8
:1043500000f888001e0078000080fa0000000600c7
:104360000a00fa00200798003107980042079800d9
:10437000c0012000a8080700100798001e00900048
:10438000e00f50003c003200e0f88000e00f5000e9
:1043900003003a001e009000e0f888000e010700bc
:1043a0003e009000e10f5000020036001000200097
:1043b000300798001e0090008000eb005108980024
:1043c0001e009000be009000310898001e00900072
:1043d000ce009000410898001e009000ae009000b2
:1043e000010878001e0090000080e80053060700d6
:1043f0001e0090006c004000500607001e00900058
:104400009e009000410098001e0090009e009000c9
:10441000110898003e009000e40010001e0090007b
:10442000610098001e009000b008900080f58000a8
:10443000808f5000030036001e009000300890006e
:1044400080f588001e0090000081e8001e009000aa
:10445000300890006a00b90080007800a0e72100d1
:1044600000804000820078003b060700100020001a
:10447000000f7800020037000080eb00000f78008a
:104480001e0078000080fa00000006000600fa0016
:10449000100798002107980091f580001e009000f9
:1044a000008f4000e0f880000080e8007e060700f2
:1044b000e0f880009e0078001100980090f58000e0
:1044c0009e007800808f500005003100e0f88000e9
:1044d0008080e80020f580004106070004003700d6
:1044e000e0f880008080e80010f580003c060700be
:1044f0002e009000e00f500005003200e0f8800030
:104500006c004000800078002e0090003406070008
:104510000080fa00000006000200fa0021003700c7
:10452000110280000002200000807000100288004c
:1045300060f5800030009000000f78009e00780049
:104540006c8040005806070011028000f0fd2f002b
:1045500000806000100288001e80e80052060700fc
:104560001e007800b008900080f58000808f500019
:10457000030036001e0078003008900080f58800a7
:104580001e81e8001e007800300890006a00b90023
:1045900080007800a0e721000080400082007800c1
:1045a000ed05070030f58000e00f5000dcff3a0019
:1045b0000080fa00000006000400fa0071f807000d
:1045c000a1f5800001005000b0f5880045003700db
:1045d00090f580000000e80090f58800b0f58000bc
:1045e0000000e900b0f5880090f58000e00f500071
:1045f00035003a0010f58000000f780020f58000ab
:1046000010f588001e00780020f588002f00370084
:1046100010f58000300090003000900010079800e6
:104620001e0090009000900090f58000808f500058
:104630002b003e001102800000022000008070006c
:10464000100288001e0090000080e8001606070097
:104650001e00900020089000e00f50000300320080
:104660001e0090006c0040000f0607001102800041
:10467000f0fd2f0000806000100288001e009000f6
:10468000b008900080f58000808f50000300360055
:104690001e0090003008900080f588001e009000f9
:1046a0000081e8001e009000300890006a00b90008
:1046b00080007800a0e721000080400082007800a0
:1046c000a5050700010037000000000010f580007c
:1046d00010007800e00f5000cdff3a0001003700d5
:1046e00000000000b0f58000e00f5000b8ff3a0075
:1046f00090f58000a0f588000080fa000000060018
:104700000200fa0084ff0700abff07000600370035
:1047100080f58000e00f50002c00320080f5800012
:104720000000e90080f5880080f580006a00b9008b
:1047300080007800a0e72100008040001000780091
:10474000e00f5000f2ff320080f580006a00b900ef
:1047500080007800a0e72100008f40001e00780054
:1047600010009000900090001e007800110098004a
:104770001e007800900090001e0178006400410047
:10478000808f500005003a001e0078001000900055
:10479000900090001e007800110098001e00780024
:1047a0001000900030009000e0f88800e0f88000f1
:1047b00010017800e0f88000c0089000e0f8800068
:1047c00002000100000000000100370000000000ae
:1047d0000080fa00000006000200fa000000eb0072
:1047e000000f7800070037001e0078006a00b9004b
:1047f00080007800a0e72100008040003605070017
:104800001e0fe8001e007800e10f5000f6ff360092
:10481000e0e821003005070080e921002e050700af
:1048200060ea21002c050700e0e8210010f588006f
:1048300080e9210020f588000080fa0000000600d1
:104840000600fa00200798002e009000300090002b
:1048500030009000100798001e0090006c0040008f
:10486000910507001e0090006c0040008000780059
:1048700060ea2100380507001e009000b008900093
:10488000e0f8800030089000808f5000030039006d
:1048900010002000000f7800020037000000eb003d
:1048a000000f78001e0078000080fa00000006006b
:1048b0001600fa00200f980010002000000f78006a
:1048c0005000200010079800803e2000200798002c
:1048d0000000eb0030079800600020004e07070042
:1048e000400798000041eb00210020001e007800e6
:1048f000aaf90700ce009000800878004e009000d2
:10490000ae009000110098004e009000c1ed210013
:1049100021009800600020003f0707005007980022
:104920004e009000900078005e0090000108780032
:104930005e009000be009000110098005e009000a4
:1049400021ee2100210098008003eb000003eb0022
:104950008002eb002e0a9000ce019000320720006a
:10496000c1e32800405c220031f507008003eb0022
:104970000003eb008002eb000002eb00de01900080
:104980003207200041e428004058220028f50700a3
:104990006000200020070700600798000041eb003e
:1049a000210020001e0078007cf90700ee00900036
:1049b000800878006e009000be0090001100980002
:1049c0006e00900041ee2100210098006000200060
:1049d00011070700700798006e00900090007800a3
:1049e0007e009000010878007e009000ae009000ec
:1049f000110098007e009000e1ed21002100980058
:104a00008003eb000003eb008002eb000002eb00f0
:104a1000ee01900032072000c1e42800405c220033
:104a200003f507008003eb000003eb008002eb00be
:104a30002e0a9000fe0190003207200041e5280078
:104a400040582200faf4070060002000f206070038
:104a5000000f98000041eb00210020001e00900094
:104a60004ef907008e089000800878000e0890002c
:104a7000ae009000110098000e08900061ee210039
:104a80002100980060002000e3060700100f980046
:104a90000e089000900078001e0890000108780031
:104aa0001e089000ae009000110098001e089000b3
:104ab00001ee2100210098008003eb000003eb00d1
:104ac0008002eb000002eb008e099000320720000c
:104ad000c1e5280040582200d5f407008003eb0010
:104ae0000003eb008002eb000002eb009e09900047
:104af0003207200041e62800405c2200ccf4070089
:104b00000080fa00000006000800fa003007980054
:104b10000000eb00200798000000eb00000f780079
:104b20003e009000100798001e00900010019000b9
:104b30001e00900010007800e40047008001eb00a8
:104b400045f90700e10f500003003200100020007b
:104b5000000f7800f4ff37001e007800e00f5000cf
:104b600005003a001e0090002000900090007800a0
:104b70008100e800010878002e0090000000e800a5
:104b800020079800e8ff37000a00fa004007980065
:104b90000000eb00000f78000000eb001007980009
:104ba0004e00900020079800010037000000000030
:104bb0002e009000100190002e0090001000780050
:104bc000e60047008001eb00b7f90700e10f500055
:104bd000f6ff3a003e0090009e0f500005003200a4
:104be0003e009000000f7800100020001007980091
:104bf000efff37001e009000e00f500005003a0064
:104c00002e00900020009000900078008100e800c5
:104c1000010878001e0fe800e5ff37000400fa00e5
:104c200010002000000f78000000eb001007980033
:104c3000330037001e00900080004000c0ed2100ce
:104c400000804000900078001e00900000014000ad
:104c500080ee21000000410010007800808f50009d
:104c600002003a000000eb00000f78001e009000e8
:104c700080004000c0ed21000080400090007800de
:104c80001e0090000001400080ee21000000410065
:104c9000010878001e0090008000400020ee2100f6
:104ca00000804000900078001e009000000140004d
:104cb000e0ee21000000410010007800808f5000dd
:104cc00002003a000000eb00000f78001e00900088
:104cd0008000400020ee210000804000900078001d
:104ce0001e00900000014000e0ee210000004100a5
:104cf000010878001e0090000000e80010079800ee
:104d00001e009000e20f5000caff34001e00780021
:104d10000080fa00000006000800fa001007980062
:104d200021079800320798000041eb001100200095
:104d30003e00900099f8070020f888000041eb0041
:104d4000110020003e00900094f8070030f8880021
:104d50003062a9003002a9008111800090ff2f006d
:104d600000806000801188003082a90030a2a90074
:104d700030c2a90030e2a90081118000f0cf2f00dd
:104d800000806000801188003182a90031a2a90052
:104d900031e2a8001e009000ae009000c2ee0700b5
:104da000020020000318240032ef07000001be00bb
:104db0000040220041a724004fee0700020020001f
:104dc00003f02300eeed07009cee070000007800e2
:104dd000c011880091118000f0f32f000080600066
:104de000901188003342a80033c2a90033a2a90061
:104df00033e2a90011028000000220000080700050
:104e00001002880087c0a90087e0a90091058000f2
:104e1000f08f2f0080806000001020000080700064
:104e20009005880091058000f0ff280080806000d8
:104e300000002100008070009005880097e0a80025
:104e400097c0a80002003700b0118000004f780022
:104e50009011800061006000e00f5000faff3a00fe
:104e60001000200040f888000000eb000080fa00ed
:104e7000000006000600fa00000f780011079800f5
:104e80002207980020f880008001eb002e0190009e
:104e90009e00900004f90700e00f5000020032006d
:104ea00010002000010037000000eb000080fa0035
:104eb000000006000600fa00000f78002147980065
:104ec0002207980030f880008e80e8008001eb0017
:104ed0002e01900060f80700e10f50000200320040
:104ee0000000eb000700370040f88000e00f5000a2
:104ef000030032000000eb0040f8880087e0a800c3
:104f0000100020000080fa00000006000200fa00f5
:104f1000000f78000080fa00000006003600f8005c
:104f2000809fbe00829fbe00849fbe00869fbe0001
:104f30003400f80000002000a00188000400fa00fe
:104f40000000eb001007980087c0a9000900370097
:104f5000b011800000407800004f780020f88000f9
:104f60008e80e8008001eb00010178008e0078005f
:104f70009bf807009011800061006000e00f500076
:104f8000f3ff3a001e009000e00f500003003200d3
:104f9000e033020000000000000000000080fa0082
:104fa0003400f9004f03be004f02be004f01be00a7
:104fb0004f00be003600f900004006003600f80041
:104fc000809fbe00829fbe00849fbe00869fbe0061
:104fd0003400f80000002000a00188000400fa005e
:104fe0000000eb001007980087e0a9000e003700d2
:104ff00030f880008e80e800010178008e00780093
:1050000023f90700e10f500004003a001e40780029
:105010000000fb00a01188000300370010002000f2
:1050200040f8880005003700911180000020200022
:1050300000806000e00f5000edff32001e00900085
:10504000e00f500003003200e033020000000000d7
:10505000000000000080fa003400f9004f03be0099
:105060004f02be004f01be004f00be003600f900e7
:10507000004006002a00fa00201798003117980017
:10508000421798006400470021e928000f0009003a
:10509000311878000002b1003e109000100798000f
:1050a0002e1090009e009000010878002e109000b5
:1050b0000080e800201798002e1090008000eb0080
:1050c000010878002e1090000080e800201798005a
:1050d0002e1090008000eb00010878002e10900048
:1050e0000080e80020179800ce1090002e1090004d
:1050f000010878002e1090000080e800201798002a
:105100000000eb00000f78000a003700e4004700c1
:105110001e00780000004000e10078002e10900092
:10512000010878002e1090000080e80020179800f9
:105130001e0fe8001e007800ef0f5000f3ff36004e
:10514000210280002e109000010878002e1090009f
:105150000080e8002017980034c0bf008080fb006a
:105160002e109000010878002e1090000080e800ba
:10517000201798002e1090008000eb0001087800a6
:105180002e1090000080e800201798002e1090004c
:105190000080fa00000006000000fa001800070076
:1051a00080f88000900778004f007800f0f88800c1
:1051b0003400f9004400f9003200f9003600f9002b
:1051c0004f0778004f06be004f05be004f04be00db
:1051d0004f03be004f02be004f01be004f00be0095
:1051e0004200f90000000600100020000080fa00d4
:1051f000000006000000fa000080fa00000006002f
:105200000400fa00301f200001002000008fbe00c3
:105210000000eb00200888000000eb000008880078
:105220001e0078001008880021058000f0ff28008b
:105230008080600000002100008070002005880050
:105240008460a9009460a8000481a80004a1a900ba
:1052500005e1a8000080fa00000006000000fa0046
:1052600011028000000220000080700010028800ff
:10527000f0f880000000e800f0f888000080fa00f4
:10528000000006000000fa00f0f880000000e900cd
:10529000f0f88800f0f88000e00f500004003a00b9
:1052a00011028000f0fd2f000080600010028800d5
:1052b0000080fa00000006003600f800809fbe0063
:1052c000829fbe00849fbe00869fbe003400f8000f
:1052d00000002000a00188000000fa008460a900fe
:1052e0003cf50700e0330200000000000000000071
:1052f0000080fa003400f9004f03be004f02be00e8
:105300004f01be004f00be003600f900004006000d
:020000040000fa
:105310007a1e00003e000000000000001c1f00007c
:105320000200000002000000000000005008000021
:1053300002140000000000001e1f00000200000018
:1053400002000000ef000000101f00000400000039
:10535000020000000000ff00ff000000121e00001d
:105360006800000000000000b81e000024000000db
:1053700000000000141f00000400000002000000f4
:105380000000ba001e000000201f00000200000004
:1053900000000000041f00000600000000000000e4
:1053a000221f0000020000000200000000000000b8
:1053b000181f00000400000000000000dc1e0000b8
:1053c0001800000000000000f41e000010000000a3
:1053d000000000000a1f000006000000000000009e
:1053e000241f00000200000000000000261f000033
:1053f000020000000200000001000000281f000061
:1054000002000000000000006e1d0000a40000006b
:1054100000000000521c00001c0100000000000001
:10542000f01f00001800000002000000286e750048
:105430006c6c2900003031003233340035363700cf
:105440003839610062636400656600002a1f00004d
:10545000a0000000020000000100000000000000a9
:1054600000000a00000000000000000000640000ce
:105470000000000000000000e80300000000000041
:1054800000001000270000000000000000a08600bf
:10549000010000000000000040420f00000000007a
:1054a0000000800096980000000000000000e1006d
:1054b000f50500000000000000ca9a003b00000053
:1054c00000000000e40b5400020000000000e800af
:1054d00076481700000000000010a500d4e8000086
:1054e00000000000a0724e001809000000004000fb
:1054f0007a10f3005a0000000080c600a47e8d00e0
:105500000300000000c16f00f286230000000000cd
:105510008a5d78004563010000006400a7b3b6000f
:10552000e00d000000e889000423c7008a000000a5
:10553000082000000600000000000000ca1f000054
:1055400026000000020000000920000000092000e1
:1055500009000000000200000b200000000b2000ea
:105560000e0201000000000000000000000000002a
:105570000602020000000000ca1f00000e2000000a
:105580000200000002000000010000000000000016
:020000040000fa
:105590000400fa00100798001e009000e80f500069
:1055a0000200360080002000100798000041eb0048
:1055b000210020001000200078f6070020f9880064
:1055c00020f98000e00f5000100032000000eb00d6
:1055d000000f7800050037001e0178008000eb0006
:1055e000a0b022005efb07001e0fe8001e00900026
:1055f0009e007800808f5000f7ff39000001eb001b
:105600001100200080b9220055fb07000080fa003d
:10561000000006000600fa00100798002107980015
:105620001e00900050089000c1172000810f50000c
:1056300019003200c1172000810f500003003e0006
:10564000e00f50000800320037003700d11720006b
:10565000810f50001c00320001192000810f500002
:1056600031003a000000000020f98000e40047000b
:105670000001eb00b0f80700000f78001e00780072
:10568000e40f400009003a001e009000c1172000fe
:10569000510898002400370020f98000e4004700fa
:1056a0000001eb00a4f80700000f78001e0078004e
:1056b000e50f400006003a001e009000d1172000c0
:1056c000510898001800370010002000000f7800e3
:1056d0001e007800e10f5000020032000000eb00d5
:1056e00030f988002e0090008000400000ee280075
:1056f0000080400010007800e00f500007003200ea
:105700002e0090008000400000ee28000080400045
:10571000100078008000eb005cfb07001e0090008a
:1057200001192000510898000080fa0000000600ce
:105730000800fa0020079800310798002e0090001a
:1057400050089000c11b2000810f50001100320052
:10575000d11b2000810f50001a003200e00f5000d2
:1057600023003a0020f980008e80e8000081eb00e1
:10577000bbf80700000f78001e007800e40f40001f
:1057800009003a002e009000c11b2000510898002b
:105790001700370020f980008e80e8000001eb0040
:1057a000aff80700000f78001e007800e50f4000fa
:1057b00006003a002e009000d11b200051089800ee
:1057c0000b00370010002000000f78001e0078004a
:1057d000e10f5000030032000000eb0030f98800b8
:1057e000e0ff37001e009000df030700ddff3700f9
:1057f0000080fa00000006000000fa0030f9800086
:105800000080fa00000006000000fa0002142000e8
:1058100000582200010020003ffd07000080fa0030
:10582000000006000000fa00f7ff07008003eb000d
:105830000003eb008002eb00240020008001eb005d
:10584000320720008000eb0020d1220078f1070011
:105850000080fa00000006000200fa00004f780005
:105860000001eb009e4078000000eb0091fd070076
:105870000080fa00000006000200fa00000f780025
:10588000040037001e007800104078001e0fe8006a
:10589000f1ff07001e00780010407800e04f500034
:1058a000f8ff3a000080fa00000006000200fa004b
:1058b000000f7800c0e62800efff07001e00780008
:1058c000edff0700c0e72800ebff07000080fa00ab
:1058d000000006000600fa00204798002107980003
:1058e0000000eb00000f78002e4090000000fb004d
:1058f000eb0f50000c003c00ea0f50001b003d0075
:10590000e30f500005003c00e10f50002e003d0069
:10591000e10f40002e00320020003700e80f500059
:10592000090032001d003700fb0f50002a00320032
:10593000f1072000810f500003003200ed0f5000ee
:105940000a0032001500370080f08000e00f5000a0
:10595000230032002e409000bfff070080f080003f
:105960000000e90080f088001e003700d0c0b300be
:10597000b9ff0700a0c0b300b7ff07000000eb00ad
:1059800080f08800e1d621002e00900096ec070000
:1059900010002000000f7800120037002e40900009
:1059a000adff070081f08000e0d6210000804000bc
:1059b000ae4090000148780080f080000000e800d0
:1059c00080f0880007003700000000000500370065
:1059d0000000000003003700000000000100370055
:1059e0000000000081f0800000052000808f500042
:1059f0000400360040e828009fff07000000eb008d
:105a000080f0880081f08000e0d621008080400096
:105a10000040eb00804878001e0078000080fa000b
:105a2000000006000400fa0010079800010037008b
:105a3000000000000081eb008e0078000000eb0009
:105a40000cfd0700e00f5000f9ff32001e40780007
:105a5000f1db21009fff0700e00f50000300320040
:105a6000f0db210038020700f2ff3700e0d621000a
:105a700013000700efff37000000fa000041eb00c1
:105a8000410020003000200044f50700c0f58800e8
:105a90008003eb000003eb008002eb001400200009
:105aa0008001eb0032072000e1ec2800a0e3220097
